{
	"Contracts/ERC721.sol": {
		"CMFNFT": {
			"abi": [
				{
					"inputs": [
						{
							"internalType": "string",
							"name": "_name",
							"type": "string"
						},
						{
							"internalType": "string",
							"name": "_symbol",
							"type": "string"
						},
						{
							"internalType": "string",
							"name": "_initBaseURI",
							"type": "string"
						}
					],
					"stateMutability": "nonpayable",
					"type": "constructor"
				},
				{
					"anonymous": false,
					"inputs": [
						{
							"indexed": true,
							"internalType": "address",
							"name": "owner",
							"type": "address"
						},
						{
							"indexed": true,
							"internalType": "address",
							"name": "approved",
							"type": "address"
						},
						{
							"indexed": true,
							"internalType": "uint256",
							"name": "tokenId",
							"type": "uint256"
						}
					],
					"name": "Approval",
					"type": "event"
				},
				{
					"anonymous": false,
					"inputs": [
						{
							"indexed": true,
							"internalType": "address",
							"name": "owner",
							"type": "address"
						},
						{
							"indexed": true,
							"internalType": "address",
							"name": "operator",
							"type": "address"
						},
						{
							"indexed": false,
							"internalType": "bool",
							"name": "approved",
							"type": "bool"
						}
					],
					"name": "ApprovalForAll",
					"type": "event"
				},
				{
					"anonymous": false,
					"inputs": [
						{
							"indexed": true,
							"internalType": "address",
							"name": "previousOwner",
							"type": "address"
						},
						{
							"indexed": true,
							"internalType": "address",
							"name": "newOwner",
							"type": "address"
						}
					],
					"name": "OwnershipTransferred",
					"type": "event"
				},
				{
					"anonymous": false,
					"inputs": [
						{
							"indexed": true,
							"internalType": "address",
							"name": "from",
							"type": "address"
						},
						{
							"indexed": true,
							"internalType": "address",
							"name": "to",
							"type": "address"
						},
						{
							"indexed": true,
							"internalType": "uint256",
							"name": "tokenId",
							"type": "uint256"
						}
					],
					"name": "Transfer",
					"type": "event"
				},
				{
					"inputs": [
						{
							"internalType": "address",
							"name": "",
							"type": "address"
						}
					],
					"name": "addressMintedBalance",
					"outputs": [
						{
							"internalType": "uint256",
							"name": "",
							"type": "uint256"
						}
					],
					"stateMutability": "view",
					"type": "function"
				},
				{
					"inputs": [
						{
							"internalType": "address",
							"name": "to",
							"type": "address"
						},
						{
							"internalType": "uint256",
							"name": "tokenId",
							"type": "uint256"
						}
					],
					"name": "approve",
					"outputs": [],
					"stateMutability": "nonpayable",
					"type": "function"
				},
				{
					"inputs": [
						{
							"internalType": "address",
							"name": "owner",
							"type": "address"
						}
					],
					"name": "balanceOf",
					"outputs": [
						{
							"internalType": "uint256",
							"name": "",
							"type": "uint256"
						}
					],
					"stateMutability": "view",
					"type": "function"
				},
				{
					"inputs": [],
					"name": "baseExtension",
					"outputs": [
						{
							"internalType": "string",
							"name": "",
							"type": "string"
						}
					],
					"stateMutability": "view",
					"type": "function"
				},
				{
					"inputs": [],
					"name": "baseURI",
					"outputs": [
						{
							"internalType": "string",
							"name": "",
							"type": "string"
						}
					],
					"stateMutability": "view",
					"type": "function"
				},
				{
					"inputs": [],
					"name": "cost",
					"outputs": [
						{
							"internalType": "uint256",
							"name": "",
							"type": "uint256"
						}
					],
					"stateMutability": "view",
					"type": "function"
				},
				{
					"inputs": [
						{
							"internalType": "uint256",
							"name": "tokenId",
							"type": "uint256"
						}
					],
					"name": "getApproved",
					"outputs": [
						{
							"internalType": "address",
							"name": "",
							"type": "address"
						}
					],
					"stateMutability": "view",
					"type": "function"
				},
				{
					"inputs": [
						{
							"internalType": "address",
							"name": "owner",
							"type": "address"
						},
						{
							"internalType": "address",
							"name": "operator",
							"type": "address"
						}
					],
					"name": "isApprovedForAll",
					"outputs": [
						{
							"internalType": "bool",
							"name": "",
							"type": "bool"
						}
					],
					"stateMutability": "view",
					"type": "function"
				},
				{
					"inputs": [],
					"name": "mint",
					"outputs": [],
					"stateMutability": "nonpayable",
					"type": "function"
				},
				{
					"inputs": [],
					"name": "name",
					"outputs": [
						{
							"internalType": "string",
							"name": "",
							"type": "string"
						}
					],
					"stateMutability": "view",
					"type": "function"
				},
				{
					"inputs": [],
					"name": "owner",
					"outputs": [
						{
							"internalType": "address",
							"name": "",
							"type": "address"
						}
					],
					"stateMutability": "view",
					"type": "function"
				},
				{
					"inputs": [
						{
							"internalType": "uint256",
							"name": "tokenId",
							"type": "uint256"
						}
					],
					"name": "ownerOf",
					"outputs": [
						{
							"internalType": "address",
							"name": "",
							"type": "address"
						}
					],
					"stateMutability": "view",
					"type": "function"
				},
				{
					"inputs": [
						{
							"internalType": "bool",
							"name": "_state",
							"type": "bool"
						}
					],
					"name": "pause",
					"outputs": [],
					"stateMutability": "nonpayable",
					"type": "function"
				},
				{
					"inputs": [],
					"name": "paused",
					"outputs": [
						{
							"internalType": "bool",
							"name": "",
							"type": "bool"
						}
					],
					"stateMutability": "view",
					"type": "function"
				},
				{
					"inputs": [],
					"name": "renounceOwnership",
					"outputs": [],
					"stateMutability": "nonpayable",
					"type": "function"
				},
				{
					"inputs": [
						{
							"internalType": "address",
							"name": "from",
							"type": "address"
						},
						{
							"internalType": "address",
							"name": "to",
							"type": "address"
						},
						{
							"internalType": "uint256",
							"name": "tokenId",
							"type": "uint256"
						}
					],
					"name": "safeTransferFrom",
					"outputs": [],
					"stateMutability": "nonpayable",
					"type": "function"
				},
				{
					"inputs": [
						{
							"internalType": "address",
							"name": "from",
							"type": "address"
						},
						{
							"internalType": "address",
							"name": "to",
							"type": "address"
						},
						{
							"internalType": "uint256",
							"name": "tokenId",
							"type": "uint256"
						},
						{
							"internalType": "bytes",
							"name": "_data",
							"type": "bytes"
						}
					],
					"name": "safeTransferFrom",
					"outputs": [],
					"stateMutability": "nonpayable",
					"type": "function"
				},
				{
					"inputs": [
						{
							"internalType": "address",
							"name": "operator",
							"type": "address"
						},
						{
							"internalType": "bool",
							"name": "approved",
							"type": "bool"
						}
					],
					"name": "setApprovalForAll",
					"outputs": [],
					"stateMutability": "nonpayable",
					"type": "function"
				},
				{
					"inputs": [
						{
							"internalType": "string",
							"name": "_newBaseExtension",
							"type": "string"
						}
					],
					"name": "setBaseExtension",
					"outputs": [],
					"stateMutability": "nonpayable",
					"type": "function"
				},
				{
					"inputs": [
						{
							"internalType": "string",
							"name": "_newBaseURI",
							"type": "string"
						}
					],
					"name": "setBaseURI",
					"outputs": [],
					"stateMutability": "nonpayable",
					"type": "function"
				},
				{
					"inputs": [
						{
							"internalType": "uint256",
							"name": "_newCost",
							"type": "uint256"
						}
					],
					"name": "setCost",
					"outputs": [],
					"stateMutability": "nonpayable",
					"type": "function"
				},
				{
					"inputs": [
						{
							"internalType": "bytes4",
							"name": "interfaceId",
							"type": "bytes4"
						}
					],
					"name": "supportsInterface",
					"outputs": [
						{
							"internalType": "bool",
							"name": "",
							"type": "bool"
						}
					],
					"stateMutability": "view",
					"type": "function"
				},
				{
					"inputs": [],
					"name": "symbol",
					"outputs": [
						{
							"internalType": "string",
							"name": "",
							"type": "string"
						}
					],
					"stateMutability": "view",
					"type": "function"
				},
				{
					"inputs": [
						{
							"internalType": "uint256",
							"name": "index",
							"type": "uint256"
						}
					],
					"name": "tokenByIndex",
					"outputs": [
						{
							"internalType": "uint256",
							"name": "",
							"type": "uint256"
						}
					],
					"stateMutability": "view",
					"type": "function"
				},
				{
					"inputs": [
						{
							"internalType": "address",
							"name": "owner",
							"type": "address"
						},
						{
							"internalType": "uint256",
							"name": "index",
							"type": "uint256"
						}
					],
					"name": "tokenOfOwnerByIndex",
					"outputs": [
						{
							"internalType": "uint256",
							"name": "",
							"type": "uint256"
						}
					],
					"stateMutability": "view",
					"type": "function"
				},
				{
					"inputs": [
						{
							"internalType": "uint256",
							"name": "tokenId",
							"type": "uint256"
						}
					],
					"name": "tokenURI",
					"outputs": [
						{
							"internalType": "string",
							"name": "",
							"type": "string"
						}
					],
					"stateMutability": "view",
					"type": "function"
				},
				{
					"inputs": [],
					"name": "totalSupply",
					"outputs": [
						{
							"internalType": "uint256",
							"name": "",
							"type": "uint256"
						}
					],
					"stateMutability": "view",
					"type": "function"
				},
				{
					"inputs": [
						{
							"internalType": "address",
							"name": "from",
							"type": "address"
						},
						{
							"internalType": "address",
							"name": "to",
							"type": "address"
						},
						{
							"internalType": "uint256",
							"name": "tokenId",
							"type": "uint256"
						}
					],
					"name": "transferFrom",
					"outputs": [],
					"stateMutability": "nonpayable",
					"type": "function"
				},
				{
					"inputs": [
						{
							"internalType": "address",
							"name": "newOwner",
							"type": "address"
						}
					],
					"name": "transferOwnership",
					"outputs": [],
					"stateMutability": "nonpayable",
					"type": "function"
				},
				{
					"inputs": [
						{
							"internalType": "address",
							"name": "_owner",
							"type": "address"
						}
					],
					"name": "walletOfOwner",
					"outputs": [
						{
							"internalType": "uint256[]",
							"name": "",
							"type": "uint256[]"
						}
					],
					"stateMutability": "view",
					"type": "function"
				},
				{
					"inputs": [],
					"name": "withdraw",
					"outputs": [],
					"stateMutability": "payable",
					"type": "function"
				}
			],
			"devdoc": {
				"kind": "dev",
				"methods": {
					"approve(address,uint256)": {
						"details": "See {IERC721-approve}."
					},
					"balanceOf(address)": {
						"details": "See {IERC721-balanceOf}."
					},
					"getApproved(uint256)": {
						"details": "See {IERC721-getApproved}."
					},
					"isApprovedForAll(address,address)": {
						"details": "See {IERC721-isApprovedForAll}."
					},
					"name()": {
						"details": "See {IERC721Metadata-name}."
					},
					"ownerOf(uint256)": {
						"details": "See {IERC721-ownerOf}."
					},
					"safeTransferFrom(address,address,uint256)": {
						"details": "See {IERC721-safeTransferFrom}."
					},
					"safeTransferFrom(address,address,uint256,bytes)": {
						"details": "See {IERC721-safeTransferFrom}."
					},
					"setApprovalForAll(address,bool)": {
						"details": "See {IERC721-setApprovalForAll}."
					},
					"supportsInterface(bytes4)": {
						"details": "See {IERC165-supportsInterface}."
					},
					"symbol()": {
						"details": "See {IERC721Metadata-symbol}."
					},
					"tokenByIndex(uint256)": {
						"details": "See {IERC721Enumerable-tokenByIndex}."
					},
					"tokenOfOwnerByIndex(address,uint256)": {
						"details": "See {IERC721Enumerable-tokenOfOwnerByIndex}."
					},
					"tokenURI(uint256)": {
						"details": "See {IERC721Metadata-tokenURI}."
					},
					"totalSupply()": {
						"details": "See {IERC721Enumerable-totalSupply}."
					},
					"transferFrom(address,address,uint256)": {
						"details": "See {IERC721-transferFrom}."
					}
				},
				"version": 1
			},
			"evm": {
				"assembly": "    /* \"Contracts/ERC721.sol\":24643:24680  string public baseExtension = \".json\" */\n  0xc0\n    /* \"Contracts/ERC721.sol\":24535:26931  contract CMFNFT is ERC721Enumerable, Ownable {... */\n  0x40\n    /* \"Contracts/ERC721.sol\":24643:24680  string public baseExtension = \".json\" */\n  mstore\n  0x05\n    /* \"Contracts/ERC721.sol\":24535:26931  contract CMFNFT is ERC721Enumerable, Ownable {... */\n  0x80\n    /* \"Contracts/ERC721.sol\":24643:24680  string public baseExtension = \".json\" */\n  dup2\n  swap1\n  mstore\n  shl(0xd9, 0x173539b7b7)\n  0xa0\n  swap1\n  dup2\n  mstore\n  tag_1\n  swap2\n  0x0c\n  swap2\n  swap1\n  tag_2\n  jump\t// in\ntag_1:\n  pop\n    /* \"Contracts/ERC721.sol\":24707:24711  0.00 */\n  0x00\n    /* \"Contracts/ERC721.sol\":24685:24711  uint256 public cost = 0.00 */\n  0x0d\n  sstore\n    /* \"Contracts/ERC721.sol\":24740:24741  1 */\n  0x01\n    /* \"Contracts/ERC721.sol\":24718:24741  uint256 _mintAmount = 1 */\n  0x0e\n  sstore\n    /* \"Contracts/ERC721.sol\":24746:24772  bool public paused = false */\n  0x0f\n  dup1\n  sload\n  not(0xff)\n  and\n  swap1\n  sstore\n    /* \"Contracts/ERC721.sol\":24839:25007  constructor(... */\n  callvalue\n  dup1\n  iszero\n  tag_3\n  jumpi\n  0x00\n  dup1\n  revert\ntag_3:\n  pop\n  mload(0x40)\n  sub(codesize, bytecodeSize)\n  dup1\n  bytecodeSize\n  dup4\n  codecopy\n  dup2\n  add\n  0x40\n  dup2\n  swap1\n  mstore\n  tag_4\n  swap2\n  tag_5\n  jump\t// in\ntag_4:\n    /* \"Contracts/ERC721.sol\":10415:10428  _name = name_ */\n  dup3\n  mload\n    /* \"Contracts/ERC721.sol\":24952:24957  _name */\n  dup4\n  swap1\n    /* \"Contracts/ERC721.sol\":24959:24966  _symbol */\n  dup4\n  swap1\n    /* \"Contracts/ERC721.sol\":10415:10428  _name = name_ */\n  tag_10\n  swap1\n    /* \"Contracts/ERC721.sol\":10415:10420  _name */\n  0x00\n  swap1\n    /* \"Contracts/ERC721.sol\":10415:10428  _name = name_ */\n  0x20\n  dup6\n  add\n  swap1\n  tag_2\n  jump\t// in\ntag_10:\n  pop\n    /* \"Contracts/ERC721.sol\":10439:10456  _symbol = symbol_ */\n  dup1\n  mload\n  tag_11\n  swap1\n    /* \"Contracts/ERC721.sol\":10439:10446  _symbol */\n  0x01\n  swap1\n    /* \"Contracts/ERC721.sol\":10439:10456  _symbol = symbol_ */\n  0x20\n  dup5\n  add\n  swap1\n  tag_2\n  jump\t// in\ntag_11:\n  pop\n    /* \"Contracts/ERC721.sol\":10348:10464  constructor(string memory name_, string memory symbol_) {... */\n  pop\n  pop\n    /* \"Contracts/ERC721.sol\":23791:23814  _setOwner(_msgSender()) */\n  tag_13\n    /* \"Contracts/ERC721.sol\":23801:23813  _msgSender() */\n  tag_14\n    /* \"Contracts/ERC721.sol\":23801:23811  _msgSender */\n  shl(0x20, tag_15)\n    /* \"Contracts/ERC721.sol\":23801:23813  _msgSender() */\n  0x20\n  shr\n  jump\t// in\ntag_14:\n    /* \"Contracts/ERC721.sol\":23791:23800  _setOwner */\n  tag_16\n    /* \"Contracts/ERC721.sol\":23791:23814  _setOwner(_msgSender()) */\n  jump\t// in\ntag_13:\n    /* \"Contracts/ERC721.sol\":24975:24999  setBaseURI(_initBaseURI) */\n  tag_18\n    /* \"Contracts/ERC721.sol\":24986:24998  _initBaseURI */\n  dup2\n    /* \"Contracts/ERC721.sol\":24975:24985  setBaseURI */\n  tag_19\n    /* \"Contracts/ERC721.sol\":24975:24999  setBaseURI(_initBaseURI) */\n  jump\t// in\ntag_18:\n    /* \"Contracts/ERC721.sol\":24839:25007  constructor(... */\n  pop\n  pop\n  pop\n    /* \"Contracts/ERC721.sol\":24535:26931  contract CMFNFT is ERC721Enumerable, Ownable {... */\n  jump(tag_46)\n    /* \"Contracts/ERC721.sol\":9347:9445  function _msgSender() internal view virtual returns (address) {... */\ntag_15:\n    /* \"Contracts/ERC721.sol\":9427:9437  msg.sender */\n  caller\n  swap1\n    /* \"Contracts/ERC721.sol\":9347:9445  function _msgSender() internal view virtual returns (address) {... */\n  jump\t// out\n    /* \"Contracts/ERC721.sol\":24355:24528  function _setOwner(address newOwner) private {... */\ntag_16:\n    /* \"Contracts/ERC721.sol\":24430:24436  _owner */\n  0x0a\n  dup1\n  sload\n  sub(shl(0xa0, 0x01), 0x01)\n    /* \"Contracts/ERC721.sol\":24447:24464  _owner = newOwner */\n  dup4\n  dup2\n  and\n  not(sub(shl(0xa0, 0x01), 0x01))\n  dup4\n  and\n  dup2\n  or\n  swap1\n  swap4\n  sstore\n    /* \"Contracts/ERC721.sol\":24480:24520  OwnershipTransferred(oldOwner, newOwner) */\n  mload(0x40)\n    /* \"Contracts/ERC721.sol\":24430:24436  _owner */\n  swap2\n  and\n  swap2\n    /* \"Contracts/ERC721.sol\":24447:24464  _owner = newOwner */\n  swap1\n    /* \"Contracts/ERC721.sol\":24430:24436  _owner */\n  dup3\n  swap1\n    /* \"Contracts/ERC721.sol\":24480:24520  OwnershipTransferred(oldOwner, newOwner) */\n  0x8be0079c531659141344cd1fd0a4f28419497f9722a3daafe3b4186f6b6457e0\n  swap1\n    /* \"Contracts/ERC721.sol\":24411:24427  address oldOwner */\n  0x00\n  swap1\n    /* \"Contracts/ERC721.sol\":24480:24520  OwnershipTransferred(oldOwner, newOwner) */\n  log3\n    /* \"Contracts/ERC721.sol\":24400:24528  {... */\n  pop\n    /* \"Contracts/ERC721.sol\":24355:24528  function _setOwner(address newOwner) private {... */\n  pop\n  jump\t// out\n    /* \"Contracts/ERC721.sol\":26465:26563  function setBaseURI(string memory _newBaseURI) public onlyOwner {... */\ntag_19:\n    /* \"Contracts/ERC721.sol\":23903:23909  _owner */\n  and(sub(shl(0xa0, 0x01), 0x01), sload(0x0a))\n    /* \"Contracts/ERC721.sol\":9427:9437  msg.sender */\n  caller\n    /* \"Contracts/ERC721.sol\":23965:23988  owner() == _msgSender() */\n  eq\n    /* \"Contracts/ERC721.sol\":23957:24025  require(owner() == _msgSender(), \"Ownable: caller is not the owner\") */\n  tag_27\n  jumpi\n  mload(0x40)\n  shl(0xe5, 0x461bcd)\n  dup2\n  mstore\n    /* \"#utility.yul\":2009:2011   */\n  0x20\n    /* \"Contracts/ERC721.sol\":23957:24025  require(owner() == _msgSender(), \"Ownable: caller is not the owner\") */\n  0x04\n  dup3\n  add\n    /* \"#utility.yul\":1991:2012   */\n  dup2\n  swap1\n  mstore\n    /* \"#utility.yul\":2028:2046   */\n  0x24\n  dup3\n  add\n    /* \"#utility.yul\":2021:2051   */\n  mstore\n    /* \"#utility.yul\":2087:2121   */\n  0x4f776e61626c653a2063616c6c6572206973206e6f7420746865206f776e6572\n    /* \"#utility.yul\":2067:2085   */\n  0x44\n  dup3\n  add\n    /* \"#utility.yul\":2060:2122   */\n  mstore\n    /* \"#utility.yul\":2139:2157   */\n  0x64\n  add\n    /* \"Contracts/ERC721.sol\":23957:24025  require(owner() == _msgSender(), \"Ownable: caller is not the owner\") */\n  mload(0x40)\n  dup1\n  swap2\n  sub\n  swap1\n  revert\ntag_27:\n    /* \"Contracts/ERC721.sol\":26536:26557  baseURI = _newBaseURI */\n  dup1\n  mload\n  tag_31\n  swap1\n    /* \"Contracts/ERC721.sol\":26536:26543  baseURI */\n  0x0b\n  swap1\n    /* \"Contracts/ERC721.sol\":26536:26557  baseURI = _newBaseURI */\n  0x20\n  dup5\n  add\n  swap1\n  tag_2\n  jump\t// in\ntag_31:\n  pop\n    /* \"Contracts/ERC721.sol\":26465:26563  function setBaseURI(string memory _newBaseURI) public onlyOwner {... */\n  pop\n  jump\t// out\n    /* \"Contracts/ERC721.sol\":24535:26931  contract CMFNFT is ERC721Enumerable, Ownable {... */\ntag_2:\n  dup3\n  dup1\n  sload\n  tag_33\n  swap1\n  tag_34\n  jump\t// in\ntag_33:\n  swap1\n  0x00\n  mstore\n  keccak256(0x00, 0x20)\n  swap1\n  0x1f\n  add\n  0x20\n  swap1\n  div\n  dup2\n  add\n  swap3\n  dup3\n  tag_36\n  jumpi\n  0x00\n  dup6\n  sstore\n  jump(tag_39)\ntag_36:\n  dup3\n  0x1f\n  lt\n  tag_37\n  jumpi\n  dup1\n  mload\n  not(0xff)\n  and\n  dup4\n  dup1\n  add\n  or\n  dup6\n  sstore\n  jump(tag_39)\ntag_37:\n  dup3\n  dup1\n  add\n  0x01\n  add\n  dup6\n  sstore\n  dup3\n  iszero\n  tag_39\n  jumpi\n  swap2\n  dup3\n  add\ntag_38:\n  dup3\n  dup2\n  gt\n  iszero\n  tag_39\n  jumpi\n  dup3\n  mload\n  dup3\n  sstore\n  swap2\n  0x20\n  add\n  swap2\n  swap1\n  0x01\n  add\n  swap1\n  jump(tag_38)\ntag_39:\n  pop\n  tag_40\n  swap3\n  swap2\n  pop\n  tag_41\n  jump\t// in\ntag_40:\n  pop\n  swap1\n  jump\t// out\ntag_41:\ntag_42:\n  dup1\n  dup3\n  gt\n  iszero\n  tag_40\n  jumpi\n  0x00\n  dup2\n  sstore\n  0x01\n  add\n  jump(tag_42)\n    /* \"#utility.yul\":14:141   */\ntag_44:\n    /* \"#utility.yul\":75:85   */\n  0x4e487b71\n    /* \"#utility.yul\":70:73   */\n  0xe0\n    /* \"#utility.yul\":66:86   */\n  shl\n    /* \"#utility.yul\":63:64   */\n  0x00\n    /* \"#utility.yul\":56:87   */\n  mstore\n    /* \"#utility.yul\":106:110   */\n  0x41\n    /* \"#utility.yul\":103:104   */\n  0x04\n    /* \"#utility.yul\":96:111   */\n  mstore\n    /* \"#utility.yul\":130:134   */\n  0x24\n    /* \"#utility.yul\":127:128   */\n  0x00\n    /* \"#utility.yul\":120:135   */\n  revert\n    /* \"#utility.yul\":146:1031   */\ntag_45:\n    /* \"#utility.yul\":200:205   */\n  0x00\n    /* \"#utility.yul\":253:256   */\n  dup3\n    /* \"#utility.yul\":246:250   */\n  0x1f\n    /* \"#utility.yul\":238:244   */\n  dup4\n    /* \"#utility.yul\":234:251   */\n  add\n    /* \"#utility.yul\":230:257   */\n  slt\n    /* \"#utility.yul\":220:275   */\n  tag_49\n  jumpi\n    /* \"#utility.yul\":271:272   */\n  0x00\n    /* \"#utility.yul\":268:269   */\n  dup1\n    /* \"#utility.yul\":261:273   */\n  revert\n    /* \"#utility.yul\":220:275   */\ntag_49:\n    /* \"#utility.yul\":294:307   */\n  dup2\n  mload\n  sub(shl(0x40, 0x01), 0x01)\n    /* \"#utility.yul\":356:366   */\n  dup1\n  dup3\n  gt\n    /* \"#utility.yul\":353:389   */\n  iszero\n  tag_51\n  jumpi\n    /* \"#utility.yul\":369:387   */\n  tag_51\n  tag_44\n  jump\t// in\ntag_51:\n    /* \"#utility.yul\":444:446   */\n  0x40\n    /* \"#utility.yul\":438:447   */\n  mload\n    /* \"#utility.yul\":412:414   */\n  0x1f\n    /* \"#utility.yul\":498:511   */\n  dup4\n  add\n  not(0x1f)\n    /* \"#utility.yul\":494:516   */\n  swap1\n  dup2\n  and\n    /* \"#utility.yul\":518:520   */\n  0x3f\n    /* \"#utility.yul\":490:521   */\n  add\n    /* \"#utility.yul\":486:526   */\n  and\n    /* \"#utility.yul\":474:527   */\n  dup2\n  add\n  swap1\n    /* \"#utility.yul\":542:560   */\n  dup3\n  dup3\n  gt\n    /* \"#utility.yul\":562:584   */\n  dup2\n  dup4\n  lt\n    /* \"#utility.yul\":539:585   */\n  or\n    /* \"#utility.yul\":536:608   */\n  iszero\n  tag_53\n  jumpi\n    /* \"#utility.yul\":588:606   */\n  tag_53\n  tag_44\n  jump\t// in\ntag_53:\n    /* \"#utility.yul\":628:638   */\n  dup2\n    /* \"#utility.yul\":624:626   */\n  0x40\n    /* \"#utility.yul\":617:639   */\n  mstore\n    /* \"#utility.yul\":663:665   */\n  dup4\n    /* \"#utility.yul\":655:661   */\n  dup2\n    /* \"#utility.yul\":648:666   */\n  mstore\n    /* \"#utility.yul\":685:689   */\n  0x20\n    /* \"#utility.yul\":675:689   */\n  swap3\n  pop\n    /* \"#utility.yul\":730:733   */\n  dup7\n    /* \"#utility.yul\":725:727   */\n  dup4\n    /* \"#utility.yul\":720:722   */\n  dup6\n    /* \"#utility.yul\":712:718   */\n  dup9\n    /* \"#utility.yul\":708:723   */\n  add\n    /* \"#utility.yul\":704:728   */\n  add\n    /* \"#utility.yul\":701:734   */\n  gt\n    /* \"#utility.yul\":698:751   */\n  iszero\n  tag_54\n  jumpi\n    /* \"#utility.yul\":747:748   */\n  0x00\n    /* \"#utility.yul\":744:745   */\n  dup1\n    /* \"#utility.yul\":737:749   */\n  revert\n    /* \"#utility.yul\":698:751   */\ntag_54:\n    /* \"#utility.yul\":769:770   */\n  0x00\n    /* \"#utility.yul\":760:770   */\n  swap2\n  pop\n    /* \"#utility.yul\":779:912   */\ntag_55:\n    /* \"#utility.yul\":793:795   */\n  dup4\n    /* \"#utility.yul\":790:791   */\n  dup3\n    /* \"#utility.yul\":787:796   */\n  lt\n    /* \"#utility.yul\":779:912   */\n  iszero\n  tag_57\n  jumpi\n    /* \"#utility.yul\":881:895   */\n  dup6\n  dup3\n  add\n    /* \"#utility.yul\":877:900   */\n  dup4\n  add\n    /* \"#utility.yul\":871:901   */\n  mload\n    /* \"#utility.yul\":850:864   */\n  dup2\n  dup4\n  add\n    /* \"#utility.yul\":846:869   */\n  dup5\n  add\n    /* \"#utility.yul\":839:902   */\n  mstore\n    /* \"#utility.yul\":804:814   */\n  swap1\n  dup3\n  add\n  swap1\n    /* \"#utility.yul\":779:912   */\n  jump(tag_55)\ntag_57:\n    /* \"#utility.yul\":930:932   */\n  dup4\n    /* \"#utility.yul\":927:928   */\n  dup3\n    /* \"#utility.yul\":924:933   */\n  gt\n    /* \"#utility.yul\":921:1001   */\n  iszero\n  tag_58\n  jumpi\n    /* \"#utility.yul\":989:990   */\n  0x00\n    /* \"#utility.yul\":984:986   */\n  dup4\n    /* \"#utility.yul\":979:981   */\n  dup6\n    /* \"#utility.yul\":971:977   */\n  dup4\n    /* \"#utility.yul\":967:982   */\n  add\n    /* \"#utility.yul\":963:987   */\n  add\n    /* \"#utility.yul\":956:991   */\n  mstore\n    /* \"#utility.yul\":921:1001   */\ntag_58:\n    /* \"#utility.yul\":1019:1025   */\n  swap7\n    /* \"#utility.yul\":146:1031   */\n  swap6\n  pop\n  pop\n  pop\n  pop\n  pop\n  pop\n  jump\t// out\n    /* \"#utility.yul\":1036:1802   */\ntag_5:\n    /* \"#utility.yul\":1154:1160   */\n  0x00\n    /* \"#utility.yul\":1162:1168   */\n  dup1\n    /* \"#utility.yul\":1170:1176   */\n  0x00\n    /* \"#utility.yul\":1223:1225   */\n  0x60\n    /* \"#utility.yul\":1211:1220   */\n  dup5\n    /* \"#utility.yul\":1202:1209   */\n  dup7\n    /* \"#utility.yul\":1198:1221   */\n  sub\n    /* \"#utility.yul\":1194:1226   */\n  slt\n    /* \"#utility.yul\":1191:1243   */\n  iszero\n  tag_60\n  jumpi\n    /* \"#utility.yul\":1239:1240   */\n  0x00\n    /* \"#utility.yul\":1236:1237   */\n  dup1\n    /* \"#utility.yul\":1229:1241   */\n  revert\n    /* \"#utility.yul\":1191:1243   */\ntag_60:\n    /* \"#utility.yul\":1266:1282   */\n  dup4\n  mload\n  sub(shl(0x40, 0x01), 0x01)\n    /* \"#utility.yul\":1331:1345   */\n  dup1\n  dup3\n  gt\n    /* \"#utility.yul\":1328:1362   */\n  iszero\n  tag_61\n  jumpi\n    /* \"#utility.yul\":1358:1359   */\n  0x00\n    /* \"#utility.yul\":1355:1356   */\n  dup1\n    /* \"#utility.yul\":1348:1360   */\n  revert\n    /* \"#utility.yul\":1328:1362   */\ntag_61:\n    /* \"#utility.yul\":1381:1442   */\n  tag_62\n    /* \"#utility.yul\":1434:1441   */\n  dup8\n    /* \"#utility.yul\":1425:1431   */\n  dup4\n    /* \"#utility.yul\":1414:1423   */\n  dup9\n    /* \"#utility.yul\":1410:1432   */\n  add\n    /* \"#utility.yul\":1381:1442   */\n  tag_45\n  jump\t// in\ntag_62:\n    /* \"#utility.yul\":1371:1442   */\n  swap5\n  pop\n    /* \"#utility.yul\":1488:1490   */\n  0x20\n    /* \"#utility.yul\":1477:1486   */\n  dup7\n    /* \"#utility.yul\":1473:1491   */\n  add\n    /* \"#utility.yul\":1467:1492   */\n  mload\n    /* \"#utility.yul\":1451:1492   */\n  swap2\n  pop\n    /* \"#utility.yul\":1517:1519   */\n  dup1\n    /* \"#utility.yul\":1507:1515   */\n  dup3\n    /* \"#utility.yul\":1504:1520   */\n  gt\n    /* \"#utility.yul\":1501:1537   */\n  iszero\n  tag_63\n  jumpi\n    /* \"#utility.yul\":1533:1534   */\n  0x00\n    /* \"#utility.yul\":1530:1531   */\n  dup1\n    /* \"#utility.yul\":1523:1535   */\n  revert\n    /* \"#utility.yul\":1501:1537   */\ntag_63:\n    /* \"#utility.yul\":1556:1619   */\n  tag_64\n    /* \"#utility.yul\":1611:1618   */\n  dup8\n    /* \"#utility.yul\":1600:1608   */\n  dup4\n    /* \"#utility.yul\":1589:1598   */\n  dup9\n    /* \"#utility.yul\":1585:1609   */\n  add\n    /* \"#utility.yul\":1556:1619   */\n  tag_45\n  jump\t// in\ntag_64:\n    /* \"#utility.yul\":1546:1619   */\n  swap4\n  pop\n    /* \"#utility.yul\":1665:1667   */\n  0x40\n    /* \"#utility.yul\":1654:1663   */\n  dup7\n    /* \"#utility.yul\":1650:1668   */\n  add\n    /* \"#utility.yul\":1644:1669   */\n  mload\n    /* \"#utility.yul\":1628:1669   */\n  swap2\n  pop\n    /* \"#utility.yul\":1694:1696   */\n  dup1\n    /* \"#utility.yul\":1684:1692   */\n  dup3\n    /* \"#utility.yul\":1681:1697   */\n  gt\n    /* \"#utility.yul\":1678:1714   */\n  iszero\n  tag_65\n  jumpi\n    /* \"#utility.yul\":1710:1711   */\n  0x00\n    /* \"#utility.yul\":1707:1708   */\n  dup1\n    /* \"#utility.yul\":1700:1712   */\n  revert\n    /* \"#utility.yul\":1678:1714   */\ntag_65:\n  pop\n    /* \"#utility.yul\":1733:1796   */\n  tag_66\n    /* \"#utility.yul\":1788:1795   */\n  dup7\n    /* \"#utility.yul\":1777:1785   */\n  dup3\n    /* \"#utility.yul\":1766:1775   */\n  dup8\n    /* \"#utility.yul\":1762:1786   */\n  add\n    /* \"#utility.yul\":1733:1796   */\n  tag_45\n  jump\t// in\ntag_66:\n    /* \"#utility.yul\":1723:1796   */\n  swap2\n  pop\n  pop\n    /* \"#utility.yul\":1036:1802   */\n  swap3\n  pop\n  swap3\n  pop\n  swap3\n  jump\t// out\n    /* \"#utility.yul\":2168:2548   */\ntag_34:\n    /* \"#utility.yul\":2247:2248   */\n  0x01\n    /* \"#utility.yul\":2243:2255   */\n  dup2\n  dup2\n  shr\n  swap1\n    /* \"#utility.yul\":2290:2302   */\n  dup3\n  and\n  dup1\n    /* \"#utility.yul\":2311:2372   */\n  tag_69\n  jumpi\n    /* \"#utility.yul\":2365:2369   */\n  0x7f\n    /* \"#utility.yul\":2357:2363   */\n  dup3\n    /* \"#utility.yul\":2353:2370   */\n  and\n    /* \"#utility.yul\":2343:2370   */\n  swap2\n  pop\n    /* \"#utility.yul\":2311:2372   */\ntag_69:\n    /* \"#utility.yul\":2418:2420   */\n  0x20\n    /* \"#utility.yul\":2410:2416   */\n  dup3\n    /* \"#utility.yul\":2407:2421   */\n  lt\n    /* \"#utility.yul\":2387:2405   */\n  dup2\n    /* \"#utility.yul\":2384:2422   */\n  sub\n    /* \"#utility.yul\":2381:2542   */\n  tag_70\n  jumpi\n    /* \"#utility.yul\":2464:2474   */\n  0x4e487b71\n    /* \"#utility.yul\":2459:2462   */\n  0xe0\n    /* \"#utility.yul\":2455:2475   */\n  shl\n    /* \"#utility.yul\":2452:2453   */\n  0x00\n    /* \"#utility.yul\":2445:2476   */\n  mstore\n    /* \"#utility.yul\":2499:2503   */\n  0x22\n    /* \"#utility.yul\":2496:2497   */\n  0x04\n    /* \"#utility.yul\":2489:2504   */\n  mstore\n    /* \"#utility.yul\":2527:2531   */\n  0x24\n    /* \"#utility.yul\":2524:2525   */\n  0x00\n    /* \"#utility.yul\":2517:2532   */\n  revert\n    /* \"#utility.yul\":2381:2542   */\ntag_70:\n  pop\n    /* \"#utility.yul\":2168:2548   */\n  swap2\n  swap1\n  pop\n  jump\t// out\ntag_46:\n    /* \"Contracts/ERC721.sol\":24535:26931  contract CMFNFT is ERC721Enumerable, Ownable {... */\n  dataSize(sub_0)\n  dup1\n  dataOffset(sub_0)\n  0x00\n  codecopy\n  0x00\n  return\nstop\n\nsub_0: assembly {\n        /* \"Contracts/ERC721.sol\":24535:26931  contract CMFNFT is ERC721Enumerable, Ownable {... */\n      mstore(0x40, 0x80)\n      jumpi(tag_1, lt(calldatasize, 0x04))\n      shr(0xe0, calldataload(0x00))\n      dup1\n      0x4f6ccce7\n      gt\n      tag_33\n      jumpi\n      dup1\n      0x95d89b41\n      gt\n      tag_34\n      jumpi\n      dup1\n      0xc87b56dd\n      gt\n      tag_35\n      jumpi\n      dup1\n      0xc87b56dd\n      eq\n      tag_29\n      jumpi\n      dup1\n      0xda3ef23f\n      eq\n      tag_30\n      jumpi\n      dup1\n      0xe985e9c5\n      eq\n      tag_31\n      jumpi\n      dup1\n      0xf2fde38b\n      eq\n      tag_32\n      jumpi\n      0x00\n      dup1\n      revert\n    tag_35:\n      dup1\n      0x95d89b41\n      eq\n      tag_25\n      jumpi\n      dup1\n      0xa22cb465\n      eq\n      tag_26\n      jumpi\n      dup1\n      0xb88d4fde\n      eq\n      tag_27\n      jumpi\n      dup1\n      0xc6682862\n      eq\n      tag_28\n      jumpi\n      0x00\n      dup1\n      revert\n    tag_34:\n      dup1\n      0x6c0360eb\n      gt\n      tag_36\n      jumpi\n      dup1\n      0x6c0360eb\n      eq\n      tag_21\n      jumpi\n      dup1\n      0x70a08231\n      eq\n      tag_22\n      jumpi\n      dup1\n      0x715018a6\n      eq\n      tag_23\n      jumpi\n      dup1\n      0x8da5cb5b\n      eq\n      tag_24\n      jumpi\n      0x00\n      dup1\n      revert\n    tag_36:\n      dup1\n      0x4f6ccce7\n      eq\n      tag_17\n      jumpi\n      dup1\n      0x55f804b3\n      eq\n      tag_18\n      jumpi\n      dup1\n      0x5c975abb\n      eq\n      tag_19\n      jumpi\n      dup1\n      0x6352211e\n      eq\n      tag_20\n      jumpi\n      0x00\n      dup1\n      revert\n    tag_33:\n      dup1\n      0x18160ddd\n      gt\n      tag_37\n      jumpi\n      dup1\n      0x3ccfd60b\n      gt\n      tag_38\n      jumpi\n      dup1\n      0x3ccfd60b\n      eq\n      tag_13\n      jumpi\n      dup1\n      0x42842e0e\n      eq\n      tag_14\n      jumpi\n      dup1\n      0x438b6300\n      eq\n      tag_15\n      jumpi\n      dup1\n      0x44a0d68a\n      eq\n      tag_16\n      jumpi\n      0x00\n      dup1\n      revert\n    tag_38:\n      dup1\n      0x18160ddd\n      eq\n      tag_9\n      jumpi\n      dup1\n      0x18cae269\n      eq\n      tag_10\n      jumpi\n      dup1\n      0x23b872dd\n      eq\n      tag_11\n      jumpi\n      dup1\n      0x2f745c59\n      eq\n      tag_12\n      jumpi\n      0x00\n      dup1\n      revert\n    tag_37:\n      dup1\n      0x081812fc\n      gt\n      tag_39\n      jumpi\n      dup1\n      0x081812fc\n      eq\n      tag_5\n      jumpi\n      dup1\n      0x095ea7b3\n      eq\n      tag_6\n      jumpi\n      dup1\n      0x1249c58b\n      eq\n      tag_7\n      jumpi\n      dup1\n      0x13faede6\n      eq\n      tag_8\n      jumpi\n      0x00\n      dup1\n      revert\n    tag_39:\n      dup1\n      0x01ffc9a7\n      eq\n      tag_2\n      jumpi\n      dup1\n      0x02329a29\n      eq\n      tag_3\n      jumpi\n      dup1\n      0x06fdde03\n      eq\n      tag_4\n      jumpi\n    tag_1:\n      0x00\n      dup1\n      revert\n        /* \"Contracts/ERC721.sol\":19646:19870  function supportsInterface(bytes4 interfaceId) public view virtual override(IERC165, ERC721) returns (bool) {... */\n    tag_2:\n      callvalue\n      dup1\n      iszero\n      tag_40\n      jumpi\n      0x00\n      dup1\n      revert\n    tag_40:\n      pop\n      tag_41\n      tag_42\n      calldatasize\n      0x04\n      tag_43\n      jump\t// in\n    tag_42:\n      tag_44\n      jump\t// in\n    tag_41:\n      mload(0x40)\n        /* \"#utility.yul\":565:579   */\n      swap1\n      iszero\n        /* \"#utility.yul\":558:580   */\n      iszero\n        /* \"#utility.yul\":540:581   */\n      dup2\n      mstore\n        /* \"#utility.yul\":528:530   */\n      0x20\n        /* \"#utility.yul\":513:531   */\n      add\n        /* \"Contracts/ERC721.sol\":19646:19870  function supportsInterface(bytes4 interfaceId) public view virtual override(IERC165, ERC721) returns (bool) {... */\n    tag_45:\n      mload(0x40)\n      dup1\n      swap2\n      sub\n      swap1\n      return\n        /* \"Contracts/ERC721.sol\":26701:26774  function pause(bool _state) public onlyOwner {... */\n    tag_3:\n      callvalue\n      dup1\n      iszero\n      tag_47\n      jumpi\n      0x00\n      dup1\n      revert\n    tag_47:\n      pop\n      tag_48\n      tag_49\n      calldatasize\n      0x04\n      tag_50\n      jump\t// in\n    tag_49:\n      tag_51\n      jump\t// in\n    tag_48:\n      stop\n        /* \"Contracts/ERC721.sol\":11481:11581  function name() public view virtual override returns (string memory) {... */\n    tag_4:\n      callvalue\n      dup1\n      iszero\n      tag_52\n      jumpi\n      0x00\n      dup1\n      revert\n    tag_52:\n      pop\n      tag_53\n      tag_54\n      jump\t// in\n    tag_53:\n      mload(0x40)\n      tag_45\n      swap2\n      swap1\n      tag_56\n      jump\t// in\n        /* \"Contracts/ERC721.sol\":13040:13261  function getApproved(uint256 tokenId) public view virtual override returns (address) {... */\n    tag_5:\n      callvalue\n      dup1\n      iszero\n      tag_57\n      jumpi\n      0x00\n      dup1\n      revert\n    tag_57:\n      pop\n      tag_58\n      tag_59\n      calldatasize\n      0x04\n      tag_60\n      jump\t// in\n    tag_59:\n      tag_61\n      jump\t// in\n    tag_58:\n      mload(0x40)\n      sub(shl(0xa0, 0x01), 0x01)\n        /* \"#utility.yul\":2042:2074   */\n      swap1\n      swap2\n      and\n        /* \"#utility.yul\":2024:2075   */\n      dup2\n      mstore\n        /* \"#utility.yul\":2012:2014   */\n      0x20\n        /* \"#utility.yul\":1997:2015   */\n      add\n        /* \"Contracts/ERC721.sol\":13040:13261  function getApproved(uint256 tokenId) public view virtual override returns (address) {... */\n      tag_45\n        /* \"#utility.yul\":1878:2081   */\n      jump\n        /* \"Contracts/ERC721.sol\":12563:12974  function approve(address to, uint256 tokenId) public virtual override {... */\n    tag_6:\n      callvalue\n      dup1\n      iszero\n      tag_64\n      jumpi\n      0x00\n      dup1\n      revert\n    tag_64:\n      pop\n      tag_48\n      tag_66\n      calldatasize\n      0x04\n      tag_67\n      jump\t// in\n    tag_66:\n      tag_68\n      jump\t// in\n        /* \"Contracts/ERC721.sol\":25134:25580  function mint() public {... */\n    tag_7:\n      callvalue\n      dup1\n      iszero\n      tag_69\n      jumpi\n      0x00\n      dup1\n      revert\n    tag_69:\n      pop\n      tag_48\n      tag_71\n      jump\t// in\n        /* \"Contracts/ERC721.sol\":24685:24711  uint256 public cost = 0.00 */\n    tag_8:\n      callvalue\n      dup1\n      iszero\n      tag_72\n      jumpi\n      0x00\n      dup1\n      revert\n    tag_72:\n      pop\n      tag_73\n      sload(0x0d)\n      dup2\n      jump\n    tag_73:\n      mload(0x40)\n        /* \"#utility.yul\":2669:2694   */\n      swap1\n      dup2\n      mstore\n        /* \"#utility.yul\":2657:2659   */\n      0x20\n        /* \"#utility.yul\":2642:2660   */\n      add\n        /* \"Contracts/ERC721.sol\":24685:24711  uint256 public cost = 0.00 */\n      tag_45\n        /* \"#utility.yul\":2523:2700   */\n      jump\n        /* \"Contracts/ERC721.sol\":20286:20399  function totalSupply() public view virtual override returns (uint256) {... */\n    tag_9:\n      callvalue\n      dup1\n      iszero\n      tag_77\n      jumpi\n      0x00\n      dup1\n      revert\n    tag_77:\n      pop\n        /* \"Contracts/ERC721.sol\":20374:20384  _allTokens */\n      0x08\n        /* \"Contracts/ERC721.sol\":20374:20391  _allTokens.length */\n      sload\n        /* \"Contracts/ERC721.sol\":20286:20399  function totalSupply() public view virtual override returns (uint256) {... */\n      jump(tag_73)\n        /* \"Contracts/ERC721.sol\":24777:24832  mapping(address => uint256) public addressMintedBalance */\n    tag_10:\n      callvalue\n      dup1\n      iszero\n      tag_81\n      jumpi\n      0x00\n      dup1\n      revert\n    tag_81:\n      pop\n      tag_73\n      tag_83\n      calldatasize\n      0x04\n      tag_84\n      jump\t// in\n    tag_83:\n      mstore(0x20, 0x10)\n      0x00\n      swap1\n      dup2\n      mstore\n      0x40\n      swap1\n      keccak256\n      sload\n      dup2\n      jump\n        /* \"Contracts/ERC721.sol\":13930:14269  function transferFrom(... */\n    tag_11:\n      callvalue\n      dup1\n      iszero\n      tag_87\n      jumpi\n      0x00\n      dup1\n      revert\n    tag_87:\n      pop\n      tag_48\n      tag_89\n      calldatasize\n      0x04\n      tag_90\n      jump\t// in\n    tag_89:\n      tag_91\n      jump\t// in\n        /* \"Contracts/ERC721.sol\":19954:20210  function tokenOfOwnerByIndex(address owner, uint256 index) public view virtual override returns (uint256) {... */\n    tag_12:\n      callvalue\n      dup1\n      iszero\n      tag_92\n      jumpi\n      0x00\n      dup1\n      revert\n    tag_92:\n      pop\n      tag_73\n      tag_94\n      calldatasize\n      0x04\n      tag_67\n      jump\t// in\n    tag_94:\n      tag_95\n      jump\t// in\n        /* \"Contracts/ERC721.sol\":26783:26928  function withdraw() public payable onlyOwner {... */\n    tag_13:\n      tag_48\n      tag_98\n      jump\t// in\n        /* \"Contracts/ERC721.sol\":14340:14525  function safeTransferFrom(... */\n    tag_14:\n      callvalue\n      dup1\n      iszero\n      tag_99\n      jumpi\n      0x00\n      dup1\n      revert\n    tag_99:\n      pop\n      tag_48\n      tag_101\n      calldatasize\n      0x04\n      tag_90\n      jump\t// in\n    tag_101:\n      tag_102\n      jump\t// in\n        /* \"Contracts/ERC721.sol\":25588:25936  function walletOfOwner(address _owner)... */\n    tag_15:\n      callvalue\n      dup1\n      iszero\n      tag_103\n      jumpi\n      0x00\n      dup1\n      revert\n    tag_103:\n      pop\n      tag_104\n      tag_105\n      calldatasize\n      0x04\n      tag_84\n      jump\t// in\n    tag_105:\n      tag_106\n      jump\t// in\n    tag_104:\n      mload(0x40)\n      tag_45\n      swap2\n      swap1\n      tag_108\n      jump\t// in\n        /* \"Contracts/ERC721.sol\":26379:26459  function setCost(uint256 _newCost) public onlyOwner {... */\n    tag_16:\n      callvalue\n      dup1\n      iszero\n      tag_109\n      jumpi\n      0x00\n      dup1\n      revert\n    tag_109:\n      pop\n      tag_48\n      tag_111\n      calldatasize\n      0x04\n      tag_60\n      jump\t// in\n    tag_111:\n      tag_112\n      jump\t// in\n        /* \"Contracts/ERC721.sol\":20476:20709  function tokenByIndex(uint256 index) public view virtual override returns (uint256) {... */\n    tag_17:\n      callvalue\n      dup1\n      iszero\n      tag_113\n      jumpi\n      0x00\n      dup1\n      revert\n    tag_113:\n      pop\n      tag_73\n      tag_115\n      calldatasize\n      0x04\n      tag_60\n      jump\t// in\n    tag_115:\n      tag_116\n      jump\t// in\n        /* \"Contracts/ERC721.sol\":26465:26563  function setBaseURI(string memory _newBaseURI) public onlyOwner {... */\n    tag_18:\n      callvalue\n      dup1\n      iszero\n      tag_118\n      jumpi\n      0x00\n      dup1\n      revert\n    tag_118:\n      pop\n      tag_48\n      tag_120\n      calldatasize\n      0x04\n      tag_121\n      jump\t// in\n    tag_120:\n      tag_122\n      jump\t// in\n        /* \"Contracts/ERC721.sol\":24746:24772  bool public paused = false */\n    tag_19:\n      callvalue\n      dup1\n      iszero\n      tag_123\n      jumpi\n      0x00\n      dup1\n      revert\n    tag_123:\n      pop\n      sload(0x0f)\n      tag_41\n      swap1\n      0xff\n      and\n      dup2\n      jump\n        /* \"Contracts/ERC721.sol\":11175:11414  function ownerOf(uint256 tokenId) public view virtual override returns (address) {... */\n    tag_20:\n      callvalue\n      dup1\n      iszero\n      tag_127\n      jumpi\n      0x00\n      dup1\n      revert\n    tag_127:\n      pop\n      tag_58\n      tag_129\n      calldatasize\n      0x04\n      tag_60\n      jump\t// in\n    tag_129:\n      tag_130\n      jump\t// in\n        /* \"Contracts/ERC721.sol\":24617:24638  string public baseURI */\n    tag_21:\n      callvalue\n      dup1\n      iszero\n      tag_132\n      jumpi\n      0x00\n      dup1\n      revert\n    tag_132:\n      pop\n      tag_53\n      tag_134\n      jump\t// in\n        /* \"Contracts/ERC721.sol\":10905:11113  function balanceOf(address owner) public view virtual override returns (uint256) {... */\n    tag_22:\n      callvalue\n      dup1\n      iszero\n      tag_136\n      jumpi\n      0x00\n      dup1\n      revert\n    tag_136:\n      pop\n      tag_73\n      tag_138\n      calldatasize\n      0x04\n      tag_84\n      jump\t// in\n    tag_138:\n      tag_139\n      jump\t// in\n        /* \"Contracts/ERC721.sol\":24053:24147  function renounceOwnership() public virtual onlyOwner {... */\n    tag_23:\n      callvalue\n      dup1\n      iszero\n      tag_141\n      jumpi\n      0x00\n      dup1\n      revert\n    tag_141:\n      pop\n      tag_48\n      tag_143\n      jump\t// in\n        /* \"Contracts/ERC721.sol\":23830:23917  function owner() public view virtual returns (address) {... */\n    tag_24:\n      callvalue\n      dup1\n      iszero\n      tag_144\n      jumpi\n      0x00\n      dup1\n      revert\n    tag_144:\n      pop\n        /* \"Contracts/ERC721.sol\":23903:23909  _owner */\n      and(sub(shl(0xa0, 0x01), 0x01), sload(0x0a))\n        /* \"Contracts/ERC721.sol\":23830:23917  function owner() public view virtual returns (address) {... */\n      jump(tag_58)\n        /* \"Contracts/ERC721.sol\":11650:11754  function symbol() public view virtual override returns (string memory) {... */\n    tag_25:\n      callvalue\n      dup1\n      iszero\n      tag_148\n      jumpi\n      0x00\n      dup1\n      revert\n    tag_148:\n      pop\n      tag_53\n      tag_150\n      jump\t// in\n        /* \"Contracts/ERC721.sol\":13333:13628  function setApprovalForAll(address operator, bool approved) public virtual override {... */\n    tag_26:\n      callvalue\n      dup1\n      iszero\n      tag_152\n      jumpi\n      0x00\n      dup1\n      revert\n    tag_152:\n      pop\n      tag_48\n      tag_154\n      calldatasize\n      0x04\n      tag_155\n      jump\t// in\n    tag_154:\n      tag_156\n      jump\t// in\n        /* \"Contracts/ERC721.sol\":14596:14924  function safeTransferFrom(... */\n    tag_27:\n      callvalue\n      dup1\n      iszero\n      tag_157\n      jumpi\n      0x00\n      dup1\n      revert\n    tag_157:\n      pop\n      tag_48\n      tag_159\n      calldatasize\n      0x04\n      tag_160\n      jump\t// in\n    tag_159:\n      tag_161\n      jump\t// in\n        /* \"Contracts/ERC721.sol\":24643:24680  string public baseExtension = \".json\" */\n    tag_28:\n      callvalue\n      dup1\n      iszero\n      tag_162\n      jumpi\n      0x00\n      dup1\n      revert\n    tag_162:\n      pop\n      tag_53\n      tag_164\n      jump\t// in\n        /* \"Contracts/ERC721.sol\":25942:26369  function tokenURI(uint256 tokenId)... */\n    tag_29:\n      callvalue\n      dup1\n      iszero\n      tag_166\n      jumpi\n      0x00\n      dup1\n      revert\n    tag_166:\n      pop\n      tag_53\n      tag_168\n      calldatasize\n      0x04\n      tag_60\n      jump\t// in\n    tag_168:\n      tag_169\n      jump\t// in\n        /* \"Contracts/ERC721.sol\":26571:26693  function setBaseExtension(string memory _newBaseExtension) public onlyOwner {... */\n    tag_30:\n      callvalue\n      dup1\n      iszero\n      tag_171\n      jumpi\n      0x00\n      dup1\n      revert\n    tag_171:\n      pop\n      tag_48\n      tag_173\n      calldatasize\n      0x04\n      tag_121\n      jump\t// in\n    tag_173:\n      tag_174\n      jump\t// in\n        /* \"Contracts/ERC721.sol\":13699:13863  function isApprovedForAll(address owner, address operator) public view virtual override returns (bool) {... */\n    tag_31:\n      callvalue\n      dup1\n      iszero\n      tag_175\n      jumpi\n      0x00\n      dup1\n      revert\n    tag_175:\n      pop\n      tag_41\n      tag_177\n      calldatasize\n      0x04\n      tag_178\n      jump\t// in\n    tag_177:\n      sub(shl(0xa0, 0x01), 0x01)\n        /* \"Contracts/ERC721.sol\":13820:13845  _operatorApprovals[owner] */\n      swap2\n      dup3\n      and\n        /* \"Contracts/ERC721.sol\":13796:13800  bool */\n      0x00\n        /* \"Contracts/ERC721.sol\":13820:13845  _operatorApprovals[owner] */\n      swap1\n      dup2\n      mstore\n        /* \"Contracts/ERC721.sol\":13820:13838  _operatorApprovals */\n      0x05\n        /* \"Contracts/ERC721.sol\":13820:13845  _operatorApprovals[owner] */\n      0x20\n      swap1\n      dup2\n      mstore\n      0x40\n      dup1\n      dup4\n      keccak256\n        /* \"Contracts/ERC721.sol\":13820:13855  _operatorApprovals[owner][operator] */\n      swap4\n      swap1\n      swap5\n      and\n      dup3\n      mstore\n      swap2\n      swap1\n      swap2\n      mstore\n      keccak256\n      sload\n      0xff\n      and\n      swap1\n        /* \"Contracts/ERC721.sol\":13699:13863  function isApprovedForAll(address owner, address operator) public view virtual override returns (bool) {... */\n      jump\n        /* \"Contracts/ERC721.sol\":24155:24347  function transferOwnership(address newOwner) public virtual onlyOwner {... */\n    tag_32:\n      callvalue\n      dup1\n      iszero\n      tag_181\n      jumpi\n      0x00\n      dup1\n      revert\n    tag_181:\n      pop\n      tag_48\n      tag_183\n      calldatasize\n      0x04\n      tag_84\n      jump\t// in\n    tag_183:\n      tag_184\n      jump\t// in\n        /* \"Contracts/ERC721.sol\":19646:19870  function supportsInterface(bytes4 interfaceId) public view virtual override(IERC165, ERC721) returns (bool) {... */\n    tag_44:\n        /* \"Contracts/ERC721.sol\":19748:19752  bool */\n      0x00\n      not(sub(shl(0xe0, 0x01), 0x01))\n        /* \"Contracts/ERC721.sol\":19772:19822  interfaceId == type(IERC721Enumerable).interfaceId */\n      dup3\n      and\n      shl(0xe0, 0x780e9d63)\n      eq\n      dup1\n        /* \"Contracts/ERC721.sol\":19772:19862  interfaceId == type(IERC721Enumerable).interfaceId || super.supportsInterface(interfaceId) */\n      tag_187\n      jumpi\n      pop\n        /* \"Contracts/ERC721.sol\":19826:19862  super.supportsInterface(interfaceId) */\n      tag_187\n        /* \"Contracts/ERC721.sol\":19850:19861  interfaceId */\n      dup3\n        /* \"Contracts/ERC721.sol\":19826:19849  super.supportsInterface */\n      tag_188\n        /* \"Contracts/ERC721.sol\":19826:19862  super.supportsInterface(interfaceId) */\n      jump\t// in\n    tag_187:\n        /* \"Contracts/ERC721.sol\":19765:19862  return interfaceId == type(IERC721Enumerable).interfaceId || super.supportsInterface(interfaceId) */\n      swap3\n        /* \"Contracts/ERC721.sol\":19646:19870  function supportsInterface(bytes4 interfaceId) public view virtual override(IERC165, ERC721) returns (bool) {... */\n      swap2\n      pop\n      pop\n      jump\t// out\n        /* \"Contracts/ERC721.sol\":26701:26774  function pause(bool _state) public onlyOwner {... */\n    tag_51:\n        /* \"Contracts/ERC721.sol\":23903:23909  _owner */\n      and(sub(shl(0xa0, 0x01), 0x01), sload(0x0a))\n        /* \"Contracts/ERC721.sol\":9427:9437  msg.sender */\n      caller\n        /* \"Contracts/ERC721.sol\":23965:23988  owner() == _msgSender() */\n      eq\n        /* \"Contracts/ERC721.sol\":23957:24025  require(owner() == _msgSender(), \"Ownable: caller is not the owner\") */\n      tag_193\n      jumpi\n      mload(0x40)\n      shl(0xe5, 0x461bcd)\n      dup2\n      mstore\n      0x04\n      add\n      tag_194\n      swap1\n      tag_195\n      jump\t// in\n    tag_194:\n      mload(0x40)\n      dup1\n      swap2\n      sub\n      swap1\n      revert\n    tag_193:\n        /* \"Contracts/ERC721.sol\":26753:26759  paused */\n      0x0f\n        /* \"Contracts/ERC721.sol\":26753:26768  paused = _state */\n      dup1\n      sload\n      not(0xff)\n      and\n      swap2\n      iszero\n      iszero\n      swap2\n      swap1\n      swap2\n      or\n      swap1\n      sstore\n        /* \"Contracts/ERC721.sol\":26701:26774  function pause(bool _state) public onlyOwner {... */\n      jump\t// out\n        /* \"Contracts/ERC721.sol\":11481:11581  function name() public view virtual override returns (string memory) {... */\n    tag_54:\n        /* \"Contracts/ERC721.sol\":11535:11548  string memory */\n      0x60\n        /* \"Contracts/ERC721.sol\":11568:11573  _name */\n      0x00\n        /* \"Contracts/ERC721.sol\":11561:11573  return _name */\n      dup1\n      sload\n      tag_198\n      swap1\n      tag_199\n      jump\t// in\n    tag_198:\n      dup1\n      0x1f\n      add\n      0x20\n      dup1\n      swap2\n      div\n      mul\n      0x20\n      add\n      mload(0x40)\n      swap1\n      dup2\n      add\n      0x40\n      mstore\n      dup1\n      swap3\n      swap2\n      swap1\n      dup2\n      dup2\n      mstore\n      0x20\n      add\n      dup3\n      dup1\n      sload\n      tag_200\n      swap1\n      tag_199\n      jump\t// in\n    tag_200:\n      dup1\n      iszero\n      tag_201\n      jumpi\n      dup1\n      0x1f\n      lt\n      tag_202\n      jumpi\n      0x0100\n      dup1\n      dup4\n      sload\n      div\n      mul\n      dup4\n      mstore\n      swap2\n      0x20\n      add\n      swap2\n      jump(tag_201)\n    tag_202:\n      dup3\n      add\n      swap2\n      swap1\n      0x00\n      mstore\n      keccak256(0x00, 0x20)\n      swap1\n    tag_203:\n      dup2\n      sload\n      dup2\n      mstore\n      swap1\n      0x01\n      add\n      swap1\n      0x20\n      add\n      dup1\n      dup4\n      gt\n      tag_203\n      jumpi\n      dup3\n      swap1\n      sub\n      0x1f\n      and\n      dup3\n      add\n      swap2\n    tag_201:\n      pop\n      pop\n      pop\n      pop\n      pop\n      swap1\n      pop\n        /* \"Contracts/ERC721.sol\":11481:11581  function name() public view virtual override returns (string memory) {... */\n      swap1\n      jump\t// out\n        /* \"Contracts/ERC721.sol\":13040:13261  function getApproved(uint256 tokenId) public view virtual override returns (address) {... */\n    tag_61:\n        /* \"Contracts/ERC721.sol\":13116:13123  address */\n      0x00\n        /* \"Contracts/ERC721.sol\":15344:15360  _owners[tokenId] */\n      dup2\n      dup2\n      mstore\n        /* \"Contracts/ERC721.sol\":15344:15351  _owners */\n      0x02\n        /* \"Contracts/ERC721.sol\":15344:15360  _owners[tokenId] */\n      0x20\n      mstore\n      0x40\n      dup2\n      keccak256\n      sload\n      sub(shl(0xa0, 0x01), 0x01)\n      and\n        /* \"Contracts/ERC721.sol\":13136:13209  require(_exists(tokenId), \"ERC721: approved query for nonexistent token\") */\n      tag_207\n      jumpi\n      mload(0x40)\n      shl(0xe5, 0x461bcd)\n      dup2\n      mstore\n        /* \"#utility.yul\":7235:7237   */\n      0x20\n        /* \"Contracts/ERC721.sol\":13136:13209  require(_exists(tokenId), \"ERC721: approved query for nonexistent token\") */\n      0x04\n      dup3\n      add\n        /* \"#utility.yul\":7217:7238   */\n      mstore\n        /* \"#utility.yul\":7274:7276   */\n      0x2c\n        /* \"#utility.yul\":7254:7272   */\n      0x24\n      dup3\n      add\n        /* \"#utility.yul\":7247:7277   */\n      mstore\n        /* \"#utility.yul\":7313:7347   */\n      0x4552433732313a20617070726f76656420717565727920666f72206e6f6e6578\n        /* \"#utility.yul\":7293:7311   */\n      0x44\n      dup3\n      add\n        /* \"#utility.yul\":7286:7348   */\n      mstore\n      shl(0xa1, 0x34b9ba32b73a103a37b5b2b7)\n        /* \"#utility.yul\":7364:7382   */\n      0x64\n      dup3\n      add\n        /* \"#utility.yul\":7357:7399   */\n      mstore\n        /* \"#utility.yul\":7416:7435   */\n      0x84\n      add\n        /* \"Contracts/ERC721.sol\":13136:13209  require(_exists(tokenId), \"ERC721: approved query for nonexistent token\") */\n      tag_194\n        /* \"#utility.yul\":7033:7441   */\n      jump\n        /* \"Contracts/ERC721.sol\":13136:13209  require(_exists(tokenId), \"ERC721: approved query for nonexistent token\") */\n    tag_207:\n      pop\n        /* \"Contracts/ERC721.sol\":13229:13253  _tokenApprovals[tokenId] */\n      0x00\n      swap1\n      dup2\n      mstore\n        /* \"Contracts/ERC721.sol\":13229:13244  _tokenApprovals */\n      0x04\n        /* \"Contracts/ERC721.sol\":13229:13253  _tokenApprovals[tokenId] */\n      0x20\n      mstore\n      0x40\n      swap1\n      keccak256\n      sload\n      sub(shl(0xa0, 0x01), 0x01)\n      and\n      swap1\n        /* \"Contracts/ERC721.sol\":13040:13261  function getApproved(uint256 tokenId) public view virtual override returns (address) {... */\n      jump\t// out\n        /* \"Contracts/ERC721.sol\":12563:12974  function approve(address to, uint256 tokenId) public virtual override {... */\n    tag_68:\n        /* \"Contracts/ERC721.sol\":12644:12657  address owner */\n      0x00\n        /* \"Contracts/ERC721.sol\":12660:12683  ERC721.ownerOf(tokenId) */\n      tag_211\n        /* \"Contracts/ERC721.sol\":12675:12682  tokenId */\n      dup3\n        /* \"Contracts/ERC721.sol\":12660:12674  ERC721.ownerOf */\n      tag_130\n        /* \"Contracts/ERC721.sol\":12660:12683  ERC721.ownerOf(tokenId) */\n      jump\t// in\n    tag_211:\n        /* \"Contracts/ERC721.sol\":12644:12683  address owner = ERC721.ownerOf(tokenId) */\n      swap1\n      pop\n        /* \"Contracts/ERC721.sol\":12708:12713  owner */\n      dup1\n      sub(shl(0xa0, 0x01), 0x01)\n        /* \"Contracts/ERC721.sol\":12702:12713  to != owner */\n      and\n        /* \"Contracts/ERC721.sol\":12702:12704  to */\n      dup4\n      sub(shl(0xa0, 0x01), 0x01)\n        /* \"Contracts/ERC721.sol\":12702:12713  to != owner */\n      and\n      sub\n        /* \"Contracts/ERC721.sol\":12694:12751  require(to != owner, \"ERC721: approval to current owner\") */\n      tag_212\n      jumpi\n      mload(0x40)\n      shl(0xe5, 0x461bcd)\n      dup2\n      mstore\n        /* \"#utility.yul\":7648:7650   */\n      0x20\n        /* \"Contracts/ERC721.sol\":12694:12751  require(to != owner, \"ERC721: approval to current owner\") */\n      0x04\n      dup3\n      add\n        /* \"#utility.yul\":7630:7651   */\n      mstore\n        /* \"#utility.yul\":7687:7689   */\n      0x21\n        /* \"#utility.yul\":7667:7685   */\n      0x24\n      dup3\n      add\n        /* \"#utility.yul\":7660:7690   */\n      mstore\n        /* \"#utility.yul\":7726:7760   */\n      0x4552433732313a20617070726f76616c20746f2063757272656e74206f776e65\n        /* \"#utility.yul\":7706:7724   */\n      0x44\n      dup3\n      add\n        /* \"#utility.yul\":7699:7761   */\n      mstore\n      shl(0xf9, 0x39)\n        /* \"#utility.yul\":7777:7795   */\n      0x64\n      dup3\n      add\n        /* \"#utility.yul\":7770:7801   */\n      mstore\n        /* \"#utility.yul\":7818:7837   */\n      0x84\n      add\n        /* \"Contracts/ERC721.sol\":12694:12751  require(to != owner, \"ERC721: approval to current owner\") */\n      tag_194\n        /* \"#utility.yul\":7446:7843   */\n      jump\n        /* \"Contracts/ERC721.sol\":12694:12751  require(to != owner, \"ERC721: approval to current owner\") */\n    tag_212:\n        /* \"Contracts/ERC721.sol\":9427:9437  msg.sender */\n      caller\n      sub(shl(0xa0, 0x01), 0x01)\n        /* \"Contracts/ERC721.sol\":12786:12807  _msgSender() == owner */\n      dup3\n      and\n      eq\n      dup1\n        /* \"Contracts/ERC721.sol\":12786:12848  _msgSender() == owner || isApprovedForAll(owner, _msgSender()) */\n      tag_217\n      jumpi\n      pop\n        /* \"Contracts/ERC721.sol\":12811:12848  isApprovedForAll(owner, _msgSender()) */\n      tag_217\n        /* \"Contracts/ERC721.sol\":12828:12833  owner */\n      dup2\n        /* \"Contracts/ERC721.sol\":9427:9437  msg.sender */\n      caller\n        /* \"Contracts/ERC721.sol\":13699:13863  function isApprovedForAll(address owner, address operator) public view virtual override returns (bool) {... */\n      tag_177\n      jump\t// in\n        /* \"Contracts/ERC721.sol\":12811:12848  isApprovedForAll(owner, _msgSender()) */\n    tag_217:\n        /* \"Contracts/ERC721.sol\":12764:12932  require(... */\n      tag_219\n      jumpi\n      mload(0x40)\n      shl(0xe5, 0x461bcd)\n      dup2\n      mstore\n        /* \"#utility.yul\":8050:8052   */\n      0x20\n        /* \"Contracts/ERC721.sol\":12764:12932  require(... */\n      0x04\n      dup3\n      add\n        /* \"#utility.yul\":8032:8053   */\n      mstore\n        /* \"#utility.yul\":8089:8091   */\n      0x38\n        /* \"#utility.yul\":8069:8087   */\n      0x24\n      dup3\n      add\n        /* \"#utility.yul\":8062:8092   */\n      mstore\n        /* \"#utility.yul\":8128:8162   */\n      0x4552433732313a20617070726f76652063616c6c6572206973206e6f74206f77\n        /* \"#utility.yul\":8108:8126   */\n      0x44\n      dup3\n      add\n        /* \"#utility.yul\":8101:8163   */\n      mstore\n        /* \"#utility.yul\":8199:8225   */\n      0x6e6572206e6f7220617070726f76656420666f7220616c6c0000000000000000\n        /* \"#utility.yul\":8179:8197   */\n      0x64\n      dup3\n      add\n        /* \"#utility.yul\":8172:8226   */\n      mstore\n        /* \"#utility.yul\":8243:8262   */\n      0x84\n      add\n        /* \"Contracts/ERC721.sol\":12764:12932  require(... */\n      tag_194\n        /* \"#utility.yul\":7848:8268   */\n      jump\n        /* \"Contracts/ERC721.sol\":12764:12932  require(... */\n    tag_219:\n        /* \"Contracts/ERC721.sol\":12945:12966  _approve(to, tokenId) */\n      tag_222\n        /* \"Contracts/ERC721.sol\":12954:12956  to */\n      dup4\n        /* \"Contracts/ERC721.sol\":12958:12965  tokenId */\n      dup4\n        /* \"Contracts/ERC721.sol\":12945:12953  _approve */\n      tag_223\n        /* \"Contracts/ERC721.sol\":12945:12966  _approve(to, tokenId) */\n      jump\t// in\n    tag_222:\n        /* \"Contracts/ERC721.sol\":12633:12974  {... */\n      pop\n        /* \"Contracts/ERC721.sol\":12563:12974  function approve(address to, uint256 tokenId) public virtual override {... */\n      pop\n      pop\n      jump\t// out\n        /* \"Contracts/ERC721.sol\":25134:25580  function mint() public {... */\n    tag_71:\n        /* \"Contracts/ERC721.sol\":25173:25179  paused */\n      and(0xff, sload(0x0f))\n        /* \"Contracts/ERC721.sol\":25172:25179  !paused */\n      iszero\n        /* \"Contracts/ERC721.sol\":25164:25206  require(!paused, \"the contract is paused\") */\n      tag_225\n      jumpi\n      mload(0x40)\n      shl(0xe5, 0x461bcd)\n      dup2\n      mstore\n        /* \"#utility.yul\":8475:8477   */\n      0x20\n        /* \"Contracts/ERC721.sol\":25164:25206  require(!paused, \"the contract is paused\") */\n      0x04\n      dup3\n      add\n        /* \"#utility.yul\":8457:8478   */\n      mstore\n        /* \"#utility.yul\":8514:8516   */\n      0x16\n        /* \"#utility.yul\":8494:8512   */\n      0x24\n      dup3\n      add\n        /* \"#utility.yul\":8487:8517   */\n      mstore\n      shl(0x52, 0x1d1a194818dbdb9d1c9858dd081a5cc81c185d5cd959)\n        /* \"#utility.yul\":8533:8551   */\n      0x44\n      dup3\n      add\n        /* \"#utility.yul\":8526:8578   */\n      mstore\n        /* \"#utility.yul\":8595:8613   */\n      0x64\n      add\n        /* \"Contracts/ERC721.sol\":25164:25206  require(!paused, \"the contract is paused\") */\n      tag_194\n        /* \"#utility.yul\":8273:8619   */\n      jump\n        /* \"Contracts/ERC721.sol\":25164:25206  require(!paused, \"the contract is paused\") */\n    tag_225:\n        /* \"Contracts/ERC721.sol\":25213:25227  uint256 supply */\n      0x00\n        /* \"Contracts/ERC721.sol\":25230:25243  totalSupply() */\n      tag_228\n        /* \"Contracts/ERC721.sol\":20374:20384  _allTokens */\n      0x08\n        /* \"Contracts/ERC721.sol\":20374:20391  _allTokens.length */\n      sload\n      swap1\n        /* \"Contracts/ERC721.sol\":20286:20399  function totalSupply() public view virtual override returns (uint256) {... */\n      jump\n        /* \"Contracts/ERC721.sol\":25230:25243  totalSupply() */\n    tag_228:\n        /* \"Contracts/ERC721.sol\":25213:25243  uint256 supply = totalSupply() */\n      swap1\n      pop\n        /* \"Contracts/ERC721.sol\":25272:25273  0 */\n      0x00\n        /* \"Contracts/ERC721.sol\":25258:25269  _mintAmount */\n      sload(0x0e)\n        /* \"Contracts/ERC721.sol\":25258:25273  _mintAmount > 0 */\n      gt\n        /* \"Contracts/ERC721.sol\":25250:25305  require(_mintAmount > 0, \"need to mint at least 1 NFT\") */\n      tag_229\n      jumpi\n      mload(0x40)\n      shl(0xe5, 0x461bcd)\n      dup2\n      mstore\n        /* \"#utility.yul\":8826:8828   */\n      0x20\n        /* \"Contracts/ERC721.sol\":25250:25305  require(_mintAmount > 0, \"need to mint at least 1 NFT\") */\n      0x04\n      dup3\n      add\n        /* \"#utility.yul\":8808:8829   */\n      mstore\n        /* \"#utility.yul\":8865:8867   */\n      0x1b\n        /* \"#utility.yul\":8845:8863   */\n      0x24\n      dup3\n      add\n        /* \"#utility.yul\":8838:8868   */\n      mstore\n        /* \"#utility.yul\":8904:8933   */\n      0x6e65656420746f206d696e74206174206c656173742031204e46540000000000\n        /* \"#utility.yul\":8884:8902   */\n      0x44\n      dup3\n      add\n        /* \"#utility.yul\":8877:8934   */\n      mstore\n        /* \"#utility.yul\":8951:8969   */\n      0x64\n      add\n        /* \"Contracts/ERC721.sol\":25250:25305  require(_mintAmount > 0, \"need to mint at least 1 NFT\") */\n      tag_194\n        /* \"#utility.yul\":8624:8975   */\n      jump\n        /* \"Contracts/ERC721.sol\":25250:25305  require(_mintAmount > 0, \"need to mint at least 1 NFT\") */\n    tag_229:\n        /* \"Contracts/ERC721.sol\":25456:25457  1 */\n      0x01\n        /* \"Contracts/ERC721.sol\":25439:25575  for (uint256 i = 1; i <= _mintAmount; i++) {... */\n    tag_232:\n        /* \"Contracts/ERC721.sol\":25464:25475  _mintAmount */\n      sload(0x0e)\n        /* \"Contracts/ERC721.sol\":25459:25460  i */\n      dup2\n        /* \"Contracts/ERC721.sol\":25459:25475  i <= _mintAmount */\n      gt\n        /* \"Contracts/ERC721.sol\":25439:25575  for (uint256 i = 1; i <= _mintAmount; i++) {... */\n      tag_233\n      jumpi\n        /* \"Contracts/ERC721.sol\":25512:25522  msg.sender */\n      caller\n        /* \"Contracts/ERC721.sol\":25491:25523  addressMintedBalance[msg.sender] */\n      0x00\n      swap1\n      dup2\n      mstore\n        /* \"Contracts/ERC721.sol\":25491:25511  addressMintedBalance */\n      0x10\n        /* \"Contracts/ERC721.sol\":25491:25523  addressMintedBalance[msg.sender] */\n      0x20\n      mstore\n      0x40\n      dup2\n      keccak256\n        /* \"Contracts/ERC721.sol\":25491:25525  addressMintedBalance[msg.sender]++ */\n      dup1\n      sload\n      swap2\n      tag_235\n      dup4\n      tag_236\n      jump\t// in\n    tag_235:\n      swap1\n      swap2\n      sstore\n      pop\n        /* \"Contracts/ERC721.sol\":25534:25567  _safeMint(msg.sender, supply + i) */\n      tag_237\n      swap1\n      pop\n        /* \"Contracts/ERC721.sol\":25544:25554  msg.sender */\n      caller\n        /* \"Contracts/ERC721.sol\":25556:25566  supply + i */\n      tag_238\n        /* \"Contracts/ERC721.sol\":25565:25566  i */\n      dup4\n        /* \"Contracts/ERC721.sol\":25556:25562  supply */\n      dup6\n        /* \"Contracts/ERC721.sol\":25556:25566  supply + i */\n      tag_239\n      jump\t// in\n    tag_238:\n        /* \"Contracts/ERC721.sol\":25534:25543  _safeMint */\n      tag_240\n        /* \"Contracts/ERC721.sol\":25534:25567  _safeMint(msg.sender, supply + i) */\n      jump\t// in\n    tag_237:\n        /* \"Contracts/ERC721.sol\":25477:25480  i++ */\n      dup1\n      tag_241\n      dup2\n      tag_236\n      jump\t// in\n    tag_241:\n      swap2\n      pop\n      pop\n        /* \"Contracts/ERC721.sol\":25439:25575  for (uint256 i = 1; i <= _mintAmount; i++) {... */\n      jump(tag_232)\n    tag_233:\n      pop\n        /* \"Contracts/ERC721.sol\":25157:25580  {... */\n      pop\n        /* \"Contracts/ERC721.sol\":25134:25580  function mint() public {... */\n      jump\t// out\n        /* \"Contracts/ERC721.sol\":13930:14269  function transferFrom(... */\n    tag_91:\n        /* \"Contracts/ERC721.sol\":14125:14166  _isApprovedOrOwner(_msgSender(), tokenId) */\n      tag_244\n        /* \"Contracts/ERC721.sol\":9427:9437  msg.sender */\n      caller\n        /* \"Contracts/ERC721.sol\":14158:14165  tokenId */\n      dup3\n        /* \"Contracts/ERC721.sol\":14125:14143  _isApprovedOrOwner */\n      tag_246\n        /* \"Contracts/ERC721.sol\":14125:14166  _isApprovedOrOwner(_msgSender(), tokenId) */\n      jump\t// in\n    tag_244:\n        /* \"Contracts/ERC721.sol\":14117:14220  require(_isApprovedOrOwner(_msgSender(), tokenId), \"ERC721: transfer caller is not owner nor approved\") */\n      tag_247\n      jumpi\n      mload(0x40)\n      shl(0xe5, 0x461bcd)\n      dup2\n      mstore\n      0x04\n      add\n      tag_194\n      swap1\n      tag_249\n      jump\t// in\n    tag_247:\n        /* \"Contracts/ERC721.sol\":14233:14261  _transfer(from, to, tokenId) */\n      tag_222\n        /* \"Contracts/ERC721.sol\":14243:14247  from */\n      dup4\n        /* \"Contracts/ERC721.sol\":14249:14251  to */\n      dup4\n        /* \"Contracts/ERC721.sol\":14253:14260  tokenId */\n      dup4\n        /* \"Contracts/ERC721.sol\":14233:14242  _transfer */\n      tag_251\n        /* \"Contracts/ERC721.sol\":14233:14261  _transfer(from, to, tokenId) */\n      jump\t// in\n        /* \"Contracts/ERC721.sol\":19954:20210  function tokenOfOwnerByIndex(address owner, uint256 index) public view virtual override returns (uint256) {... */\n    tag_95:\n        /* \"Contracts/ERC721.sol\":20051:20058  uint256 */\n      0x00\n        /* \"Contracts/ERC721.sol\":20087:20110  ERC721.balanceOf(owner) */\n      tag_253\n        /* \"Contracts/ERC721.sol\":20104:20109  owner */\n      dup4\n        /* \"Contracts/ERC721.sol\":20087:20103  ERC721.balanceOf */\n      tag_139\n        /* \"Contracts/ERC721.sol\":20087:20110  ERC721.balanceOf(owner) */\n      jump\t// in\n    tag_253:\n        /* \"Contracts/ERC721.sol\":20079:20084  index */\n      dup3\n        /* \"Contracts/ERC721.sol\":20079:20110  index < ERC721.balanceOf(owner) */\n      lt\n        /* \"Contracts/ERC721.sol\":20071:20158  require(index < ERC721.balanceOf(owner), \"ERC721Enumerable: owner index out of bounds\") */\n      tag_254\n      jumpi\n      mload(0x40)\n      shl(0xe5, 0x461bcd)\n      dup2\n      mstore\n        /* \"#utility.yul\":10005:10007   */\n      0x20\n        /* \"Contracts/ERC721.sol\":20071:20158  require(index < ERC721.balanceOf(owner), \"ERC721Enumerable: owner index out of bounds\") */\n      0x04\n      dup3\n      add\n        /* \"#utility.yul\":9987:10008   */\n      mstore\n        /* \"#utility.yul\":10044:10046   */\n      0x2b\n        /* \"#utility.yul\":10024:10042   */\n      0x24\n      dup3\n      add\n        /* \"#utility.yul\":10017:10047   */\n      mstore\n        /* \"#utility.yul\":10083:10117   */\n      0x455243373231456e756d657261626c653a206f776e657220696e646578206f75\n        /* \"#utility.yul\":10063:10081   */\n      0x44\n      dup3\n      add\n        /* \"#utility.yul\":10056:10118   */\n      mstore\n      shl(0xa8, 0x74206f6620626f756e6473)\n        /* \"#utility.yul\":10134:10152   */\n      0x64\n      dup3\n      add\n        /* \"#utility.yul\":10127:10168   */\n      mstore\n        /* \"#utility.yul\":10185:10204   */\n      0x84\n      add\n        /* \"Contracts/ERC721.sol\":20071:20158  require(index < ERC721.balanceOf(owner), \"ERC721Enumerable: owner index out of bounds\") */\n      tag_194\n        /* \"#utility.yul\":9803:10210   */\n      jump\n        /* \"Contracts/ERC721.sol\":20071:20158  require(index < ERC721.balanceOf(owner), \"ERC721Enumerable: owner index out of bounds\") */\n    tag_254:\n      pop\n      sub(shl(0xa0, 0x01), 0x01)\n        /* \"Contracts/ERC721.sol\":20176:20195  _ownedTokens[owner] */\n      swap2\n      swap1\n      swap2\n      and\n      0x00\n      swap1\n      dup2\n      mstore\n        /* \"Contracts/ERC721.sol\":20176:20188  _ownedTokens */\n      0x06\n        /* \"Contracts/ERC721.sol\":20176:20195  _ownedTokens[owner] */\n      0x20\n      swap1\n      dup2\n      mstore\n      0x40\n      dup1\n      dup4\n      keccak256\n        /* \"Contracts/ERC721.sol\":20176:20202  _ownedTokens[owner][index] */\n      swap4\n      dup4\n      mstore\n      swap3\n      swap1\n      mstore\n      keccak256\n      sload\n      swap1\n        /* \"Contracts/ERC721.sol\":19954:20210  function tokenOfOwnerByIndex(address owner, uint256 index) public view virtual override returns (uint256) {... */\n      jump\t// out\n        /* \"Contracts/ERC721.sol\":26783:26928  function withdraw() public payable onlyOwner {... */\n    tag_98:\n        /* \"Contracts/ERC721.sol\":23903:23909  _owner */\n      and(sub(shl(0xa0, 0x01), 0x01), sload(0x0a))\n        /* \"Contracts/ERC721.sol\":9427:9437  msg.sender */\n      caller\n        /* \"Contracts/ERC721.sol\":23965:23988  owner() == _msgSender() */\n      eq\n        /* \"Contracts/ERC721.sol\":23957:24025  require(owner() == _msgSender(), \"Ownable: caller is not the owner\") */\n      tag_260\n      jumpi\n      mload(0x40)\n      shl(0xe5, 0x461bcd)\n      dup2\n      mstore\n      0x04\n      add\n      tag_194\n      swap1\n      tag_195\n      jump\t// in\n    tag_260:\n        /* \"Contracts/ERC721.sol\":26836:26843  bool os */\n      0x00\n        /* \"Contracts/ERC721.sol\":26857:26864  owner() */\n      tag_263\n        /* \"Contracts/ERC721.sol\":23903:23909  _owner */\n      and(sub(shl(0xa0, 0x01), 0x01), sload(0x0a))\n      swap1\n        /* \"Contracts/ERC721.sol\":23830:23917  function owner() public view virtual returns (address) {... */\n      jump\n        /* \"Contracts/ERC721.sol\":26857:26864  owner() */\n    tag_263:\n      sub(shl(0xa0, 0x01), 0x01)\n        /* \"Contracts/ERC721.sol\":26849:26870  payable(owner()).call */\n      and\n        /* \"Contracts/ERC721.sol\":26878:26899  address(this).balance */\n      selfbalance\n        /* \"Contracts/ERC721.sol\":26849:26904  payable(owner()).call{value: address(this).balance}(\"\") */\n      mload(0x40)\n      0x00\n      mload(0x40)\n      dup1\n      dup4\n      sub\n      dup2\n      dup6\n      dup8\n      gas\n      call\n      swap3\n      pop\n      pop\n      pop\n      returndatasize\n      dup1\n      0x00\n      dup2\n      eq\n      tag_268\n      jumpi\n      mload(0x40)\n      swap2\n      pop\n      and(add(returndatasize, 0x3f), not(0x1f))\n      dup3\n      add\n      0x40\n      mstore\n      returndatasize\n      dup3\n      mstore\n      returndatasize\n      0x00\n      0x20\n      dup5\n      add\n      returndatacopy\n      jump(tag_267)\n    tag_268:\n      0x60\n      swap2\n      pop\n    tag_267:\n      pop\n        /* \"Contracts/ERC721.sol\":26835:26904  (bool os, ) = payable(owner()).call{value: address(this).balance}(\"\") */\n      pop\n      swap1\n      pop\n        /* \"Contracts/ERC721.sol\":26919:26921  os */\n      dup1\n        /* \"Contracts/ERC721.sol\":26911:26922  require(os) */\n      tag_269\n      jumpi\n      0x00\n      dup1\n      revert\n    tag_269:\n        /* \"Contracts/ERC721.sol\":26828:26928  {... */\n      pop\n        /* \"Contracts/ERC721.sol\":26783:26928  function withdraw() public payable onlyOwner {... */\n      jump\t// out\n        /* \"Contracts/ERC721.sol\":14340:14525  function safeTransferFrom(... */\n    tag_102:\n        /* \"Contracts/ERC721.sol\":14478:14517  safeTransferFrom(from, to, tokenId, \"\") */\n      tag_222\n        /* \"Contracts/ERC721.sol\":14495:14499  from */\n      dup4\n        /* \"Contracts/ERC721.sol\":14501:14503  to */\n      dup4\n        /* \"Contracts/ERC721.sol\":14505:14512  tokenId */\n      dup4\n        /* \"Contracts/ERC721.sol\":14478:14517  safeTransferFrom(from, to, tokenId, \"\") */\n      mload(0x40)\n      dup1\n      0x20\n      add\n      0x40\n      mstore\n      dup1\n      0x00\n      dup2\n      mstore\n      pop\n        /* \"Contracts/ERC721.sol\":14478:14494  safeTransferFrom */\n      tag_161\n        /* \"Contracts/ERC721.sol\":14478:14517  safeTransferFrom(from, to, tokenId, \"\") */\n      jump\t// in\n        /* \"Contracts/ERC721.sol\":25588:25936  function walletOfOwner(address _owner)... */\n    tag_106:\n        /* \"Contracts/ERC721.sol\":25663:25679  uint256[] memory */\n      0x60\n        /* \"Contracts/ERC721.sol\":25691:25714  uint256 ownerTokenCount */\n      0x00\n        /* \"Contracts/ERC721.sol\":25717:25734  balanceOf(_owner) */\n      tag_273\n        /* \"Contracts/ERC721.sol\":25727:25733  _owner */\n      dup4\n        /* \"Contracts/ERC721.sol\":25717:25726  balanceOf */\n      tag_139\n        /* \"Contracts/ERC721.sol\":25717:25734  balanceOf(_owner) */\n      jump\t// in\n    tag_273:\n        /* \"Contracts/ERC721.sol\":25691:25734  uint256 ownerTokenCount = balanceOf(_owner) */\n      swap1\n      pop\n        /* \"Contracts/ERC721.sol\":25741:25766  uint256[] memory tokenIds */\n      0x00\n        /* \"Contracts/ERC721.sol\":25783:25798  ownerTokenCount */\n      dup2\n        /* \"Contracts/ERC721.sol\":25769:25799  new uint256[](ownerTokenCount) */\n      0xffffffffffffffff\n      dup2\n      gt\n      iszero\n      tag_275\n      jumpi\n      tag_275\n      tag_276\n      jump\t// in\n    tag_275:\n      mload(0x40)\n      swap1\n      dup1\n      dup3\n      mstore\n      dup1\n      0x20\n      mul\n      0x20\n      add\n      dup3\n      add\n      0x40\n      mstore\n      dup1\n      iszero\n      tag_277\n      jumpi\n      dup2\n      0x20\n      add\n      0x20\n      dup3\n      mul\n      dup1\n      calldatasize\n      dup4\n      calldatacopy\n      add\n      swap1\n      pop\n    tag_277:\n      pop\n        /* \"Contracts/ERC721.sol\":25741:25799  uint256[] memory tokenIds = new uint256[](ownerTokenCount) */\n      swap1\n      pop\n        /* \"Contracts/ERC721.sol\":25811:25820  uint256 i */\n      0x00\n        /* \"Contracts/ERC721.sol\":25806:25909  for (uint256 i; i < ownerTokenCount; i++) {... */\n    tag_278:\n        /* \"Contracts/ERC721.sol\":25826:25841  ownerTokenCount */\n      dup3\n        /* \"Contracts/ERC721.sol\":25822:25823  i */\n      dup2\n        /* \"Contracts/ERC721.sol\":25822:25841  i < ownerTokenCount */\n      lt\n        /* \"Contracts/ERC721.sol\":25806:25909  for (uint256 i; i < ownerTokenCount; i++) {... */\n      iszero\n      tag_279\n      jumpi\n        /* \"Contracts/ERC721.sol\":25871:25901  tokenOfOwnerByIndex(_owner, i) */\n      tag_281\n        /* \"Contracts/ERC721.sol\":25891:25897  _owner */\n      dup6\n        /* \"Contracts/ERC721.sol\":25899:25900  i */\n      dup3\n        /* \"Contracts/ERC721.sol\":25871:25890  tokenOfOwnerByIndex */\n      tag_95\n        /* \"Contracts/ERC721.sol\":25871:25901  tokenOfOwnerByIndex(_owner, i) */\n      jump\t// in\n    tag_281:\n        /* \"Contracts/ERC721.sol\":25857:25865  tokenIds */\n      dup3\n        /* \"Contracts/ERC721.sol\":25866:25867  i */\n      dup3\n        /* \"Contracts/ERC721.sol\":25857:25868  tokenIds[i] */\n      dup2\n      mload\n      dup2\n      lt\n      tag_283\n      jumpi\n      tag_283\n      tag_284\n      jump\t// in\n    tag_283:\n      0x20\n      swap1\n      dup2\n      mul\n      swap2\n      swap1\n      swap2\n      add\n      add\n        /* \"Contracts/ERC721.sol\":25857:25901  tokenIds[i] = tokenOfOwnerByIndex(_owner, i) */\n      mstore\n        /* \"Contracts/ERC721.sol\":25843:25846  i++ */\n      dup1\n      tag_285\n      dup2\n      tag_236\n      jump\t// in\n    tag_285:\n      swap2\n      pop\n      pop\n        /* \"Contracts/ERC721.sol\":25806:25909  for (uint256 i; i < ownerTokenCount; i++) {... */\n      jump(tag_278)\n    tag_279:\n      pop\n        /* \"Contracts/ERC721.sol\":25922:25930  tokenIds */\n      swap4\n        /* \"Contracts/ERC721.sol\":25588:25936  function walletOfOwner(address _owner)... */\n      swap3\n      pop\n      pop\n      pop\n      jump\t// out\n        /* \"Contracts/ERC721.sol\":26379:26459  function setCost(uint256 _newCost) public onlyOwner {... */\n    tag_112:\n        /* \"Contracts/ERC721.sol\":23903:23909  _owner */\n      and(sub(shl(0xa0, 0x01), 0x01), sload(0x0a))\n        /* \"Contracts/ERC721.sol\":9427:9437  msg.sender */\n      caller\n        /* \"Contracts/ERC721.sol\":23965:23988  owner() == _msgSender() */\n      eq\n        /* \"Contracts/ERC721.sol\":23957:24025  require(owner() == _msgSender(), \"Ownable: caller is not the owner\") */\n      tag_289\n      jumpi\n      mload(0x40)\n      shl(0xe5, 0x461bcd)\n      dup2\n      mstore\n      0x04\n      add\n      tag_194\n      swap1\n      tag_195\n      jump\t// in\n    tag_289:\n        /* \"Contracts/ERC721.sol\":26438:26442  cost */\n      0x0d\n        /* \"Contracts/ERC721.sol\":26438:26453  cost = _newCost */\n      sstore\n        /* \"Contracts/ERC721.sol\":26379:26459  function setCost(uint256 _newCost) public onlyOwner {... */\n      jump\t// out\n        /* \"Contracts/ERC721.sol\":20476:20709  function tokenByIndex(uint256 index) public view virtual override returns (uint256) {... */\n    tag_116:\n        /* \"Contracts/ERC721.sol\":20551:20558  uint256 */\n      0x00\n        /* \"Contracts/ERC721.sol\":20587:20617  ERC721Enumerable.totalSupply() */\n      tag_293\n        /* \"Contracts/ERC721.sol\":20374:20384  _allTokens */\n      0x08\n        /* \"Contracts/ERC721.sol\":20374:20391  _allTokens.length */\n      sload\n      swap1\n        /* \"Contracts/ERC721.sol\":20286:20399  function totalSupply() public view virtual override returns (uint256) {... */\n      jump\n        /* \"Contracts/ERC721.sol\":20587:20617  ERC721Enumerable.totalSupply() */\n    tag_293:\n        /* \"Contracts/ERC721.sol\":20579:20584  index */\n      dup3\n        /* \"Contracts/ERC721.sol\":20579:20617  index < ERC721Enumerable.totalSupply() */\n      lt\n        /* \"Contracts/ERC721.sol\":20571:20666  require(index < ERC721Enumerable.totalSupply(), \"ERC721Enumerable: global index out of bounds\") */\n      tag_294\n      jumpi\n      mload(0x40)\n      shl(0xe5, 0x461bcd)\n      dup2\n      mstore\n        /* \"#utility.yul\":10759:10761   */\n      0x20\n        /* \"Contracts/ERC721.sol\":20571:20666  require(index < ERC721Enumerable.totalSupply(), \"ERC721Enumerable: global index out of bounds\") */\n      0x04\n      dup3\n      add\n        /* \"#utility.yul\":10741:10762   */\n      mstore\n        /* \"#utility.yul\":10798:10800   */\n      0x2c\n        /* \"#utility.yul\":10778:10796   */\n      0x24\n      dup3\n      add\n        /* \"#utility.yul\":10771:10801   */\n      mstore\n        /* \"#utility.yul\":10837:10871   */\n      0x455243373231456e756d657261626c653a20676c6f62616c20696e646578206f\n        /* \"#utility.yul\":10817:10835   */\n      0x44\n      dup3\n      add\n        /* \"#utility.yul\":10810:10872   */\n      mstore\n      shl(0xa0, 0x7574206f6620626f756e6473)\n        /* \"#utility.yul\":10888:10906   */\n      0x64\n      dup3\n      add\n        /* \"#utility.yul\":10881:10923   */\n      mstore\n        /* \"#utility.yul\":10940:10959   */\n      0x84\n      add\n        /* \"Contracts/ERC721.sol\":20571:20666  require(index < ERC721Enumerable.totalSupply(), \"ERC721Enumerable: global index out of bounds\") */\n      tag_194\n        /* \"#utility.yul\":10557:10965   */\n      jump\n        /* \"Contracts/ERC721.sol\":20571:20666  require(index < ERC721Enumerable.totalSupply(), \"ERC721Enumerable: global index out of bounds\") */\n    tag_294:\n        /* \"Contracts/ERC721.sol\":20684:20694  _allTokens */\n      0x08\n        /* \"Contracts/ERC721.sol\":20695:20700  index */\n      dup3\n        /* \"Contracts/ERC721.sol\":20684:20701  _allTokens[index] */\n      dup2\n      sload\n      dup2\n      lt\n      tag_298\n      jumpi\n      tag_298\n      tag_284\n      jump\t// in\n    tag_298:\n      swap1\n      0x00\n      mstore\n      keccak256(0x00, 0x20)\n      add\n      sload\n        /* \"Contracts/ERC721.sol\":20677:20701  return _allTokens[index] */\n      swap1\n      pop\n        /* \"Contracts/ERC721.sol\":20476:20709  function tokenByIndex(uint256 index) public view virtual override returns (uint256) {... */\n      swap2\n      swap1\n      pop\n      jump\t// out\n        /* \"Contracts/ERC721.sol\":26465:26563  function setBaseURI(string memory _newBaseURI) public onlyOwner {... */\n    tag_122:\n        /* \"Contracts/ERC721.sol\":23903:23909  _owner */\n      and(sub(shl(0xa0, 0x01), 0x01), sload(0x0a))\n        /* \"Contracts/ERC721.sol\":9427:9437  msg.sender */\n      caller\n        /* \"Contracts/ERC721.sol\":23965:23988  owner() == _msgSender() */\n      eq\n        /* \"Contracts/ERC721.sol\":23957:24025  require(owner() == _msgSender(), \"Ownable: caller is not the owner\") */\n      tag_303\n      jumpi\n      mload(0x40)\n      shl(0xe5, 0x461bcd)\n      dup2\n      mstore\n      0x04\n      add\n      tag_194\n      swap1\n      tag_195\n      jump\t// in\n    tag_303:\n        /* \"Contracts/ERC721.sol\":26536:26557  baseURI = _newBaseURI */\n      dup1\n      mload\n      tag_233\n      swap1\n        /* \"Contracts/ERC721.sol\":26536:26543  baseURI */\n      0x0b\n      swap1\n        /* \"Contracts/ERC721.sol\":26536:26557  baseURI = _newBaseURI */\n      0x20\n      dup5\n      add\n      swap1\n      tag_307\n      jump\t// in\n        /* \"Contracts/ERC721.sol\":11175:11414  function ownerOf(uint256 tokenId) public view virtual override returns (address) {... */\n    tag_130:\n        /* \"Contracts/ERC721.sol\":11247:11254  address */\n      0x00\n        /* \"Contracts/ERC721.sol\":11283:11299  _owners[tokenId] */\n      dup2\n      dup2\n      mstore\n        /* \"Contracts/ERC721.sol\":11283:11290  _owners */\n      0x02\n        /* \"Contracts/ERC721.sol\":11283:11299  _owners[tokenId] */\n      0x20\n      mstore\n      0x40\n      dup2\n      keccak256\n      sload\n      sub(shl(0xa0, 0x01), 0x01)\n      and\n      dup1\n        /* \"Contracts/ERC721.sol\":11310:11383  require(owner != address(0), \"ERC721: owner query for nonexistent token\") */\n      tag_187\n      jumpi\n      mload(0x40)\n      shl(0xe5, 0x461bcd)\n      dup2\n      mstore\n        /* \"#utility.yul\":11172:11174   */\n      0x20\n        /* \"Contracts/ERC721.sol\":11310:11383  require(owner != address(0), \"ERC721: owner query for nonexistent token\") */\n      0x04\n      dup3\n      add\n        /* \"#utility.yul\":11154:11175   */\n      mstore\n        /* \"#utility.yul\":11211:11213   */\n      0x29\n        /* \"#utility.yul\":11191:11209   */\n      0x24\n      dup3\n      add\n        /* \"#utility.yul\":11184:11214   */\n      mstore\n        /* \"#utility.yul\":11250:11284   */\n      0x4552433732313a206f776e657220717565727920666f72206e6f6e6578697374\n        /* \"#utility.yul\":11230:11248   */\n      0x44\n      dup3\n      add\n        /* \"#utility.yul\":11223:11285   */\n      mstore\n      shl(0xb9, 0x32b73a103a37b5b2b7)\n        /* \"#utility.yul\":11301:11319   */\n      0x64\n      dup3\n      add\n        /* \"#utility.yul\":11294:11333   */\n      mstore\n        /* \"#utility.yul\":11350:11369   */\n      0x84\n      add\n        /* \"Contracts/ERC721.sol\":11310:11383  require(owner != address(0), \"ERC721: owner query for nonexistent token\") */\n      tag_194\n        /* \"#utility.yul\":10970:11375   */\n      jump\n        /* \"Contracts/ERC721.sol\":24617:24638  string public baseURI */\n    tag_134:\n      0x0b\n      dup1\n      sload\n      tag_312\n      swap1\n      tag_199\n      jump\t// in\n    tag_312:\n      dup1\n      0x1f\n      add\n      0x20\n      dup1\n      swap2\n      div\n      mul\n      0x20\n      add\n      mload(0x40)\n      swap1\n      dup2\n      add\n      0x40\n      mstore\n      dup1\n      swap3\n      swap2\n      swap1\n      dup2\n      dup2\n      mstore\n      0x20\n      add\n      dup3\n      dup1\n      sload\n      tag_313\n      swap1\n      tag_199\n      jump\t// in\n    tag_313:\n      dup1\n      iszero\n      tag_314\n      jumpi\n      dup1\n      0x1f\n      lt\n      tag_315\n      jumpi\n      0x0100\n      dup1\n      dup4\n      sload\n      div\n      mul\n      dup4\n      mstore\n      swap2\n      0x20\n      add\n      swap2\n      jump(tag_314)\n    tag_315:\n      dup3\n      add\n      swap2\n      swap1\n      0x00\n      mstore\n      keccak256(0x00, 0x20)\n      swap1\n    tag_316:\n      dup2\n      sload\n      dup2\n      mstore\n      swap1\n      0x01\n      add\n      swap1\n      0x20\n      add\n      dup1\n      dup4\n      gt\n      tag_316\n      jumpi\n      dup3\n      swap1\n      sub\n      0x1f\n      and\n      dup3\n      add\n      swap2\n    tag_314:\n      pop\n      pop\n      pop\n      pop\n      pop\n      dup2\n      jump\t// out\n        /* \"Contracts/ERC721.sol\":10905:11113  function balanceOf(address owner) public view virtual override returns (uint256) {... */\n    tag_139:\n        /* \"Contracts/ERC721.sol\":10977:10984  uint256 */\n      0x00\n      sub(shl(0xa0, 0x01), 0x01)\n        /* \"Contracts/ERC721.sol\":11005:11024  owner != address(0) */\n      dup3\n      and\n        /* \"Contracts/ERC721.sol\":10997:11071  require(owner != address(0), \"ERC721: balance query for the zero address\") */\n      tag_318\n      jumpi\n      mload(0x40)\n      shl(0xe5, 0x461bcd)\n      dup2\n      mstore\n        /* \"#utility.yul\":11582:11584   */\n      0x20\n        /* \"Contracts/ERC721.sol\":10997:11071  require(owner != address(0), \"ERC721: balance query for the zero address\") */\n      0x04\n      dup3\n      add\n        /* \"#utility.yul\":11564:11585   */\n      mstore\n        /* \"#utility.yul\":11621:11623   */\n      0x2a\n        /* \"#utility.yul\":11601:11619   */\n      0x24\n      dup3\n      add\n        /* \"#utility.yul\":11594:11624   */\n      mstore\n        /* \"#utility.yul\":11660:11694   */\n      0x4552433732313a2062616c616e636520717565727920666f7220746865207a65\n        /* \"#utility.yul\":11640:11658   */\n      0x44\n      dup3\n      add\n        /* \"#utility.yul\":11633:11695   */\n      mstore\n      shl(0xb0, 0x726f2061646472657373)\n        /* \"#utility.yul\":11711:11729   */\n      0x64\n      dup3\n      add\n        /* \"#utility.yul\":11704:11744   */\n      mstore\n        /* \"#utility.yul\":11761:11780   */\n      0x84\n      add\n        /* \"Contracts/ERC721.sol\":10997:11071  require(owner != address(0), \"ERC721: balance query for the zero address\") */\n      tag_194\n        /* \"#utility.yul\":11380:11786   */\n      jump\n        /* \"Contracts/ERC721.sol\":10997:11071  require(owner != address(0), \"ERC721: balance query for the zero address\") */\n    tag_318:\n      pop\n      sub(shl(0xa0, 0x01), 0x01)\n        /* \"Contracts/ERC721.sol\":11089:11105  _balances[owner] */\n      and\n      0x00\n      swap1\n      dup2\n      mstore\n        /* \"Contracts/ERC721.sol\":11089:11098  _balances */\n      0x03\n        /* \"Contracts/ERC721.sol\":11089:11105  _balances[owner] */\n      0x20\n      mstore\n      0x40\n      swap1\n      keccak256\n      sload\n      swap1\n        /* \"Contracts/ERC721.sol\":10905:11113  function balanceOf(address owner) public view virtual override returns (uint256) {... */\n      jump\t// out\n        /* \"Contracts/ERC721.sol\":24053:24147  function renounceOwnership() public virtual onlyOwner {... */\n    tag_143:\n        /* \"Contracts/ERC721.sol\":23903:23909  _owner */\n      and(sub(shl(0xa0, 0x01), 0x01), sload(0x0a))\n        /* \"Contracts/ERC721.sol\":9427:9437  msg.sender */\n      caller\n        /* \"Contracts/ERC721.sol\":23965:23988  owner() == _msgSender() */\n      eq\n        /* \"Contracts/ERC721.sol\":23957:24025  require(owner() == _msgSender(), \"Ownable: caller is not the owner\") */\n      tag_324\n      jumpi\n      mload(0x40)\n      shl(0xe5, 0x461bcd)\n      dup2\n      mstore\n      0x04\n      add\n      tag_194\n      swap1\n      tag_195\n      jump\t// in\n    tag_324:\n        /* \"Contracts/ERC721.sol\":24118:24139  _setOwner(address(0)) */\n      tag_327\n        /* \"Contracts/ERC721.sol\":24136:24137  0 */\n      0x00\n        /* \"Contracts/ERC721.sol\":24118:24127  _setOwner */\n      tag_328\n        /* \"Contracts/ERC721.sol\":24118:24139  _setOwner(address(0)) */\n      jump\t// in\n    tag_327:\n        /* \"Contracts/ERC721.sol\":24053:24147  function renounceOwnership() public virtual onlyOwner {... */\n      jump\t// out\n        /* \"Contracts/ERC721.sol\":11650:11754  function symbol() public view virtual override returns (string memory) {... */\n    tag_150:\n        /* \"Contracts/ERC721.sol\":11706:11719  string memory */\n      0x60\n        /* \"Contracts/ERC721.sol\":11739:11746  _symbol */\n      0x01\n        /* \"Contracts/ERC721.sol\":11732:11746  return _symbol */\n      dup1\n      sload\n      tag_198\n      swap1\n      tag_199\n      jump\t// in\n        /* \"Contracts/ERC721.sol\":13333:13628  function setApprovalForAll(address operator, bool approved) public virtual override {... */\n    tag_156:\n        /* \"Contracts/ERC721.sol\":9427:9437  msg.sender */\n      caller\n      sub(shl(0xa0, 0x01), 0x01)\n        /* \"Contracts/ERC721.sol\":13436:13460  operator != _msgSender() */\n      dup4\n      and\n      sub\n        /* \"Contracts/ERC721.sol\":13428:13490  require(operator != _msgSender(), \"ERC721: approve to caller\") */\n      tag_338\n      jumpi\n      mload(0x40)\n      shl(0xe5, 0x461bcd)\n      dup2\n      mstore\n        /* \"#utility.yul\":11993:11995   */\n      0x20\n        /* \"Contracts/ERC721.sol\":13428:13490  require(operator != _msgSender(), \"ERC721: approve to caller\") */\n      0x04\n      dup3\n      add\n        /* \"#utility.yul\":11975:11996   */\n      mstore\n        /* \"#utility.yul\":12032:12034   */\n      0x19\n        /* \"#utility.yul\":12012:12030   */\n      0x24\n      dup3\n      add\n        /* \"#utility.yul\":12005:12035   */\n      mstore\n        /* \"#utility.yul\":12071:12098   */\n      0x4552433732313a20617070726f766520746f2063616c6c657200000000000000\n        /* \"#utility.yul\":12051:12069   */\n      0x44\n      dup3\n      add\n        /* \"#utility.yul\":12044:12099   */\n      mstore\n        /* \"#utility.yul\":12116:12134   */\n      0x64\n      add\n        /* \"Contracts/ERC721.sol\":13428:13490  require(operator != _msgSender(), \"ERC721: approve to caller\") */\n      tag_194\n        /* \"#utility.yul\":11791:12140   */\n      jump\n        /* \"Contracts/ERC721.sol\":13428:13490  require(operator != _msgSender(), \"ERC721: approve to caller\") */\n    tag_338:\n        /* \"Contracts/ERC721.sol\":9427:9437  msg.sender */\n      caller\n        /* \"Contracts/ERC721.sol\":13503:13535  _operatorApprovals[_msgSender()] */\n      0x00\n      dup2\n      dup2\n      mstore\n        /* \"Contracts/ERC721.sol\":13503:13521  _operatorApprovals */\n      0x05\n        /* \"Contracts/ERC721.sol\":13503:13535  _operatorApprovals[_msgSender()] */\n      0x20\n      swap1\n      dup2\n      mstore\n      0x40\n      dup1\n      dup4\n      keccak256\n      sub(shl(0xa0, 0x01), 0x01)\n        /* \"Contracts/ERC721.sol\":13503:13545  _operatorApprovals[_msgSender()][operator] */\n      dup8\n      and\n      dup1\n      dup6\n      mstore\n      swap1\n      dup4\n      mstore\n      swap3\n      dup2\n      swap1\n      keccak256\n        /* \"Contracts/ERC721.sol\":13503:13556  _operatorApprovals[_msgSender()][operator] = approved */\n      dup1\n      sload\n      not(0xff)\n      and\n      dup7\n      iszero\n      iszero\n      swap1\n      dup2\n      or\n      swap1\n      swap2\n      sstore\n        /* \"Contracts/ERC721.sol\":13572:13620  ApprovalForAll(_msgSender(), operator, approved) */\n      swap1\n      mload\n        /* \"#utility.yul\":540:581   */\n      swap1\n      dup2\n      mstore\n        /* \"Contracts/ERC721.sol\":13503:13545  _operatorApprovals[_msgSender()][operator] */\n      swap2\n      swap3\n        /* \"Contracts/ERC721.sol\":9427:9437  msg.sender */\n      swap2\n        /* \"Contracts/ERC721.sol\":13572:13620  ApprovalForAll(_msgSender(), operator, approved) */\n      0x17307eab39ab6107e8899845ad3d59bd9653f200f220920489ca2b5937696c31\n      swap2\n        /* \"#utility.yul\":513:531   */\n      add\n        /* \"Contracts/ERC721.sol\":13572:13620  ApprovalForAll(_msgSender(), operator, approved) */\n      mload(0x40)\n      dup1\n      swap2\n      sub\n      swap1\n      log3\n        /* \"Contracts/ERC721.sol\":13333:13628  function setApprovalForAll(address operator, bool approved) public virtual override {... */\n      pop\n      pop\n      jump\t// out\n        /* \"Contracts/ERC721.sol\":14596:14924  function safeTransferFrom(... */\n    tag_161:\n        /* \"Contracts/ERC721.sol\":14771:14812  _isApprovedOrOwner(_msgSender(), tokenId) */\n      tag_345\n        /* \"Contracts/ERC721.sol\":9427:9437  msg.sender */\n      caller\n        /* \"Contracts/ERC721.sol\":14804:14811  tokenId */\n      dup4\n        /* \"Contracts/ERC721.sol\":14771:14789  _isApprovedOrOwner */\n      tag_246\n        /* \"Contracts/ERC721.sol\":14771:14812  _isApprovedOrOwner(_msgSender(), tokenId) */\n      jump\t// in\n    tag_345:\n        /* \"Contracts/ERC721.sol\":14763:14866  require(_isApprovedOrOwner(_msgSender(), tokenId), \"ERC721: transfer caller is not owner nor approved\") */\n      tag_347\n      jumpi\n      mload(0x40)\n      shl(0xe5, 0x461bcd)\n      dup2\n      mstore\n      0x04\n      add\n      tag_194\n      swap1\n      tag_249\n      jump\t// in\n    tag_347:\n        /* \"Contracts/ERC721.sol\":14877:14916  _safeTransfer(from, to, tokenId, _data) */\n      tag_349\n        /* \"Contracts/ERC721.sol\":14891:14895  from */\n      dup5\n        /* \"Contracts/ERC721.sol\":14897:14899  to */\n      dup5\n        /* \"Contracts/ERC721.sol\":14901:14908  tokenId */\n      dup5\n        /* \"Contracts/ERC721.sol\":14910:14915  _data */\n      dup5\n        /* \"Contracts/ERC721.sol\":14877:14890  _safeTransfer */\n      tag_350\n        /* \"Contracts/ERC721.sol\":14877:14916  _safeTransfer(from, to, tokenId, _data) */\n      jump\t// in\n    tag_349:\n        /* \"Contracts/ERC721.sol\":14596:14924  function safeTransferFrom(... */\n      pop\n      pop\n      pop\n      pop\n      jump\t// out\n        /* \"Contracts/ERC721.sol\":24643:24680  string public baseExtension = \".json\" */\n    tag_164:\n      0x0c\n      dup1\n      sload\n      tag_312\n      swap1\n      tag_199\n      jump\t// in\n        /* \"Contracts/ERC721.sol\":25942:26369  function tokenURI(uint256 tokenId)... */\n    tag_169:\n        /* \"Contracts/ERC721.sol\":15320:15324  bool */\n      0x00\n        /* \"Contracts/ERC721.sol\":15344:15360  _owners[tokenId] */\n      dup2\n      dup2\n      mstore\n        /* \"Contracts/ERC721.sol\":15344:15351  _owners */\n      0x02\n        /* \"Contracts/ERC721.sol\":15344:15360  _owners[tokenId] */\n      0x20\n      mstore\n      0x40\n      swap1\n      keccak256\n      sload\n        /* \"Contracts/ERC721.sol\":26040:26053  string memory */\n      0x60\n      swap1\n      sub(shl(0xa0, 0x01), 0x01)\n        /* \"Contracts/ERC721.sol\":15344:15360  _owners[tokenId] */\n      and\n        /* \"Contracts/ERC721.sol\":26065:26162  require(... */\n      tag_358\n      jumpi\n      mload(0x40)\n      shl(0xe5, 0x461bcd)\n      dup2\n      mstore\n        /* \"#utility.yul\":12347:12349   */\n      0x20\n        /* \"Contracts/ERC721.sol\":26065:26162  require(... */\n      0x04\n      dup3\n      add\n        /* \"#utility.yul\":12329:12350   */\n      mstore\n        /* \"#utility.yul\":12386:12388   */\n      0x2f\n        /* \"#utility.yul\":12366:12384   */\n      0x24\n      dup3\n      add\n        /* \"#utility.yul\":12359:12389   */\n      mstore\n        /* \"#utility.yul\":12425:12459   */\n      0x4552433732314d657461646174613a2055524920717565727920666f72206e6f\n        /* \"#utility.yul\":12405:12423   */\n      0x44\n      dup3\n      add\n        /* \"#utility.yul\":12398:12460   */\n      mstore\n      shl(0x89, 0x3732bc34b9ba32b73a103a37b5b2b7)\n        /* \"#utility.yul\":12476:12494   */\n      0x64\n      dup3\n      add\n        /* \"#utility.yul\":12469:12514   */\n      mstore\n        /* \"#utility.yul\":12531:12550   */\n      0x84\n      add\n        /* \"Contracts/ERC721.sol\":26065:26162  require(... */\n      tag_194\n        /* \"#utility.yul\":12145:12556   */\n      jump\n        /* \"Contracts/ERC721.sol\":26065:26162  require(... */\n    tag_358:\n        /* \"Contracts/ERC721.sol\":26175:26203  string memory currentBaseURI */\n      0x00\n        /* \"Contracts/ERC721.sol\":26206:26216  _baseURI() */\n      tag_361\n        /* \"Contracts/ERC721.sol\":26206:26214  _baseURI */\n      tag_362\n        /* \"Contracts/ERC721.sol\":26206:26216  _baseURI() */\n      jump\t// in\n    tag_361:\n        /* \"Contracts/ERC721.sol\":26175:26216  string memory currentBaseURI = _baseURI() */\n      swap1\n      pop\n        /* \"Contracts/ERC721.sol\":26261:26262  0 */\n      0x00\n        /* \"Contracts/ERC721.sol\":26236:26250  currentBaseURI */\n      dup2\n        /* \"Contracts/ERC721.sol\":26230:26258  bytes(currentBaseURI).length */\n      mload\n        /* \"Contracts/ERC721.sol\":26230:26262  bytes(currentBaseURI).length > 0 */\n      gt\n        /* \"Contracts/ERC721.sol\":26230:26363  bytes(currentBaseURI).length > 0... */\n      tag_363\n      jumpi\n      mload(0x40)\n      dup1\n      0x20\n      add\n      0x40\n      mstore\n      dup1\n      0x00\n      dup2\n      mstore\n      pop\n      jump(tag_364)\n    tag_363:\n        /* \"Contracts/ERC721.sol\":26298:26312  currentBaseURI */\n      dup1\n        /* \"Contracts/ERC721.sol\":26314:26332  tokenId.toString() */\n      tag_365\n        /* \"Contracts/ERC721.sol\":26314:26321  tokenId */\n      dup5\n        /* \"Contracts/ERC721.sol\":26314:26330  tokenId.toString */\n      tag_366\n        /* \"Contracts/ERC721.sol\":26314:26332  tokenId.toString() */\n      jump\t// in\n    tag_365:\n        /* \"Contracts/ERC721.sol\":26334:26347  baseExtension */\n      0x0c\n        /* \"Contracts/ERC721.sol\":26281:26348  abi.encodePacked(currentBaseURI, tokenId.toString(), baseExtension) */\n      add(0x20, mload(0x40))\n      tag_367\n      swap4\n      swap3\n      swap2\n      swap1\n      tag_368\n      jump\t// in\n    tag_367:\n      mload(0x40)\n      0x20\n      dup2\n      dup4\n      sub\n      sub\n      dup2\n      mstore\n      swap1\n      0x40\n      mstore\n        /* \"Contracts/ERC721.sol\":26230:26363  bytes(currentBaseURI).length > 0... */\n    tag_364:\n        /* \"Contracts/ERC721.sol\":26223:26363  return bytes(currentBaseURI).length > 0... */\n      swap4\n        /* \"Contracts/ERC721.sol\":25942:26369  function tokenURI(uint256 tokenId)... */\n      swap3\n      pop\n      pop\n      pop\n      jump\t// out\n        /* \"Contracts/ERC721.sol\":26571:26693  function setBaseExtension(string memory _newBaseExtension) public onlyOwner {... */\n    tag_174:\n        /* \"Contracts/ERC721.sol\":23903:23909  _owner */\n      and(sub(shl(0xa0, 0x01), 0x01), sload(0x0a))\n        /* \"Contracts/ERC721.sol\":9427:9437  msg.sender */\n      caller\n        /* \"Contracts/ERC721.sol\":23965:23988  owner() == _msgSender() */\n      eq\n        /* \"Contracts/ERC721.sol\":23957:24025  require(owner() == _msgSender(), \"Ownable: caller is not the owner\") */\n      tag_372\n      jumpi\n      mload(0x40)\n      shl(0xe5, 0x461bcd)\n      dup2\n      mstore\n      0x04\n      add\n      tag_194\n      swap1\n      tag_195\n      jump\t// in\n    tag_372:\n        /* \"Contracts/ERC721.sol\":26654:26687  baseExtension = _newBaseExtension */\n      dup1\n      mload\n      tag_233\n      swap1\n        /* \"Contracts/ERC721.sol\":26654:26667  baseExtension */\n      0x0c\n      swap1\n        /* \"Contracts/ERC721.sol\":26654:26687  baseExtension = _newBaseExtension */\n      0x20\n      dup5\n      add\n      swap1\n      tag_307\n      jump\t// in\n        /* \"Contracts/ERC721.sol\":24155:24347  function transferOwnership(address newOwner) public virtual onlyOwner {... */\n    tag_184:\n        /* \"Contracts/ERC721.sol\":23903:23909  _owner */\n      and(sub(shl(0xa0, 0x01), 0x01), sload(0x0a))\n        /* \"Contracts/ERC721.sol\":9427:9437  msg.sender */\n      caller\n        /* \"Contracts/ERC721.sol\":23965:23988  owner() == _msgSender() */\n      eq\n        /* \"Contracts/ERC721.sol\":23957:24025  require(owner() == _msgSender(), \"Ownable: caller is not the owner\") */\n      tag_380\n      jumpi\n      mload(0x40)\n      shl(0xe5, 0x461bcd)\n      dup2\n      mstore\n      0x04\n      add\n      tag_194\n      swap1\n      tag_195\n      jump\t// in\n    tag_380:\n      sub(shl(0xa0, 0x01), 0x01)\n        /* \"Contracts/ERC721.sol\":24244:24266  newOwner != address(0) */\n      dup2\n      and\n        /* \"Contracts/ERC721.sol\":24236:24309  require(newOwner != address(0), \"Ownable: new owner is the zero address\") */\n      tag_383\n      jumpi\n      mload(0x40)\n      shl(0xe5, 0x461bcd)\n      dup2\n      mstore\n        /* \"#utility.yul\":14421:14423   */\n      0x20\n        /* \"Contracts/ERC721.sol\":24236:24309  require(newOwner != address(0), \"Ownable: new owner is the zero address\") */\n      0x04\n      dup3\n      add\n        /* \"#utility.yul\":14403:14424   */\n      mstore\n        /* \"#utility.yul\":14460:14462   */\n      0x26\n        /* \"#utility.yul\":14440:14458   */\n      0x24\n      dup3\n      add\n        /* \"#utility.yul\":14433:14463   */\n      mstore\n        /* \"#utility.yul\":14499:14533   */\n      0x4f776e61626c653a206e6577206f776e657220697320746865207a65726f2061\n        /* \"#utility.yul\":14479:14497   */\n      0x44\n      dup3\n      add\n        /* \"#utility.yul\":14472:14534   */\n      mstore\n      shl(0xd0, 0x646472657373)\n        /* \"#utility.yul\":14550:14568   */\n      0x64\n      dup3\n      add\n        /* \"#utility.yul\":14543:14579   */\n      mstore\n        /* \"#utility.yul\":14596:14615   */\n      0x84\n      add\n        /* \"Contracts/ERC721.sol\":24236:24309  require(newOwner != address(0), \"Ownable: new owner is the zero address\") */\n      tag_194\n        /* \"#utility.yul\":14219:14621   */\n      jump\n        /* \"Contracts/ERC721.sol\":24236:24309  require(newOwner != address(0), \"Ownable: new owner is the zero address\") */\n    tag_383:\n        /* \"Contracts/ERC721.sol\":24320:24339  _setOwner(newOwner) */\n      tag_269\n        /* \"Contracts/ERC721.sol\":24330:24338  newOwner */\n      dup2\n        /* \"Contracts/ERC721.sol\":24320:24329  _setOwner */\n      tag_328\n        /* \"Contracts/ERC721.sol\":24320:24339  _setOwner(newOwner) */\n      jump\t// in\n        /* \"Contracts/ERC721.sol\":10536:10841  function supportsInterface(bytes4 interfaceId) public view virtual override(ERC165, IERC165) returns (bool) {... */\n    tag_188:\n        /* \"Contracts/ERC721.sol\":10638:10642  bool */\n      0x00\n      not(sub(shl(0xe0, 0x01), 0x01))\n        /* \"Contracts/ERC721.sol\":10675:10715  interfaceId == type(IERC721).interfaceId */\n      dup3\n      and\n      shl(0xe0, 0x80ac58cd)\n      eq\n      dup1\n        /* \"Contracts/ERC721.sol\":10675:10780  interfaceId == type(IERC721).interfaceId ||... */\n      tag_388\n      jumpi\n      pop\n      not(sub(shl(0xe0, 0x01), 0x01))\n        /* \"Contracts/ERC721.sol\":10732:10780  interfaceId == type(IERC721Metadata).interfaceId */\n      dup3\n      and\n      shl(0xe0, 0x5b5e139f)\n      eq\n        /* \"Contracts/ERC721.sol\":10675:10780  interfaceId == type(IERC721).interfaceId ||... */\n    tag_388:\n        /* \"Contracts/ERC721.sol\":10675:10833  interfaceId == type(IERC721).interfaceId ||... */\n      dup1\n      tag_187\n      jumpi\n      pop\n      shl(0xe0, 0x01ffc9a7)\n      not(sub(shl(0xe0, 0x01), 0x01))\n        /* \"Contracts/ERC721.sol\":2248:2288  interfaceId == type(IERC165).interfaceId */\n      dup4\n      and\n      eq\n        /* \"Contracts/ERC721.sol\":10797:10833  super.supportsInterface(interfaceId) */\n      tag_187\n        /* \"Contracts/ERC721.sol\":2139:2296  function supportsInterface(bytes4 interfaceId) public view virtual override returns (bool) {... */\n      jump\n        /* \"Contracts/ERC721.sol\":17915:18089  function _approve(address to, uint256 tokenId) internal virtual {... */\n    tag_223:\n        /* \"Contracts/ERC721.sol\":17990:18014  _tokenApprovals[tokenId] */\n      0x00\n      dup2\n      dup2\n      mstore\n        /* \"Contracts/ERC721.sol\":17990:18005  _tokenApprovals */\n      0x04\n        /* \"Contracts/ERC721.sol\":17990:18014  _tokenApprovals[tokenId] */\n      0x20\n      mstore\n      0x40\n      swap1\n      keccak256\n        /* \"Contracts/ERC721.sol\":17990:18019  _tokenApprovals[tokenId] = to */\n      dup1\n      sload\n      not(sub(shl(0xa0, 0x01), 0x01))\n      and\n      sub(shl(0xa0, 0x01), 0x01)\n      dup5\n      and\n      swap1\n      dup2\n      or\n      swap1\n      swap2\n      sstore\n        /* \"Contracts/ERC721.sol\":17990:18014  _tokenApprovals[tokenId] */\n      dup2\n      swap1\n        /* \"Contracts/ERC721.sol\":18044:18067  ERC721.ownerOf(tokenId) */\n      tag_395\n        /* \"Contracts/ERC721.sol\":17990:18014  _tokenApprovals[tokenId] */\n      dup3\n        /* \"Contracts/ERC721.sol\":18044:18058  ERC721.ownerOf */\n      tag_130\n        /* \"Contracts/ERC721.sol\":18044:18067  ERC721.ownerOf(tokenId) */\n      jump\t// in\n    tag_395:\n      sub(shl(0xa0, 0x01), 0x01)\n        /* \"Contracts/ERC721.sol\":18035:18081  Approval(ERC721.ownerOf(tokenId), to, tokenId) */\n      and\n      0x8c5be1e5ebec7d5bd14f71427d1e84f3dd0314c0f7b2291e5b200ac8c7c3b925\n      mload(0x40)\n      mload(0x40)\n      dup1\n      swap2\n      sub\n      swap1\n      log4\n        /* \"Contracts/ERC721.sol\":17915:18089  function _approve(address to, uint256 tokenId) internal virtual {... */\n      pop\n      pop\n      jump\t// out\n        /* \"Contracts/ERC721.sol\":15905:16015  function _safeMint(address to, uint256 tokenId) internal virtual {... */\n    tag_240:\n        /* \"Contracts/ERC721.sol\":15981:16007  _safeMint(to, tokenId, \"\") */\n      tag_233\n        /* \"Contracts/ERC721.sol\":15991:15993  to */\n      dup3\n        /* \"Contracts/ERC721.sol\":15995:16002  tokenId */\n      dup3\n        /* \"Contracts/ERC721.sol\":15981:16007  _safeMint(to, tokenId, \"\") */\n      mload(0x40)\n      dup1\n      0x20\n      add\n      0x40\n      mstore\n      dup1\n      0x00\n      dup2\n      mstore\n      pop\n        /* \"Contracts/ERC721.sol\":15981:15990  _safeMint */\n      tag_398\n        /* \"Contracts/ERC721.sol\":15981:16007  _safeMint(to, tokenId, \"\") */\n      jump\t// in\n        /* \"Contracts/ERC721.sol\":15549:15897  function _isApprovedOrOwner(address spender, uint256 tokenId) internal view virtual returns (bool) {... */\n    tag_246:\n        /* \"Contracts/ERC721.sol\":15642:15646  bool */\n      0x00\n        /* \"Contracts/ERC721.sol\":15344:15360  _owners[tokenId] */\n      dup2\n      dup2\n      mstore\n        /* \"Contracts/ERC721.sol\":15344:15351  _owners */\n      0x02\n        /* \"Contracts/ERC721.sol\":15344:15360  _owners[tokenId] */\n      0x20\n      mstore\n      0x40\n      dup2\n      keccak256\n      sload\n      sub(shl(0xa0, 0x01), 0x01)\n      and\n        /* \"Contracts/ERC721.sol\":15659:15732  require(_exists(tokenId), \"ERC721: operator query for nonexistent token\") */\n      tag_401\n      jumpi\n      mload(0x40)\n      shl(0xe5, 0x461bcd)\n      dup2\n      mstore\n        /* \"#utility.yul\":14828:14830   */\n      0x20\n        /* \"Contracts/ERC721.sol\":15659:15732  require(_exists(tokenId), \"ERC721: operator query for nonexistent token\") */\n      0x04\n      dup3\n      add\n        /* \"#utility.yul\":14810:14831   */\n      mstore\n        /* \"#utility.yul\":14867:14869   */\n      0x2c\n        /* \"#utility.yul\":14847:14865   */\n      0x24\n      dup3\n      add\n        /* \"#utility.yul\":14840:14870   */\n      mstore\n        /* \"#utility.yul\":14906:14940   */\n      0x4552433732313a206f70657261746f7220717565727920666f72206e6f6e6578\n        /* \"#utility.yul\":14886:14904   */\n      0x44\n      dup3\n      add\n        /* \"#utility.yul\":14879:14941   */\n      mstore\n      shl(0xa1, 0x34b9ba32b73a103a37b5b2b7)\n        /* \"#utility.yul\":14957:14975   */\n      0x64\n      dup3\n      add\n        /* \"#utility.yul\":14950:14992   */\n      mstore\n        /* \"#utility.yul\":15009:15028   */\n      0x84\n      add\n        /* \"Contracts/ERC721.sol\":15659:15732  require(_exists(tokenId), \"ERC721: operator query for nonexistent token\") */\n      tag_194\n        /* \"#utility.yul\":14626:15034   */\n      jump\n        /* \"Contracts/ERC721.sol\":15659:15732  require(_exists(tokenId), \"ERC721: operator query for nonexistent token\") */\n    tag_401:\n        /* \"Contracts/ERC721.sol\":15743:15756  address owner */\n      0x00\n        /* \"Contracts/ERC721.sol\":15759:15782  ERC721.ownerOf(tokenId) */\n      tag_404\n        /* \"Contracts/ERC721.sol\":15774:15781  tokenId */\n      dup4\n        /* \"Contracts/ERC721.sol\":15759:15773  ERC721.ownerOf */\n      tag_130\n        /* \"Contracts/ERC721.sol\":15759:15782  ERC721.ownerOf(tokenId) */\n      jump\t// in\n    tag_404:\n        /* \"Contracts/ERC721.sol\":15743:15782  address owner = ERC721.ownerOf(tokenId) */\n      swap1\n      pop\n        /* \"Contracts/ERC721.sol\":15812:15817  owner */\n      dup1\n      sub(shl(0xa0, 0x01), 0x01)\n        /* \"Contracts/ERC721.sol\":15801:15817  spender == owner */\n      and\n        /* \"Contracts/ERC721.sol\":15801:15808  spender */\n      dup5\n      sub(shl(0xa0, 0x01), 0x01)\n        /* \"Contracts/ERC721.sol\":15801:15817  spender == owner */\n      and\n      eq\n        /* \"Contracts/ERC721.sol\":15801:15852  spender == owner || getApproved(tokenId) == spender */\n      dup1\n      tag_405\n      jumpi\n      pop\n        /* \"Contracts/ERC721.sol\":15845:15852  spender */\n      dup4\n      sub(shl(0xa0, 0x01), 0x01)\n        /* \"Contracts/ERC721.sol\":15821:15852  getApproved(tokenId) == spender */\n      and\n        /* \"Contracts/ERC721.sol\":15821:15841  getApproved(tokenId) */\n      tag_406\n        /* \"Contracts/ERC721.sol\":15833:15840  tokenId */\n      dup5\n        /* \"Contracts/ERC721.sol\":15821:15832  getApproved */\n      tag_61\n        /* \"Contracts/ERC721.sol\":15821:15841  getApproved(tokenId) */\n      jump\t// in\n    tag_406:\n      sub(shl(0xa0, 0x01), 0x01)\n        /* \"Contracts/ERC721.sol\":15821:15852  getApproved(tokenId) == spender */\n      and\n      eq\n        /* \"Contracts/ERC721.sol\":15801:15852  spender == owner || getApproved(tokenId) == spender */\n    tag_405:\n        /* \"Contracts/ERC721.sol\":15801:15888  spender == owner || getApproved(tokenId) == spender || isApprovedForAll(owner, spender) */\n      dup1\n      tag_408\n      jumpi\n      pop\n      sub(shl(0xa0, 0x01), 0x01)\n        /* \"Contracts/ERC721.sol\":13820:13845  _operatorApprovals[owner] */\n      dup1\n      dup3\n      and\n        /* \"Contracts/ERC721.sol\":13796:13800  bool */\n      0x00\n        /* \"Contracts/ERC721.sol\":13820:13845  _operatorApprovals[owner] */\n      swap1\n      dup2\n      mstore\n        /* \"Contracts/ERC721.sol\":13820:13838  _operatorApprovals */\n      0x05\n        /* \"Contracts/ERC721.sol\":13820:13845  _operatorApprovals[owner] */\n      0x20\n      swap1\n      dup2\n      mstore\n      0x40\n      dup1\n      dup4\n      keccak256\n        /* \"Contracts/ERC721.sol\":13820:13855  _operatorApprovals[owner][operator] */\n      swap4\n      dup9\n      and\n      dup4\n      mstore\n      swap3\n      swap1\n      mstore\n      keccak256\n      sload\n      0xff\n      and\n        /* \"Contracts/ERC721.sol\":15856:15888  isApprovedForAll(owner, spender) */\n    tag_408:\n        /* \"Contracts/ERC721.sol\":15793:15889  return (spender == owner || getApproved(tokenId) == spender || isApprovedForAll(owner, spender)) */\n      swap5\n        /* \"Contracts/ERC721.sol\":15549:15897  function _isApprovedOrOwner(address spender, uint256 tokenId) internal view virtual returns (bool) {... */\n      swap4\n      pop\n      pop\n      pop\n      pop\n      jump\t// out\n        /* \"Contracts/ERC721.sol\":17329:17907  function _transfer(... */\n    tag_251:\n        /* \"Contracts/ERC721.sol\":17488:17492  from */\n      dup3\n      sub(shl(0xa0, 0x01), 0x01)\n        /* \"Contracts/ERC721.sol\":17461:17492  ERC721.ownerOf(tokenId) == from */\n      and\n        /* \"Contracts/ERC721.sol\":17461:17484  ERC721.ownerOf(tokenId) */\n      tag_410\n        /* \"Contracts/ERC721.sol\":17476:17483  tokenId */\n      dup3\n        /* \"Contracts/ERC721.sol\":17461:17475  ERC721.ownerOf */\n      tag_130\n        /* \"Contracts/ERC721.sol\":17461:17484  ERC721.ownerOf(tokenId) */\n      jump\t// in\n    tag_410:\n      sub(shl(0xa0, 0x01), 0x01)\n        /* \"Contracts/ERC721.sol\":17461:17492  ERC721.ownerOf(tokenId) == from */\n      and\n      eq\n        /* \"Contracts/ERC721.sol\":17453:17538  require(ERC721.ownerOf(tokenId) == from, \"ERC721: transfer of token that is not own\") */\n      tag_411\n      jumpi\n      mload(0x40)\n      shl(0xe5, 0x461bcd)\n      dup2\n      mstore\n        /* \"#utility.yul\":15241:15243   */\n      0x20\n        /* \"Contracts/ERC721.sol\":17453:17538  require(ERC721.ownerOf(tokenId) == from, \"ERC721: transfer of token that is not own\") */\n      0x04\n      dup3\n      add\n        /* \"#utility.yul\":15223:15244   */\n      mstore\n        /* \"#utility.yul\":15280:15282   */\n      0x29\n        /* \"#utility.yul\":15260:15278   */\n      0x24\n      dup3\n      add\n        /* \"#utility.yul\":15253:15283   */\n      mstore\n        /* \"#utility.yul\":15319:15353   */\n      0x4552433732313a207472616e73666572206f6620746f6b656e20746861742069\n        /* \"#utility.yul\":15299:15317   */\n      0x44\n      dup3\n      add\n        /* \"#utility.yul\":15292:15354   */\n      mstore\n      shl(0xb9, 0x39903737ba1037bbb7)\n        /* \"#utility.yul\":15370:15388   */\n      0x64\n      dup3\n      add\n        /* \"#utility.yul\":15363:15402   */\n      mstore\n        /* \"#utility.yul\":15419:15438   */\n      0x84\n      add\n        /* \"Contracts/ERC721.sol\":17453:17538  require(ERC721.ownerOf(tokenId) == from, \"ERC721: transfer of token that is not own\") */\n      tag_194\n        /* \"#utility.yul\":15039:15444   */\n      jump\n        /* \"Contracts/ERC721.sol\":17453:17538  require(ERC721.ownerOf(tokenId) == from, \"ERC721: transfer of token that is not own\") */\n    tag_411:\n      sub(shl(0xa0, 0x01), 0x01)\n        /* \"Contracts/ERC721.sol\":17557:17573  to != address(0) */\n      dup3\n      and\n        /* \"Contracts/ERC721.sol\":17549:17614  require(to != address(0), \"ERC721: transfer to the zero address\") */\n      tag_414\n      jumpi\n      mload(0x40)\n      shl(0xe5, 0x461bcd)\n      dup2\n      mstore\n        /* \"#utility.yul\":15651:15653   */\n      0x20\n        /* \"Contracts/ERC721.sol\":17549:17614  require(to != address(0), \"ERC721: transfer to the zero address\") */\n      0x04\n      dup3\n      add\n        /* \"#utility.yul\":15633:15654   */\n      mstore\n        /* \"#utility.yul\":15690:15692   */\n      0x24\n        /* \"#utility.yul\":15670:15688   */\n      dup1\n      dup3\n      add\n        /* \"#utility.yul\":15663:15693   */\n      mstore\n        /* \"#utility.yul\":15729:15763   */\n      0x4552433732313a207472616e7366657220746f20746865207a65726f20616464\n        /* \"#utility.yul\":15709:15727   */\n      0x44\n      dup3\n      add\n        /* \"#utility.yul\":15702:15764   */\n      mstore\n      shl(0xe0, 0x72657373)\n        /* \"#utility.yul\":15780:15798   */\n      0x64\n      dup3\n      add\n        /* \"#utility.yul\":15773:15807   */\n      mstore\n        /* \"#utility.yul\":15824:15843   */\n      0x84\n      add\n        /* \"Contracts/ERC721.sol\":17549:17614  require(to != address(0), \"ERC721: transfer to the zero address\") */\n      tag_194\n        /* \"#utility.yul\":15449:15849   */\n      jump\n        /* \"Contracts/ERC721.sol\":17549:17614  require(to != address(0), \"ERC721: transfer to the zero address\") */\n    tag_414:\n        /* \"Contracts/ERC721.sol\":17627:17666  _beforeTokenTransfer(from, to, tokenId) */\n      tag_417\n        /* \"Contracts/ERC721.sol\":17648:17652  from */\n      dup4\n        /* \"Contracts/ERC721.sol\":17654:17656  to */\n      dup4\n        /* \"Contracts/ERC721.sol\":17658:17665  tokenId */\n      dup4\n        /* \"Contracts/ERC721.sol\":17627:17647  _beforeTokenTransfer */\n      tag_418\n        /* \"Contracts/ERC721.sol\":17627:17666  _beforeTokenTransfer(from, to, tokenId) */\n      jump\t// in\n    tag_417:\n        /* \"Contracts/ERC721.sol\":17731:17760  _approve(address(0), tokenId) */\n      tag_419\n        /* \"Contracts/ERC721.sol\":17748:17749  0 */\n      0x00\n        /* \"Contracts/ERC721.sol\":17752:17759  tokenId */\n      dup3\n        /* \"Contracts/ERC721.sol\":17731:17739  _approve */\n      tag_223\n        /* \"Contracts/ERC721.sol\":17731:17760  _approve(address(0), tokenId) */\n      jump\t// in\n    tag_419:\n      sub(shl(0xa0, 0x01), 0x01)\n        /* \"Contracts/ERC721.sol\":17773:17788  _balances[from] */\n      dup4\n      and\n      0x00\n      swap1\n      dup2\n      mstore\n        /* \"Contracts/ERC721.sol\":17773:17782  _balances */\n      0x03\n        /* \"Contracts/ERC721.sol\":17773:17788  _balances[from] */\n      0x20\n      mstore\n      0x40\n      dup2\n      keccak256\n        /* \"Contracts/ERC721.sol\":17773:17793  _balances[from] -= 1 */\n      dup1\n      sload\n        /* \"Contracts/ERC721.sol\":17792:17793  1 */\n      0x01\n      swap3\n        /* \"Contracts/ERC721.sol\":17773:17788  _balances[from] */\n      swap1\n        /* \"Contracts/ERC721.sol\":17773:17793  _balances[from] -= 1 */\n      tag_420\n      swap1\n        /* \"Contracts/ERC721.sol\":17792:17793  1 */\n      dup5\n      swap1\n        /* \"Contracts/ERC721.sol\":17773:17793  _balances[from] -= 1 */\n      tag_421\n      jump\t// in\n    tag_420:\n      swap1\n      swap2\n      sstore\n      pop\n      pop\n      sub(shl(0xa0, 0x01), 0x01)\n        /* \"Contracts/ERC721.sol\":17804:17817  _balances[to] */\n      dup3\n      and\n      0x00\n      swap1\n      dup2\n      mstore\n        /* \"Contracts/ERC721.sol\":17804:17813  _balances */\n      0x03\n        /* \"Contracts/ERC721.sol\":17804:17817  _balances[to] */\n      0x20\n      mstore\n      0x40\n      dup2\n      keccak256\n        /* \"Contracts/ERC721.sol\":17804:17822  _balances[to] += 1 */\n      dup1\n      sload\n        /* \"Contracts/ERC721.sol\":17821:17822  1 */\n      0x01\n      swap3\n        /* \"Contracts/ERC721.sol\":17804:17817  _balances[to] */\n      swap1\n        /* \"Contracts/ERC721.sol\":17804:17822  _balances[to] += 1 */\n      tag_422\n      swap1\n        /* \"Contracts/ERC721.sol\":17821:17822  1 */\n      dup5\n      swap1\n        /* \"Contracts/ERC721.sol\":17804:17822  _balances[to] += 1 */\n      tag_239\n      jump\t// in\n    tag_422:\n      swap1\n      swap2\n      sstore\n      pop\n      pop\n        /* \"Contracts/ERC721.sol\":17833:17849  _owners[tokenId] */\n      0x00\n      dup2\n      dup2\n      mstore\n        /* \"Contracts/ERC721.sol\":17833:17840  _owners */\n      0x02\n        /* \"Contracts/ERC721.sol\":17833:17849  _owners[tokenId] */\n      0x20\n      mstore\n      0x40\n      dup1\n      dup3\n      keccak256\n        /* \"Contracts/ERC721.sol\":17833:17854  _owners[tokenId] = to */\n      dup1\n      sload\n      not(sub(shl(0xa0, 0x01), 0x01))\n      and\n      sub(shl(0xa0, 0x01), 0x01)\n      dup7\n      dup2\n      and\n      swap2\n      dup3\n      or\n      swap1\n      swap3\n      sstore\n        /* \"Contracts/ERC721.sol\":17872:17899  Transfer(from, to, tokenId) */\n      swap2\n      mload\n        /* \"Contracts/ERC721.sol\":17833:17849  _owners[tokenId] */\n      dup5\n      swap4\n        /* \"Contracts/ERC721.sol\":17872:17899  Transfer(from, to, tokenId) */\n      swap2\n      dup8\n      and\n      swap2\n      0xddf252ad1be2c89b69c2b068fc378daa952ba7f163c4a11628f55a4df523b3ef\n      swap2\n      log4\n        /* \"Contracts/ERC721.sol\":17329:17907  function _transfer(... */\n      pop\n      pop\n      pop\n      jump\t// out\n        /* \"Contracts/ERC721.sol\":24355:24528  function _setOwner(address newOwner) private {... */\n    tag_328:\n        /* \"Contracts/ERC721.sol\":24430:24436  _owner */\n      0x0a\n      dup1\n      sload\n      sub(shl(0xa0, 0x01), 0x01)\n        /* \"Contracts/ERC721.sol\":24447:24464  _owner = newOwner */\n      dup4\n      dup2\n      and\n      not(sub(shl(0xa0, 0x01), 0x01))\n      dup4\n      and\n      dup2\n      or\n      swap1\n      swap4\n      sstore\n        /* \"Contracts/ERC721.sol\":24480:24520  OwnershipTransferred(oldOwner, newOwner) */\n      mload(0x40)\n        /* \"Contracts/ERC721.sol\":24430:24436  _owner */\n      swap2\n      and\n      swap2\n        /* \"Contracts/ERC721.sol\":24447:24464  _owner = newOwner */\n      swap1\n        /* \"Contracts/ERC721.sol\":24430:24436  _owner */\n      dup3\n      swap1\n        /* \"Contracts/ERC721.sol\":24480:24520  OwnershipTransferred(oldOwner, newOwner) */\n      0x8be0079c531659141344cd1fd0a4f28419497f9722a3daafe3b4186f6b6457e0\n      swap1\n        /* \"Contracts/ERC721.sol\":24411:24427  address oldOwner */\n      0x00\n      swap1\n        /* \"Contracts/ERC721.sol\":24480:24520  OwnershipTransferred(oldOwner, newOwner) */\n      log3\n        /* \"Contracts/ERC721.sol\":24400:24528  {... */\n      pop\n        /* \"Contracts/ERC721.sol\":24355:24528  function _setOwner(address newOwner) private {... */\n      pop\n      jump\t// out\n        /* \"Contracts/ERC721.sol\":14932:15247  function _safeTransfer(... */\n    tag_350:\n        /* \"Contracts/ERC721.sol\":15089:15117  _transfer(from, to, tokenId) */\n      tag_425\n        /* \"Contracts/ERC721.sol\":15099:15103  from */\n      dup5\n        /* \"Contracts/ERC721.sol\":15105:15107  to */\n      dup5\n        /* \"Contracts/ERC721.sol\":15109:15116  tokenId */\n      dup5\n        /* \"Contracts/ERC721.sol\":15089:15098  _transfer */\n      tag_251\n        /* \"Contracts/ERC721.sol\":15089:15117  _transfer(from, to, tokenId) */\n      jump\t// in\n    tag_425:\n        /* \"Contracts/ERC721.sol\":15136:15184  _checkOnERC721Received(from, to, tokenId, _data) */\n      tag_426\n        /* \"Contracts/ERC721.sol\":15159:15163  from */\n      dup5\n        /* \"Contracts/ERC721.sol\":15165:15167  to */\n      dup5\n        /* \"Contracts/ERC721.sol\":15169:15176  tokenId */\n      dup5\n        /* \"Contracts/ERC721.sol\":15178:15183  _data */\n      dup5\n        /* \"Contracts/ERC721.sol\":15136:15158  _checkOnERC721Received */\n      tag_427\n        /* \"Contracts/ERC721.sol\":15136:15184  _checkOnERC721Received(from, to, tokenId, _data) */\n      jump\t// in\n    tag_426:\n        /* \"Contracts/ERC721.sol\":15128:15239  require(_checkOnERC721Received(from, to, tokenId, _data), \"ERC721: transfer to non ERC721Receiver implementer\") */\n      tag_349\n      jumpi\n      mload(0x40)\n      shl(0xe5, 0x461bcd)\n      dup2\n      mstore\n      0x04\n      add\n      tag_194\n      swap1\n      tag_430\n      jump\t// in\n        /* \"Contracts/ERC721.sol\":25013:25115  function _baseURI() internal view virtual override returns (string memory) {... */\n    tag_362:\n        /* \"Contracts/ERC721.sol\":25073:25086  string memory */\n      0x60\n        /* \"Contracts/ERC721.sol\":25102:25109  baseURI */\n      0x0b\n        /* \"Contracts/ERC721.sol\":25095:25109  return baseURI */\n      dup1\n      sload\n      tag_198\n      swap1\n      tag_199\n      jump\t// in\n        /* \"Contracts/ERC721.sol\":2393:3116  function toString(uint256 value) internal pure returns (string memory) {... */\n    tag_366:\n        /* \"Contracts/ERC721.sol\":2449:2462  string memory */\n      0x60\n        /* \"Contracts/ERC721.sol\":2670:2675  value */\n      dup2\n        /* \"Contracts/ERC721.sol\":2679:2680  0 */\n      0x00\n        /* \"Contracts/ERC721.sol\":2670:2680  value == 0 */\n      sub\n        /* \"Contracts/ERC721.sol\":2666:2719  if (value == 0) {... */\n      tag_438\n      jumpi\n      pop\n      pop\n        /* \"Contracts/ERC721.sol\":2697:2707  return \"0\" */\n      0x40\n      dup1\n      mload\n      dup1\n      dup3\n      add\n      swap1\n      swap2\n      mstore\n      0x01\n      dup2\n      mstore\n      shl(0xfc, 0x03)\n      0x20\n      dup3\n      add\n      mstore\n      swap1\n        /* \"Contracts/ERC721.sol\":2393:3116  function toString(uint256 value) internal pure returns (string memory) {... */\n      jump\t// out\n        /* \"Contracts/ERC721.sol\":2666:2719  if (value == 0) {... */\n    tag_438:\n        /* \"Contracts/ERC721.sol\":2744:2749  value */\n      dup2\n        /* \"Contracts/ERC721.sol\":2729:2741  uint256 temp */\n      0x00\n        /* \"Contracts/ERC721.sol\":2785:2863  while (temp != 0) {... */\n    tag_439:\n        /* \"Contracts/ERC721.sol\":2792:2801  temp != 0 */\n      dup2\n      iszero\n        /* \"Contracts/ERC721.sol\":2785:2863  while (temp != 0) {... */\n      tag_440\n      jumpi\n        /* \"Contracts/ERC721.sol\":2818:2826  digits++ */\n      dup1\n      tag_441\n      dup2\n      tag_236\n      jump\t// in\n    tag_441:\n      swap2\n      pop\n        /* \"Contracts/ERC721.sol\":2841:2851  temp /= 10 */\n      tag_442\n      swap1\n      pop\n        /* \"Contracts/ERC721.sol\":2849:2851  10 */\n      0x0a\n        /* \"Contracts/ERC721.sol\":2841:2851  temp /= 10 */\n      dup4\n      tag_443\n      jump\t// in\n    tag_442:\n      swap2\n      pop\n        /* \"Contracts/ERC721.sol\":2785:2863  while (temp != 0) {... */\n      jump(tag_439)\n    tag_440:\n        /* \"Contracts/ERC721.sol\":2873:2892  bytes memory buffer */\n      0x00\n        /* \"Contracts/ERC721.sol\":2905:2911  digits */\n      dup2\n        /* \"Contracts/ERC721.sol\":2895:2912  new bytes(digits) */\n      0xffffffffffffffff\n      dup2\n      gt\n      iszero\n      tag_445\n      jumpi\n      tag_445\n      tag_276\n      jump\t// in\n    tag_445:\n      mload(0x40)\n      swap1\n      dup1\n      dup3\n      mstore\n      dup1\n      0x1f\n      add\n      not(0x1f)\n      and\n      0x20\n      add\n      dup3\n      add\n      0x40\n      mstore\n      dup1\n      iszero\n      tag_446\n      jumpi\n      0x20\n      dup3\n      add\n      dup2\n      dup1\n      calldatasize\n      dup4\n      calldatacopy\n      add\n      swap1\n      pop\n    tag_446:\n      pop\n        /* \"Contracts/ERC721.sol\":2873:2912  bytes memory buffer = new bytes(digits) */\n      swap1\n      pop\n        /* \"Contracts/ERC721.sol\":2923:3077  while (value != 0) {... */\n    tag_447:\n        /* \"Contracts/ERC721.sol\":2930:2940  value != 0 */\n      dup5\n      iszero\n        /* \"Contracts/ERC721.sol\":2923:3077  while (value != 0) {... */\n      tag_408\n      jumpi\n        /* \"Contracts/ERC721.sol\":2957:2968  digits -= 1 */\n      tag_449\n        /* \"Contracts/ERC721.sol\":2967:2968  1 */\n      0x01\n        /* \"Contracts/ERC721.sol\":2957:2968  digits -= 1 */\n      dup4\n      tag_421\n      jump\t// in\n    tag_449:\n      swap2\n      pop\n        /* \"Contracts/ERC721.sol\":3026:3036  value % 10 */\n      tag_450\n        /* \"Contracts/ERC721.sol\":3034:3036  10 */\n      0x0a\n        /* \"Contracts/ERC721.sol\":3026:3031  value */\n      dup7\n        /* \"Contracts/ERC721.sol\":3026:3036  value % 10 */\n      tag_451\n      jump\t// in\n    tag_450:\n        /* \"Contracts/ERC721.sol\":3013:3037  48 + uint256(value % 10) */\n      tag_452\n      swap1\n        /* \"Contracts/ERC721.sol\":3013:3015  48 */\n      0x30\n        /* \"Contracts/ERC721.sol\":3013:3037  48 + uint256(value % 10) */\n      tag_239\n      jump\t// in\n    tag_452:\n        /* \"Contracts/ERC721.sol\":3000:3039  bytes1(uint8(48 + uint256(value % 10))) */\n      0xf8\n      shl\n        /* \"Contracts/ERC721.sol\":2983:2989  buffer */\n      dup2\n        /* \"Contracts/ERC721.sol\":2990:2996  digits */\n      dup4\n        /* \"Contracts/ERC721.sol\":2983:2997  buffer[digits] */\n      dup2\n      mload\n      dup2\n      lt\n      tag_454\n      jumpi\n      tag_454\n      tag_284\n      jump\t// in\n    tag_454:\n      0x20\n      add\n      add\n        /* \"Contracts/ERC721.sol\":2983:3039  buffer[digits] = bytes1(uint8(48 + uint256(value % 10))) */\n      swap1\n      not(sub(shl(0xf8, 0x01), 0x01))\n      and\n      swap1\n      dup2\n      0x00\n      byte\n      swap1\n      mstore8\n      pop\n        /* \"Contracts/ERC721.sol\":3054:3065  value /= 10 */\n      tag_455\n        /* \"Contracts/ERC721.sol\":3063:3065  10 */\n      0x0a\n        /* \"Contracts/ERC721.sol\":3054:3065  value /= 10 */\n      dup7\n      tag_443\n      jump\t// in\n    tag_455:\n      swap5\n      pop\n        /* \"Contracts/ERC721.sol\":2923:3077  while (value != 0) {... */\n      jump(tag_447)\n        /* \"Contracts/ERC721.sol\":16242:16563  function _safeMint(... */\n    tag_398:\n        /* \"Contracts/ERC721.sol\":16372:16390  _mint(to, tokenId) */\n      tag_458\n        /* \"Contracts/ERC721.sol\":16378:16380  to */\n      dup4\n        /* \"Contracts/ERC721.sol\":16382:16389  tokenId */\n      dup4\n        /* \"Contracts/ERC721.sol\":16372:16377  _mint */\n      tag_459\n        /* \"Contracts/ERC721.sol\":16372:16390  _mint(to, tokenId) */\n      jump\t// in\n    tag_458:\n        /* \"Contracts/ERC721.sol\":16423:16477  _checkOnERC721Received(address(0), to, tokenId, _data) */\n      tag_460\n        /* \"Contracts/ERC721.sol\":16454:16455  0 */\n      0x00\n        /* \"Contracts/ERC721.sol\":16458:16460  to */\n      dup5\n        /* \"Contracts/ERC721.sol\":16462:16469  tokenId */\n      dup5\n        /* \"Contracts/ERC721.sol\":16471:16476  _data */\n      dup5\n        /* \"Contracts/ERC721.sol\":16423:16445  _checkOnERC721Received */\n      tag_427\n        /* \"Contracts/ERC721.sol\":16423:16477  _checkOnERC721Received(address(0), to, tokenId, _data) */\n      jump\t// in\n    tag_460:\n        /* \"Contracts/ERC721.sol\":16401:16555  require(... */\n      tag_222\n      jumpi\n      mload(0x40)\n      shl(0xe5, 0x461bcd)\n      dup2\n      mstore\n      0x04\n      add\n      tag_194\n      swap1\n      tag_430\n      jump\t// in\n        /* \"Contracts/ERC721.sol\":20717:21306  function _beforeTokenTransfer(... */\n    tag_418:\n      sub(shl(0xa0, 0x01), 0x01)\n        /* \"Contracts/ERC721.sol\":20923:20941  from == address(0) */\n      dup4\n      and\n        /* \"Contracts/ERC721.sol\":20919:21106  if (from == address(0)) {... */\n      tag_466\n      jumpi\n        /* \"Contracts/ERC721.sol\":20958:20998  _addTokenToAllTokensEnumeration(tokenId) */\n      tag_467\n        /* \"Contracts/ERC721.sol\":20990:20997  tokenId */\n      dup2\n        /* \"Contracts/ERC721.sol\":21840:21850  _allTokens */\n      0x08\n        /* \"Contracts/ERC721.sol\":21840:21857  _allTokens.length */\n      dup1\n      sload\n        /* \"Contracts/ERC721.sol\":21813:21837  _allTokensIndex[tokenId] */\n      0x00\n      dup4\n      dup2\n      mstore\n        /* \"Contracts/ERC721.sol\":21813:21828  _allTokensIndex */\n      0x09\n        /* \"Contracts/ERC721.sol\":21813:21837  _allTokensIndex[tokenId] */\n      0x20\n      mstore\n      0x40\n      dup2\n      keccak256\n        /* \"Contracts/ERC721.sol\":21813:21857  _allTokensIndex[tokenId] = _allTokens.length */\n      dup3\n      swap1\n      sstore\n        /* \"Contracts/ERC721.sol\":21868:21892  _allTokens.push(tokenId) */\n      0x01\n      dup3\n      add\n      dup4\n      sstore\n      swap2\n      swap1\n      swap2\n      mstore\n      0xf3f7a9fe364faab93b216da50a3214154f22a0a2b415b23a84c8169e8b636ee3\n      add\n      sstore\n        /* \"Contracts/ERC721.sol\":21736:21900  function _addTokenToAllTokensEnumeration(uint256 tokenId) private {... */\n      jump\n        /* \"Contracts/ERC721.sol\":20958:20998  _addTokenToAllTokensEnumeration(tokenId) */\n    tag_467:\n        /* \"Contracts/ERC721.sol\":20919:21106  if (from == address(0)) {... */\n      jump(tag_471)\n    tag_466:\n        /* \"Contracts/ERC721.sol\":21028:21030  to */\n      dup2\n      sub(shl(0xa0, 0x01), 0x01)\n        /* \"Contracts/ERC721.sol\":21020:21030  from != to */\n      and\n        /* \"Contracts/ERC721.sol\":21020:21024  from */\n      dup4\n      sub(shl(0xa0, 0x01), 0x01)\n        /* \"Contracts/ERC721.sol\":21020:21030  from != to */\n      and\n      eq\n        /* \"Contracts/ERC721.sol\":21016:21106  if (from != to) {... */\n      tag_471\n      jumpi\n        /* \"Contracts/ERC721.sol\":21047:21094  _removeTokenFromOwnerEnumeration(from, tokenId) */\n      tag_471\n        /* \"Contracts/ERC721.sol\":21080:21084  from */\n      dup4\n        /* \"Contracts/ERC721.sol\":21086:21093  tokenId */\n      dup3\n        /* \"Contracts/ERC721.sol\":21047:21079  _removeTokenFromOwnerEnumeration */\n      tag_472\n        /* \"Contracts/ERC721.sol\":21047:21094  _removeTokenFromOwnerEnumeration(from, tokenId) */\n      jump\t// in\n    tag_471:\n      sub(shl(0xa0, 0x01), 0x01)\n        /* \"Contracts/ERC721.sol\":21120:21136  to == address(0) */\n      dup3\n      and\n        /* \"Contracts/ERC721.sol\":21116:21299  if (to == address(0)) {... */\n      tag_473\n      jumpi\n        /* \"Contracts/ERC721.sol\":21153:21198  _removeTokenFromAllTokensEnumeration(tokenId) */\n      tag_222\n        /* \"Contracts/ERC721.sol\":21190:21197  tokenId */\n      dup2\n        /* \"Contracts/ERC721.sol\":21153:21189  _removeTokenFromAllTokensEnumeration */\n      tag_475\n        /* \"Contracts/ERC721.sol\":21153:21198  _removeTokenFromAllTokensEnumeration(tokenId) */\n      jump\t// in\n        /* \"Contracts/ERC721.sol\":21116:21299  if (to == address(0)) {... */\n    tag_473:\n        /* \"Contracts/ERC721.sol\":21226:21230  from */\n      dup3\n      sub(shl(0xa0, 0x01), 0x01)\n        /* \"Contracts/ERC721.sol\":21220:21230  to != from */\n      and\n        /* \"Contracts/ERC721.sol\":21220:21222  to */\n      dup3\n      sub(shl(0xa0, 0x01), 0x01)\n        /* \"Contracts/ERC721.sol\":21220:21230  to != from */\n      and\n      eq\n        /* \"Contracts/ERC721.sol\":21216:21299  if (to != from) {... */\n      tag_222\n      jumpi\n        /* \"Contracts/ERC721.sol\":21247:21287  _addTokenToOwnerEnumeration(to, tokenId) */\n      tag_222\n        /* \"Contracts/ERC721.sol\":21275:21277  to */\n      dup3\n        /* \"Contracts/ERC721.sol\":21279:21286  tokenId */\n      dup3\n        /* \"Contracts/ERC721.sol\":21247:21274  _addTokenToOwnerEnumeration */\n      tag_479\n        /* \"Contracts/ERC721.sol\":21247:21287  _addTokenToOwnerEnumeration(to, tokenId) */\n      jump\t// in\n        /* \"Contracts/ERC721.sol\":18097:18896  function _checkOnERC721Received(... */\n    tag_427:\n        /* \"Contracts/ERC721.sol\":18252:18256  bool */\n      0x00\n      sub(shl(0xa0, 0x01), 0x01)\n        /* \"Contracts/ERC721.sol\":18273:18286  to.isContract */\n      dup5\n      and\n        /* \"Contracts/ERC721.sol\":4500:4520  extcodesize(account) */\n      extcodesize\n        /* \"Contracts/ERC721.sol\":4548:4556  size > 0 */\n      iszero\n        /* \"Contracts/ERC721.sol\":18269:18889  if (to.isContract()) {... */\n      tag_483\n      jumpi\n        /* \"Contracts/ERC721.sol\":18309:18381  IERC721Receiver(to).onERC721Received(_msgSender(), from, tokenId, _data) */\n      mload(0x40)\n      shl(0xe1, 0x0a85bd01)\n      dup2\n      mstore\n      sub(shl(0xa0, 0x01), 0x01)\n        /* \"Contracts/ERC721.sol\":18309:18345  IERC721Receiver(to).onERC721Received */\n      dup6\n      and\n      swap1\n      0x150b7a02\n      swap1\n        /* \"Contracts/ERC721.sol\":18309:18381  IERC721Receiver(to).onERC721Received(_msgSender(), from, tokenId, _data) */\n      tag_485\n      swap1\n        /* \"Contracts/ERC721.sol\":9427:9437  msg.sender */\n      caller\n      swap1\n        /* \"Contracts/ERC721.sol\":18360:18364  from */\n      dup10\n      swap1\n        /* \"Contracts/ERC721.sol\":18366:18373  tokenId */\n      dup9\n      swap1\n        /* \"Contracts/ERC721.sol\":18375:18380  _data */\n      dup9\n      swap1\n        /* \"Contracts/ERC721.sol\":18309:18381  IERC721Receiver(to).onERC721Received(_msgSender(), from, tokenId, _data) */\n      0x04\n      add\n      tag_486\n      jump\t// in\n    tag_485:\n      0x20\n      mload(0x40)\n      dup1\n      dup4\n      sub\n      dup2\n      0x00\n      dup8\n      gas\n      call\n      swap3\n      pop\n      pop\n      pop\n      dup1\n      iszero\n      tag_487\n      jumpi\n      pop\n      0x40\n      dup1\n      mload\n      0x1f\n      returndatasize\n      swap1\n      dup2\n      add\n      not(0x1f)\n      and\n      dup3\n      add\n      swap1\n      swap3\n      mstore\n      tag_488\n      swap2\n      dup2\n      add\n      swap1\n      tag_489\n      jump\t// in\n    tag_488:\n      0x01\n    tag_487:\n        /* \"Contracts/ERC721.sol\":18305:18834  try IERC721Receiver(to).onERC721Received(_msgSender(), from, tokenId, _data) returns (bytes4 retval) {... */\n      tag_490\n      jumpi\n      returndatasize\n      dup1\n      dup1\n      iszero\n      tag_495\n      jumpi\n      mload(0x40)\n      swap2\n      pop\n      and(add(returndatasize, 0x3f), not(0x1f))\n      dup3\n      add\n      0x40\n      mstore\n      returndatasize\n      dup3\n      mstore\n      returndatasize\n      0x00\n      0x20\n      dup5\n      add\n      returndatacopy\n      jump(tag_494)\n    tag_495:\n      0x60\n      swap2\n      pop\n    tag_494:\n      pop\n        /* \"Contracts/ERC721.sol\":18551:18557  reason */\n      dup1\n        /* \"Contracts/ERC721.sol\":18551:18564  reason.length */\n      mload\n        /* \"Contracts/ERC721.sol\":18568:18569  0 */\n      0x00\n        /* \"Contracts/ERC721.sol\":18551:18569  reason.length == 0 */\n      sub\n        /* \"Contracts/ERC721.sol\":18547:18819  if (reason.length == 0) {... */\n      tag_496\n      jumpi\n        /* \"Contracts/ERC721.sol\":18594:18654  revert(\"ERC721: transfer to non ERC721Receiver implementer\") */\n      mload(0x40)\n      shl(0xe5, 0x461bcd)\n      dup2\n      mstore\n      0x04\n      add\n      tag_194\n      swap1\n      tag_430\n      jump\t// in\n        /* \"Contracts/ERC721.sol\":18547:18819  if (reason.length == 0) {... */\n    tag_496:\n        /* \"Contracts/ERC721.sol\":18769:18775  reason */\n      dup1\n        /* \"Contracts/ERC721.sol\":18763:18776  mload(reason) */\n      mload\n        /* \"Contracts/ERC721.sol\":18754:18760  reason */\n      dup2\n        /* \"Contracts/ERC721.sol\":18750:18752  32 */\n      0x20\n        /* \"Contracts/ERC721.sol\":18746:18761  add(32, reason) */\n      add\n        /* \"Contracts/ERC721.sol\":18739:18777  revert(add(32, reason), mload(reason)) */\n      revert\n        /* \"Contracts/ERC721.sol\":18305:18834  try IERC721Receiver(to).onERC721Received(_msgSender(), from, tokenId, _data) returns (bytes4 retval) {... */\n    tag_490:\n      not(sub(shl(0xe0, 0x01), 0x01))\n        /* \"Contracts/ERC721.sol\":18432:18483  retval == IERC721Receiver.onERC721Received.selector */\n      and\n      shl(0xe1, 0x0a85bd01)\n      eq\n      swap1\n      pop\n        /* \"Contracts/ERC721.sol\":18425:18483  return retval == IERC721Receiver.onERC721Received.selector */\n      jump(tag_408)\n        /* \"Contracts/ERC721.sol\":18269:18889  if (to.isContract()) {... */\n    tag_483:\n      pop\n        /* \"Contracts/ERC721.sol\":18873:18877  true */\n      0x01\n        /* \"Contracts/ERC721.sol\":18097:18896  function _checkOnERC721Received(... */\n      swap5\n      swap4\n      pop\n      pop\n      pop\n      pop\n      jump\t// out\n        /* \"Contracts/ERC721.sol\":16571:16953  function _mint(address to, uint256 tokenId) internal virtual {... */\n    tag_459:\n      sub(shl(0xa0, 0x01), 0x01)\n        /* \"Contracts/ERC721.sol\":16651:16667  to != address(0) */\n      dup3\n      and\n        /* \"Contracts/ERC721.sol\":16643:16704  require(to != address(0), \"ERC721: mint to the zero address\") */\n      tag_502\n      jumpi\n      mload(0x40)\n      shl(0xe5, 0x461bcd)\n      dup2\n      mstore\n        /* \"#utility.yul\":17727:17729   */\n      0x20\n        /* \"Contracts/ERC721.sol\":16643:16704  require(to != address(0), \"ERC721: mint to the zero address\") */\n      0x04\n      dup3\n      add\n        /* \"#utility.yul\":17709:17730   */\n      dup2\n      swap1\n      mstore\n        /* \"#utility.yul\":17746:17764   */\n      0x24\n      dup3\n      add\n        /* \"#utility.yul\":17739:17769   */\n      mstore\n        /* \"#utility.yul\":17805:17839   */\n      0x4552433732313a206d696e7420746f20746865207a65726f2061646472657373\n        /* \"#utility.yul\":17785:17803   */\n      0x44\n      dup3\n      add\n        /* \"#utility.yul\":17778:17840   */\n      mstore\n        /* \"#utility.yul\":17857:17875   */\n      0x64\n      add\n        /* \"Contracts/ERC721.sol\":16643:16704  require(to != address(0), \"ERC721: mint to the zero address\") */\n      tag_194\n        /* \"#utility.yul\":17525:17881   */\n      jump\n        /* \"Contracts/ERC721.sol\":16643:16704  require(to != address(0), \"ERC721: mint to the zero address\") */\n    tag_502:\n        /* \"Contracts/ERC721.sol\":15320:15324  bool */\n      0x00\n        /* \"Contracts/ERC721.sol\":15344:15360  _owners[tokenId] */\n      dup2\n      dup2\n      mstore\n        /* \"Contracts/ERC721.sol\":15344:15351  _owners */\n      0x02\n        /* \"Contracts/ERC721.sol\":15344:15360  _owners[tokenId] */\n      0x20\n      mstore\n      0x40\n      swap1\n      keccak256\n      sload\n      sub(shl(0xa0, 0x01), 0x01)\n      and\n        /* \"Contracts/ERC721.sol\":15344:15374  _owners[tokenId] != address(0) */\n      iszero\n        /* \"Contracts/ERC721.sol\":16715:16773  require(!_exists(tokenId), \"ERC721: token already minted\") */\n      tag_506\n      jumpi\n      mload(0x40)\n      shl(0xe5, 0x461bcd)\n      dup2\n      mstore\n        /* \"#utility.yul\":18088:18090   */\n      0x20\n        /* \"Contracts/ERC721.sol\":16715:16773  require(!_exists(tokenId), \"ERC721: token already minted\") */\n      0x04\n      dup3\n      add\n        /* \"#utility.yul\":18070:18091   */\n      mstore\n        /* \"#utility.yul\":18127:18129   */\n      0x1c\n        /* \"#utility.yul\":18107:18125   */\n      0x24\n      dup3\n      add\n        /* \"#utility.yul\":18100:18130   */\n      mstore\n        /* \"#utility.yul\":18166:18196   */\n      0x4552433732313a20746f6b656e20616c7265616479206d696e74656400000000\n        /* \"#utility.yul\":18146:18164   */\n      0x44\n      dup3\n      add\n        /* \"#utility.yul\":18139:18197   */\n      mstore\n        /* \"#utility.yul\":18214:18232   */\n      0x64\n      add\n        /* \"Contracts/ERC721.sol\":16715:16773  require(!_exists(tokenId), \"ERC721: token already minted\") */\n      tag_194\n        /* \"#utility.yul\":17886:18238   */\n      jump\n        /* \"Contracts/ERC721.sol\":16715:16773  require(!_exists(tokenId), \"ERC721: token already minted\") */\n    tag_506:\n        /* \"Contracts/ERC721.sol\":16786:16831  _beforeTokenTransfer(address(0), to, tokenId) */\n      tag_509\n        /* \"Contracts/ERC721.sol\":16815:16816  0 */\n      0x00\n        /* \"Contracts/ERC721.sol\":16819:16821  to */\n      dup4\n        /* \"Contracts/ERC721.sol\":16823:16830  tokenId */\n      dup4\n        /* \"Contracts/ERC721.sol\":16786:16806  _beforeTokenTransfer */\n      tag_418\n        /* \"Contracts/ERC721.sol\":16786:16831  _beforeTokenTransfer(address(0), to, tokenId) */\n      jump\t// in\n    tag_509:\n      sub(shl(0xa0, 0x01), 0x01)\n        /* \"Contracts/ERC721.sol\":16844:16857  _balances[to] */\n      dup3\n      and\n      0x00\n      swap1\n      dup2\n      mstore\n        /* \"Contracts/ERC721.sol\":16844:16853  _balances */\n      0x03\n        /* \"Contracts/ERC721.sol\":16844:16857  _balances[to] */\n      0x20\n      mstore\n      0x40\n      dup2\n      keccak256\n        /* \"Contracts/ERC721.sol\":16844:16862  _balances[to] += 1 */\n      dup1\n      sload\n        /* \"Contracts/ERC721.sol\":16861:16862  1 */\n      0x01\n      swap3\n        /* \"Contracts/ERC721.sol\":16844:16857  _balances[to] */\n      swap1\n        /* \"Contracts/ERC721.sol\":16844:16862  _balances[to] += 1 */\n      tag_510\n      swap1\n        /* \"Contracts/ERC721.sol\":16861:16862  1 */\n      dup5\n      swap1\n        /* \"Contracts/ERC721.sol\":16844:16862  _balances[to] += 1 */\n      tag_239\n      jump\t// in\n    tag_510:\n      swap1\n      swap2\n      sstore\n      pop\n      pop\n        /* \"Contracts/ERC721.sol\":16873:16889  _owners[tokenId] */\n      0x00\n      dup2\n      dup2\n      mstore\n        /* \"Contracts/ERC721.sol\":16873:16880  _owners */\n      0x02\n        /* \"Contracts/ERC721.sol\":16873:16889  _owners[tokenId] */\n      0x20\n      mstore\n      0x40\n      dup1\n      dup3\n      keccak256\n        /* \"Contracts/ERC721.sol\":16873:16894  _owners[tokenId] = to */\n      dup1\n      sload\n      not(sub(shl(0xa0, 0x01), 0x01))\n      and\n      sub(shl(0xa0, 0x01), 0x01)\n      dup7\n      and\n      swap1\n      dup2\n      or\n      swap1\n      swap2\n      sstore\n        /* \"Contracts/ERC721.sol\":16912:16945  Transfer(address(0), to, tokenId) */\n      swap1\n      mload\n        /* \"Contracts/ERC721.sol\":16873:16889  _owners[tokenId] */\n      dup4\n      swap3\n      swap1\n        /* \"Contracts/ERC721.sol\":16912:16945  Transfer(address(0), to, tokenId) */\n      0xddf252ad1be2c89b69c2b068fc378daa952ba7f163c4a11628f55a4df523b3ef\n      swap1\n        /* \"Contracts/ERC721.sol\":16873:16889  _owners[tokenId] */\n      dup3\n      swap1\n        /* \"Contracts/ERC721.sol\":16912:16945  Transfer(address(0), to, tokenId) */\n      log4\n        /* \"Contracts/ERC721.sol\":16571:16953  function _mint(address to, uint256 tokenId) internal virtual {... */\n      pop\n      pop\n      jump\t// out\n        /* \"Contracts/ERC721.sol\":21908:22896  function _removeTokenFromOwnerEnumeration(address from, uint256 tokenId) private {... */\n    tag_472:\n        /* \"Contracts/ERC721.sol\":22174:22196  uint256 lastTokenIndex */\n      0x00\n        /* \"Contracts/ERC721.sol\":22224:22225  1 */\n      0x01\n        /* \"Contracts/ERC721.sol\":22199:22221  ERC721.balanceOf(from) */\n      tag_515\n        /* \"Contracts/ERC721.sol\":22216:22220  from */\n      dup5\n        /* \"Contracts/ERC721.sol\":22199:22215  ERC721.balanceOf */\n      tag_139\n        /* \"Contracts/ERC721.sol\":22199:22221  ERC721.balanceOf(from) */\n      jump\t// in\n    tag_515:\n        /* \"Contracts/ERC721.sol\":22199:22225  ERC721.balanceOf(from) - 1 */\n      tag_516\n      swap2\n      swap1\n      tag_421\n      jump\t// in\n    tag_516:\n        /* \"Contracts/ERC721.sol\":22236:22254  uint256 tokenIndex */\n      0x00\n        /* \"Contracts/ERC721.sol\":22257:22283  _ownedTokensIndex[tokenId] */\n      dup4\n      dup2\n      mstore\n        /* \"Contracts/ERC721.sol\":22257:22274  _ownedTokensIndex */\n      0x07\n        /* \"Contracts/ERC721.sol\":22257:22283  _ownedTokensIndex[tokenId] */\n      0x20\n      mstore\n      0x40\n      swap1\n      keccak256\n      sload\n        /* \"Contracts/ERC721.sol\":22174:22225  uint256 lastTokenIndex = ERC721.balanceOf(from) - 1 */\n      swap1\n      swap2\n      pop\n        /* \"Contracts/ERC721.sol\":22390:22418  tokenIndex != lastTokenIndex */\n      dup1\n      dup3\n      eq\n        /* \"Contracts/ERC721.sol\":22386:22714  if (tokenIndex != lastTokenIndex) {... */\n      tag_517\n      jumpi\n      sub(shl(0xa0, 0x01), 0x01)\n        /* \"Contracts/ERC721.sol\":22457:22475  _ownedTokens[from] */\n      dup5\n      and\n        /* \"Contracts/ERC721.sol\":22435:22454  uint256 lastTokenId */\n      0x00\n        /* \"Contracts/ERC721.sol\":22457:22475  _ownedTokens[from] */\n      swap1\n      dup2\n      mstore\n        /* \"Contracts/ERC721.sol\":22457:22469  _ownedTokens */\n      0x06\n        /* \"Contracts/ERC721.sol\":22457:22475  _ownedTokens[from] */\n      0x20\n      swap1\n      dup2\n      mstore\n      0x40\n      dup1\n      dup4\n      keccak256\n        /* \"Contracts/ERC721.sol\":22457:22491  _ownedTokens[from][lastTokenIndex] */\n      dup6\n      dup5\n      mstore\n      dup3\n      mstore\n      dup1\n      dup4\n      keccak256\n      sload\n        /* \"Contracts/ERC721.sol\":22508:22538  _ownedTokens[from][tokenIndex] */\n      dup5\n      dup5\n      mstore\n      dup2\n      dup5\n      keccak256\n        /* \"Contracts/ERC721.sol\":22508:22552  _ownedTokens[from][tokenIndex] = lastTokenId */\n      dup2\n      swap1\n      sstore\n        /* \"Contracts/ERC721.sol\":22625:22655  _ownedTokensIndex[lastTokenId] */\n      dup4\n      mstore\n        /* \"Contracts/ERC721.sol\":22625:22642  _ownedTokensIndex */\n      0x07\n        /* \"Contracts/ERC721.sol\":22625:22655  _ownedTokensIndex[lastTokenId] */\n      swap1\n      swap2\n      mstore\n      swap1\n      keccak256\n        /* \"Contracts/ERC721.sol\":22625:22668  _ownedTokensIndex[lastTokenId] = tokenIndex */\n      dup2\n      swap1\n      sstore\n        /* \"Contracts/ERC721.sol\":22386:22714  if (tokenIndex != lastTokenIndex) {... */\n    tag_517:\n      pop\n        /* \"Contracts/ERC721.sol\":22810:22836  _ownedTokensIndex[tokenId] */\n      0x00\n      swap2\n      dup3\n      mstore\n        /* \"Contracts/ERC721.sol\":22810:22827  _ownedTokensIndex */\n      0x07\n        /* \"Contracts/ERC721.sol\":22810:22836  _ownedTokensIndex[tokenId] */\n      0x20\n      swap1\n      dup2\n      mstore\n      0x40\n      dup1\n      dup5\n      keccak256\n        /* \"Contracts/ERC721.sol\":22803:22836  delete _ownedTokensIndex[tokenId] */\n      dup5\n      swap1\n      sstore\n      sub(shl(0xa0, 0x01), 0x01)\n        /* \"Contracts/ERC721.sol\":22854:22872  _ownedTokens[from] */\n      swap1\n      swap5\n      and\n      dup4\n      mstore\n        /* \"Contracts/ERC721.sol\":22854:22866  _ownedTokens */\n      0x06\n        /* \"Contracts/ERC721.sol\":22854:22872  _ownedTokens[from] */\n      dup2\n      mstore\n      dup4\n      dup4\n      keccak256\n        /* \"Contracts/ERC721.sol\":22854:22888  _ownedTokens[from][lastTokenIndex] */\n      swap2\n      dup4\n      mstore\n      mstore\n      swap1\n      dup2\n      keccak256\n        /* \"Contracts/ERC721.sol\":22847:22888  delete _ownedTokens[from][lastTokenIndex] */\n      sstore\n        /* \"Contracts/ERC721.sol\":21908:22896  function _removeTokenFromOwnerEnumeration(address from, uint256 tokenId) private {... */\n      jump\t// out\n        /* \"Contracts/ERC721.sol\":22904:23592  function _removeTokenFromAllTokensEnumeration(uint256 tokenId) private {... */\n    tag_475:\n        /* \"Contracts/ERC721.sol\":23182:23192  _allTokens */\n      0x08\n        /* \"Contracts/ERC721.sol\":23182:23199  _allTokens.length */\n      sload\n        /* \"Contracts/ERC721.sol\":23157:23179  uint256 lastTokenIndex */\n      0x00\n      swap1\n        /* \"Contracts/ERC721.sol\":23182:23203  _allTokens.length - 1 */\n      tag_519\n      swap1\n        /* \"Contracts/ERC721.sol\":23202:23203  1 */\n      0x01\n      swap1\n        /* \"Contracts/ERC721.sol\":23182:23203  _allTokens.length - 1 */\n      tag_421\n      jump\t// in\n    tag_519:\n        /* \"Contracts/ERC721.sol\":23214:23232  uint256 tokenIndex */\n      0x00\n        /* \"Contracts/ERC721.sol\":23235:23259  _allTokensIndex[tokenId] */\n      dup4\n      dup2\n      mstore\n        /* \"Contracts/ERC721.sol\":23235:23250  _allTokensIndex */\n      0x09\n        /* \"Contracts/ERC721.sol\":23235:23259  _allTokensIndex[tokenId] */\n      0x20\n      mstore\n      0x40\n      dup2\n      keccak256\n      sload\n        /* \"Contracts/ERC721.sol\":23294:23304  _allTokens */\n      0x08\n        /* \"Contracts/ERC721.sol\":23294:23320  _allTokens[lastTokenIndex] */\n      dup1\n      sload\n        /* \"Contracts/ERC721.sol\":23157:23203  uint256 lastTokenIndex = _allTokens.length - 1 */\n      swap4\n      swap5\n      pop\n        /* \"Contracts/ERC721.sol\":23235:23259  _allTokensIndex[tokenId] */\n      swap1\n      swap3\n        /* \"Contracts/ERC721.sol\":23157:23203  uint256 lastTokenIndex = _allTokens.length - 1 */\n      dup5\n      swap1\n        /* \"Contracts/ERC721.sol\":23294:23320  _allTokens[lastTokenIndex] */\n      dup2\n      lt\n      tag_521\n      jumpi\n      tag_521\n      tag_284\n      jump\t// in\n    tag_521:\n      swap1\n      0x00\n      mstore\n      keccak256(0x00, 0x20)\n      add\n      sload\n        /* \"Contracts/ERC721.sol\":23272:23320  uint256 lastTokenId = _allTokens[lastTokenIndex] */\n      swap1\n      pop\n        /* \"Contracts/ERC721.sol\":23358:23369  lastTokenId */\n      dup1\n        /* \"Contracts/ERC721.sol\":23333:23343  _allTokens */\n      0x08\n        /* \"Contracts/ERC721.sol\":23344:23354  tokenIndex */\n      dup4\n        /* \"Contracts/ERC721.sol\":23333:23355  _allTokens[tokenIndex] */\n      dup2\n      sload\n      dup2\n      lt\n      tag_524\n      jumpi\n      tag_524\n      tag_284\n      jump\t// in\n    tag_524:\n      0x00\n      swap2\n      dup3\n      mstore\n      0x20\n      dup1\n      dup4\n      keccak256\n      swap1\n      swap2\n      add\n        /* \"Contracts/ERC721.sol\":23333:23369  _allTokens[tokenIndex] = lastTokenId */\n      swap3\n      swap1\n      swap3\n      sstore\n        /* \"Contracts/ERC721.sol\":23438:23466  _allTokensIndex[lastTokenId] */\n      dup3\n      dup2\n      mstore\n        /* \"Contracts/ERC721.sol\":23438:23453  _allTokensIndex */\n      0x09\n        /* \"Contracts/ERC721.sol\":23438:23466  _allTokensIndex[lastTokenId] */\n      swap1\n      swap2\n      mstore\n      0x40\n      dup1\n      dup3\n      keccak256\n        /* \"Contracts/ERC721.sol\":23438:23479  _allTokensIndex[lastTokenId] = tokenIndex */\n      dup5\n      swap1\n      sstore\n        /* \"Contracts/ERC721.sol\":23533:23557  _allTokensIndex[tokenId] */\n      dup6\n      dup3\n      mstore\n      dup2\n      keccak256\n        /* \"Contracts/ERC721.sol\":23526:23557  delete _allTokensIndex[tokenId] */\n      sstore\n        /* \"Contracts/ERC721.sol\":23568:23578  _allTokens */\n      0x08\n        /* \"Contracts/ERC721.sol\":23568:23584  _allTokens.pop() */\n      dup1\n      sload\n      dup1\n      tag_527\n      jumpi\n      tag_527\n      tag_528\n      jump\t// in\n    tag_527:\n      0x01\n      swap1\n      sub\n      dup2\n      dup2\n      swap1\n      0x00\n      mstore\n      keccak256(0x00, 0x20)\n      add\n      0x00\n      swap1\n      sstore\n      swap1\n      sstore\n        /* \"Contracts/ERC721.sol\":22975:23592  {... */\n      pop\n      pop\n      pop\n        /* \"Contracts/ERC721.sol\":22904:23592  function _removeTokenFromAllTokensEnumeration(uint256 tokenId) private {... */\n      pop\n      jump\t// out\n        /* \"Contracts/ERC721.sol\":21314:21535  function _addTokenToOwnerEnumeration(address to, uint256 tokenId) private {... */\n    tag_479:\n        /* \"Contracts/ERC721.sol\":21399:21413  uint256 length */\n      0x00\n        /* \"Contracts/ERC721.sol\":21416:21436  ERC721.balanceOf(to) */\n      tag_531\n        /* \"Contracts/ERC721.sol\":21433:21435  to */\n      dup4\n        /* \"Contracts/ERC721.sol\":21416:21432  ERC721.balanceOf */\n      tag_139\n        /* \"Contracts/ERC721.sol\":21416:21436  ERC721.balanceOf(to) */\n      jump\t// in\n    tag_531:\n      sub(shl(0xa0, 0x01), 0x01)\n        /* \"Contracts/ERC721.sol\":21447:21463  _ownedTokens[to] */\n      swap1\n      swap4\n      and\n      0x00\n      swap1\n      dup2\n      mstore\n        /* \"Contracts/ERC721.sol\":21447:21459  _ownedTokens */\n      0x06\n        /* \"Contracts/ERC721.sol\":21447:21463  _ownedTokens[to] */\n      0x20\n      swap1\n      dup2\n      mstore\n      0x40\n      dup1\n      dup4\n      keccak256\n        /* \"Contracts/ERC721.sol\":21447:21471  _ownedTokens[to][length] */\n      dup7\n      dup5\n      mstore\n      dup3\n      mstore\n      dup1\n      dup4\n      keccak256\n        /* \"Contracts/ERC721.sol\":21447:21481  _ownedTokens[to][length] = tokenId */\n      dup6\n      swap1\n      sstore\n        /* \"Contracts/ERC721.sol\":21492:21518  _ownedTokensIndex[tokenId] */\n      swap4\n      dup3\n      mstore\n        /* \"Contracts/ERC721.sol\":21492:21509  _ownedTokensIndex */\n      0x07\n        /* \"Contracts/ERC721.sol\":21492:21518  _ownedTokensIndex[tokenId] */\n      swap1\n      mstore\n      swap2\n      swap1\n      swap2\n      keccak256\n        /* \"Contracts/ERC721.sol\":21492:21527  _ownedTokensIndex[tokenId] = length */\n      swap2\n      swap1\n      swap2\n      sstore\n      pop\n        /* \"Contracts/ERC721.sol\":21314:21535  function _addTokenToOwnerEnumeration(address to, uint256 tokenId) private {... */\n      jump\t// out\n    tag_307:\n      dup3\n      dup1\n      sload\n      tag_533\n      swap1\n      tag_199\n      jump\t// in\n    tag_533:\n      swap1\n      0x00\n      mstore\n      keccak256(0x00, 0x20)\n      swap1\n      0x1f\n      add\n      0x20\n      swap1\n      div\n      dup2\n      add\n      swap3\n      dup3\n      tag_535\n      jumpi\n      0x00\n      dup6\n      sstore\n      jump(tag_538)\n    tag_535:\n      dup3\n      0x1f\n      lt\n      tag_536\n      jumpi\n      dup1\n      mload\n      not(0xff)\n      and\n      dup4\n      dup1\n      add\n      or\n      dup6\n      sstore\n      jump(tag_538)\n    tag_536:\n      dup3\n      dup1\n      add\n      0x01\n      add\n      dup6\n      sstore\n      dup3\n      iszero\n      tag_538\n      jumpi\n      swap2\n      dup3\n      add\n    tag_537:\n      dup3\n      dup2\n      gt\n      iszero\n      tag_538\n      jumpi\n      dup3\n      mload\n      dup3\n      sstore\n      swap2\n      0x20\n      add\n      swap2\n      swap1\n      0x01\n      add\n      swap1\n      jump(tag_537)\n    tag_538:\n      pop\n      tag_539\n      swap3\n      swap2\n      pop\n      tag_540\n      jump\t// in\n    tag_539:\n      pop\n      swap1\n      jump\t// out\n    tag_540:\n    tag_541:\n      dup1\n      dup3\n      gt\n      iszero\n      tag_539\n      jumpi\n      0x00\n      dup2\n      sstore\n      0x01\n      add\n      jump(tag_541)\n        /* \"#utility.yul\":14:145   */\n    tag_543:\n      not(sub(shl(0xe0, 0x01), 0x01))\n        /* \"#utility.yul\":88:120   */\n      dup2\n      and\n        /* \"#utility.yul\":78:121   */\n      dup2\n      eq\n        /* \"#utility.yul\":68:139   */\n      tag_269\n      jumpi\n        /* \"#utility.yul\":135:136   */\n      0x00\n        /* \"#utility.yul\":132:133   */\n      dup1\n        /* \"#utility.yul\":125:137   */\n      revert\n        /* \"#utility.yul\":150:395   */\n    tag_43:\n        /* \"#utility.yul\":208:214   */\n      0x00\n        /* \"#utility.yul\":261:263   */\n      0x20\n        /* \"#utility.yul\":249:258   */\n      dup3\n        /* \"#utility.yul\":240:247   */\n      dup5\n        /* \"#utility.yul\":236:259   */\n      sub\n        /* \"#utility.yul\":232:264   */\n      slt\n        /* \"#utility.yul\":229:281   */\n      iszero\n      tag_556\n      jumpi\n        /* \"#utility.yul\":277:278   */\n      0x00\n        /* \"#utility.yul\":274:275   */\n      dup1\n        /* \"#utility.yul\":267:279   */\n      revert\n        /* \"#utility.yul\":229:281   */\n    tag_556:\n        /* \"#utility.yul\":316:325   */\n      dup2\n        /* \"#utility.yul\":303:326   */\n      calldataload\n        /* \"#utility.yul\":335:365   */\n      tag_364\n        /* \"#utility.yul\":359:364   */\n      dup2\n        /* \"#utility.yul\":335:365   */\n      tag_543\n      jump\t// in\n        /* \"#utility.yul\":592:752   */\n    tag_544:\n        /* \"#utility.yul\":657:677   */\n      dup1\n      calldataload\n        /* \"#utility.yul\":713:726   */\n      dup1\n      iszero\n        /* \"#utility.yul\":706:727   */\n      iszero\n        /* \"#utility.yul\":696:728   */\n      dup2\n      eq\n        /* \"#utility.yul\":686:746   */\n      tag_560\n      jumpi\n        /* \"#utility.yul\":742:743   */\n      0x00\n        /* \"#utility.yul\":739:740   */\n      dup1\n        /* \"#utility.yul\":732:744   */\n      revert\n        /* \"#utility.yul\":686:746   */\n    tag_560:\n        /* \"#utility.yul\":592:752   */\n      swap2\n      swap1\n      pop\n      jump\t// out\n        /* \"#utility.yul\":757:937   */\n    tag_50:\n        /* \"#utility.yul\":813:819   */\n      0x00\n        /* \"#utility.yul\":866:868   */\n      0x20\n        /* \"#utility.yul\":854:863   */\n      dup3\n        /* \"#utility.yul\":845:852   */\n      dup5\n        /* \"#utility.yul\":841:864   */\n      sub\n        /* \"#utility.yul\":837:869   */\n      slt\n        /* \"#utility.yul\":834:886   */\n      iszero\n      tag_562\n      jumpi\n        /* \"#utility.yul\":882:883   */\n      0x00\n        /* \"#utility.yul\":879:880   */\n      dup1\n        /* \"#utility.yul\":872:884   */\n      revert\n        /* \"#utility.yul\":834:886   */\n    tag_562:\n        /* \"#utility.yul\":905:931   */\n      tag_364\n        /* \"#utility.yul\":921:930   */\n      dup3\n        /* \"#utility.yul\":905:931   */\n      tag_544\n      jump\t// in\n        /* \"#utility.yul\":942:1200   */\n    tag_545:\n        /* \"#utility.yul\":1014:1015   */\n      0x00\n        /* \"#utility.yul\":1024:1137   */\n    tag_565:\n        /* \"#utility.yul\":1038:1044   */\n      dup4\n        /* \"#utility.yul\":1035:1036   */\n      dup2\n        /* \"#utility.yul\":1032:1045   */\n      lt\n        /* \"#utility.yul\":1024:1137   */\n      iszero\n      tag_567\n      jumpi\n        /* \"#utility.yul\":1114:1125   */\n      dup2\n      dup2\n      add\n        /* \"#utility.yul\":1108:1126   */\n      mload\n        /* \"#utility.yul\":1095:1106   */\n      dup4\n      dup3\n      add\n        /* \"#utility.yul\":1088:1127   */\n      mstore\n        /* \"#utility.yul\":1060:1062   */\n      0x20\n        /* \"#utility.yul\":1053:1063   */\n      add\n        /* \"#utility.yul\":1024:1137   */\n      jump(tag_565)\n    tag_567:\n        /* \"#utility.yul\":1155:1161   */\n      dup4\n        /* \"#utility.yul\":1152:1153   */\n      dup2\n        /* \"#utility.yul\":1149:1162   */\n      gt\n        /* \"#utility.yul\":1146:1194   */\n      iszero\n      tag_349\n      jumpi\n      pop\n      pop\n        /* \"#utility.yul\":1190:1191   */\n      0x00\n        /* \"#utility.yul\":1172:1188   */\n      swap2\n      add\n        /* \"#utility.yul\":1165:1192   */\n      mstore\n        /* \"#utility.yul\":942:1200   */\n      jump\t// out\n        /* \"#utility.yul\":1205:1463   */\n    tag_546:\n        /* \"#utility.yul\":1247:1250   */\n      0x00\n        /* \"#utility.yul\":1285:1290   */\n      dup2\n        /* \"#utility.yul\":1279:1291   */\n      mload\n        /* \"#utility.yul\":1312:1318   */\n      dup1\n        /* \"#utility.yul\":1307:1310   */\n      dup5\n        /* \"#utility.yul\":1300:1319   */\n      mstore\n        /* \"#utility.yul\":1328:1391   */\n      tag_570\n        /* \"#utility.yul\":1384:1390   */\n      dup2\n        /* \"#utility.yul\":1377:1381   */\n      0x20\n        /* \"#utility.yul\":1372:1375   */\n      dup7\n        /* \"#utility.yul\":1368:1382   */\n      add\n        /* \"#utility.yul\":1361:1365   */\n      0x20\n        /* \"#utility.yul\":1354:1359   */\n      dup7\n        /* \"#utility.yul\":1350:1366   */\n      add\n        /* \"#utility.yul\":1328:1391   */\n      tag_545\n      jump\t// in\n    tag_570:\n        /* \"#utility.yul\":1445:1447   */\n      0x1f\n        /* \"#utility.yul\":1424:1439   */\n      add\n      not(0x1f)\n        /* \"#utility.yul\":1420:1449   */\n      and\n        /* \"#utility.yul\":1411:1450   */\n      swap3\n      swap1\n      swap3\n      add\n        /* \"#utility.yul\":1452:1456   */\n      0x20\n        /* \"#utility.yul\":1407:1457   */\n      add\n      swap3\n        /* \"#utility.yul\":1205:1463   */\n      swap2\n      pop\n      pop\n      jump\t// out\n        /* \"#utility.yul\":1468:1688   */\n    tag_56:\n        /* \"#utility.yul\":1617:1619   */\n      0x20\n        /* \"#utility.yul\":1606:1615   */\n      dup2\n        /* \"#utility.yul\":1599:1620   */\n      mstore\n        /* \"#utility.yul\":1580:1584   */\n      0x00\n        /* \"#utility.yul\":1637:1682   */\n      tag_364\n        /* \"#utility.yul\":1678:1680   */\n      0x20\n        /* \"#utility.yul\":1667:1676   */\n      dup4\n        /* \"#utility.yul\":1663:1681   */\n      add\n        /* \"#utility.yul\":1655:1661   */\n      dup5\n        /* \"#utility.yul\":1637:1682   */\n      tag_546\n      jump\t// in\n        /* \"#utility.yul\":1693:1873   */\n    tag_60:\n        /* \"#utility.yul\":1752:1758   */\n      0x00\n        /* \"#utility.yul\":1805:1807   */\n      0x20\n        /* \"#utility.yul\":1793:1802   */\n      dup3\n        /* \"#utility.yul\":1784:1791   */\n      dup5\n        /* \"#utility.yul\":1780:1803   */\n      sub\n        /* \"#utility.yul\":1776:1808   */\n      slt\n        /* \"#utility.yul\":1773:1825   */\n      iszero\n      tag_574\n      jumpi\n        /* \"#utility.yul\":1821:1822   */\n      0x00\n        /* \"#utility.yul\":1818:1819   */\n      dup1\n        /* \"#utility.yul\":1811:1823   */\n      revert\n        /* \"#utility.yul\":1773:1825   */\n    tag_574:\n      pop\n        /* \"#utility.yul\":1844:1867   */\n      calldataload\n      swap2\n        /* \"#utility.yul\":1693:1873   */\n      swap1\n      pop\n      jump\t// out\n        /* \"#utility.yul\":2086:2259   */\n    tag_547:\n        /* \"#utility.yul\":2154:2174   */\n      dup1\n      calldataload\n      sub(shl(0xa0, 0x01), 0x01)\n        /* \"#utility.yul\":2203:2234   */\n      dup2\n      and\n        /* \"#utility.yul\":2193:2235   */\n      dup2\n      eq\n        /* \"#utility.yul\":2183:2253   */\n      tag_560\n      jumpi\n        /* \"#utility.yul\":2249:2250   */\n      0x00\n        /* \"#utility.yul\":2246:2247   */\n      dup1\n        /* \"#utility.yul\":2239:2251   */\n      revert\n        /* \"#utility.yul\":2264:2518   */\n    tag_67:\n        /* \"#utility.yul\":2332:2338   */\n      0x00\n        /* \"#utility.yul\":2340:2346   */\n      dup1\n        /* \"#utility.yul\":2393:2395   */\n      0x40\n        /* \"#utility.yul\":2381:2390   */\n      dup4\n        /* \"#utility.yul\":2372:2379   */\n      dup6\n        /* \"#utility.yul\":2368:2391   */\n      sub\n        /* \"#utility.yul\":2364:2396   */\n      slt\n        /* \"#utility.yul\":2361:2413   */\n      iszero\n      tag_579\n      jumpi\n        /* \"#utility.yul\":2409:2410   */\n      0x00\n        /* \"#utility.yul\":2406:2407   */\n      dup1\n        /* \"#utility.yul\":2399:2411   */\n      revert\n        /* \"#utility.yul\":2361:2413   */\n    tag_579:\n        /* \"#utility.yul\":2432:2461   */\n      tag_580\n        /* \"#utility.yul\":2451:2460   */\n      dup4\n        /* \"#utility.yul\":2432:2461   */\n      tag_547\n      jump\t// in\n    tag_580:\n        /* \"#utility.yul\":2422:2461   */\n      swap5\n        /* \"#utility.yul\":2508:2510   */\n      0x20\n        /* \"#utility.yul\":2493:2511   */\n      swap4\n      swap1\n      swap4\n      add\n        /* \"#utility.yul\":2480:2512   */\n      calldataload\n      swap4\n      pop\n      pop\n      pop\n        /* \"#utility.yul\":2264:2518   */\n      jump\t// out\n        /* \"#utility.yul\":2705:2891   */\n    tag_84:\n        /* \"#utility.yul\":2764:2770   */\n      0x00\n        /* \"#utility.yul\":2817:2819   */\n      0x20\n        /* \"#utility.yul\":2805:2814   */\n      dup3\n        /* \"#utility.yul\":2796:2803   */\n      dup5\n        /* \"#utility.yul\":2792:2815   */\n      sub\n        /* \"#utility.yul\":2788:2820   */\n      slt\n        /* \"#utility.yul\":2785:2837   */\n      iszero\n      tag_583\n      jumpi\n        /* \"#utility.yul\":2833:2834   */\n      0x00\n        /* \"#utility.yul\":2830:2831   */\n      dup1\n        /* \"#utility.yul\":2823:2835   */\n      revert\n        /* \"#utility.yul\":2785:2837   */\n    tag_583:\n        /* \"#utility.yul\":2856:2885   */\n      tag_364\n        /* \"#utility.yul\":2875:2884   */\n      dup3\n        /* \"#utility.yul\":2856:2885   */\n      tag_547\n      jump\t// in\n        /* \"#utility.yul\":2896:3224   */\n    tag_90:\n        /* \"#utility.yul\":2973:2979   */\n      0x00\n        /* \"#utility.yul\":2981:2987   */\n      dup1\n        /* \"#utility.yul\":2989:2995   */\n      0x00\n        /* \"#utility.yul\":3042:3044   */\n      0x60\n        /* \"#utility.yul\":3030:3039   */\n      dup5\n        /* \"#utility.yul\":3021:3028   */\n      dup7\n        /* \"#utility.yul\":3017:3040   */\n      sub\n        /* \"#utility.yul\":3013:3045   */\n      slt\n        /* \"#utility.yul\":3010:3062   */\n      iszero\n      tag_586\n      jumpi\n        /* \"#utility.yul\":3058:3059   */\n      0x00\n        /* \"#utility.yul\":3055:3056   */\n      dup1\n        /* \"#utility.yul\":3048:3060   */\n      revert\n        /* \"#utility.yul\":3010:3062   */\n    tag_586:\n        /* \"#utility.yul\":3081:3110   */\n      tag_587\n        /* \"#utility.yul\":3100:3109   */\n      dup5\n        /* \"#utility.yul\":3081:3110   */\n      tag_547\n      jump\t// in\n    tag_587:\n        /* \"#utility.yul\":3071:3110   */\n      swap3\n      pop\n        /* \"#utility.yul\":3129:3167   */\n      tag_588\n        /* \"#utility.yul\":3163:3165   */\n      0x20\n        /* \"#utility.yul\":3152:3161   */\n      dup6\n        /* \"#utility.yul\":3148:3166   */\n      add\n        /* \"#utility.yul\":3129:3167   */\n      tag_547\n      jump\t// in\n    tag_588:\n        /* \"#utility.yul\":3119:3167   */\n      swap2\n      pop\n        /* \"#utility.yul\":3214:3216   */\n      0x40\n        /* \"#utility.yul\":3203:3212   */\n      dup5\n        /* \"#utility.yul\":3199:3217   */\n      add\n        /* \"#utility.yul\":3186:3218   */\n      calldataload\n        /* \"#utility.yul\":3176:3218   */\n      swap1\n      pop\n        /* \"#utility.yul\":2896:3224   */\n      swap3\n      pop\n      swap3\n      pop\n      swap3\n      jump\t// out\n        /* \"#utility.yul\":3229:3861   */\n    tag_108:\n        /* \"#utility.yul\":3400:3402   */\n      0x20\n        /* \"#utility.yul\":3452:3473   */\n      dup1\n      dup3\n      mstore\n        /* \"#utility.yul\":3522:3535   */\n      dup3\n      mload\n        /* \"#utility.yul\":3425:3443   */\n      dup3\n      dup3\n      add\n        /* \"#utility.yul\":3544:3566   */\n      dup2\n      swap1\n      mstore\n        /* \"#utility.yul\":3371:3375   */\n      0x00\n      swap2\n        /* \"#utility.yul\":3400:3402   */\n      swap1\n        /* \"#utility.yul\":3623:3638   */\n      dup5\n      dup3\n      add\n      swap1\n        /* \"#utility.yul\":3597:3599   */\n      0x40\n        /* \"#utility.yul\":3582:3600   */\n      dup6\n      add\n      swap1\n        /* \"#utility.yul\":3371:3375   */\n      dup5\n        /* \"#utility.yul\":3666:3835   */\n    tag_590:\n        /* \"#utility.yul\":3680:3686   */\n      dup2\n        /* \"#utility.yul\":3677:3678   */\n      dup2\n        /* \"#utility.yul\":3674:3687   */\n      lt\n        /* \"#utility.yul\":3666:3835   */\n      iszero\n      tag_592\n      jumpi\n        /* \"#utility.yul\":3741:3754   */\n      dup4\n      mload\n        /* \"#utility.yul\":3729:3755   */\n      dup4\n      mstore\n        /* \"#utility.yul\":3810:3825   */\n      swap3\n      dup5\n      add\n      swap3\n        /* \"#utility.yul\":3775:3787   */\n      swap2\n      dup5\n      add\n      swap2\n        /* \"#utility.yul\":3702:3703   */\n      0x01\n        /* \"#utility.yul\":3695:3704   */\n      add\n        /* \"#utility.yul\":3666:3835   */\n      jump(tag_590)\n    tag_592:\n      pop\n        /* \"#utility.yul\":3852:3855   */\n      swap1\n      swap7\n        /* \"#utility.yul\":3229:3861   */\n      swap6\n      pop\n      pop\n      pop\n      pop\n      pop\n      pop\n      jump\t// out\n        /* \"#utility.yul\":3866:3993   */\n    tag_276:\n        /* \"#utility.yul\":3927:3937   */\n      0x4e487b71\n        /* \"#utility.yul\":3922:3925   */\n      0xe0\n        /* \"#utility.yul\":3918:3938   */\n      shl\n        /* \"#utility.yul\":3915:3916   */\n      0x00\n        /* \"#utility.yul\":3908:3939   */\n      mstore\n        /* \"#utility.yul\":3958:3962   */\n      0x41\n        /* \"#utility.yul\":3955:3956   */\n      0x04\n        /* \"#utility.yul\":3948:3963   */\n      mstore\n        /* \"#utility.yul\":3982:3986   */\n      0x24\n        /* \"#utility.yul\":3979:3980   */\n      0x00\n        /* \"#utility.yul\":3972:3987   */\n      revert\n        /* \"#utility.yul\":3998:4630   */\n    tag_548:\n        /* \"#utility.yul\":4063:4068   */\n      0x00\n        /* \"#utility.yul\":4093:4111   */\n      0xffffffffffffffff\n        /* \"#utility.yul\":4134:4136   */\n      dup1\n        /* \"#utility.yul\":4126:4132   */\n      dup5\n        /* \"#utility.yul\":4123:4137   */\n      gt\n        /* \"#utility.yul\":4120:4160   */\n      iszero\n      tag_596\n      jumpi\n        /* \"#utility.yul\":4140:4158   */\n      tag_596\n      tag_276\n      jump\t// in\n    tag_596:\n        /* \"#utility.yul\":4215:4217   */\n      0x40\n        /* \"#utility.yul\":4209:4218   */\n      mload\n        /* \"#utility.yul\":4183:4185   */\n      0x1f\n        /* \"#utility.yul\":4269:4284   */\n      dup6\n      add\n      not(0x1f)\n        /* \"#utility.yul\":4265:4289   */\n      swap1\n      dup2\n      and\n        /* \"#utility.yul\":4291:4293   */\n      0x3f\n        /* \"#utility.yul\":4261:4294   */\n      add\n        /* \"#utility.yul\":4257:4299   */\n      and\n        /* \"#utility.yul\":4245:4300   */\n      dup2\n      add\n      swap1\n        /* \"#utility.yul\":4315:4333   */\n      dup3\n      dup3\n      gt\n        /* \"#utility.yul\":4335:4357   */\n      dup2\n      dup4\n      lt\n        /* \"#utility.yul\":4312:4358   */\n      or\n        /* \"#utility.yul\":4309:4381   */\n      iszero\n      tag_598\n      jumpi\n        /* \"#utility.yul\":4361:4379   */\n      tag_598\n      tag_276\n      jump\t// in\n    tag_598:\n        /* \"#utility.yul\":4401:4411   */\n      dup2\n        /* \"#utility.yul\":4397:4399   */\n      0x40\n        /* \"#utility.yul\":4390:4412   */\n      mstore\n        /* \"#utility.yul\":4430:4436   */\n      dup1\n        /* \"#utility.yul\":4421:4436   */\n      swap4\n      pop\n        /* \"#utility.yul\":4460:4466   */\n      dup6\n        /* \"#utility.yul\":4452:4458   */\n      dup2\n        /* \"#utility.yul\":4445:4467   */\n      mstore\n        /* \"#utility.yul\":4500:4503   */\n      dup7\n        /* \"#utility.yul\":4491:4497   */\n      dup7\n        /* \"#utility.yul\":4486:4489   */\n      dup7\n        /* \"#utility.yul\":4482:4498   */\n      add\n        /* \"#utility.yul\":4479:4504   */\n      gt\n        /* \"#utility.yul\":4476:4521   */\n      iszero\n      tag_599\n      jumpi\n        /* \"#utility.yul\":4517:4518   */\n      0x00\n        /* \"#utility.yul\":4514:4515   */\n      dup1\n        /* \"#utility.yul\":4507:4519   */\n      revert\n        /* \"#utility.yul\":4476:4521   */\n    tag_599:\n        /* \"#utility.yul\":4567:4573   */\n      dup6\n        /* \"#utility.yul\":4562:4565   */\n      dup6\n        /* \"#utility.yul\":4555:4559   */\n      0x20\n        /* \"#utility.yul\":4547:4553   */\n      dup4\n        /* \"#utility.yul\":4543:4560   */\n      add\n        /* \"#utility.yul\":4530:4574   */\n      calldatacopy\n        /* \"#utility.yul\":4622:4623   */\n      0x00\n        /* \"#utility.yul\":4615:4619   */\n      0x20\n        /* \"#utility.yul\":4606:4612   */\n      dup8\n        /* \"#utility.yul\":4598:4604   */\n      dup4\n        /* \"#utility.yul\":4594:4613   */\n      add\n        /* \"#utility.yul\":4590:4620   */\n      add\n        /* \"#utility.yul\":4583:4624   */\n      mstore\n      pop\n      pop\n      pop\n        /* \"#utility.yul\":3998:4630   */\n      swap4\n      swap3\n      pop\n      pop\n      pop\n      jump\t// out\n        /* \"#utility.yul\":4635:5086   */\n    tag_121:\n        /* \"#utility.yul\":4704:4710   */\n      0x00\n        /* \"#utility.yul\":4757:4759   */\n      0x20\n        /* \"#utility.yul\":4745:4754   */\n      dup3\n        /* \"#utility.yul\":4736:4743   */\n      dup5\n        /* \"#utility.yul\":4732:4755   */\n      sub\n        /* \"#utility.yul\":4728:4760   */\n      slt\n        /* \"#utility.yul\":4725:4777   */\n      iszero\n      tag_601\n      jumpi\n        /* \"#utility.yul\":4773:4774   */\n      0x00\n        /* \"#utility.yul\":4770:4771   */\n      dup1\n        /* \"#utility.yul\":4763:4775   */\n      revert\n        /* \"#utility.yul\":4725:4777   */\n    tag_601:\n        /* \"#utility.yul\":4813:4822   */\n      dup2\n        /* \"#utility.yul\":4800:4823   */\n      calldataload\n        /* \"#utility.yul\":4846:4864   */\n      0xffffffffffffffff\n        /* \"#utility.yul\":4838:4844   */\n      dup2\n        /* \"#utility.yul\":4835:4865   */\n      gt\n        /* \"#utility.yul\":4832:4882   */\n      iszero\n      tag_602\n      jumpi\n        /* \"#utility.yul\":4878:4879   */\n      0x00\n        /* \"#utility.yul\":4875:4876   */\n      dup1\n        /* \"#utility.yul\":4868:4880   */\n      revert\n        /* \"#utility.yul\":4832:4882   */\n    tag_602:\n        /* \"#utility.yul\":4901:4923   */\n      dup3\n      add\n        /* \"#utility.yul\":4954:4958   */\n      0x1f\n        /* \"#utility.yul\":4946:4959   */\n      dup2\n      add\n        /* \"#utility.yul\":4942:4969   */\n      dup5\n      sgt\n        /* \"#utility.yul\":4932:4987   */\n      tag_603\n      jumpi\n        /* \"#utility.yul\":4983:4984   */\n      0x00\n        /* \"#utility.yul\":4980:4981   */\n      dup1\n        /* \"#utility.yul\":4973:4985   */\n      revert\n        /* \"#utility.yul\":4932:4987   */\n    tag_603:\n        /* \"#utility.yul\":5006:5080   */\n      tag_408\n        /* \"#utility.yul\":5072:5079   */\n      dup5\n        /* \"#utility.yul\":5067:5069   */\n      dup3\n        /* \"#utility.yul\":5054:5070   */\n      calldataload\n        /* \"#utility.yul\":5049:5051   */\n      0x20\n        /* \"#utility.yul\":5045:5047   */\n      dup5\n        /* \"#utility.yul\":5041:5052   */\n      add\n        /* \"#utility.yul\":5006:5080   */\n      tag_548\n      jump\t// in\n        /* \"#utility.yul\":5091:5345   */\n    tag_155:\n        /* \"#utility.yul\":5156:5162   */\n      0x00\n        /* \"#utility.yul\":5164:5170   */\n      dup1\n        /* \"#utility.yul\":5217:5219   */\n      0x40\n        /* \"#utility.yul\":5205:5214   */\n      dup4\n        /* \"#utility.yul\":5196:5203   */\n      dup6\n        /* \"#utility.yul\":5192:5215   */\n      sub\n        /* \"#utility.yul\":5188:5220   */\n      slt\n        /* \"#utility.yul\":5185:5237   */\n      iszero\n      tag_606\n      jumpi\n        /* \"#utility.yul\":5233:5234   */\n      0x00\n        /* \"#utility.yul\":5230:5231   */\n      dup1\n        /* \"#utility.yul\":5223:5235   */\n      revert\n        /* \"#utility.yul\":5185:5237   */\n    tag_606:\n        /* \"#utility.yul\":5256:5285   */\n      tag_607\n        /* \"#utility.yul\":5275:5284   */\n      dup4\n        /* \"#utility.yul\":5256:5285   */\n      tag_547\n      jump\t// in\n    tag_607:\n        /* \"#utility.yul\":5246:5285   */\n      swap2\n      pop\n        /* \"#utility.yul\":5304:5339   */\n      tag_608\n        /* \"#utility.yul\":5335:5337   */\n      0x20\n        /* \"#utility.yul\":5324:5333   */\n      dup5\n        /* \"#utility.yul\":5320:5338   */\n      add\n        /* \"#utility.yul\":5304:5339   */\n      tag_544\n      jump\t// in\n    tag_608:\n        /* \"#utility.yul\":5294:5339   */\n      swap1\n      pop\n        /* \"#utility.yul\":5091:5345   */\n      swap3\n      pop\n      swap3\n      swap1\n      pop\n      jump\t// out\n        /* \"#utility.yul\":5350:6017   */\n    tag_160:\n        /* \"#utility.yul\":5445:5451   */\n      0x00\n        /* \"#utility.yul\":5453:5459   */\n      dup1\n        /* \"#utility.yul\":5461:5467   */\n      0x00\n        /* \"#utility.yul\":5469:5475   */\n      dup1\n        /* \"#utility.yul\":5522:5525   */\n      0x80\n        /* \"#utility.yul\":5510:5519   */\n      dup6\n        /* \"#utility.yul\":5501:5508   */\n      dup8\n        /* \"#utility.yul\":5497:5520   */\n      sub\n        /* \"#utility.yul\":5493:5526   */\n      slt\n        /* \"#utility.yul\":5490:5543   */\n      iszero\n      tag_610\n      jumpi\n        /* \"#utility.yul\":5539:5540   */\n      0x00\n        /* \"#utility.yul\":5536:5537   */\n      dup1\n        /* \"#utility.yul\":5529:5541   */\n      revert\n        /* \"#utility.yul\":5490:5543   */\n    tag_610:\n        /* \"#utility.yul\":5562:5591   */\n      tag_611\n        /* \"#utility.yul\":5581:5590   */\n      dup6\n        /* \"#utility.yul\":5562:5591   */\n      tag_547\n      jump\t// in\n    tag_611:\n        /* \"#utility.yul\":5552:5591   */\n      swap4\n      pop\n        /* \"#utility.yul\":5610:5648   */\n      tag_612\n        /* \"#utility.yul\":5644:5646   */\n      0x20\n        /* \"#utility.yul\":5633:5642   */\n      dup7\n        /* \"#utility.yul\":5629:5647   */\n      add\n        /* \"#utility.yul\":5610:5648   */\n      tag_547\n      jump\t// in\n    tag_612:\n        /* \"#utility.yul\":5600:5648   */\n      swap3\n      pop\n        /* \"#utility.yul\":5695:5697   */\n      0x40\n        /* \"#utility.yul\":5684:5693   */\n      dup6\n        /* \"#utility.yul\":5680:5698   */\n      add\n        /* \"#utility.yul\":5667:5699   */\n      calldataload\n        /* \"#utility.yul\":5657:5699   */\n      swap2\n      pop\n        /* \"#utility.yul\":5750:5752   */\n      0x60\n        /* \"#utility.yul\":5739:5748   */\n      dup6\n        /* \"#utility.yul\":5735:5753   */\n      add\n        /* \"#utility.yul\":5722:5754   */\n      calldataload\n        /* \"#utility.yul\":5777:5795   */\n      0xffffffffffffffff\n        /* \"#utility.yul\":5769:5775   */\n      dup2\n        /* \"#utility.yul\":5766:5796   */\n      gt\n        /* \"#utility.yul\":5763:5813   */\n      iszero\n      tag_613\n      jumpi\n        /* \"#utility.yul\":5809:5810   */\n      0x00\n        /* \"#utility.yul\":5806:5807   */\n      dup1\n        /* \"#utility.yul\":5799:5811   */\n      revert\n        /* \"#utility.yul\":5763:5813   */\n    tag_613:\n        /* \"#utility.yul\":5832:5854   */\n      dup6\n      add\n        /* \"#utility.yul\":5885:5889   */\n      0x1f\n        /* \"#utility.yul\":5877:5890   */\n      dup2\n      add\n        /* \"#utility.yul\":5873:5900   */\n      dup8\n      sgt\n        /* \"#utility.yul\":5863:5918   */\n      tag_614\n      jumpi\n        /* \"#utility.yul\":5914:5915   */\n      0x00\n        /* \"#utility.yul\":5911:5912   */\n      dup1\n        /* \"#utility.yul\":5904:5916   */\n      revert\n        /* \"#utility.yul\":5863:5918   */\n    tag_614:\n        /* \"#utility.yul\":5937:6011   */\n      tag_615\n        /* \"#utility.yul\":6003:6010   */\n      dup8\n        /* \"#utility.yul\":5998:6000   */\n      dup3\n        /* \"#utility.yul\":5985:6001   */\n      calldataload\n        /* \"#utility.yul\":5980:5982   */\n      0x20\n        /* \"#utility.yul\":5976:5978   */\n      dup5\n        /* \"#utility.yul\":5972:5983   */\n      add\n        /* \"#utility.yul\":5937:6011   */\n      tag_548\n      jump\t// in\n    tag_615:\n        /* \"#utility.yul\":5927:6011   */\n      swap2\n      pop\n      pop\n        /* \"#utility.yul\":5350:6017   */\n      swap3\n      swap6\n      swap2\n      swap5\n      pop\n      swap3\n      pop\n      jump\t// out\n        /* \"#utility.yul\":6022:6282   */\n    tag_178:\n        /* \"#utility.yul\":6090:6096   */\n      0x00\n        /* \"#utility.yul\":6098:6104   */\n      dup1\n        /* \"#utility.yul\":6151:6153   */\n      0x40\n        /* \"#utility.yul\":6139:6148   */\n      dup4\n        /* \"#utility.yul\":6130:6137   */\n      dup6\n        /* \"#utility.yul\":6126:6149   */\n      sub\n        /* \"#utility.yul\":6122:6154   */\n      slt\n        /* \"#utility.yul\":6119:6171   */\n      iszero\n      tag_617\n      jumpi\n        /* \"#utility.yul\":6167:6168   */\n      0x00\n        /* \"#utility.yul\":6164:6165   */\n      dup1\n        /* \"#utility.yul\":6157:6169   */\n      revert\n        /* \"#utility.yul\":6119:6171   */\n    tag_617:\n        /* \"#utility.yul\":6190:6219   */\n      tag_618\n        /* \"#utility.yul\":6209:6218   */\n      dup4\n        /* \"#utility.yul\":6190:6219   */\n      tag_547\n      jump\t// in\n    tag_618:\n        /* \"#utility.yul\":6180:6219   */\n      swap2\n      pop\n        /* \"#utility.yul\":6238:6276   */\n      tag_608\n        /* \"#utility.yul\":6272:6274   */\n      0x20\n        /* \"#utility.yul\":6261:6270   */\n      dup5\n        /* \"#utility.yul\":6257:6275   */\n      add\n        /* \"#utility.yul\":6238:6276   */\n      tag_547\n      jump\t// in\n        /* \"#utility.yul\":6287:6643   */\n    tag_195:\n        /* \"#utility.yul\":6489:6491   */\n      0x20\n        /* \"#utility.yul\":6471:6492   */\n      dup1\n      dup3\n      mstore\n        /* \"#utility.yul\":6508:6526   */\n      dup2\n      dup2\n      add\n        /* \"#utility.yul\":6501:6531   */\n      mstore\n        /* \"#utility.yul\":6567:6601   */\n      0x4f776e61626c653a2063616c6c6572206973206e6f7420746865206f776e6572\n        /* \"#utility.yul\":6562:6564   */\n      0x40\n        /* \"#utility.yul\":6547:6565   */\n      dup3\n      add\n        /* \"#utility.yul\":6540:6602   */\n      mstore\n        /* \"#utility.yul\":6634:6636   */\n      0x60\n        /* \"#utility.yul\":6619:6637   */\n      add\n      swap1\n        /* \"#utility.yul\":6287:6643   */\n      jump\t// out\n        /* \"#utility.yul\":6648:7028   */\n    tag_199:\n        /* \"#utility.yul\":6727:6728   */\n      0x01\n        /* \"#utility.yul\":6723:6735   */\n      dup2\n      dup2\n      shr\n      swap1\n        /* \"#utility.yul\":6770:6782   */\n      dup3\n      and\n      dup1\n        /* \"#utility.yul\":6791:6852   */\n      tag_622\n      jumpi\n        /* \"#utility.yul\":6845:6849   */\n      0x7f\n        /* \"#utility.yul\":6837:6843   */\n      dup3\n        /* \"#utility.yul\":6833:6850   */\n      and\n        /* \"#utility.yul\":6823:6850   */\n      swap2\n      pop\n        /* \"#utility.yul\":6791:6852   */\n    tag_622:\n        /* \"#utility.yul\":6898:6900   */\n      0x20\n        /* \"#utility.yul\":6890:6896   */\n      dup3\n        /* \"#utility.yul\":6887:6901   */\n      lt\n        /* \"#utility.yul\":6867:6885   */\n      dup2\n        /* \"#utility.yul\":6864:6902   */\n      sub\n        /* \"#utility.yul\":6861:7022   */\n      tag_623\n      jumpi\n        /* \"#utility.yul\":6944:6954   */\n      0x4e487b71\n        /* \"#utility.yul\":6939:6942   */\n      0xe0\n        /* \"#utility.yul\":6935:6955   */\n      shl\n        /* \"#utility.yul\":6932:6933   */\n      0x00\n        /* \"#utility.yul\":6925:6956   */\n      mstore\n        /* \"#utility.yul\":6979:6983   */\n      0x22\n        /* \"#utility.yul\":6976:6977   */\n      0x04\n        /* \"#utility.yul\":6969:6984   */\n      mstore\n        /* \"#utility.yul\":7007:7011   */\n      0x24\n        /* \"#utility.yul\":7004:7005   */\n      0x00\n        /* \"#utility.yul\":6997:7012   */\n      revert\n        /* \"#utility.yul\":6861:7022   */\n    tag_623:\n      pop\n        /* \"#utility.yul\":6648:7028   */\n      swap2\n      swap1\n      pop\n      jump\t// out\n        /* \"#utility.yul\":8980:9107   */\n    tag_549:\n        /* \"#utility.yul\":9041:9051   */\n      0x4e487b71\n        /* \"#utility.yul\":9036:9039   */\n      0xe0\n        /* \"#utility.yul\":9032:9052   */\n      shl\n        /* \"#utility.yul\":9029:9030   */\n      0x00\n        /* \"#utility.yul\":9022:9053   */\n      mstore\n        /* \"#utility.yul\":9072:9076   */\n      0x11\n        /* \"#utility.yul\":9069:9070   */\n      0x04\n        /* \"#utility.yul\":9062:9077   */\n      mstore\n        /* \"#utility.yul\":9096:9100   */\n      0x24\n        /* \"#utility.yul\":9093:9094   */\n      0x00\n        /* \"#utility.yul\":9086:9101   */\n      revert\n        /* \"#utility.yul\":9112:9247   */\n    tag_236:\n        /* \"#utility.yul\":9151:9154   */\n      0x00\n        /* \"#utility.yul\":9172:9189   */\n      0x01\n      dup3\n      add\n        /* \"#utility.yul\":9169:9212   */\n      tag_632\n      jumpi\n        /* \"#utility.yul\":9192:9210   */\n      tag_632\n      tag_549\n      jump\t// in\n    tag_632:\n      pop\n        /* \"#utility.yul\":9239:9240   */\n      0x01\n        /* \"#utility.yul\":9228:9241   */\n      add\n      swap1\n        /* \"#utility.yul\":9112:9247   */\n      jump\t// out\n        /* \"#utility.yul\":9252:9380   */\n    tag_239:\n        /* \"#utility.yul\":9292:9295   */\n      0x00\n        /* \"#utility.yul\":9323:9324   */\n      dup3\n        /* \"#utility.yul\":9319:9325   */\n      not\n        /* \"#utility.yul\":9316:9317   */\n      dup3\n        /* \"#utility.yul\":9313:9326   */\n      gt\n        /* \"#utility.yul\":9310:9349   */\n      iszero\n      tag_635\n      jumpi\n        /* \"#utility.yul\":9329:9347   */\n      tag_635\n      tag_549\n      jump\t// in\n    tag_635:\n      pop\n        /* \"#utility.yul\":9365:9374   */\n      add\n      swap1\n        /* \"#utility.yul\":9252:9380   */\n      jump\t// out\n        /* \"#utility.yul\":9385:9798   */\n    tag_249:\n        /* \"#utility.yul\":9587:9589   */\n      0x20\n        /* \"#utility.yul\":9569:9590   */\n      dup1\n      dup3\n      mstore\n        /* \"#utility.yul\":9626:9628   */\n      0x31\n        /* \"#utility.yul\":9606:9624   */\n      swap1\n      dup3\n      add\n        /* \"#utility.yul\":9599:9629   */\n      mstore\n        /* \"#utility.yul\":9665:9699   */\n      0x4552433732313a207472616e736665722063616c6c6572206973206e6f74206f\n        /* \"#utility.yul\":9660:9662   */\n      0x40\n        /* \"#utility.yul\":9645:9663   */\n      dup3\n      add\n        /* \"#utility.yul\":9638:9700   */\n      mstore\n      shl(0x7a, 0x1ddb995c881b9bdc88185c1c1c9bdd9959)\n        /* \"#utility.yul\":9731:9733   */\n      0x60\n        /* \"#utility.yul\":9716:9734   */\n      dup3\n      add\n        /* \"#utility.yul\":9709:9756   */\n      mstore\n        /* \"#utility.yul\":9788:9791   */\n      0x80\n        /* \"#utility.yul\":9773:9792   */\n      add\n      swap1\n        /* \"#utility.yul\":9385:9798   */\n      jump\t// out\n        /* \"#utility.yul\":10425:10552   */\n    tag_284:\n        /* \"#utility.yul\":10486:10496   */\n      0x4e487b71\n        /* \"#utility.yul\":10481:10484   */\n      0xe0\n        /* \"#utility.yul\":10477:10497   */\n      shl\n        /* \"#utility.yul\":10474:10475   */\n      0x00\n        /* \"#utility.yul\":10467:10498   */\n      mstore\n        /* \"#utility.yul\":10517:10521   */\n      0x32\n        /* \"#utility.yul\":10514:10515   */\n      0x04\n        /* \"#utility.yul\":10507:10522   */\n      mstore\n        /* \"#utility.yul\":10541:10545   */\n      0x24\n        /* \"#utility.yul\":10538:10539   */\n      0x00\n        /* \"#utility.yul\":10531:10546   */\n      revert\n        /* \"#utility.yul\":12687:14214   */\n    tag_368:\n        /* \"#utility.yul\":12911:12914   */\n      0x00\n        /* \"#utility.yul\":12949:12955   */\n      dup5\n        /* \"#utility.yul\":12943:12956   */\n      mload\n        /* \"#utility.yul\":12975:12979   */\n      0x20\n        /* \"#utility.yul\":12988:13039   */\n      tag_647\n        /* \"#utility.yul\":13032:13038   */\n      dup3\n        /* \"#utility.yul\":13027:13030   */\n      dup6\n        /* \"#utility.yul\":13022:13024   */\n      dup4\n        /* \"#utility.yul\":13014:13020   */\n      dup11\n        /* \"#utility.yul\":13010:13025   */\n      add\n        /* \"#utility.yul\":12988:13039   */\n      tag_545\n      jump\t// in\n    tag_647:\n        /* \"#utility.yul\":13102:13115   */\n      dup6\n      mload\n        /* \"#utility.yul\":13061:13077   */\n      swap2\n      dup5\n      add\n      swap2\n        /* \"#utility.yul\":13124:13179   */\n      tag_648\n        /* \"#utility.yul\":13102:13115   */\n      dup2\n        /* \"#utility.yul\":13061:13077   */\n      dup5\n        /* \"#utility.yul\":13146:13161   */\n      dup5\n      dup11\n      add\n        /* \"#utility.yul\":13124:13179   */\n      tag_545\n      jump\t// in\n    tag_648:\n        /* \"#utility.yul\":13268:13281   */\n      dup6\n      sload\n        /* \"#utility.yul\":13201:13221   */\n      swap3\n      add\n      swap2\n        /* \"#utility.yul\":13241:13242   */\n      0x00\n      swap1\n        /* \"#utility.yul\":13328:13329   */\n      0x01\n        /* \"#utility.yul\":13350:13368   */\n      dup2\n      dup2\n      shr\n      swap1\n        /* \"#utility.yul\":13403:13421   */\n      dup1\n      dup4\n      and\n      dup1\n        /* \"#utility.yul\":13430:13523   */\n      tag_649\n      jumpi\n        /* \"#utility.yul\":13508:13512   */\n      0x7f\n        /* \"#utility.yul\":13498:13506   */\n      dup4\n        /* \"#utility.yul\":13494:13513   */\n      and\n        /* \"#utility.yul\":13482:13513   */\n      swap3\n      pop\n        /* \"#utility.yul\":13430:13523   */\n    tag_649:\n        /* \"#utility.yul\":13571:13573   */\n      dup6\n        /* \"#utility.yul\":13561:13569   */\n      dup4\n        /* \"#utility.yul\":13558:13574   */\n      lt\n        /* \"#utility.yul\":13538:13556   */\n      dup2\n        /* \"#utility.yul\":13535:13575   */\n      sub\n        /* \"#utility.yul\":13532:13699   */\n      tag_650\n      jumpi\n      shl(0xe0, 0x4e487b71)\n        /* \"#utility.yul\":13598:13631   */\n      dup6\n      mstore\n        /* \"#utility.yul\":13654:13658   */\n      0x22\n        /* \"#utility.yul\":13651:13652   */\n      0x04\n        /* \"#utility.yul\":13644:13659   */\n      mstore\n        /* \"#utility.yul\":13684:13688   */\n      0x24\n        /* \"#utility.yul\":13605:13608   */\n      dup6\n        /* \"#utility.yul\":13672:13689   */\n      revert\n        /* \"#utility.yul\":13532:13699   */\n    tag_650:\n        /* \"#utility.yul\":13715:13733   */\n      dup1\n        /* \"#utility.yul\":13742:13852   */\n      dup1\n      iszero\n      tag_652\n      jumpi\n        /* \"#utility.yul\":13866:13867   */\n      0x01\n        /* \"#utility.yul\":13861:14189   */\n      dup2\n      eq\n      tag_653\n      jumpi\n        /* \"#utility.yul\":13708:14189   */\n      jump(tag_651)\n        /* \"#utility.yul\":13742:13852   */\n    tag_652:\n      not(0xff)\n        /* \"#utility.yul\":13777:13801   */\n      dup6\n      and\n        /* \"#utility.yul\":13763:13802   */\n      dup9\n      mstore\n        /* \"#utility.yul\":13822:13842   */\n      dup4\n      dup9\n      add\n      swap6\n      pop\n        /* \"#utility.yul\":13742:13852   */\n      jump(tag_651)\n        /* \"#utility.yul\":13861:14189   */\n    tag_653:\n        /* \"#utility.yul\":12634:12635   */\n      0x00\n        /* \"#utility.yul\":12627:12641   */\n      dup12\n      dup2\n      mstore\n        /* \"#utility.yul\":12671:12675   */\n      0x20\n        /* \"#utility.yul\":12658:12676   */\n      swap1\n      keccak256\n        /* \"#utility.yul\":13956:13957   */\n      0x00\n        /* \"#utility.yul\":13970:14139   */\n    tag_655:\n        /* \"#utility.yul\":13984:13992   */\n      dup6\n        /* \"#utility.yul\":13981:13982   */\n      dup2\n        /* \"#utility.yul\":13978:13993   */\n      lt\n        /* \"#utility.yul\":13970:14139   */\n      iszero\n      tag_657\n      jumpi\n        /* \"#utility.yul\":14066:14080   */\n      dup2\n      sload\n        /* \"#utility.yul\":14051:14064   */\n      dup11\n      dup3\n      add\n        /* \"#utility.yul\":14044:14081   */\n      mstore\n        /* \"#utility.yul\":14109:14125   */\n      swap1\n      dup5\n      add\n      swap1\n        /* \"#utility.yul\":14001:14011   */\n      dup9\n      add\n        /* \"#utility.yul\":13970:14139   */\n      jump(tag_655)\n    tag_657:\n        /* \"#utility.yul\":13974:13977   */\n      pop\n      pop\n        /* \"#utility.yul\":14170:14178   */\n      dup4\n        /* \"#utility.yul\":14163:14168   */\n      dup9\n        /* \"#utility.yul\":14159:14179   */\n      add\n        /* \"#utility.yul\":14152:14179   */\n      swap6\n      pop\n        /* \"#utility.yul\":13708:14189   */\n    tag_651:\n      pop\n        /* \"#utility.yul\":14205:14208   */\n      swap4\n      swap12\n        /* \"#utility.yul\":12687:14214   */\n      swap11\n      pop\n      pop\n      pop\n      pop\n      pop\n      pop\n      pop\n      pop\n      pop\n      pop\n      pop\n      jump\t// out\n        /* \"#utility.yul\":15854:15979   */\n    tag_421:\n        /* \"#utility.yul\":15894:15898   */\n      0x00\n        /* \"#utility.yul\":15922:15923   */\n      dup3\n        /* \"#utility.yul\":15919:15920   */\n      dup3\n        /* \"#utility.yul\":15916:15924   */\n      lt\n        /* \"#utility.yul\":15913:15947   */\n      iszero\n      tag_664\n      jumpi\n        /* \"#utility.yul\":15927:15945   */\n      tag_664\n      tag_549\n      jump\t// in\n    tag_664:\n      pop\n        /* \"#utility.yul\":15964:15973   */\n      sub\n      swap1\n        /* \"#utility.yul\":15854:15979   */\n      jump\t// out\n        /* \"#utility.yul\":15984:16398   */\n    tag_430:\n        /* \"#utility.yul\":16186:16188   */\n      0x20\n        /* \"#utility.yul\":16168:16189   */\n      dup1\n      dup3\n      mstore\n        /* \"#utility.yul\":16225:16227   */\n      0x32\n        /* \"#utility.yul\":16205:16223   */\n      swap1\n      dup3\n      add\n        /* \"#utility.yul\":16198:16228   */\n      mstore\n        /* \"#utility.yul\":16264:16298   */\n      0x4552433732313a207472616e7366657220746f206e6f6e204552433732315265\n        /* \"#utility.yul\":16259:16261   */\n      0x40\n        /* \"#utility.yul\":16244:16262   */\n      dup3\n      add\n        /* \"#utility.yul\":16237:16299   */\n      mstore\n      shl(0x71, 0x31b2b4bb32b91034b6b83632b6b2b73a32b9)\n        /* \"#utility.yul\":16330:16332   */\n      0x60\n        /* \"#utility.yul\":16315:16333   */\n      dup3\n      add\n        /* \"#utility.yul\":16308:16356   */\n      mstore\n        /* \"#utility.yul\":16388:16391   */\n      0x80\n        /* \"#utility.yul\":16373:16392   */\n      add\n      swap1\n        /* \"#utility.yul\":15984:16398   */\n      jump\t// out\n        /* \"#utility.yul\":16403:16530   */\n    tag_551:\n        /* \"#utility.yul\":16464:16474   */\n      0x4e487b71\n        /* \"#utility.yul\":16459:16462   */\n      0xe0\n        /* \"#utility.yul\":16455:16475   */\n      shl\n        /* \"#utility.yul\":16452:16453   */\n      0x00\n        /* \"#utility.yul\":16445:16476   */\n      mstore\n        /* \"#utility.yul\":16495:16499   */\n      0x12\n        /* \"#utility.yul\":16492:16493   */\n      0x04\n        /* \"#utility.yul\":16485:16500   */\n      mstore\n        /* \"#utility.yul\":16519:16523   */\n      0x24\n        /* \"#utility.yul\":16516:16517   */\n      0x00\n        /* \"#utility.yul\":16509:16524   */\n      revert\n        /* \"#utility.yul\":16535:16655   */\n    tag_443:\n        /* \"#utility.yul\":16575:16576   */\n      0x00\n        /* \"#utility.yul\":16601:16602   */\n      dup3\n        /* \"#utility.yul\":16591:16626   */\n      tag_669\n      jumpi\n        /* \"#utility.yul\":16606:16624   */\n      tag_669\n      tag_551\n      jump\t// in\n    tag_669:\n      pop\n        /* \"#utility.yul\":16640:16649   */\n      div\n      swap1\n        /* \"#utility.yul\":16535:16655   */\n      jump\t// out\n        /* \"#utility.yul\":16660:16772   */\n    tag_451:\n        /* \"#utility.yul\":16692:16693   */\n      0x00\n        /* \"#utility.yul\":16718:16719   */\n      dup3\n        /* \"#utility.yul\":16708:16743   */\n      tag_672\n      jumpi\n        /* \"#utility.yul\":16723:16741   */\n      tag_672\n      tag_551\n      jump\t// in\n    tag_672:\n      pop\n        /* \"#utility.yul\":16757:16766   */\n      mod\n      swap1\n        /* \"#utility.yul\":16660:16772   */\n      jump\t// out\n        /* \"#utility.yul\":16777:17266   */\n    tag_486:\n      sub(shl(0xa0, 0x01), 0x01)\n        /* \"#utility.yul\":17046:17061   */\n      dup6\n      dup2\n      and\n        /* \"#utility.yul\":17028:17062   */\n      dup3\n      mstore\n        /* \"#utility.yul\":17098:17113   */\n      dup5\n      and\n        /* \"#utility.yul\":17093:17095   */\n      0x20\n        /* \"#utility.yul\":17078:17096   */\n      dup3\n      add\n        /* \"#utility.yul\":17071:17114   */\n      mstore\n        /* \"#utility.yul\":17145:17147   */\n      0x40\n        /* \"#utility.yul\":17130:17148   */\n      dup2\n      add\n        /* \"#utility.yul\":17123:17157   */\n      dup4\n      swap1\n      mstore\n        /* \"#utility.yul\":17193:17196   */\n      0x80\n        /* \"#utility.yul\":17188:17190   */\n      0x60\n        /* \"#utility.yul\":17173:17191   */\n      dup3\n      add\n        /* \"#utility.yul\":17166:17197   */\n      dup2\n      swap1\n      mstore\n        /* \"#utility.yul\":16971:16975   */\n      0x00\n      swap1\n        /* \"#utility.yul\":17214:17260   */\n      tag_674\n      swap1\n        /* \"#utility.yul\":17240:17259   */\n      dup4\n      add\n        /* \"#utility.yul\":17232:17238   */\n      dup5\n        /* \"#utility.yul\":17214:17260   */\n      tag_546\n      jump\t// in\n    tag_674:\n        /* \"#utility.yul\":17206:17260   */\n      swap7\n        /* \"#utility.yul\":16777:17266   */\n      swap6\n      pop\n      pop\n      pop\n      pop\n      pop\n      pop\n      jump\t// out\n        /* \"#utility.yul\":17271:17520   */\n    tag_489:\n        /* \"#utility.yul\":17340:17346   */\n      0x00\n        /* \"#utility.yul\":17393:17395   */\n      0x20\n        /* \"#utility.yul\":17381:17390   */\n      dup3\n        /* \"#utility.yul\":17372:17379   */\n      dup5\n        /* \"#utility.yul\":17368:17391   */\n      sub\n        /* \"#utility.yul\":17364:17396   */\n      slt\n        /* \"#utility.yul\":17361:17413   */\n      iszero\n      tag_676\n      jumpi\n        /* \"#utility.yul\":17409:17410   */\n      0x00\n        /* \"#utility.yul\":17406:17407   */\n      dup1\n        /* \"#utility.yul\":17399:17411   */\n      revert\n        /* \"#utility.yul\":17361:17413   */\n    tag_676:\n        /* \"#utility.yul\":17441:17450   */\n      dup2\n        /* \"#utility.yul\":17435:17451   */\n      mload\n        /* \"#utility.yul\":17460:17490   */\n      tag_364\n        /* \"#utility.yul\":17484:17489   */\n      dup2\n        /* \"#utility.yul\":17460:17490   */\n      tag_543\n      jump\t// in\n        /* \"#utility.yul\":18243:18370   */\n    tag_528:\n        /* \"#utility.yul\":18304:18314   */\n      0x4e487b71\n        /* \"#utility.yul\":18299:18302   */\n      0xe0\n        /* \"#utility.yul\":18295:18315   */\n      shl\n        /* \"#utility.yul\":18292:18293   */\n      0x00\n        /* \"#utility.yul\":18285:18316   */\n      mstore\n        /* \"#utility.yul\":18335:18339   */\n      0x31\n        /* \"#utility.yul\":18332:18333   */\n      0x04\n        /* \"#utility.yul\":18325:18340   */\n      mstore\n        /* \"#utility.yul\":18359:18363   */\n      0x24\n        /* \"#utility.yul\":18356:18357   */\n      0x00\n        /* \"#utility.yul\":18349:18364   */\n      revert\n\n    auxdata: 0xa2646970667358221220fa63cdd346f30454ebb362f4554c95ee01d59b2b646163cdf8f88e980d0d7a2b64736f6c634300080e0033\n}\n",
				"bytecode": {
					"linkReferences": {},
					"object": "60c06040526005608081905264173539b7b760d91b60a09081526200002891600c91906200019b565b506000600d556001600e55600f805460ff191690553480156200004a57600080fd5b506040516200262a3803806200262a8339810160408190526200006d916200030e565b825183908390620000869060009060208501906200019b565b5080516200009c9060019060208401906200019b565b505050620000b9620000b3620000cd60201b60201c565b620000d1565b620000c48162000123565b505050620003db565b3390565b600a80546001600160a01b038381166001600160a01b0319831681179093556040519116919082907f8be0079c531659141344cd1fd0a4f28419497f9722a3daafe3b4186f6b6457e090600090a35050565b600a546001600160a01b03163314620001825760405162461bcd60e51b815260206004820181905260248201527f4f776e61626c653a2063616c6c6572206973206e6f7420746865206f776e6572604482015260640160405180910390fd5b80516200019790600b9060208401906200019b565b5050565b828054620001a9906200039f565b90600052602060002090601f016020900481019282620001cd576000855562000218565b82601f10620001e857805160ff191683800117855562000218565b8280016001018555821562000218579182015b8281111562000218578251825591602001919060010190620001fb565b50620002269291506200022a565b5090565b5b808211156200022657600081556001016200022b565b634e487b7160e01b600052604160045260246000fd5b600082601f8301126200026957600080fd5b81516001600160401b038082111562000286576200028662000241565b604051601f8301601f19908116603f01168101908282118183101715620002b157620002b162000241565b81604052838152602092508683858801011115620002ce57600080fd5b600091505b83821015620002f25785820183015181830184015290820190620002d3565b83821115620003045760008385830101525b9695505050505050565b6000806000606084860312156200032457600080fd5b83516001600160401b03808211156200033c57600080fd5b6200034a8783880162000257565b945060208601519150808211156200036157600080fd5b6200036f8783880162000257565b935060408601519150808211156200038657600080fd5b50620003958682870162000257565b9150509250925092565b600181811c90821680620003b457607f821691505b602082108103620003d557634e487b7160e01b600052602260045260246000fd5b50919050565b61223f80620003eb6000396000f3fe6080604052600436106101d85760003560e01c80634f6ccce71161010257806395d89b4111610095578063c87b56dd11610064578063c87b56dd1461052a578063da3ef23f1461054a578063e985e9c51461056a578063f2fde38b146105b357600080fd5b806395d89b41146104c0578063a22cb465146104d5578063b88d4fde146104f5578063c66828621461051557600080fd5b80636c0360eb116100d15780636c0360eb1461045857806370a082311461046d578063715018a61461048d5780638da5cb5b146104a257600080fd5b80634f6ccce7146103de57806355f804b3146103fe5780635c975abb1461041e5780636352211e1461043857600080fd5b806318160ddd1161017a5780633ccfd60b116101495780633ccfd60b1461036957806342842e0e14610371578063438b63001461039157806344a0d68a146103be57600080fd5b806318160ddd146102e757806318cae269146102fc57806323b872dd146103295780632f745c591461034957600080fd5b8063081812fc116101b6578063081812fc14610256578063095ea7b31461028e5780631249c58b146102ae57806313faede6146102c357600080fd5b806301ffc9a7146101dd57806302329a291461021257806306fdde0314610234575b600080fd5b3480156101e957600080fd5b506101fd6101f8366004611bb7565b6105d3565b60405190151581526020015b60405180910390f35b34801561021e57600080fd5b5061023261022d366004611be9565b6105fe565b005b34801561024057600080fd5b50610249610644565b6040516102099190611c5c565b34801561026257600080fd5b50610276610271366004611c6f565b6106d6565b6040516001600160a01b039091168152602001610209565b34801561029a57600080fd5b506102326102a9366004611c9f565b61076b565b3480156102ba57600080fd5b50610232610880565b3480156102cf57600080fd5b506102d9600d5481565b604051908152602001610209565b3480156102f357600080fd5b506008546102d9565b34801561030857600080fd5b506102d9610317366004611cc9565b60106020526000908152604090205481565b34801561033557600080fd5b50610232610344366004611ce4565b610981565b34801561035557600080fd5b506102d9610364366004611c9f565b6109b2565b610232610a48565b34801561037d57600080fd5b5061023261038c366004611ce4565b610ae6565b34801561039d57600080fd5b506103b16103ac366004611cc9565b610b01565b6040516102099190611d20565b3480156103ca57600080fd5b506102326103d9366004611c6f565b610ba3565b3480156103ea57600080fd5b506102d96103f9366004611c6f565b610bd2565b34801561040a57600080fd5b50610232610419366004611df0565b610c65565b34801561042a57600080fd5b50600f546101fd9060ff1681565b34801561044457600080fd5b50610276610453366004611c6f565b610ca2565b34801561046457600080fd5b50610249610d19565b34801561047957600080fd5b506102d9610488366004611cc9565b610da7565b34801561049957600080fd5b50610232610e2e565b3480156104ae57600080fd5b50600a546001600160a01b0316610276565b3480156104cc57600080fd5b50610249610e64565b3480156104e157600080fd5b506102326104f0366004611e39565b610e73565b34801561050157600080fd5b50610232610510366004611e6c565b610f37565b34801561052157600080fd5b50610249610f6f565b34801561053657600080fd5b50610249610545366004611c6f565b610f7c565b34801561055657600080fd5b50610232610565366004611df0565b61105a565b34801561057657600080fd5b506101fd610585366004611ee8565b6001600160a01b03918216600090815260056020908152604080832093909416825291909152205460ff1690565b3480156105bf57600080fd5b506102326105ce366004611cc9565b611097565b60006001600160e01b0319821663780e9d6360e01b14806105f857506105f88261112f565b92915050565b600a546001600160a01b031633146106315760405162461bcd60e51b815260040161062890611f12565b60405180910390fd5b600f805460ff1916911515919091179055565b60606000805461065390611f47565b80601f016020809104026020016040519081016040528092919081815260200182805461067f90611f47565b80156106cc5780601f106106a1576101008083540402835291602001916106cc565b820191906000526020600020905b8154815290600101906020018083116106af57829003601f168201915b5050505050905090565b6000818152600260205260408120546001600160a01b031661074f5760405162461bcd60e51b815260206004820152602c60248201527f4552433732313a20617070726f76656420717565727920666f72206e6f6e657860448201526b34b9ba32b73a103a37b5b2b760a11b6064820152608401610628565b506000908152600460205260409020546001600160a01b031690565b600061077682610ca2565b9050806001600160a01b0316836001600160a01b0316036107e35760405162461bcd60e51b815260206004820152602160248201527f4552433732313a20617070726f76616c20746f2063757272656e74206f776e656044820152603960f91b6064820152608401610628565b336001600160a01b03821614806107ff57506107ff8133610585565b6108715760405162461bcd60e51b815260206004820152603860248201527f4552433732313a20617070726f76652063616c6c6572206973206e6f74206f7760448201527f6e6572206e6f7220617070726f76656420666f7220616c6c00000000000000006064820152608401610628565b61087b838361117f565b505050565b600f5460ff16156108cc5760405162461bcd60e51b81526020600482015260166024820152751d1a194818dbdb9d1c9858dd081a5cc81c185d5cd95960521b6044820152606401610628565b60006108d760085490565b90506000600e541161092b5760405162461bcd60e51b815260206004820152601b60248201527f6e65656420746f206d696e74206174206c656173742031204e465400000000006044820152606401610628565b60015b600e54811161097d5733600090815260106020526040812080549161095283611f97565b9091555061096b9050336109668385611fb0565b6111ed565b8061097581611f97565b91505061092e565b5050565b61098b3382611207565b6109a75760405162461bcd60e51b815260040161062890611fc8565b61087b8383836112fe565b60006109bd83610da7565b8210610a1f5760405162461bcd60e51b815260206004820152602b60248201527f455243373231456e756d657261626c653a206f776e657220696e646578206f7560448201526a74206f6620626f756e647360a81b6064820152608401610628565b506001600160a01b03919091166000908152600660209081526040808320938352929052205490565b600a546001600160a01b03163314610a725760405162461bcd60e51b815260040161062890611f12565b6000610a86600a546001600160a01b031690565b6001600160a01b03164760405160006040518083038185875af1925050503d8060008114610ad0576040519150601f19603f3d011682016040523d82523d6000602084013e610ad5565b606091505b5050905080610ae357600080fd5b50565b61087b83838360405180602001604052806000815250610f37565b60606000610b0e83610da7565b905060008167ffffffffffffffff811115610b2b57610b2b611d64565b604051908082528060200260200182016040528015610b54578160200160208202803683370190505b50905060005b82811015610b9b57610b6c85826109b2565b828281518110610b7e57610b7e612019565b602090810291909101015280610b9381611f97565b915050610b5a565b509392505050565b600a546001600160a01b03163314610bcd5760405162461bcd60e51b815260040161062890611f12565b600d55565b6000610bdd60085490565b8210610c405760405162461bcd60e51b815260206004820152602c60248201527f455243373231456e756d657261626c653a20676c6f62616c20696e646578206f60448201526b7574206f6620626f756e647360a01b6064820152608401610628565b60088281548110610c5357610c53612019565b90600052602060002001549050919050565b600a546001600160a01b03163314610c8f5760405162461bcd60e51b815260040161062890611f12565b805161097d90600b906020840190611b08565b6000818152600260205260408120546001600160a01b0316806105f85760405162461bcd60e51b815260206004820152602960248201527f4552433732313a206f776e657220717565727920666f72206e6f6e657869737460448201526832b73a103a37b5b2b760b91b6064820152608401610628565b600b8054610d2690611f47565b80601f0160208091040260200160405190810160405280929190818152602001828054610d5290611f47565b8015610d9f5780601f10610d7457610100808354040283529160200191610d9f565b820191906000526020600020905b815481529060010190602001808311610d8257829003601f168201915b505050505081565b60006001600160a01b038216610e125760405162461bcd60e51b815260206004820152602a60248201527f4552433732313a2062616c616e636520717565727920666f7220746865207a65604482015269726f206164647265737360b01b6064820152608401610628565b506001600160a01b031660009081526003602052604090205490565b600a546001600160a01b03163314610e585760405162461bcd60e51b815260040161062890611f12565b610e6260006114a9565b565b60606001805461065390611f47565b336001600160a01b03831603610ecb5760405162461bcd60e51b815260206004820152601960248201527f4552433732313a20617070726f766520746f2063616c6c6572000000000000006044820152606401610628565b3360008181526005602090815260408083206001600160a01b03871680855290835292819020805460ff191686151590811790915590519081529192917f17307eab39ab6107e8899845ad3d59bd9653f200f220920489ca2b5937696c31910160405180910390a35050565b610f413383611207565b610f5d5760405162461bcd60e51b815260040161062890611fc8565b610f69848484846114fb565b50505050565b600c8054610d2690611f47565b6000818152600260205260409020546060906001600160a01b0316610ffb5760405162461bcd60e51b815260206004820152602f60248201527f4552433732314d657461646174613a2055524920717565727920666f72206e6f60448201526e3732bc34b9ba32b73a103a37b5b2b760891b6064820152608401610628565b600061100561152e565b905060008151116110255760405180602001604052806000815250611053565b8061102f8461153d565b600c6040516020016110439392919061202f565b6040516020818303038152906040525b9392505050565b600a546001600160a01b031633146110845760405162461bcd60e51b815260040161062890611f12565b805161097d90600c906020840190611b08565b600a546001600160a01b031633146110c15760405162461bcd60e51b815260040161062890611f12565b6001600160a01b0381166111265760405162461bcd60e51b815260206004820152602660248201527f4f776e61626c653a206e6577206f776e657220697320746865207a65726f206160448201526564647265737360d01b6064820152608401610628565b610ae3816114a9565b60006001600160e01b031982166380ac58cd60e01b148061116057506001600160e01b03198216635b5e139f60e01b145b806105f857506301ffc9a760e01b6001600160e01b03198316146105f8565b600081815260046020526040902080546001600160a01b0319166001600160a01b03841690811790915581906111b482610ca2565b6001600160a01b03167f8c5be1e5ebec7d5bd14f71427d1e84f3dd0314c0f7b2291e5b200ac8c7c3b92560405160405180910390a45050565b61097d82826040518060200160405280600081525061163e565b6000818152600260205260408120546001600160a01b03166112805760405162461bcd60e51b815260206004820152602c60248201527f4552433732313a206f70657261746f7220717565727920666f72206e6f6e657860448201526b34b9ba32b73a103a37b5b2b760a11b6064820152608401610628565b600061128b83610ca2565b9050806001600160a01b0316846001600160a01b031614806112c65750836001600160a01b03166112bb846106d6565b6001600160a01b0316145b806112f657506001600160a01b0380821660009081526005602090815260408083209388168352929052205460ff165b949350505050565b826001600160a01b031661131182610ca2565b6001600160a01b0316146113795760405162461bcd60e51b815260206004820152602960248201527f4552433732313a207472616e73666572206f6620746f6b656e2074686174206960448201526839903737ba1037bbb760b91b6064820152608401610628565b6001600160a01b0382166113db5760405162461bcd60e51b8152602060048201526024808201527f4552433732313a207472616e7366657220746f20746865207a65726f206164646044820152637265737360e01b6064820152608401610628565b6113e6838383611671565b6113f160008261117f565b6001600160a01b038316600090815260036020526040812080546001929061141a9084906120f2565b90915550506001600160a01b0382166000908152600360205260408120805460019290611448908490611fb0565b909155505060008181526002602052604080822080546001600160a01b0319166001600160a01b0386811691821790925591518493918716917fddf252ad1be2c89b69c2b068fc378daa952ba7f163c4a11628f55a4df523b3ef91a4505050565b600a80546001600160a01b038381166001600160a01b0319831681179093556040519116919082907f8be0079c531659141344cd1fd0a4f28419497f9722a3daafe3b4186f6b6457e090600090a35050565b6115068484846112fe565b61151284848484611729565b610f695760405162461bcd60e51b815260040161062890612109565b6060600b805461065390611f47565b6060816000036115645750506040805180820190915260018152600360fc1b602082015290565b8160005b811561158e578061157881611f97565b91506115879050600a83612171565b9150611568565b60008167ffffffffffffffff8111156115a9576115a9611d64565b6040519080825280601f01601f1916602001820160405280156115d3576020820181803683370190505b5090505b84156112f6576115e86001836120f2565b91506115f5600a86612185565b611600906030611fb0565b60f81b81838151811061161557611615612019565b60200101906001600160f81b031916908160001a905350611637600a86612171565b94506115d7565b611648838361182a565b6116556000848484611729565b61087b5760405162461bcd60e51b815260040161062890612109565b6001600160a01b0383166116cc576116c781600880546000838152600960205260408120829055600182018355919091527ff3f7a9fe364faab93b216da50a3214154f22a0a2b415b23a84c8169e8b636ee30155565b6116ef565b816001600160a01b0316836001600160a01b0316146116ef576116ef8382611978565b6001600160a01b0382166117065761087b81611a15565b826001600160a01b0316826001600160a01b03161461087b5761087b8282611ac4565b60006001600160a01b0384163b1561181f57604051630a85bd0160e11b81526001600160a01b0385169063150b7a029061176d903390899088908890600401612199565b6020604051808303816000875af19250505080156117a8575060408051601f3d908101601f191682019092526117a5918101906121d6565b60015b611805573d8080156117d6576040519150601f19603f3d011682016040523d82523d6000602084013e6117db565b606091505b5080516000036117fd5760405162461bcd60e51b815260040161062890612109565b805181602001fd5b6001600160e01b031916630a85bd0160e11b1490506112f6565b506001949350505050565b6001600160a01b0382166118805760405162461bcd60e51b815260206004820181905260248201527f4552433732313a206d696e7420746f20746865207a65726f20616464726573736044820152606401610628565b6000818152600260205260409020546001600160a01b0316156118e55760405162461bcd60e51b815260206004820152601c60248201527f4552433732313a20746f6b656e20616c7265616479206d696e746564000000006044820152606401610628565b6118f160008383611671565b6001600160a01b038216600090815260036020526040812080546001929061191a908490611fb0565b909155505060008181526002602052604080822080546001600160a01b0319166001600160a01b03861690811790915590518392907fddf252ad1be2c89b69c2b068fc378daa952ba7f163c4a11628f55a4df523b3ef908290a45050565b6000600161198584610da7565b61198f91906120f2565b6000838152600760205260409020549091508082146119e2576001600160a01b03841660009081526006602090815260408083208584528252808320548484528184208190558352600790915290208190555b5060009182526007602090815260408084208490556001600160a01b039094168352600681528383209183525290812055565b600854600090611a27906001906120f2565b60008381526009602052604081205460088054939450909284908110611a4f57611a4f612019565b906000526020600020015490508060088381548110611a7057611a70612019565b6000918252602080832090910192909255828152600990915260408082208490558582528120556008805480611aa857611aa86121f3565b6001900381819060005260206000200160009055905550505050565b6000611acf83610da7565b6001600160a01b039093166000908152600660209081526040808320868452825280832085905593825260079052919091209190915550565b828054611b1490611f47565b90600052602060002090601f016020900481019282611b365760008555611b7c565b82601f10611b4f57805160ff1916838001178555611b7c565b82800160010185558215611b7c579182015b82811115611b7c578251825591602001919060010190611b61565b50611b88929150611b8c565b5090565b5b80821115611b885760008155600101611b8d565b6001600160e01b031981168114610ae357600080fd5b600060208284031215611bc957600080fd5b813561105381611ba1565b80358015158114611be457600080fd5b919050565b600060208284031215611bfb57600080fd5b61105382611bd4565b60005b83811015611c1f578181015183820152602001611c07565b83811115610f695750506000910152565b60008151808452611c48816020860160208601611c04565b601f01601f19169290920160200192915050565b6020815260006110536020830184611c30565b600060208284031215611c8157600080fd5b5035919050565b80356001600160a01b0381168114611be457600080fd5b60008060408385031215611cb257600080fd5b611cbb83611c88565b946020939093013593505050565b600060208284031215611cdb57600080fd5b61105382611c88565b600080600060608486031215611cf957600080fd5b611d0284611c88565b9250611d1060208501611c88565b9150604084013590509250925092565b6020808252825182820181905260009190848201906040850190845b81811015611d5857835183529284019291840191600101611d3c565b50909695505050505050565b634e487b7160e01b600052604160045260246000fd5b600067ffffffffffffffff80841115611d9557611d95611d64565b604051601f8501601f19908116603f01168101908282118183101715611dbd57611dbd611d64565b81604052809350858152868686011115611dd657600080fd5b858560208301376000602087830101525050509392505050565b600060208284031215611e0257600080fd5b813567ffffffffffffffff811115611e1957600080fd5b8201601f81018413611e2a57600080fd5b6112f684823560208401611d7a565b60008060408385031215611e4c57600080fd5b611e5583611c88565b9150611e6360208401611bd4565b90509250929050565b60008060008060808587031215611e8257600080fd5b611e8b85611c88565b9350611e9960208601611c88565b925060408501359150606085013567ffffffffffffffff811115611ebc57600080fd5b8501601f81018713611ecd57600080fd5b611edc87823560208401611d7a565b91505092959194509250565b60008060408385031215611efb57600080fd5b611f0483611c88565b9150611e6360208401611c88565b6020808252818101527f4f776e61626c653a2063616c6c6572206973206e6f7420746865206f776e6572604082015260600190565b600181811c90821680611f5b57607f821691505b602082108103611f7b57634e487b7160e01b600052602260045260246000fd5b50919050565b634e487b7160e01b600052601160045260246000fd5b600060018201611fa957611fa9611f81565b5060010190565b60008219821115611fc357611fc3611f81565b500190565b60208082526031908201527f4552433732313a207472616e736665722063616c6c6572206973206e6f74206f6040820152701ddb995c881b9bdc88185c1c1c9bdd9959607a1b606082015260800190565b634e487b7160e01b600052603260045260246000fd5b6000845160206120428285838a01611c04565b8551918401916120558184848a01611c04565b8554920191600090600181811c908083168061207257607f831692505b858310810361208f57634e487b7160e01b85526022600452602485fd5b8080156120a357600181146120b4576120e1565b60ff198516885283880195506120e1565b60008b81526020902060005b858110156120d95781548a8201529084019088016120c0565b505083880195505b50939b9a5050505050505050505050565b60008282101561210457612104611f81565b500390565b60208082526032908201527f4552433732313a207472616e7366657220746f206e6f6e20455243373231526560408201527131b2b4bb32b91034b6b83632b6b2b73a32b960711b606082015260800190565b634e487b7160e01b600052601260045260246000fd5b6000826121805761218061215b565b500490565b6000826121945761219461215b565b500690565b6001600160a01b03858116825284166020820152604081018390526080606082018190526000906121cc90830184611c30565b9695505050505050565b6000602082840312156121e857600080fd5b815161105381611ba1565b634e487b7160e01b600052603160045260246000fdfea2646970667358221220fa63cdd346f30454ebb362f4554c95ee01d59b2b646163cdf8f88e980d0d7a2b64736f6c634300080e0033",
					"opcodes": "PUSH1 0xC0 PUSH1 0x40 MSTORE PUSH1 0x5 PUSH1 0x80 DUP2 SWAP1 MSTORE PUSH5 0x173539B7B7 PUSH1 0xD9 SHL PUSH1 0xA0 SWAP1 DUP2 MSTORE PUSH3 0x28 SWAP2 PUSH1 0xC SWAP2 SWAP1 PUSH3 0x19B JUMP JUMPDEST POP PUSH1 0x0 PUSH1 0xD SSTORE PUSH1 0x1 PUSH1 0xE SSTORE PUSH1 0xF DUP1 SLOAD PUSH1 0xFF NOT AND SWAP1 SSTORE CALLVALUE DUP1 ISZERO PUSH3 0x4A JUMPI PUSH1 0x0 DUP1 REVERT JUMPDEST POP PUSH1 0x40 MLOAD PUSH3 0x262A CODESIZE SUB DUP1 PUSH3 0x262A DUP4 CODECOPY DUP2 ADD PUSH1 0x40 DUP2 SWAP1 MSTORE PUSH3 0x6D SWAP2 PUSH3 0x30E JUMP JUMPDEST DUP3 MLOAD DUP4 SWAP1 DUP4 SWAP1 PUSH3 0x86 SWAP1 PUSH1 0x0 SWAP1 PUSH1 0x20 DUP6 ADD SWAP1 PUSH3 0x19B JUMP JUMPDEST POP DUP1 MLOAD PUSH3 0x9C SWAP1 PUSH1 0x1 SWAP1 PUSH1 0x20 DUP5 ADD SWAP1 PUSH3 0x19B JUMP JUMPDEST POP POP POP PUSH3 0xB9 PUSH3 0xB3 PUSH3 0xCD PUSH1 0x20 SHL PUSH1 0x20 SHR JUMP JUMPDEST PUSH3 0xD1 JUMP JUMPDEST PUSH3 0xC4 DUP2 PUSH3 0x123 JUMP JUMPDEST POP POP POP PUSH3 0x3DB JUMP JUMPDEST CALLER SWAP1 JUMP JUMPDEST PUSH1 0xA DUP1 SLOAD PUSH1 0x1 PUSH1 0x1 PUSH1 0xA0 SHL SUB DUP4 DUP2 AND PUSH1 0x1 PUSH1 0x1 PUSH1 0xA0 SHL SUB NOT DUP4 AND DUP2 OR SWAP1 SWAP4 SSTORE PUSH1 0x40 MLOAD SWAP2 AND SWAP2 SWAP1 DUP3 SWAP1 PUSH32 0x8BE0079C531659141344CD1FD0A4F28419497F9722A3DAAFE3B4186F6B6457E0 SWAP1 PUSH1 0x0 SWAP1 LOG3 POP POP JUMP JUMPDEST PUSH1 0xA SLOAD PUSH1 0x1 PUSH1 0x1 PUSH1 0xA0 SHL SUB AND CALLER EQ PUSH3 0x182 JUMPI PUSH1 0x40 MLOAD PUSH3 0x461BCD PUSH1 0xE5 SHL DUP2 MSTORE PUSH1 0x20 PUSH1 0x4 DUP3 ADD DUP2 SWAP1 MSTORE PUSH1 0x24 DUP3 ADD MSTORE PUSH32 0x4F776E61626C653A2063616C6C6572206973206E6F7420746865206F776E6572 PUSH1 0x44 DUP3 ADD MSTORE PUSH1 0x64 ADD PUSH1 0x40 MLOAD DUP1 SWAP2 SUB SWAP1 REVERT JUMPDEST DUP1 MLOAD PUSH3 0x197 SWAP1 PUSH1 0xB SWAP1 PUSH1 0x20 DUP5 ADD SWAP1 PUSH3 0x19B JUMP JUMPDEST POP POP JUMP JUMPDEST DUP3 DUP1 SLOAD PUSH3 0x1A9 SWAP1 PUSH3 0x39F JUMP JUMPDEST SWAP1 PUSH1 0x0 MSTORE PUSH1 0x20 PUSH1 0x0 KECCAK256 SWAP1 PUSH1 0x1F ADD PUSH1 0x20 SWAP1 DIV DUP2 ADD SWAP3 DUP3 PUSH3 0x1CD JUMPI PUSH1 0x0 DUP6 SSTORE PUSH3 0x218 JUMP JUMPDEST DUP3 PUSH1 0x1F LT PUSH3 0x1E8 JUMPI DUP1 MLOAD PUSH1 0xFF NOT AND DUP4 DUP1 ADD OR DUP6 SSTORE PUSH3 0x218 JUMP JUMPDEST DUP3 DUP1 ADD PUSH1 0x1 ADD DUP6 SSTORE DUP3 ISZERO PUSH3 0x218 JUMPI SWAP2 DUP3 ADD JUMPDEST DUP3 DUP2 GT ISZERO PUSH3 0x218 JUMPI DUP3 MLOAD DUP3 SSTORE SWAP2 PUSH1 0x20 ADD SWAP2 SWAP1 PUSH1 0x1 ADD SWAP1 PUSH3 0x1FB JUMP JUMPDEST POP PUSH3 0x226 SWAP3 SWAP2 POP PUSH3 0x22A JUMP JUMPDEST POP SWAP1 JUMP JUMPDEST JUMPDEST DUP1 DUP3 GT ISZERO PUSH3 0x226 JUMPI PUSH1 0x0 DUP2 SSTORE PUSH1 0x1 ADD PUSH3 0x22B JUMP JUMPDEST PUSH4 0x4E487B71 PUSH1 0xE0 SHL PUSH1 0x0 MSTORE PUSH1 0x41 PUSH1 0x4 MSTORE PUSH1 0x24 PUSH1 0x0 REVERT JUMPDEST PUSH1 0x0 DUP3 PUSH1 0x1F DUP4 ADD SLT PUSH3 0x269 JUMPI PUSH1 0x0 DUP1 REVERT JUMPDEST DUP2 MLOAD PUSH1 0x1 PUSH1 0x1 PUSH1 0x40 SHL SUB DUP1 DUP3 GT ISZERO PUSH3 0x286 JUMPI PUSH3 0x286 PUSH3 0x241 JUMP JUMPDEST PUSH1 0x40 MLOAD PUSH1 0x1F DUP4 ADD PUSH1 0x1F NOT SWAP1 DUP2 AND PUSH1 0x3F ADD AND DUP2 ADD SWAP1 DUP3 DUP3 GT DUP2 DUP4 LT OR ISZERO PUSH3 0x2B1 JUMPI PUSH3 0x2B1 PUSH3 0x241 JUMP JUMPDEST DUP2 PUSH1 0x40 MSTORE DUP4 DUP2 MSTORE PUSH1 0x20 SWAP3 POP DUP7 DUP4 DUP6 DUP9 ADD ADD GT ISZERO PUSH3 0x2CE JUMPI PUSH1 0x0 DUP1 REVERT JUMPDEST PUSH1 0x0 SWAP2 POP JUMPDEST DUP4 DUP3 LT ISZERO PUSH3 0x2F2 JUMPI DUP6 DUP3 ADD DUP4 ADD MLOAD DUP2 DUP4 ADD DUP5 ADD MSTORE SWAP1 DUP3 ADD SWAP1 PUSH3 0x2D3 JUMP JUMPDEST DUP4 DUP3 GT ISZERO PUSH3 0x304 JUMPI PUSH1 0x0 DUP4 DUP6 DUP4 ADD ADD MSTORE JUMPDEST SWAP7 SWAP6 POP POP POP POP POP POP JUMP JUMPDEST PUSH1 0x0 DUP1 PUSH1 0x0 PUSH1 0x60 DUP5 DUP7 SUB SLT ISZERO PUSH3 0x324 JUMPI PUSH1 0x0 DUP1 REVERT JUMPDEST DUP4 MLOAD PUSH1 0x1 PUSH1 0x1 PUSH1 0x40 SHL SUB DUP1 DUP3 GT ISZERO PUSH3 0x33C JUMPI PUSH1 0x0 DUP1 REVERT JUMPDEST PUSH3 0x34A DUP8 DUP4 DUP9 ADD PUSH3 0x257 JUMP JUMPDEST SWAP5 POP PUSH1 0x20 DUP7 ADD MLOAD SWAP2 POP DUP1 DUP3 GT ISZERO PUSH3 0x361 JUMPI PUSH1 0x0 DUP1 REVERT JUMPDEST PUSH3 0x36F DUP8 DUP4 DUP9 ADD PUSH3 0x257 JUMP JUMPDEST SWAP4 POP PUSH1 0x40 DUP7 ADD MLOAD SWAP2 POP DUP1 DUP3 GT ISZERO PUSH3 0x386 JUMPI PUSH1 0x0 DUP1 REVERT JUMPDEST POP PUSH3 0x395 DUP7 DUP3 DUP8 ADD PUSH3 0x257 JUMP JUMPDEST SWAP2 POP POP SWAP3 POP SWAP3 POP SWAP3 JUMP JUMPDEST PUSH1 0x1 DUP2 DUP2 SHR SWAP1 DUP3 AND DUP1 PUSH3 0x3B4 JUMPI PUSH1 0x7F DUP3 AND SWAP2 POP JUMPDEST PUSH1 0x20 DUP3 LT DUP2 SUB PUSH3 0x3D5 JUMPI PUSH4 0x4E487B71 PUSH1 0xE0 SHL PUSH1 0x0 MSTORE PUSH1 0x22 PUSH1 0x4 MSTORE PUSH1 0x24 PUSH1 0x0 REVERT JUMPDEST POP SWAP2 SWAP1 POP JUMP JUMPDEST PUSH2 0x223F DUP1 PUSH3 0x3EB PUSH1 0x0 CODECOPY PUSH1 0x0 RETURN INVALID PUSH1 0x80 PUSH1 0x40 MSTORE PUSH1 0x4 CALLDATASIZE LT PUSH2 0x1D8 JUMPI PUSH1 0x0 CALLDATALOAD PUSH1 0xE0 SHR DUP1 PUSH4 0x4F6CCCE7 GT PUSH2 0x102 JUMPI DUP1 PUSH4 0x95D89B41 GT PUSH2 0x95 JUMPI DUP1 PUSH4 0xC87B56DD GT PUSH2 0x64 JUMPI DUP1 PUSH4 0xC87B56DD EQ PUSH2 0x52A JUMPI DUP1 PUSH4 0xDA3EF23F EQ PUSH2 0x54A JUMPI DUP1 PUSH4 0xE985E9C5 EQ PUSH2 0x56A JUMPI DUP1 PUSH4 0xF2FDE38B EQ PUSH2 0x5B3 JUMPI PUSH1 0x0 DUP1 REVERT JUMPDEST DUP1 PUSH4 0x95D89B41 EQ PUSH2 0x4C0 JUMPI DUP1 PUSH4 0xA22CB465 EQ PUSH2 0x4D5 JUMPI DUP1 PUSH4 0xB88D4FDE EQ PUSH2 0x4F5 JUMPI DUP1 PUSH4 0xC6682862 EQ PUSH2 0x515 JUMPI PUSH1 0x0 DUP1 REVERT JUMPDEST DUP1 PUSH4 0x6C0360EB GT PUSH2 0xD1 JUMPI DUP1 PUSH4 0x6C0360EB EQ PUSH2 0x458 JUMPI DUP1 PUSH4 0x70A08231 EQ PUSH2 0x46D JUMPI DUP1 PUSH4 0x715018A6 EQ PUSH2 0x48D JUMPI DUP1 PUSH4 0x8DA5CB5B EQ PUSH2 0x4A2 JUMPI PUSH1 0x0 DUP1 REVERT JUMPDEST DUP1 PUSH4 0x4F6CCCE7 EQ PUSH2 0x3DE JUMPI DUP1 PUSH4 0x55F804B3 EQ PUSH2 0x3FE JUMPI DUP1 PUSH4 0x5C975ABB EQ PUSH2 0x41E JUMPI DUP1 PUSH4 0x6352211E EQ PUSH2 0x438 JUMPI PUSH1 0x0 DUP1 REVERT JUMPDEST DUP1 PUSH4 0x18160DDD GT PUSH2 0x17A JUMPI DUP1 PUSH4 0x3CCFD60B GT PUSH2 0x149 JUMPI DUP1 PUSH4 0x3CCFD60B EQ PUSH2 0x369 JUMPI DUP1 PUSH4 0x42842E0E EQ PUSH2 0x371 JUMPI DUP1 PUSH4 0x438B6300 EQ PUSH2 0x391 JUMPI DUP1 PUSH4 0x44A0D68A EQ PUSH2 0x3BE JUMPI PUSH1 0x0 DUP1 REVERT JUMPDEST DUP1 PUSH4 0x18160DDD EQ PUSH2 0x2E7 JUMPI DUP1 PUSH4 0x18CAE269 EQ PUSH2 0x2FC JUMPI DUP1 PUSH4 0x23B872DD EQ PUSH2 0x329 JUMPI DUP1 PUSH4 0x2F745C59 EQ PUSH2 0x349 JUMPI PUSH1 0x0 DUP1 REVERT JUMPDEST DUP1 PUSH4 0x81812FC GT PUSH2 0x1B6 JUMPI DUP1 PUSH4 0x81812FC EQ PUSH2 0x256 JUMPI DUP1 PUSH4 0x95EA7B3 EQ PUSH2 0x28E JUMPI DUP1 PUSH4 0x1249C58B EQ PUSH2 0x2AE JUMPI DUP1 PUSH4 0x13FAEDE6 EQ PUSH2 0x2C3 JUMPI PUSH1 0x0 DUP1 REVERT JUMPDEST DUP1 PUSH4 0x1FFC9A7 EQ PUSH2 0x1DD JUMPI DUP1 PUSH4 0x2329A29 EQ PUSH2 0x212 JUMPI DUP1 PUSH4 0x6FDDE03 EQ PUSH2 0x234 JUMPI JUMPDEST PUSH1 0x0 DUP1 REVERT JUMPDEST CALLVALUE DUP1 ISZERO PUSH2 0x1E9 JUMPI PUSH1 0x0 DUP1 REVERT JUMPDEST POP PUSH2 0x1FD PUSH2 0x1F8 CALLDATASIZE PUSH1 0x4 PUSH2 0x1BB7 JUMP JUMPDEST PUSH2 0x5D3 JUMP JUMPDEST PUSH1 0x40 MLOAD SWAP1 ISZERO ISZERO DUP2 MSTORE PUSH1 0x20 ADD JUMPDEST PUSH1 0x40 MLOAD DUP1 SWAP2 SUB SWAP1 RETURN JUMPDEST CALLVALUE DUP1 ISZERO PUSH2 0x21E JUMPI PUSH1 0x0 DUP1 REVERT JUMPDEST POP PUSH2 0x232 PUSH2 0x22D CALLDATASIZE PUSH1 0x4 PUSH2 0x1BE9 JUMP JUMPDEST PUSH2 0x5FE JUMP JUMPDEST STOP JUMPDEST CALLVALUE DUP1 ISZERO PUSH2 0x240 JUMPI PUSH1 0x0 DUP1 REVERT JUMPDEST POP PUSH2 0x249 PUSH2 0x644 JUMP JUMPDEST PUSH1 0x40 MLOAD PUSH2 0x209 SWAP2 SWAP1 PUSH2 0x1C5C JUMP JUMPDEST CALLVALUE DUP1 ISZERO PUSH2 0x262 JUMPI PUSH1 0x0 DUP1 REVERT JUMPDEST POP PUSH2 0x276 PUSH2 0x271 CALLDATASIZE PUSH1 0x4 PUSH2 0x1C6F JUMP JUMPDEST PUSH2 0x6D6 JUMP JUMPDEST PUSH1 0x40 MLOAD PUSH1 0x1 PUSH1 0x1 PUSH1 0xA0 SHL SUB SWAP1 SWAP2 AND DUP2 MSTORE PUSH1 0x20 ADD PUSH2 0x209 JUMP JUMPDEST CALLVALUE DUP1 ISZERO PUSH2 0x29A JUMPI PUSH1 0x0 DUP1 REVERT JUMPDEST POP PUSH2 0x232 PUSH2 0x2A9 CALLDATASIZE PUSH1 0x4 PUSH2 0x1C9F JUMP JUMPDEST PUSH2 0x76B JUMP JUMPDEST CALLVALUE DUP1 ISZERO PUSH2 0x2BA JUMPI PUSH1 0x0 DUP1 REVERT JUMPDEST POP PUSH2 0x232 PUSH2 0x880 JUMP JUMPDEST CALLVALUE DUP1 ISZERO PUSH2 0x2CF JUMPI PUSH1 0x0 DUP1 REVERT JUMPDEST POP PUSH2 0x2D9 PUSH1 0xD SLOAD DUP2 JUMP JUMPDEST PUSH1 0x40 MLOAD SWAP1 DUP2 MSTORE PUSH1 0x20 ADD PUSH2 0x209 JUMP JUMPDEST CALLVALUE DUP1 ISZERO PUSH2 0x2F3 JUMPI PUSH1 0x0 DUP1 REVERT JUMPDEST POP PUSH1 0x8 SLOAD PUSH2 0x2D9 JUMP JUMPDEST CALLVALUE DUP1 ISZERO PUSH2 0x308 JUMPI PUSH1 0x0 DUP1 REVERT JUMPDEST POP PUSH2 0x2D9 PUSH2 0x317 CALLDATASIZE PUSH1 0x4 PUSH2 0x1CC9 JUMP JUMPDEST PUSH1 0x10 PUSH1 0x20 MSTORE PUSH1 0x0 SWAP1 DUP2 MSTORE PUSH1 0x40 SWAP1 KECCAK256 SLOAD DUP2 JUMP JUMPDEST CALLVALUE DUP1 ISZERO PUSH2 0x335 JUMPI PUSH1 0x0 DUP1 REVERT JUMPDEST POP PUSH2 0x232 PUSH2 0x344 CALLDATASIZE PUSH1 0x4 PUSH2 0x1CE4 JUMP JUMPDEST PUSH2 0x981 JUMP JUMPDEST CALLVALUE DUP1 ISZERO PUSH2 0x355 JUMPI PUSH1 0x0 DUP1 REVERT JUMPDEST POP PUSH2 0x2D9 PUSH2 0x364 CALLDATASIZE PUSH1 0x4 PUSH2 0x1C9F JUMP JUMPDEST PUSH2 0x9B2 JUMP JUMPDEST PUSH2 0x232 PUSH2 0xA48 JUMP JUMPDEST CALLVALUE DUP1 ISZERO PUSH2 0x37D JUMPI PUSH1 0x0 DUP1 REVERT JUMPDEST POP PUSH2 0x232 PUSH2 0x38C CALLDATASIZE PUSH1 0x4 PUSH2 0x1CE4 JUMP JUMPDEST PUSH2 0xAE6 JUMP JUMPDEST CALLVALUE DUP1 ISZERO PUSH2 0x39D JUMPI PUSH1 0x0 DUP1 REVERT JUMPDEST POP PUSH2 0x3B1 PUSH2 0x3AC CALLDATASIZE PUSH1 0x4 PUSH2 0x1CC9 JUMP JUMPDEST PUSH2 0xB01 JUMP JUMPDEST PUSH1 0x40 MLOAD PUSH2 0x209 SWAP2 SWAP1 PUSH2 0x1D20 JUMP JUMPDEST CALLVALUE DUP1 ISZERO PUSH2 0x3CA JUMPI PUSH1 0x0 DUP1 REVERT JUMPDEST POP PUSH2 0x232 PUSH2 0x3D9 CALLDATASIZE PUSH1 0x4 PUSH2 0x1C6F JUMP JUMPDEST PUSH2 0xBA3 JUMP JUMPDEST CALLVALUE DUP1 ISZERO PUSH2 0x3EA JUMPI PUSH1 0x0 DUP1 REVERT JUMPDEST POP PUSH2 0x2D9 PUSH2 0x3F9 CALLDATASIZE PUSH1 0x4 PUSH2 0x1C6F JUMP JUMPDEST PUSH2 0xBD2 JUMP JUMPDEST CALLVALUE DUP1 ISZERO PUSH2 0x40A JUMPI PUSH1 0x0 DUP1 REVERT JUMPDEST POP PUSH2 0x232 PUSH2 0x419 CALLDATASIZE PUSH1 0x4 PUSH2 0x1DF0 JUMP JUMPDEST PUSH2 0xC65 JUMP JUMPDEST CALLVALUE DUP1 ISZERO PUSH2 0x42A JUMPI PUSH1 0x0 DUP1 REVERT JUMPDEST POP PUSH1 0xF SLOAD PUSH2 0x1FD SWAP1 PUSH1 0xFF AND DUP2 JUMP JUMPDEST CALLVALUE DUP1 ISZERO PUSH2 0x444 JUMPI PUSH1 0x0 DUP1 REVERT JUMPDEST POP PUSH2 0x276 PUSH2 0x453 CALLDATASIZE PUSH1 0x4 PUSH2 0x1C6F JUMP JUMPDEST PUSH2 0xCA2 JUMP JUMPDEST CALLVALUE DUP1 ISZERO PUSH2 0x464 JUMPI PUSH1 0x0 DUP1 REVERT JUMPDEST POP PUSH2 0x249 PUSH2 0xD19 JUMP JUMPDEST CALLVALUE DUP1 ISZERO PUSH2 0x479 JUMPI PUSH1 0x0 DUP1 REVERT JUMPDEST POP PUSH2 0x2D9 PUSH2 0x488 CALLDATASIZE PUSH1 0x4 PUSH2 0x1CC9 JUMP JUMPDEST PUSH2 0xDA7 JUMP JUMPDEST CALLVALUE DUP1 ISZERO PUSH2 0x499 JUMPI PUSH1 0x0 DUP1 REVERT JUMPDEST POP PUSH2 0x232 PUSH2 0xE2E JUMP JUMPDEST CALLVALUE DUP1 ISZERO PUSH2 0x4AE JUMPI PUSH1 0x0 DUP1 REVERT JUMPDEST POP PUSH1 0xA SLOAD PUSH1 0x1 PUSH1 0x1 PUSH1 0xA0 SHL SUB AND PUSH2 0x276 JUMP JUMPDEST CALLVALUE DUP1 ISZERO PUSH2 0x4CC JUMPI PUSH1 0x0 DUP1 REVERT JUMPDEST POP PUSH2 0x249 PUSH2 0xE64 JUMP JUMPDEST CALLVALUE DUP1 ISZERO PUSH2 0x4E1 JUMPI PUSH1 0x0 DUP1 REVERT JUMPDEST POP PUSH2 0x232 PUSH2 0x4F0 CALLDATASIZE PUSH1 0x4 PUSH2 0x1E39 JUMP JUMPDEST PUSH2 0xE73 JUMP JUMPDEST CALLVALUE DUP1 ISZERO PUSH2 0x501 JUMPI PUSH1 0x0 DUP1 REVERT JUMPDEST POP PUSH2 0x232 PUSH2 0x510 CALLDATASIZE PUSH1 0x4 PUSH2 0x1E6C JUMP JUMPDEST PUSH2 0xF37 JUMP JUMPDEST CALLVALUE DUP1 ISZERO PUSH2 0x521 JUMPI PUSH1 0x0 DUP1 REVERT JUMPDEST POP PUSH2 0x249 PUSH2 0xF6F JUMP JUMPDEST CALLVALUE DUP1 ISZERO PUSH2 0x536 JUMPI PUSH1 0x0 DUP1 REVERT JUMPDEST POP PUSH2 0x249 PUSH2 0x545 CALLDATASIZE PUSH1 0x4 PUSH2 0x1C6F JUMP JUMPDEST PUSH2 0xF7C JUMP JUMPDEST CALLVALUE DUP1 ISZERO PUSH2 0x556 JUMPI PUSH1 0x0 DUP1 REVERT JUMPDEST POP PUSH2 0x232 PUSH2 0x565 CALLDATASIZE PUSH1 0x4 PUSH2 0x1DF0 JUMP JUMPDEST PUSH2 0x105A JUMP JUMPDEST CALLVALUE DUP1 ISZERO PUSH2 0x576 JUMPI PUSH1 0x0 DUP1 REVERT JUMPDEST POP PUSH2 0x1FD PUSH2 0x585 CALLDATASIZE PUSH1 0x4 PUSH2 0x1EE8 JUMP JUMPDEST PUSH1 0x1 PUSH1 0x1 PUSH1 0xA0 SHL SUB SWAP2 DUP3 AND PUSH1 0x0 SWAP1 DUP2 MSTORE PUSH1 0x5 PUSH1 0x20 SWAP1 DUP2 MSTORE PUSH1 0x40 DUP1 DUP4 KECCAK256 SWAP4 SWAP1 SWAP5 AND DUP3 MSTORE SWAP2 SWAP1 SWAP2 MSTORE KECCAK256 SLOAD PUSH1 0xFF AND SWAP1 JUMP JUMPDEST CALLVALUE DUP1 ISZERO PUSH2 0x5BF JUMPI PUSH1 0x0 DUP1 REVERT JUMPDEST POP PUSH2 0x232 PUSH2 0x5CE CALLDATASIZE PUSH1 0x4 PUSH2 0x1CC9 JUMP JUMPDEST PUSH2 0x1097 JUMP JUMPDEST PUSH1 0x0 PUSH1 0x1 PUSH1 0x1 PUSH1 0xE0 SHL SUB NOT DUP3 AND PUSH4 0x780E9D63 PUSH1 0xE0 SHL EQ DUP1 PUSH2 0x5F8 JUMPI POP PUSH2 0x5F8 DUP3 PUSH2 0x112F JUMP JUMPDEST SWAP3 SWAP2 POP POP JUMP JUMPDEST PUSH1 0xA SLOAD PUSH1 0x1 PUSH1 0x1 PUSH1 0xA0 SHL SUB AND CALLER EQ PUSH2 0x631 JUMPI PUSH1 0x40 MLOAD PUSH3 0x461BCD PUSH1 0xE5 SHL DUP2 MSTORE PUSH1 0x4 ADD PUSH2 0x628 SWAP1 PUSH2 0x1F12 JUMP JUMPDEST PUSH1 0x40 MLOAD DUP1 SWAP2 SUB SWAP1 REVERT JUMPDEST PUSH1 0xF DUP1 SLOAD PUSH1 0xFF NOT AND SWAP2 ISZERO ISZERO SWAP2 SWAP1 SWAP2 OR SWAP1 SSTORE JUMP JUMPDEST PUSH1 0x60 PUSH1 0x0 DUP1 SLOAD PUSH2 0x653 SWAP1 PUSH2 0x1F47 JUMP JUMPDEST DUP1 PUSH1 0x1F ADD PUSH1 0x20 DUP1 SWAP2 DIV MUL PUSH1 0x20 ADD PUSH1 0x40 MLOAD SWAP1 DUP2 ADD PUSH1 0x40 MSTORE DUP1 SWAP3 SWAP2 SWAP1 DUP2 DUP2 MSTORE PUSH1 0x20 ADD DUP3 DUP1 SLOAD PUSH2 0x67F SWAP1 PUSH2 0x1F47 JUMP JUMPDEST DUP1 ISZERO PUSH2 0x6CC JUMPI DUP1 PUSH1 0x1F LT PUSH2 0x6A1 JUMPI PUSH2 0x100 DUP1 DUP4 SLOAD DIV MUL DUP4 MSTORE SWAP2 PUSH1 0x20 ADD SWAP2 PUSH2 0x6CC JUMP JUMPDEST DUP3 ADD SWAP2 SWAP1 PUSH1 0x0 MSTORE PUSH1 0x20 PUSH1 0x0 KECCAK256 SWAP1 JUMPDEST DUP2 SLOAD DUP2 MSTORE SWAP1 PUSH1 0x1 ADD SWAP1 PUSH1 0x20 ADD DUP1 DUP4 GT PUSH2 0x6AF JUMPI DUP3 SWAP1 SUB PUSH1 0x1F AND DUP3 ADD SWAP2 JUMPDEST POP POP POP POP POP SWAP1 POP SWAP1 JUMP JUMPDEST PUSH1 0x0 DUP2 DUP2 MSTORE PUSH1 0x2 PUSH1 0x20 MSTORE PUSH1 0x40 DUP2 KECCAK256 SLOAD PUSH1 0x1 PUSH1 0x1 PUSH1 0xA0 SHL SUB AND PUSH2 0x74F JUMPI PUSH1 0x40 MLOAD PUSH3 0x461BCD PUSH1 0xE5 SHL DUP2 MSTORE PUSH1 0x20 PUSH1 0x4 DUP3 ADD MSTORE PUSH1 0x2C PUSH1 0x24 DUP3 ADD MSTORE PUSH32 0x4552433732313A20617070726F76656420717565727920666F72206E6F6E6578 PUSH1 0x44 DUP3 ADD MSTORE PUSH12 0x34B9BA32B73A103A37B5B2B7 PUSH1 0xA1 SHL PUSH1 0x64 DUP3 ADD MSTORE PUSH1 0x84 ADD PUSH2 0x628 JUMP JUMPDEST POP PUSH1 0x0 SWAP1 DUP2 MSTORE PUSH1 0x4 PUSH1 0x20 MSTORE PUSH1 0x40 SWAP1 KECCAK256 SLOAD PUSH1 0x1 PUSH1 0x1 PUSH1 0xA0 SHL SUB AND SWAP1 JUMP JUMPDEST PUSH1 0x0 PUSH2 0x776 DUP3 PUSH2 0xCA2 JUMP JUMPDEST SWAP1 POP DUP1 PUSH1 0x1 PUSH1 0x1 PUSH1 0xA0 SHL SUB AND DUP4 PUSH1 0x1 PUSH1 0x1 PUSH1 0xA0 SHL SUB AND SUB PUSH2 0x7E3 JUMPI PUSH1 0x40 MLOAD PUSH3 0x461BCD PUSH1 0xE5 SHL DUP2 MSTORE PUSH1 0x20 PUSH1 0x4 DUP3 ADD MSTORE PUSH1 0x21 PUSH1 0x24 DUP3 ADD MSTORE PUSH32 0x4552433732313A20617070726F76616C20746F2063757272656E74206F776E65 PUSH1 0x44 DUP3 ADD MSTORE PUSH1 0x39 PUSH1 0xF9 SHL PUSH1 0x64 DUP3 ADD MSTORE PUSH1 0x84 ADD PUSH2 0x628 JUMP JUMPDEST CALLER PUSH1 0x1 PUSH1 0x1 PUSH1 0xA0 SHL SUB DUP3 AND EQ DUP1 PUSH2 0x7FF JUMPI POP PUSH2 0x7FF DUP2 CALLER PUSH2 0x585 JUMP JUMPDEST PUSH2 0x871 JUMPI PUSH1 0x40 MLOAD PUSH3 0x461BCD PUSH1 0xE5 SHL DUP2 MSTORE PUSH1 0x20 PUSH1 0x4 DUP3 ADD MSTORE PUSH1 0x38 PUSH1 0x24 DUP3 ADD MSTORE PUSH32 0x4552433732313A20617070726F76652063616C6C6572206973206E6F74206F77 PUSH1 0x44 DUP3 ADD MSTORE PUSH32 0x6E6572206E6F7220617070726F76656420666F7220616C6C0000000000000000 PUSH1 0x64 DUP3 ADD MSTORE PUSH1 0x84 ADD PUSH2 0x628 JUMP JUMPDEST PUSH2 0x87B DUP4 DUP4 PUSH2 0x117F JUMP JUMPDEST POP POP POP JUMP JUMPDEST PUSH1 0xF SLOAD PUSH1 0xFF AND ISZERO PUSH2 0x8CC JUMPI PUSH1 0x40 MLOAD PUSH3 0x461BCD PUSH1 0xE5 SHL DUP2 MSTORE PUSH1 0x20 PUSH1 0x4 DUP3 ADD MSTORE PUSH1 0x16 PUSH1 0x24 DUP3 ADD MSTORE PUSH22 0x1D1A194818DBDB9D1C9858DD081A5CC81C185D5CD959 PUSH1 0x52 SHL PUSH1 0x44 DUP3 ADD MSTORE PUSH1 0x64 ADD PUSH2 0x628 JUMP JUMPDEST PUSH1 0x0 PUSH2 0x8D7 PUSH1 0x8 SLOAD SWAP1 JUMP JUMPDEST SWAP1 POP PUSH1 0x0 PUSH1 0xE SLOAD GT PUSH2 0x92B JUMPI PUSH1 0x40 MLOAD PUSH3 0x461BCD PUSH1 0xE5 SHL DUP2 MSTORE PUSH1 0x20 PUSH1 0x4 DUP3 ADD MSTORE PUSH1 0x1B PUSH1 0x24 DUP3 ADD MSTORE PUSH32 0x6E65656420746F206D696E74206174206C656173742031204E46540000000000 PUSH1 0x44 DUP3 ADD MSTORE PUSH1 0x64 ADD PUSH2 0x628 JUMP JUMPDEST PUSH1 0x1 JUMPDEST PUSH1 0xE SLOAD DUP2 GT PUSH2 0x97D JUMPI CALLER PUSH1 0x0 SWAP1 DUP2 MSTORE PUSH1 0x10 PUSH1 0x20 MSTORE PUSH1 0x40 DUP2 KECCAK256 DUP1 SLOAD SWAP2 PUSH2 0x952 DUP4 PUSH2 0x1F97 JUMP JUMPDEST SWAP1 SWAP2 SSTORE POP PUSH2 0x96B SWAP1 POP CALLER PUSH2 0x966 DUP4 DUP6 PUSH2 0x1FB0 JUMP JUMPDEST PUSH2 0x11ED JUMP JUMPDEST DUP1 PUSH2 0x975 DUP2 PUSH2 0x1F97 JUMP JUMPDEST SWAP2 POP POP PUSH2 0x92E JUMP JUMPDEST POP POP JUMP JUMPDEST PUSH2 0x98B CALLER DUP3 PUSH2 0x1207 JUMP JUMPDEST PUSH2 0x9A7 JUMPI PUSH1 0x40 MLOAD PUSH3 0x461BCD PUSH1 0xE5 SHL DUP2 MSTORE PUSH1 0x4 ADD PUSH2 0x628 SWAP1 PUSH2 0x1FC8 JUMP JUMPDEST PUSH2 0x87B DUP4 DUP4 DUP4 PUSH2 0x12FE JUMP JUMPDEST PUSH1 0x0 PUSH2 0x9BD DUP4 PUSH2 0xDA7 JUMP JUMPDEST DUP3 LT PUSH2 0xA1F JUMPI PUSH1 0x40 MLOAD PUSH3 0x461BCD PUSH1 0xE5 SHL DUP2 MSTORE PUSH1 0x20 PUSH1 0x4 DUP3 ADD MSTORE PUSH1 0x2B PUSH1 0x24 DUP3 ADD MSTORE PUSH32 0x455243373231456E756D657261626C653A206F776E657220696E646578206F75 PUSH1 0x44 DUP3 ADD MSTORE PUSH11 0x74206F6620626F756E6473 PUSH1 0xA8 SHL PUSH1 0x64 DUP3 ADD MSTORE PUSH1 0x84 ADD PUSH2 0x628 JUMP JUMPDEST POP PUSH1 0x1 PUSH1 0x1 PUSH1 0xA0 SHL SUB SWAP2 SWAP1 SWAP2 AND PUSH1 0x0 SWAP1 DUP2 MSTORE PUSH1 0x6 PUSH1 0x20 SWAP1 DUP2 MSTORE PUSH1 0x40 DUP1 DUP4 KECCAK256 SWAP4 DUP4 MSTORE SWAP3 SWAP1 MSTORE KECCAK256 SLOAD SWAP1 JUMP JUMPDEST PUSH1 0xA SLOAD PUSH1 0x1 PUSH1 0x1 PUSH1 0xA0 SHL SUB AND CALLER EQ PUSH2 0xA72 JUMPI PUSH1 0x40 MLOAD PUSH3 0x461BCD PUSH1 0xE5 SHL DUP2 MSTORE PUSH1 0x4 ADD PUSH2 0x628 SWAP1 PUSH2 0x1F12 JUMP JUMPDEST PUSH1 0x0 PUSH2 0xA86 PUSH1 0xA SLOAD PUSH1 0x1 PUSH1 0x1 PUSH1 0xA0 SHL SUB AND SWAP1 JUMP JUMPDEST PUSH1 0x1 PUSH1 0x1 PUSH1 0xA0 SHL SUB AND SELFBALANCE PUSH1 0x40 MLOAD PUSH1 0x0 PUSH1 0x40 MLOAD DUP1 DUP4 SUB DUP2 DUP6 DUP8 GAS CALL SWAP3 POP POP POP RETURNDATASIZE DUP1 PUSH1 0x0 DUP2 EQ PUSH2 0xAD0 JUMPI PUSH1 0x40 MLOAD SWAP2 POP PUSH1 0x1F NOT PUSH1 0x3F RETURNDATASIZE ADD AND DUP3 ADD PUSH1 0x40 MSTORE RETURNDATASIZE DUP3 MSTORE RETURNDATASIZE PUSH1 0x0 PUSH1 0x20 DUP5 ADD RETURNDATACOPY PUSH2 0xAD5 JUMP JUMPDEST PUSH1 0x60 SWAP2 POP JUMPDEST POP POP SWAP1 POP DUP1 PUSH2 0xAE3 JUMPI PUSH1 0x0 DUP1 REVERT JUMPDEST POP JUMP JUMPDEST PUSH2 0x87B DUP4 DUP4 DUP4 PUSH1 0x40 MLOAD DUP1 PUSH1 0x20 ADD PUSH1 0x40 MSTORE DUP1 PUSH1 0x0 DUP2 MSTORE POP PUSH2 0xF37 JUMP JUMPDEST PUSH1 0x60 PUSH1 0x0 PUSH2 0xB0E DUP4 PUSH2 0xDA7 JUMP JUMPDEST SWAP1 POP PUSH1 0x0 DUP2 PUSH8 0xFFFFFFFFFFFFFFFF DUP2 GT ISZERO PUSH2 0xB2B JUMPI PUSH2 0xB2B PUSH2 0x1D64 JUMP JUMPDEST PUSH1 0x40 MLOAD SWAP1 DUP1 DUP3 MSTORE DUP1 PUSH1 0x20 MUL PUSH1 0x20 ADD DUP3 ADD PUSH1 0x40 MSTORE DUP1 ISZERO PUSH2 0xB54 JUMPI DUP2 PUSH1 0x20 ADD PUSH1 0x20 DUP3 MUL DUP1 CALLDATASIZE DUP4 CALLDATACOPY ADD SWAP1 POP JUMPDEST POP SWAP1 POP PUSH1 0x0 JUMPDEST DUP3 DUP2 LT ISZERO PUSH2 0xB9B JUMPI PUSH2 0xB6C DUP6 DUP3 PUSH2 0x9B2 JUMP JUMPDEST DUP3 DUP3 DUP2 MLOAD DUP2 LT PUSH2 0xB7E JUMPI PUSH2 0xB7E PUSH2 0x2019 JUMP JUMPDEST PUSH1 0x20 SWAP1 DUP2 MUL SWAP2 SWAP1 SWAP2 ADD ADD MSTORE DUP1 PUSH2 0xB93 DUP2 PUSH2 0x1F97 JUMP JUMPDEST SWAP2 POP POP PUSH2 0xB5A JUMP JUMPDEST POP SWAP4 SWAP3 POP POP POP JUMP JUMPDEST PUSH1 0xA SLOAD PUSH1 0x1 PUSH1 0x1 PUSH1 0xA0 SHL SUB AND CALLER EQ PUSH2 0xBCD JUMPI PUSH1 0x40 MLOAD PUSH3 0x461BCD PUSH1 0xE5 SHL DUP2 MSTORE PUSH1 0x4 ADD PUSH2 0x628 SWAP1 PUSH2 0x1F12 JUMP JUMPDEST PUSH1 0xD SSTORE JUMP JUMPDEST PUSH1 0x0 PUSH2 0xBDD PUSH1 0x8 SLOAD SWAP1 JUMP JUMPDEST DUP3 LT PUSH2 0xC40 JUMPI PUSH1 0x40 MLOAD PUSH3 0x461BCD PUSH1 0xE5 SHL DUP2 MSTORE PUSH1 0x20 PUSH1 0x4 DUP3 ADD MSTORE PUSH1 0x2C PUSH1 0x24 DUP3 ADD MSTORE PUSH32 0x455243373231456E756D657261626C653A20676C6F62616C20696E646578206F PUSH1 0x44 DUP3 ADD MSTORE PUSH12 0x7574206F6620626F756E6473 PUSH1 0xA0 SHL PUSH1 0x64 DUP3 ADD MSTORE PUSH1 0x84 ADD PUSH2 0x628 JUMP JUMPDEST PUSH1 0x8 DUP3 DUP2 SLOAD DUP2 LT PUSH2 0xC53 JUMPI PUSH2 0xC53 PUSH2 0x2019 JUMP JUMPDEST SWAP1 PUSH1 0x0 MSTORE PUSH1 0x20 PUSH1 0x0 KECCAK256 ADD SLOAD SWAP1 POP SWAP2 SWAP1 POP JUMP JUMPDEST PUSH1 0xA SLOAD PUSH1 0x1 PUSH1 0x1 PUSH1 0xA0 SHL SUB AND CALLER EQ PUSH2 0xC8F JUMPI PUSH1 0x40 MLOAD PUSH3 0x461BCD PUSH1 0xE5 SHL DUP2 MSTORE PUSH1 0x4 ADD PUSH2 0x628 SWAP1 PUSH2 0x1F12 JUMP JUMPDEST DUP1 MLOAD PUSH2 0x97D SWAP1 PUSH1 0xB SWAP1 PUSH1 0x20 DUP5 ADD SWAP1 PUSH2 0x1B08 JUMP JUMPDEST PUSH1 0x0 DUP2 DUP2 MSTORE PUSH1 0x2 PUSH1 0x20 MSTORE PUSH1 0x40 DUP2 KECCAK256 SLOAD PUSH1 0x1 PUSH1 0x1 PUSH1 0xA0 SHL SUB AND DUP1 PUSH2 0x5F8 JUMPI PUSH1 0x40 MLOAD PUSH3 0x461BCD PUSH1 0xE5 SHL DUP2 MSTORE PUSH1 0x20 PUSH1 0x4 DUP3 ADD MSTORE PUSH1 0x29 PUSH1 0x24 DUP3 ADD MSTORE PUSH32 0x4552433732313A206F776E657220717565727920666F72206E6F6E6578697374 PUSH1 0x44 DUP3 ADD MSTORE PUSH9 0x32B73A103A37B5B2B7 PUSH1 0xB9 SHL PUSH1 0x64 DUP3 ADD MSTORE PUSH1 0x84 ADD PUSH2 0x628 JUMP JUMPDEST PUSH1 0xB DUP1 SLOAD PUSH2 0xD26 SWAP1 PUSH2 0x1F47 JUMP JUMPDEST DUP1 PUSH1 0x1F ADD PUSH1 0x20 DUP1 SWAP2 DIV MUL PUSH1 0x20 ADD PUSH1 0x40 MLOAD SWAP1 DUP2 ADD PUSH1 0x40 MSTORE DUP1 SWAP3 SWAP2 SWAP1 DUP2 DUP2 MSTORE PUSH1 0x20 ADD DUP3 DUP1 SLOAD PUSH2 0xD52 SWAP1 PUSH2 0x1F47 JUMP JUMPDEST DUP1 ISZERO PUSH2 0xD9F JUMPI DUP1 PUSH1 0x1F LT PUSH2 0xD74 JUMPI PUSH2 0x100 DUP1 DUP4 SLOAD DIV MUL DUP4 MSTORE SWAP2 PUSH1 0x20 ADD SWAP2 PUSH2 0xD9F JUMP JUMPDEST DUP3 ADD SWAP2 SWAP1 PUSH1 0x0 MSTORE PUSH1 0x20 PUSH1 0x0 KECCAK256 SWAP1 JUMPDEST DUP2 SLOAD DUP2 MSTORE SWAP1 PUSH1 0x1 ADD SWAP1 PUSH1 0x20 ADD DUP1 DUP4 GT PUSH2 0xD82 JUMPI DUP3 SWAP1 SUB PUSH1 0x1F AND DUP3 ADD SWAP2 JUMPDEST POP POP POP POP POP DUP2 JUMP JUMPDEST PUSH1 0x0 PUSH1 0x1 PUSH1 0x1 PUSH1 0xA0 SHL SUB DUP3 AND PUSH2 0xE12 JUMPI PUSH1 0x40 MLOAD PUSH3 0x461BCD PUSH1 0xE5 SHL DUP2 MSTORE PUSH1 0x20 PUSH1 0x4 DUP3 ADD MSTORE PUSH1 0x2A PUSH1 0x24 DUP3 ADD MSTORE PUSH32 0x4552433732313A2062616C616E636520717565727920666F7220746865207A65 PUSH1 0x44 DUP3 ADD MSTORE PUSH10 0x726F2061646472657373 PUSH1 0xB0 SHL PUSH1 0x64 DUP3 ADD MSTORE PUSH1 0x84 ADD PUSH2 0x628 JUMP JUMPDEST POP PUSH1 0x1 PUSH1 0x1 PUSH1 0xA0 SHL SUB AND PUSH1 0x0 SWAP1 DUP2 MSTORE PUSH1 0x3 PUSH1 0x20 MSTORE PUSH1 0x40 SWAP1 KECCAK256 SLOAD SWAP1 JUMP JUMPDEST PUSH1 0xA SLOAD PUSH1 0x1 PUSH1 0x1 PUSH1 0xA0 SHL SUB AND CALLER EQ PUSH2 0xE58 JUMPI PUSH1 0x40 MLOAD PUSH3 0x461BCD PUSH1 0xE5 SHL DUP2 MSTORE PUSH1 0x4 ADD PUSH2 0x628 SWAP1 PUSH2 0x1F12 JUMP JUMPDEST PUSH2 0xE62 PUSH1 0x0 PUSH2 0x14A9 JUMP JUMPDEST JUMP JUMPDEST PUSH1 0x60 PUSH1 0x1 DUP1 SLOAD PUSH2 0x653 SWAP1 PUSH2 0x1F47 JUMP JUMPDEST CALLER PUSH1 0x1 PUSH1 0x1 PUSH1 0xA0 SHL SUB DUP4 AND SUB PUSH2 0xECB JUMPI PUSH1 0x40 MLOAD PUSH3 0x461BCD PUSH1 0xE5 SHL DUP2 MSTORE PUSH1 0x20 PUSH1 0x4 DUP3 ADD MSTORE PUSH1 0x19 PUSH1 0x24 DUP3 ADD MSTORE PUSH32 0x4552433732313A20617070726F766520746F2063616C6C657200000000000000 PUSH1 0x44 DUP3 ADD MSTORE PUSH1 0x64 ADD PUSH2 0x628 JUMP JUMPDEST CALLER PUSH1 0x0 DUP2 DUP2 MSTORE PUSH1 0x5 PUSH1 0x20 SWAP1 DUP2 MSTORE PUSH1 0x40 DUP1 DUP4 KECCAK256 PUSH1 0x1 PUSH1 0x1 PUSH1 0xA0 SHL SUB DUP8 AND DUP1 DUP6 MSTORE SWAP1 DUP4 MSTORE SWAP3 DUP2 SWAP1 KECCAK256 DUP1 SLOAD PUSH1 0xFF NOT AND DUP7 ISZERO ISZERO SWAP1 DUP2 OR SWAP1 SWAP2 SSTORE SWAP1 MLOAD SWAP1 DUP2 MSTORE SWAP2 SWAP3 SWAP2 PUSH32 0x17307EAB39AB6107E8899845AD3D59BD9653F200F220920489CA2B5937696C31 SWAP2 ADD PUSH1 0x40 MLOAD DUP1 SWAP2 SUB SWAP1 LOG3 POP POP JUMP JUMPDEST PUSH2 0xF41 CALLER DUP4 PUSH2 0x1207 JUMP JUMPDEST PUSH2 0xF5D JUMPI PUSH1 0x40 MLOAD PUSH3 0x461BCD PUSH1 0xE5 SHL DUP2 MSTORE PUSH1 0x4 ADD PUSH2 0x628 SWAP1 PUSH2 0x1FC8 JUMP JUMPDEST PUSH2 0xF69 DUP5 DUP5 DUP5 DUP5 PUSH2 0x14FB JUMP JUMPDEST POP POP POP POP JUMP JUMPDEST PUSH1 0xC DUP1 SLOAD PUSH2 0xD26 SWAP1 PUSH2 0x1F47 JUMP JUMPDEST PUSH1 0x0 DUP2 DUP2 MSTORE PUSH1 0x2 PUSH1 0x20 MSTORE PUSH1 0x40 SWAP1 KECCAK256 SLOAD PUSH1 0x60 SWAP1 PUSH1 0x1 PUSH1 0x1 PUSH1 0xA0 SHL SUB AND PUSH2 0xFFB JUMPI PUSH1 0x40 MLOAD PUSH3 0x461BCD PUSH1 0xE5 SHL DUP2 MSTORE PUSH1 0x20 PUSH1 0x4 DUP3 ADD MSTORE PUSH1 0x2F PUSH1 0x24 DUP3 ADD MSTORE PUSH32 0x4552433732314D657461646174613A2055524920717565727920666F72206E6F PUSH1 0x44 DUP3 ADD MSTORE PUSH15 0x3732BC34B9BA32B73A103A37B5B2B7 PUSH1 0x89 SHL PUSH1 0x64 DUP3 ADD MSTORE PUSH1 0x84 ADD PUSH2 0x628 JUMP JUMPDEST PUSH1 0x0 PUSH2 0x1005 PUSH2 0x152E JUMP JUMPDEST SWAP1 POP PUSH1 0x0 DUP2 MLOAD GT PUSH2 0x1025 JUMPI PUSH1 0x40 MLOAD DUP1 PUSH1 0x20 ADD PUSH1 0x40 MSTORE DUP1 PUSH1 0x0 DUP2 MSTORE POP PUSH2 0x1053 JUMP JUMPDEST DUP1 PUSH2 0x102F DUP5 PUSH2 0x153D JUMP JUMPDEST PUSH1 0xC PUSH1 0x40 MLOAD PUSH1 0x20 ADD PUSH2 0x1043 SWAP4 SWAP3 SWAP2 SWAP1 PUSH2 0x202F JUMP JUMPDEST PUSH1 0x40 MLOAD PUSH1 0x20 DUP2 DUP4 SUB SUB DUP2 MSTORE SWAP1 PUSH1 0x40 MSTORE JUMPDEST SWAP4 SWAP3 POP POP POP JUMP JUMPDEST PUSH1 0xA SLOAD PUSH1 0x1 PUSH1 0x1 PUSH1 0xA0 SHL SUB AND CALLER EQ PUSH2 0x1084 JUMPI PUSH1 0x40 MLOAD PUSH3 0x461BCD PUSH1 0xE5 SHL DUP2 MSTORE PUSH1 0x4 ADD PUSH2 0x628 SWAP1 PUSH2 0x1F12 JUMP JUMPDEST DUP1 MLOAD PUSH2 0x97D SWAP1 PUSH1 0xC SWAP1 PUSH1 0x20 DUP5 ADD SWAP1 PUSH2 0x1B08 JUMP JUMPDEST PUSH1 0xA SLOAD PUSH1 0x1 PUSH1 0x1 PUSH1 0xA0 SHL SUB AND CALLER EQ PUSH2 0x10C1 JUMPI PUSH1 0x40 MLOAD PUSH3 0x461BCD PUSH1 0xE5 SHL DUP2 MSTORE PUSH1 0x4 ADD PUSH2 0x628 SWAP1 PUSH2 0x1F12 JUMP JUMPDEST PUSH1 0x1 PUSH1 0x1 PUSH1 0xA0 SHL SUB DUP2 AND PUSH2 0x1126 JUMPI PUSH1 0x40 MLOAD PUSH3 0x461BCD PUSH1 0xE5 SHL DUP2 MSTORE PUSH1 0x20 PUSH1 0x4 DUP3 ADD MSTORE PUSH1 0x26 PUSH1 0x24 DUP3 ADD MSTORE PUSH32 0x4F776E61626C653A206E6577206F776E657220697320746865207A65726F2061 PUSH1 0x44 DUP3 ADD MSTORE PUSH6 0x646472657373 PUSH1 0xD0 SHL PUSH1 0x64 DUP3 ADD MSTORE PUSH1 0x84 ADD PUSH2 0x628 JUMP JUMPDEST PUSH2 0xAE3 DUP2 PUSH2 0x14A9 JUMP JUMPDEST PUSH1 0x0 PUSH1 0x1 PUSH1 0x1 PUSH1 0xE0 SHL SUB NOT DUP3 AND PUSH4 0x80AC58CD PUSH1 0xE0 SHL EQ DUP1 PUSH2 0x1160 JUMPI POP PUSH1 0x1 PUSH1 0x1 PUSH1 0xE0 SHL SUB NOT DUP3 AND PUSH4 0x5B5E139F PUSH1 0xE0 SHL EQ JUMPDEST DUP1 PUSH2 0x5F8 JUMPI POP PUSH4 0x1FFC9A7 PUSH1 0xE0 SHL PUSH1 0x1 PUSH1 0x1 PUSH1 0xE0 SHL SUB NOT DUP4 AND EQ PUSH2 0x5F8 JUMP JUMPDEST PUSH1 0x0 DUP2 DUP2 MSTORE PUSH1 0x4 PUSH1 0x20 MSTORE PUSH1 0x40 SWAP1 KECCAK256 DUP1 SLOAD PUSH1 0x1 PUSH1 0x1 PUSH1 0xA0 SHL SUB NOT AND PUSH1 0x1 PUSH1 0x1 PUSH1 0xA0 SHL SUB DUP5 AND SWAP1 DUP2 OR SWAP1 SWAP2 SSTORE DUP2 SWAP1 PUSH2 0x11B4 DUP3 PUSH2 0xCA2 JUMP JUMPDEST PUSH1 0x1 PUSH1 0x1 PUSH1 0xA0 SHL SUB AND PUSH32 0x8C5BE1E5EBEC7D5BD14F71427D1E84F3DD0314C0F7B2291E5B200AC8C7C3B925 PUSH1 0x40 MLOAD PUSH1 0x40 MLOAD DUP1 SWAP2 SUB SWAP1 LOG4 POP POP JUMP JUMPDEST PUSH2 0x97D DUP3 DUP3 PUSH1 0x40 MLOAD DUP1 PUSH1 0x20 ADD PUSH1 0x40 MSTORE DUP1 PUSH1 0x0 DUP2 MSTORE POP PUSH2 0x163E JUMP JUMPDEST PUSH1 0x0 DUP2 DUP2 MSTORE PUSH1 0x2 PUSH1 0x20 MSTORE PUSH1 0x40 DUP2 KECCAK256 SLOAD PUSH1 0x1 PUSH1 0x1 PUSH1 0xA0 SHL SUB AND PUSH2 0x1280 JUMPI PUSH1 0x40 MLOAD PUSH3 0x461BCD PUSH1 0xE5 SHL DUP2 MSTORE PUSH1 0x20 PUSH1 0x4 DUP3 ADD MSTORE PUSH1 0x2C PUSH1 0x24 DUP3 ADD MSTORE PUSH32 0x4552433732313A206F70657261746F7220717565727920666F72206E6F6E6578 PUSH1 0x44 DUP3 ADD MSTORE PUSH12 0x34B9BA32B73A103A37B5B2B7 PUSH1 0xA1 SHL PUSH1 0x64 DUP3 ADD MSTORE PUSH1 0x84 ADD PUSH2 0x628 JUMP JUMPDEST PUSH1 0x0 PUSH2 0x128B DUP4 PUSH2 0xCA2 JUMP JUMPDEST SWAP1 POP DUP1 PUSH1 0x1 PUSH1 0x1 PUSH1 0xA0 SHL SUB AND DUP5 PUSH1 0x1 PUSH1 0x1 PUSH1 0xA0 SHL SUB AND EQ DUP1 PUSH2 0x12C6 JUMPI POP DUP4 PUSH1 0x1 PUSH1 0x1 PUSH1 0xA0 SHL SUB AND PUSH2 0x12BB DUP5 PUSH2 0x6D6 JUMP JUMPDEST PUSH1 0x1 PUSH1 0x1 PUSH1 0xA0 SHL SUB AND EQ JUMPDEST DUP1 PUSH2 0x12F6 JUMPI POP PUSH1 0x1 PUSH1 0x1 PUSH1 0xA0 SHL SUB DUP1 DUP3 AND PUSH1 0x0 SWAP1 DUP2 MSTORE PUSH1 0x5 PUSH1 0x20 SWAP1 DUP2 MSTORE PUSH1 0x40 DUP1 DUP4 KECCAK256 SWAP4 DUP9 AND DUP4 MSTORE SWAP3 SWAP1 MSTORE KECCAK256 SLOAD PUSH1 0xFF AND JUMPDEST SWAP5 SWAP4 POP POP POP POP JUMP JUMPDEST DUP3 PUSH1 0x1 PUSH1 0x1 PUSH1 0xA0 SHL SUB AND PUSH2 0x1311 DUP3 PUSH2 0xCA2 JUMP JUMPDEST PUSH1 0x1 PUSH1 0x1 PUSH1 0xA0 SHL SUB AND EQ PUSH2 0x1379 JUMPI PUSH1 0x40 MLOAD PUSH3 0x461BCD PUSH1 0xE5 SHL DUP2 MSTORE PUSH1 0x20 PUSH1 0x4 DUP3 ADD MSTORE PUSH1 0x29 PUSH1 0x24 DUP3 ADD MSTORE PUSH32 0x4552433732313A207472616E73666572206F6620746F6B656E20746861742069 PUSH1 0x44 DUP3 ADD MSTORE PUSH9 0x39903737BA1037BBB7 PUSH1 0xB9 SHL PUSH1 0x64 DUP3 ADD MSTORE PUSH1 0x84 ADD PUSH2 0x628 JUMP JUMPDEST PUSH1 0x1 PUSH1 0x1 PUSH1 0xA0 SHL SUB DUP3 AND PUSH2 0x13DB JUMPI PUSH1 0x40 MLOAD PUSH3 0x461BCD PUSH1 0xE5 SHL DUP2 MSTORE PUSH1 0x20 PUSH1 0x4 DUP3 ADD MSTORE PUSH1 0x24 DUP1 DUP3 ADD MSTORE PUSH32 0x4552433732313A207472616E7366657220746F20746865207A65726F20616464 PUSH1 0x44 DUP3 ADD MSTORE PUSH4 0x72657373 PUSH1 0xE0 SHL PUSH1 0x64 DUP3 ADD MSTORE PUSH1 0x84 ADD PUSH2 0x628 JUMP JUMPDEST PUSH2 0x13E6 DUP4 DUP4 DUP4 PUSH2 0x1671 JUMP JUMPDEST PUSH2 0x13F1 PUSH1 0x0 DUP3 PUSH2 0x117F JUMP JUMPDEST PUSH1 0x1 PUSH1 0x1 PUSH1 0xA0 SHL SUB DUP4 AND PUSH1 0x0 SWAP1 DUP2 MSTORE PUSH1 0x3 PUSH1 0x20 MSTORE PUSH1 0x40 DUP2 KECCAK256 DUP1 SLOAD PUSH1 0x1 SWAP3 SWAP1 PUSH2 0x141A SWAP1 DUP5 SWAP1 PUSH2 0x20F2 JUMP JUMPDEST SWAP1 SWAP2 SSTORE POP POP PUSH1 0x1 PUSH1 0x1 PUSH1 0xA0 SHL SUB DUP3 AND PUSH1 0x0 SWAP1 DUP2 MSTORE PUSH1 0x3 PUSH1 0x20 MSTORE PUSH1 0x40 DUP2 KECCAK256 DUP1 SLOAD PUSH1 0x1 SWAP3 SWAP1 PUSH2 0x1448 SWAP1 DUP5 SWAP1 PUSH2 0x1FB0 JUMP JUMPDEST SWAP1 SWAP2 SSTORE POP POP PUSH1 0x0 DUP2 DUP2 MSTORE PUSH1 0x2 PUSH1 0x20 MSTORE PUSH1 0x40 DUP1 DUP3 KECCAK256 DUP1 SLOAD PUSH1 0x1 PUSH1 0x1 PUSH1 0xA0 SHL SUB NOT AND PUSH1 0x1 PUSH1 0x1 PUSH1 0xA0 SHL SUB DUP7 DUP2 AND SWAP2 DUP3 OR SWAP1 SWAP3 SSTORE SWAP2 MLOAD DUP5 SWAP4 SWAP2 DUP8 AND SWAP2 PUSH32 0xDDF252AD1BE2C89B69C2B068FC378DAA952BA7F163C4A11628F55A4DF523B3EF SWAP2 LOG4 POP POP POP JUMP JUMPDEST PUSH1 0xA DUP1 SLOAD PUSH1 0x1 PUSH1 0x1 PUSH1 0xA0 SHL SUB DUP4 DUP2 AND PUSH1 0x1 PUSH1 0x1 PUSH1 0xA0 SHL SUB NOT DUP4 AND DUP2 OR SWAP1 SWAP4 SSTORE PUSH1 0x40 MLOAD SWAP2 AND SWAP2 SWAP1 DUP3 SWAP1 PUSH32 0x8BE0079C531659141344CD1FD0A4F28419497F9722A3DAAFE3B4186F6B6457E0 SWAP1 PUSH1 0x0 SWAP1 LOG3 POP POP JUMP JUMPDEST PUSH2 0x1506 DUP5 DUP5 DUP5 PUSH2 0x12FE JUMP JUMPDEST PUSH2 0x1512 DUP5 DUP5 DUP5 DUP5 PUSH2 0x1729 JUMP JUMPDEST PUSH2 0xF69 JUMPI PUSH1 0x40 MLOAD PUSH3 0x461BCD PUSH1 0xE5 SHL DUP2 MSTORE PUSH1 0x4 ADD PUSH2 0x628 SWAP1 PUSH2 0x2109 JUMP JUMPDEST PUSH1 0x60 PUSH1 0xB DUP1 SLOAD PUSH2 0x653 SWAP1 PUSH2 0x1F47 JUMP JUMPDEST PUSH1 0x60 DUP2 PUSH1 0x0 SUB PUSH2 0x1564 JUMPI POP POP PUSH1 0x40 DUP1 MLOAD DUP1 DUP3 ADD SWAP1 SWAP2 MSTORE PUSH1 0x1 DUP2 MSTORE PUSH1 0x3 PUSH1 0xFC SHL PUSH1 0x20 DUP3 ADD MSTORE SWAP1 JUMP JUMPDEST DUP2 PUSH1 0x0 JUMPDEST DUP2 ISZERO PUSH2 0x158E JUMPI DUP1 PUSH2 0x1578 DUP2 PUSH2 0x1F97 JUMP JUMPDEST SWAP2 POP PUSH2 0x1587 SWAP1 POP PUSH1 0xA DUP4 PUSH2 0x2171 JUMP JUMPDEST SWAP2 POP PUSH2 0x1568 JUMP JUMPDEST PUSH1 0x0 DUP2 PUSH8 0xFFFFFFFFFFFFFFFF DUP2 GT ISZERO PUSH2 0x15A9 JUMPI PUSH2 0x15A9 PUSH2 0x1D64 JUMP JUMPDEST PUSH1 0x40 MLOAD SWAP1 DUP1 DUP3 MSTORE DUP1 PUSH1 0x1F ADD PUSH1 0x1F NOT AND PUSH1 0x20 ADD DUP3 ADD PUSH1 0x40 MSTORE DUP1 ISZERO PUSH2 0x15D3 JUMPI PUSH1 0x20 DUP3 ADD DUP2 DUP1 CALLDATASIZE DUP4 CALLDATACOPY ADD SWAP1 POP JUMPDEST POP SWAP1 POP JUMPDEST DUP5 ISZERO PUSH2 0x12F6 JUMPI PUSH2 0x15E8 PUSH1 0x1 DUP4 PUSH2 0x20F2 JUMP JUMPDEST SWAP2 POP PUSH2 0x15F5 PUSH1 0xA DUP7 PUSH2 0x2185 JUMP JUMPDEST PUSH2 0x1600 SWAP1 PUSH1 0x30 PUSH2 0x1FB0 JUMP JUMPDEST PUSH1 0xF8 SHL DUP2 DUP4 DUP2 MLOAD DUP2 LT PUSH2 0x1615 JUMPI PUSH2 0x1615 PUSH2 0x2019 JUMP JUMPDEST PUSH1 0x20 ADD ADD SWAP1 PUSH1 0x1 PUSH1 0x1 PUSH1 0xF8 SHL SUB NOT AND SWAP1 DUP2 PUSH1 0x0 BYTE SWAP1 MSTORE8 POP PUSH2 0x1637 PUSH1 0xA DUP7 PUSH2 0x2171 JUMP JUMPDEST SWAP5 POP PUSH2 0x15D7 JUMP JUMPDEST PUSH2 0x1648 DUP4 DUP4 PUSH2 0x182A JUMP JUMPDEST PUSH2 0x1655 PUSH1 0x0 DUP5 DUP5 DUP5 PUSH2 0x1729 JUMP JUMPDEST PUSH2 0x87B JUMPI PUSH1 0x40 MLOAD PUSH3 0x461BCD PUSH1 0xE5 SHL DUP2 MSTORE PUSH1 0x4 ADD PUSH2 0x628 SWAP1 PUSH2 0x2109 JUMP JUMPDEST PUSH1 0x1 PUSH1 0x1 PUSH1 0xA0 SHL SUB DUP4 AND PUSH2 0x16CC JUMPI PUSH2 0x16C7 DUP2 PUSH1 0x8 DUP1 SLOAD PUSH1 0x0 DUP4 DUP2 MSTORE PUSH1 0x9 PUSH1 0x20 MSTORE PUSH1 0x40 DUP2 KECCAK256 DUP3 SWAP1 SSTORE PUSH1 0x1 DUP3 ADD DUP4 SSTORE SWAP2 SWAP1 SWAP2 MSTORE PUSH32 0xF3F7A9FE364FAAB93B216DA50A3214154F22A0A2B415B23A84C8169E8B636EE3 ADD SSTORE JUMP JUMPDEST PUSH2 0x16EF JUMP JUMPDEST DUP2 PUSH1 0x1 PUSH1 0x1 PUSH1 0xA0 SHL SUB AND DUP4 PUSH1 0x1 PUSH1 0x1 PUSH1 0xA0 SHL SUB AND EQ PUSH2 0x16EF JUMPI PUSH2 0x16EF DUP4 DUP3 PUSH2 0x1978 JUMP JUMPDEST PUSH1 0x1 PUSH1 0x1 PUSH1 0xA0 SHL SUB DUP3 AND PUSH2 0x1706 JUMPI PUSH2 0x87B DUP2 PUSH2 0x1A15 JUMP JUMPDEST DUP3 PUSH1 0x1 PUSH1 0x1 PUSH1 0xA0 SHL SUB AND DUP3 PUSH1 0x1 PUSH1 0x1 PUSH1 0xA0 SHL SUB AND EQ PUSH2 0x87B JUMPI PUSH2 0x87B DUP3 DUP3 PUSH2 0x1AC4 JUMP JUMPDEST PUSH1 0x0 PUSH1 0x1 PUSH1 0x1 PUSH1 0xA0 SHL SUB DUP5 AND EXTCODESIZE ISZERO PUSH2 0x181F JUMPI PUSH1 0x40 MLOAD PUSH4 0xA85BD01 PUSH1 0xE1 SHL DUP2 MSTORE PUSH1 0x1 PUSH1 0x1 PUSH1 0xA0 SHL SUB DUP6 AND SWAP1 PUSH4 0x150B7A02 SWAP1 PUSH2 0x176D SWAP1 CALLER SWAP1 DUP10 SWAP1 DUP9 SWAP1 DUP9 SWAP1 PUSH1 0x4 ADD PUSH2 0x2199 JUMP JUMPDEST PUSH1 0x20 PUSH1 0x40 MLOAD DUP1 DUP4 SUB DUP2 PUSH1 0x0 DUP8 GAS CALL SWAP3 POP POP POP DUP1 ISZERO PUSH2 0x17A8 JUMPI POP PUSH1 0x40 DUP1 MLOAD PUSH1 0x1F RETURNDATASIZE SWAP1 DUP2 ADD PUSH1 0x1F NOT AND DUP3 ADD SWAP1 SWAP3 MSTORE PUSH2 0x17A5 SWAP2 DUP2 ADD SWAP1 PUSH2 0x21D6 JUMP JUMPDEST PUSH1 0x1 JUMPDEST PUSH2 0x1805 JUMPI RETURNDATASIZE DUP1 DUP1 ISZERO PUSH2 0x17D6 JUMPI PUSH1 0x40 MLOAD SWAP2 POP PUSH1 0x1F NOT PUSH1 0x3F RETURNDATASIZE ADD AND DUP3 ADD PUSH1 0x40 MSTORE RETURNDATASIZE DUP3 MSTORE RETURNDATASIZE PUSH1 0x0 PUSH1 0x20 DUP5 ADD RETURNDATACOPY PUSH2 0x17DB JUMP JUMPDEST PUSH1 0x60 SWAP2 POP JUMPDEST POP DUP1 MLOAD PUSH1 0x0 SUB PUSH2 0x17FD JUMPI PUSH1 0x40 MLOAD PUSH3 0x461BCD PUSH1 0xE5 SHL DUP2 MSTORE PUSH1 0x4 ADD PUSH2 0x628 SWAP1 PUSH2 0x2109 JUMP JUMPDEST DUP1 MLOAD DUP2 PUSH1 0x20 ADD REVERT JUMPDEST PUSH1 0x1 PUSH1 0x1 PUSH1 0xE0 SHL SUB NOT AND PUSH4 0xA85BD01 PUSH1 0xE1 SHL EQ SWAP1 POP PUSH2 0x12F6 JUMP JUMPDEST POP PUSH1 0x1 SWAP5 SWAP4 POP POP POP POP JUMP JUMPDEST PUSH1 0x1 PUSH1 0x1 PUSH1 0xA0 SHL SUB DUP3 AND PUSH2 0x1880 JUMPI PUSH1 0x40 MLOAD PUSH3 0x461BCD PUSH1 0xE5 SHL DUP2 MSTORE PUSH1 0x20 PUSH1 0x4 DUP3 ADD DUP2 SWAP1 MSTORE PUSH1 0x24 DUP3 ADD MSTORE PUSH32 0x4552433732313A206D696E7420746F20746865207A65726F2061646472657373 PUSH1 0x44 DUP3 ADD MSTORE PUSH1 0x64 ADD PUSH2 0x628 JUMP JUMPDEST PUSH1 0x0 DUP2 DUP2 MSTORE PUSH1 0x2 PUSH1 0x20 MSTORE PUSH1 0x40 SWAP1 KECCAK256 SLOAD PUSH1 0x1 PUSH1 0x1 PUSH1 0xA0 SHL SUB AND ISZERO PUSH2 0x18E5 JUMPI PUSH1 0x40 MLOAD PUSH3 0x461BCD PUSH1 0xE5 SHL DUP2 MSTORE PUSH1 0x20 PUSH1 0x4 DUP3 ADD MSTORE PUSH1 0x1C PUSH1 0x24 DUP3 ADD MSTORE PUSH32 0x4552433732313A20746F6B656E20616C7265616479206D696E74656400000000 PUSH1 0x44 DUP3 ADD MSTORE PUSH1 0x64 ADD PUSH2 0x628 JUMP JUMPDEST PUSH2 0x18F1 PUSH1 0x0 DUP4 DUP4 PUSH2 0x1671 JUMP JUMPDEST PUSH1 0x1 PUSH1 0x1 PUSH1 0xA0 SHL SUB DUP3 AND PUSH1 0x0 SWAP1 DUP2 MSTORE PUSH1 0x3 PUSH1 0x20 MSTORE PUSH1 0x40 DUP2 KECCAK256 DUP1 SLOAD PUSH1 0x1 SWAP3 SWAP1 PUSH2 0x191A SWAP1 DUP5 SWAP1 PUSH2 0x1FB0 JUMP JUMPDEST SWAP1 SWAP2 SSTORE POP POP PUSH1 0x0 DUP2 DUP2 MSTORE PUSH1 0x2 PUSH1 0x20 MSTORE PUSH1 0x40 DUP1 DUP3 KECCAK256 DUP1 SLOAD PUSH1 0x1 PUSH1 0x1 PUSH1 0xA0 SHL SUB NOT AND PUSH1 0x1 PUSH1 0x1 PUSH1 0xA0 SHL SUB DUP7 AND SWAP1 DUP2 OR SWAP1 SWAP2 SSTORE SWAP1 MLOAD DUP4 SWAP3 SWAP1 PUSH32 0xDDF252AD1BE2C89B69C2B068FC378DAA952BA7F163C4A11628F55A4DF523B3EF SWAP1 DUP3 SWAP1 LOG4 POP POP JUMP JUMPDEST PUSH1 0x0 PUSH1 0x1 PUSH2 0x1985 DUP5 PUSH2 0xDA7 JUMP JUMPDEST PUSH2 0x198F SWAP2 SWAP1 PUSH2 0x20F2 JUMP JUMPDEST PUSH1 0x0 DUP4 DUP2 MSTORE PUSH1 0x7 PUSH1 0x20 MSTORE PUSH1 0x40 SWAP1 KECCAK256 SLOAD SWAP1 SWAP2 POP DUP1 DUP3 EQ PUSH2 0x19E2 JUMPI PUSH1 0x1 PUSH1 0x1 PUSH1 0xA0 SHL SUB DUP5 AND PUSH1 0x0 SWAP1 DUP2 MSTORE PUSH1 0x6 PUSH1 0x20 SWAP1 DUP2 MSTORE PUSH1 0x40 DUP1 DUP4 KECCAK256 DUP6 DUP5 MSTORE DUP3 MSTORE DUP1 DUP4 KECCAK256 SLOAD DUP5 DUP5 MSTORE DUP2 DUP5 KECCAK256 DUP2 SWAP1 SSTORE DUP4 MSTORE PUSH1 0x7 SWAP1 SWAP2 MSTORE SWAP1 KECCAK256 DUP2 SWAP1 SSTORE JUMPDEST POP PUSH1 0x0 SWAP2 DUP3 MSTORE PUSH1 0x7 PUSH1 0x20 SWAP1 DUP2 MSTORE PUSH1 0x40 DUP1 DUP5 KECCAK256 DUP5 SWAP1 SSTORE PUSH1 0x1 PUSH1 0x1 PUSH1 0xA0 SHL SUB SWAP1 SWAP5 AND DUP4 MSTORE PUSH1 0x6 DUP2 MSTORE DUP4 DUP4 KECCAK256 SWAP2 DUP4 MSTORE MSTORE SWAP1 DUP2 KECCAK256 SSTORE JUMP JUMPDEST PUSH1 0x8 SLOAD PUSH1 0x0 SWAP1 PUSH2 0x1A27 SWAP1 PUSH1 0x1 SWAP1 PUSH2 0x20F2 JUMP JUMPDEST PUSH1 0x0 DUP4 DUP2 MSTORE PUSH1 0x9 PUSH1 0x20 MSTORE PUSH1 0x40 DUP2 KECCAK256 SLOAD PUSH1 0x8 DUP1 SLOAD SWAP4 SWAP5 POP SWAP1 SWAP3 DUP5 SWAP1 DUP2 LT PUSH2 0x1A4F JUMPI PUSH2 0x1A4F PUSH2 0x2019 JUMP JUMPDEST SWAP1 PUSH1 0x0 MSTORE PUSH1 0x20 PUSH1 0x0 KECCAK256 ADD SLOAD SWAP1 POP DUP1 PUSH1 0x8 DUP4 DUP2 SLOAD DUP2 LT PUSH2 0x1A70 JUMPI PUSH2 0x1A70 PUSH2 0x2019 JUMP JUMPDEST PUSH1 0x0 SWAP2 DUP3 MSTORE PUSH1 0x20 DUP1 DUP4 KECCAK256 SWAP1 SWAP2 ADD SWAP3 SWAP1 SWAP3 SSTORE DUP3 DUP2 MSTORE PUSH1 0x9 SWAP1 SWAP2 MSTORE PUSH1 0x40 DUP1 DUP3 KECCAK256 DUP5 SWAP1 SSTORE DUP6 DUP3 MSTORE DUP2 KECCAK256 SSTORE PUSH1 0x8 DUP1 SLOAD DUP1 PUSH2 0x1AA8 JUMPI PUSH2 0x1AA8 PUSH2 0x21F3 JUMP JUMPDEST PUSH1 0x1 SWAP1 SUB DUP2 DUP2 SWAP1 PUSH1 0x0 MSTORE PUSH1 0x20 PUSH1 0x0 KECCAK256 ADD PUSH1 0x0 SWAP1 SSTORE SWAP1 SSTORE POP POP POP POP JUMP JUMPDEST PUSH1 0x0 PUSH2 0x1ACF DUP4 PUSH2 0xDA7 JUMP JUMPDEST PUSH1 0x1 PUSH1 0x1 PUSH1 0xA0 SHL SUB SWAP1 SWAP4 AND PUSH1 0x0 SWAP1 DUP2 MSTORE PUSH1 0x6 PUSH1 0x20 SWAP1 DUP2 MSTORE PUSH1 0x40 DUP1 DUP4 KECCAK256 DUP7 DUP5 MSTORE DUP3 MSTORE DUP1 DUP4 KECCAK256 DUP6 SWAP1 SSTORE SWAP4 DUP3 MSTORE PUSH1 0x7 SWAP1 MSTORE SWAP2 SWAP1 SWAP2 KECCAK256 SWAP2 SWAP1 SWAP2 SSTORE POP JUMP JUMPDEST DUP3 DUP1 SLOAD PUSH2 0x1B14 SWAP1 PUSH2 0x1F47 JUMP JUMPDEST SWAP1 PUSH1 0x0 MSTORE PUSH1 0x20 PUSH1 0x0 KECCAK256 SWAP1 PUSH1 0x1F ADD PUSH1 0x20 SWAP1 DIV DUP2 ADD SWAP3 DUP3 PUSH2 0x1B36 JUMPI PUSH1 0x0 DUP6 SSTORE PUSH2 0x1B7C JUMP JUMPDEST DUP3 PUSH1 0x1F LT PUSH2 0x1B4F JUMPI DUP1 MLOAD PUSH1 0xFF NOT AND DUP4 DUP1 ADD OR DUP6 SSTORE PUSH2 0x1B7C JUMP JUMPDEST DUP3 DUP1 ADD PUSH1 0x1 ADD DUP6 SSTORE DUP3 ISZERO PUSH2 0x1B7C JUMPI SWAP2 DUP3 ADD JUMPDEST DUP3 DUP2 GT ISZERO PUSH2 0x1B7C JUMPI DUP3 MLOAD DUP3 SSTORE SWAP2 PUSH1 0x20 ADD SWAP2 SWAP1 PUSH1 0x1 ADD SWAP1 PUSH2 0x1B61 JUMP JUMPDEST POP PUSH2 0x1B88 SWAP3 SWAP2 POP PUSH2 0x1B8C JUMP JUMPDEST POP SWAP1 JUMP JUMPDEST JUMPDEST DUP1 DUP3 GT ISZERO PUSH2 0x1B88 JUMPI PUSH1 0x0 DUP2 SSTORE PUSH1 0x1 ADD PUSH2 0x1B8D JUMP JUMPDEST PUSH1 0x1 PUSH1 0x1 PUSH1 0xE0 SHL SUB NOT DUP2 AND DUP2 EQ PUSH2 0xAE3 JUMPI PUSH1 0x0 DUP1 REVERT JUMPDEST PUSH1 0x0 PUSH1 0x20 DUP3 DUP5 SUB SLT ISZERO PUSH2 0x1BC9 JUMPI PUSH1 0x0 DUP1 REVERT JUMPDEST DUP2 CALLDATALOAD PUSH2 0x1053 DUP2 PUSH2 0x1BA1 JUMP JUMPDEST DUP1 CALLDATALOAD DUP1 ISZERO ISZERO DUP2 EQ PUSH2 0x1BE4 JUMPI PUSH1 0x0 DUP1 REVERT JUMPDEST SWAP2 SWAP1 POP JUMP JUMPDEST PUSH1 0x0 PUSH1 0x20 DUP3 DUP5 SUB SLT ISZERO PUSH2 0x1BFB JUMPI PUSH1 0x0 DUP1 REVERT JUMPDEST PUSH2 0x1053 DUP3 PUSH2 0x1BD4 JUMP JUMPDEST PUSH1 0x0 JUMPDEST DUP4 DUP2 LT ISZERO PUSH2 0x1C1F JUMPI DUP2 DUP2 ADD MLOAD DUP4 DUP3 ADD MSTORE PUSH1 0x20 ADD PUSH2 0x1C07 JUMP JUMPDEST DUP4 DUP2 GT ISZERO PUSH2 0xF69 JUMPI POP POP PUSH1 0x0 SWAP2 ADD MSTORE JUMP JUMPDEST PUSH1 0x0 DUP2 MLOAD DUP1 DUP5 MSTORE PUSH2 0x1C48 DUP2 PUSH1 0x20 DUP7 ADD PUSH1 0x20 DUP7 ADD PUSH2 0x1C04 JUMP JUMPDEST PUSH1 0x1F ADD PUSH1 0x1F NOT AND SWAP3 SWAP1 SWAP3 ADD PUSH1 0x20 ADD SWAP3 SWAP2 POP POP JUMP JUMPDEST PUSH1 0x20 DUP2 MSTORE PUSH1 0x0 PUSH2 0x1053 PUSH1 0x20 DUP4 ADD DUP5 PUSH2 0x1C30 JUMP JUMPDEST PUSH1 0x0 PUSH1 0x20 DUP3 DUP5 SUB SLT ISZERO PUSH2 0x1C81 JUMPI PUSH1 0x0 DUP1 REVERT JUMPDEST POP CALLDATALOAD SWAP2 SWAP1 POP JUMP JUMPDEST DUP1 CALLDATALOAD PUSH1 0x1 PUSH1 0x1 PUSH1 0xA0 SHL SUB DUP2 AND DUP2 EQ PUSH2 0x1BE4 JUMPI PUSH1 0x0 DUP1 REVERT JUMPDEST PUSH1 0x0 DUP1 PUSH1 0x40 DUP4 DUP6 SUB SLT ISZERO PUSH2 0x1CB2 JUMPI PUSH1 0x0 DUP1 REVERT JUMPDEST PUSH2 0x1CBB DUP4 PUSH2 0x1C88 JUMP JUMPDEST SWAP5 PUSH1 0x20 SWAP4 SWAP1 SWAP4 ADD CALLDATALOAD SWAP4 POP POP POP JUMP JUMPDEST PUSH1 0x0 PUSH1 0x20 DUP3 DUP5 SUB SLT ISZERO PUSH2 0x1CDB JUMPI PUSH1 0x0 DUP1 REVERT JUMPDEST PUSH2 0x1053 DUP3 PUSH2 0x1C88 JUMP JUMPDEST PUSH1 0x0 DUP1 PUSH1 0x0 PUSH1 0x60 DUP5 DUP7 SUB SLT ISZERO PUSH2 0x1CF9 JUMPI PUSH1 0x0 DUP1 REVERT JUMPDEST PUSH2 0x1D02 DUP5 PUSH2 0x1C88 JUMP JUMPDEST SWAP3 POP PUSH2 0x1D10 PUSH1 0x20 DUP6 ADD PUSH2 0x1C88 JUMP JUMPDEST SWAP2 POP PUSH1 0x40 DUP5 ADD CALLDATALOAD SWAP1 POP SWAP3 POP SWAP3 POP SWAP3 JUMP JUMPDEST PUSH1 0x20 DUP1 DUP3 MSTORE DUP3 MLOAD DUP3 DUP3 ADD DUP2 SWAP1 MSTORE PUSH1 0x0 SWAP2 SWAP1 DUP5 DUP3 ADD SWAP1 PUSH1 0x40 DUP6 ADD SWAP1 DUP5 JUMPDEST DUP2 DUP2 LT ISZERO PUSH2 0x1D58 JUMPI DUP4 MLOAD DUP4 MSTORE SWAP3 DUP5 ADD SWAP3 SWAP2 DUP5 ADD SWAP2 PUSH1 0x1 ADD PUSH2 0x1D3C JUMP JUMPDEST POP SWAP1 SWAP7 SWAP6 POP POP POP POP POP POP JUMP JUMPDEST PUSH4 0x4E487B71 PUSH1 0xE0 SHL PUSH1 0x0 MSTORE PUSH1 0x41 PUSH1 0x4 MSTORE PUSH1 0x24 PUSH1 0x0 REVERT JUMPDEST PUSH1 0x0 PUSH8 0xFFFFFFFFFFFFFFFF DUP1 DUP5 GT ISZERO PUSH2 0x1D95 JUMPI PUSH2 0x1D95 PUSH2 0x1D64 JUMP JUMPDEST PUSH1 0x40 MLOAD PUSH1 0x1F DUP6 ADD PUSH1 0x1F NOT SWAP1 DUP2 AND PUSH1 0x3F ADD AND DUP2 ADD SWAP1 DUP3 DUP3 GT DUP2 DUP4 LT OR ISZERO PUSH2 0x1DBD JUMPI PUSH2 0x1DBD PUSH2 0x1D64 JUMP JUMPDEST DUP2 PUSH1 0x40 MSTORE DUP1 SWAP4 POP DUP6 DUP2 MSTORE DUP7 DUP7 DUP7 ADD GT ISZERO PUSH2 0x1DD6 JUMPI PUSH1 0x0 DUP1 REVERT JUMPDEST DUP6 DUP6 PUSH1 0x20 DUP4 ADD CALLDATACOPY PUSH1 0x0 PUSH1 0x20 DUP8 DUP4 ADD ADD MSTORE POP POP POP SWAP4 SWAP3 POP POP POP JUMP JUMPDEST PUSH1 0x0 PUSH1 0x20 DUP3 DUP5 SUB SLT ISZERO PUSH2 0x1E02 JUMPI PUSH1 0x0 DUP1 REVERT JUMPDEST DUP2 CALLDATALOAD PUSH8 0xFFFFFFFFFFFFFFFF DUP2 GT ISZERO PUSH2 0x1E19 JUMPI PUSH1 0x0 DUP1 REVERT JUMPDEST DUP3 ADD PUSH1 0x1F DUP2 ADD DUP5 SGT PUSH2 0x1E2A JUMPI PUSH1 0x0 DUP1 REVERT JUMPDEST PUSH2 0x12F6 DUP5 DUP3 CALLDATALOAD PUSH1 0x20 DUP5 ADD PUSH2 0x1D7A JUMP JUMPDEST PUSH1 0x0 DUP1 PUSH1 0x40 DUP4 DUP6 SUB SLT ISZERO PUSH2 0x1E4C JUMPI PUSH1 0x0 DUP1 REVERT JUMPDEST PUSH2 0x1E55 DUP4 PUSH2 0x1C88 JUMP JUMPDEST SWAP2 POP PUSH2 0x1E63 PUSH1 0x20 DUP5 ADD PUSH2 0x1BD4 JUMP JUMPDEST SWAP1 POP SWAP3 POP SWAP3 SWAP1 POP JUMP JUMPDEST PUSH1 0x0 DUP1 PUSH1 0x0 DUP1 PUSH1 0x80 DUP6 DUP8 SUB SLT ISZERO PUSH2 0x1E82 JUMPI PUSH1 0x0 DUP1 REVERT JUMPDEST PUSH2 0x1E8B DUP6 PUSH2 0x1C88 JUMP JUMPDEST SWAP4 POP PUSH2 0x1E99 PUSH1 0x20 DUP7 ADD PUSH2 0x1C88 JUMP JUMPDEST SWAP3 POP PUSH1 0x40 DUP6 ADD CALLDATALOAD SWAP2 POP PUSH1 0x60 DUP6 ADD CALLDATALOAD PUSH8 0xFFFFFFFFFFFFFFFF DUP2 GT ISZERO PUSH2 0x1EBC JUMPI PUSH1 0x0 DUP1 REVERT JUMPDEST DUP6 ADD PUSH1 0x1F DUP2 ADD DUP8 SGT PUSH2 0x1ECD JUMPI PUSH1 0x0 DUP1 REVERT JUMPDEST PUSH2 0x1EDC DUP8 DUP3 CALLDATALOAD PUSH1 0x20 DUP5 ADD PUSH2 0x1D7A JUMP JUMPDEST SWAP2 POP POP SWAP3 SWAP6 SWAP2 SWAP5 POP SWAP3 POP JUMP JUMPDEST PUSH1 0x0 DUP1 PUSH1 0x40 DUP4 DUP6 SUB SLT ISZERO PUSH2 0x1EFB JUMPI PUSH1 0x0 DUP1 REVERT JUMPDEST PUSH2 0x1F04 DUP4 PUSH2 0x1C88 JUMP JUMPDEST SWAP2 POP PUSH2 0x1E63 PUSH1 0x20 DUP5 ADD PUSH2 0x1C88 JUMP JUMPDEST PUSH1 0x20 DUP1 DUP3 MSTORE DUP2 DUP2 ADD MSTORE PUSH32 0x4F776E61626C653A2063616C6C6572206973206E6F7420746865206F776E6572 PUSH1 0x40 DUP3 ADD MSTORE PUSH1 0x60 ADD SWAP1 JUMP JUMPDEST PUSH1 0x1 DUP2 DUP2 SHR SWAP1 DUP3 AND DUP1 PUSH2 0x1F5B JUMPI PUSH1 0x7F DUP3 AND SWAP2 POP JUMPDEST PUSH1 0x20 DUP3 LT DUP2 SUB PUSH2 0x1F7B JUMPI PUSH4 0x4E487B71 PUSH1 0xE0 SHL PUSH1 0x0 MSTORE PUSH1 0x22 PUSH1 0x4 MSTORE PUSH1 0x24 PUSH1 0x0 REVERT JUMPDEST POP SWAP2 SWAP1 POP JUMP JUMPDEST PUSH4 0x4E487B71 PUSH1 0xE0 SHL PUSH1 0x0 MSTORE PUSH1 0x11 PUSH1 0x4 MSTORE PUSH1 0x24 PUSH1 0x0 REVERT JUMPDEST PUSH1 0x0 PUSH1 0x1 DUP3 ADD PUSH2 0x1FA9 JUMPI PUSH2 0x1FA9 PUSH2 0x1F81 JUMP JUMPDEST POP PUSH1 0x1 ADD SWAP1 JUMP JUMPDEST PUSH1 0x0 DUP3 NOT DUP3 GT ISZERO PUSH2 0x1FC3 JUMPI PUSH2 0x1FC3 PUSH2 0x1F81 JUMP JUMPDEST POP ADD SWAP1 JUMP JUMPDEST PUSH1 0x20 DUP1 DUP3 MSTORE PUSH1 0x31 SWAP1 DUP3 ADD MSTORE PUSH32 0x4552433732313A207472616E736665722063616C6C6572206973206E6F74206F PUSH1 0x40 DUP3 ADD MSTORE PUSH17 0x1DDB995C881B9BDC88185C1C1C9BDD9959 PUSH1 0x7A SHL PUSH1 0x60 DUP3 ADD MSTORE PUSH1 0x80 ADD SWAP1 JUMP JUMPDEST PUSH4 0x4E487B71 PUSH1 0xE0 SHL PUSH1 0x0 MSTORE PUSH1 0x32 PUSH1 0x4 MSTORE PUSH1 0x24 PUSH1 0x0 REVERT JUMPDEST PUSH1 0x0 DUP5 MLOAD PUSH1 0x20 PUSH2 0x2042 DUP3 DUP6 DUP4 DUP11 ADD PUSH2 0x1C04 JUMP JUMPDEST DUP6 MLOAD SWAP2 DUP5 ADD SWAP2 PUSH2 0x2055 DUP2 DUP5 DUP5 DUP11 ADD PUSH2 0x1C04 JUMP JUMPDEST DUP6 SLOAD SWAP3 ADD SWAP2 PUSH1 0x0 SWAP1 PUSH1 0x1 DUP2 DUP2 SHR SWAP1 DUP1 DUP4 AND DUP1 PUSH2 0x2072 JUMPI PUSH1 0x7F DUP4 AND SWAP3 POP JUMPDEST DUP6 DUP4 LT DUP2 SUB PUSH2 0x208F JUMPI PUSH4 0x4E487B71 PUSH1 0xE0 SHL DUP6 MSTORE PUSH1 0x22 PUSH1 0x4 MSTORE PUSH1 0x24 DUP6 REVERT JUMPDEST DUP1 DUP1 ISZERO PUSH2 0x20A3 JUMPI PUSH1 0x1 DUP2 EQ PUSH2 0x20B4 JUMPI PUSH2 0x20E1 JUMP JUMPDEST PUSH1 0xFF NOT DUP6 AND DUP9 MSTORE DUP4 DUP9 ADD SWAP6 POP PUSH2 0x20E1 JUMP JUMPDEST PUSH1 0x0 DUP12 DUP2 MSTORE PUSH1 0x20 SWAP1 KECCAK256 PUSH1 0x0 JUMPDEST DUP6 DUP2 LT ISZERO PUSH2 0x20D9 JUMPI DUP2 SLOAD DUP11 DUP3 ADD MSTORE SWAP1 DUP5 ADD SWAP1 DUP9 ADD PUSH2 0x20C0 JUMP JUMPDEST POP POP DUP4 DUP9 ADD SWAP6 POP JUMPDEST POP SWAP4 SWAP12 SWAP11 POP POP POP POP POP POP POP POP POP POP POP JUMP JUMPDEST PUSH1 0x0 DUP3 DUP3 LT ISZERO PUSH2 0x2104 JUMPI PUSH2 0x2104 PUSH2 0x1F81 JUMP JUMPDEST POP SUB SWAP1 JUMP JUMPDEST PUSH1 0x20 DUP1 DUP3 MSTORE PUSH1 0x32 SWAP1 DUP3 ADD MSTORE PUSH32 0x4552433732313A207472616E7366657220746F206E6F6E204552433732315265 PUSH1 0x40 DUP3 ADD MSTORE PUSH18 0x31B2B4BB32B91034B6B83632B6B2B73A32B9 PUSH1 0x71 SHL PUSH1 0x60 DUP3 ADD MSTORE PUSH1 0x80 ADD SWAP1 JUMP JUMPDEST PUSH4 0x4E487B71 PUSH1 0xE0 SHL PUSH1 0x0 MSTORE PUSH1 0x12 PUSH1 0x4 MSTORE PUSH1 0x24 PUSH1 0x0 REVERT JUMPDEST PUSH1 0x0 DUP3 PUSH2 0x2180 JUMPI PUSH2 0x2180 PUSH2 0x215B JUMP JUMPDEST POP DIV SWAP1 JUMP JUMPDEST PUSH1 0x0 DUP3 PUSH2 0x2194 JUMPI PUSH2 0x2194 PUSH2 0x215B JUMP JUMPDEST POP MOD SWAP1 JUMP JUMPDEST PUSH1 0x1 PUSH1 0x1 PUSH1 0xA0 SHL SUB DUP6 DUP2 AND DUP3 MSTORE DUP5 AND PUSH1 0x20 DUP3 ADD MSTORE PUSH1 0x40 DUP2 ADD DUP4 SWAP1 MSTORE PUSH1 0x80 PUSH1 0x60 DUP3 ADD DUP2 SWAP1 MSTORE PUSH1 0x0 SWAP1 PUSH2 0x21CC SWAP1 DUP4 ADD DUP5 PUSH2 0x1C30 JUMP JUMPDEST SWAP7 SWAP6 POP POP POP POP POP POP JUMP JUMPDEST PUSH1 0x0 PUSH1 0x20 DUP3 DUP5 SUB SLT ISZERO PUSH2 0x21E8 JUMPI PUSH1 0x0 DUP1 REVERT JUMPDEST DUP2 MLOAD PUSH2 0x1053 DUP2 PUSH2 0x1BA1 JUMP JUMPDEST PUSH4 0x4E487B71 PUSH1 0xE0 SHL PUSH1 0x0 MSTORE PUSH1 0x31 PUSH1 0x4 MSTORE PUSH1 0x24 PUSH1 0x0 REVERT INVALID LOG2 PUSH5 0x6970667358 0x22 SLT KECCAK256 STATICCALL PUSH4 0xCDD346F3 DIV SLOAD 0xEB 0xB3 PUSH3 0xF4554C SWAP6 0xEE ADD 0xD5 SWAP12 0x2B PUSH5 0x6163CDF8F8 DUP15 SWAP9 0xD 0xD PUSH27 0x2B64736F6C634300080E0033000000000000000000000000000000 "
				},
				"gasEstimates": {
					"creation": {
						"codeDepositCost": "1753400",
						"executionCost": "infinite",
						"totalCost": "infinite"
					},
					"external": {
						"addressMintedBalance(address)": "2587",
						"approve(address,uint256)": "infinite",
						"balanceOf(address)": "2656",
						"baseExtension()": "infinite",
						"baseURI()": "infinite",
						"cost()": "2407",
						"getApproved(uint256)": "4738",
						"isApprovedForAll(address,address)": "infinite",
						"mint()": "infinite",
						"name()": "infinite",
						"owner()": "2442",
						"ownerOf(uint256)": "2668",
						"pause(bool)": "26738",
						"paused()": "2389",
						"renounceOwnership()": "28206",
						"safeTransferFrom(address,address,uint256)": "infinite",
						"safeTransferFrom(address,address,uint256,bytes)": "infinite",
						"setApprovalForAll(address,bool)": "infinite",
						"setBaseExtension(string)": "infinite",
						"setBaseURI(string)": "infinite",
						"setCost(uint256)": "24575",
						"supportsInterface(bytes4)": "infinite",
						"symbol()": "infinite",
						"tokenByIndex(uint256)": "6761",
						"tokenOfOwnerByIndex(address,uint256)": "5042",
						"tokenURI(uint256)": "infinite",
						"totalSupply()": "2338",
						"transferFrom(address,address,uint256)": "infinite",
						"transferOwnership(address)": "28422",
						"walletOfOwner(address)": "infinite",
						"withdraw()": "infinite"
					},
					"internal": {
						"_baseURI()": "infinite"
					}
				},
				"methodIdentifiers": {
					"addressMintedBalance(address)": "18cae269",
					"approve(address,uint256)": "095ea7b3",
					"balanceOf(address)": "70a08231",
					"baseExtension()": "c6682862",
					"baseURI()": "6c0360eb",
					"cost()": "13faede6",
					"getApproved(uint256)": "081812fc",
					"isApprovedForAll(address,address)": "e985e9c5",
					"mint()": "1249c58b",
					"name()": "06fdde03",
					"owner()": "8da5cb5b",
					"ownerOf(uint256)": "6352211e",
					"pause(bool)": "02329a29",
					"paused()": "5c975abb",
					"renounceOwnership()": "715018a6",
					"safeTransferFrom(address,address,uint256)": "42842e0e",
					"safeTransferFrom(address,address,uint256,bytes)": "b88d4fde",
					"setApprovalForAll(address,bool)": "a22cb465",
					"setBaseExtension(string)": "da3ef23f",
					"setBaseURI(string)": "55f804b3",
					"setCost(uint256)": "44a0d68a",
					"supportsInterface(bytes4)": "01ffc9a7",
					"symbol()": "95d89b41",
					"tokenByIndex(uint256)": "4f6ccce7",
					"tokenOfOwnerByIndex(address,uint256)": "2f745c59",
					"tokenURI(uint256)": "c87b56dd",
					"totalSupply()": "18160ddd",
					"transferFrom(address,address,uint256)": "23b872dd",
					"transferOwnership(address)": "f2fde38b",
					"walletOfOwner(address)": "438b6300",
					"withdraw()": "3ccfd60b"
				}
			},
			"storageLayout": {
				"storage": [
					{
						"astId": 712,
						"contract": "Contracts/ERC721.sol:CMFNFT",
						"label": "_name",
						"offset": 0,
						"slot": "0",
						"type": "t_string_storage"
					},
					{
						"astId": 714,
						"contract": "Contracts/ERC721.sol:CMFNFT",
						"label": "_symbol",
						"offset": 0,
						"slot": "1",
						"type": "t_string_storage"
					},
					{
						"astId": 718,
						"contract": "Contracts/ERC721.sol:CMFNFT",
						"label": "_owners",
						"offset": 0,
						"slot": "2",
						"type": "t_mapping(t_uint256,t_address)"
					},
					{
						"astId": 722,
						"contract": "Contracts/ERC721.sol:CMFNFT",
						"label": "_balances",
						"offset": 0,
						"slot": "3",
						"type": "t_mapping(t_address,t_uint256)"
					},
					{
						"astId": 726,
						"contract": "Contracts/ERC721.sol:CMFNFT",
						"label": "_tokenApprovals",
						"offset": 0,
						"slot": "4",
						"type": "t_mapping(t_uint256,t_address)"
					},
					{
						"astId": 732,
						"contract": "Contracts/ERC721.sol:CMFNFT",
						"label": "_operatorApprovals",
						"offset": 0,
						"slot": "5",
						"type": "t_mapping(t_address,t_mapping(t_address,t_bool))"
					},
					{
						"astId": 1503,
						"contract": "Contracts/ERC721.sol:CMFNFT",
						"label": "_ownedTokens",
						"offset": 0,
						"slot": "6",
						"type": "t_mapping(t_address,t_mapping(t_uint256,t_uint256))"
					},
					{
						"astId": 1507,
						"contract": "Contracts/ERC721.sol:CMFNFT",
						"label": "_ownedTokensIndex",
						"offset": 0,
						"slot": "7",
						"type": "t_mapping(t_uint256,t_uint256)"
					},
					{
						"astId": 1510,
						"contract": "Contracts/ERC721.sol:CMFNFT",
						"label": "_allTokens",
						"offset": 0,
						"slot": "8",
						"type": "t_array(t_uint256)dyn_storage"
					},
					{
						"astId": 1514,
						"contract": "Contracts/ERC721.sol:CMFNFT",
						"label": "_allTokensIndex",
						"offset": 0,
						"slot": "9",
						"type": "t_mapping(t_uint256,t_uint256)"
					},
					{
						"astId": 1826,
						"contract": "Contracts/ERC721.sol:CMFNFT",
						"label": "_owner",
						"offset": 0,
						"slot": "10",
						"type": "t_address"
					},
					{
						"astId": 1926,
						"contract": "Contracts/ERC721.sol:CMFNFT",
						"label": "baseURI",
						"offset": 0,
						"slot": "11",
						"type": "t_string_storage"
					},
					{
						"astId": 1929,
						"contract": "Contracts/ERC721.sol:CMFNFT",
						"label": "baseExtension",
						"offset": 0,
						"slot": "12",
						"type": "t_string_storage"
					},
					{
						"astId": 1932,
						"contract": "Contracts/ERC721.sol:CMFNFT",
						"label": "cost",
						"offset": 0,
						"slot": "13",
						"type": "t_uint256"
					},
					{
						"astId": 1935,
						"contract": "Contracts/ERC721.sol:CMFNFT",
						"label": "_mintAmount",
						"offset": 0,
						"slot": "14",
						"type": "t_uint256"
					},
					{
						"astId": 1938,
						"contract": "Contracts/ERC721.sol:CMFNFT",
						"label": "paused",
						"offset": 0,
						"slot": "15",
						"type": "t_bool"
					},
					{
						"astId": 1942,
						"contract": "Contracts/ERC721.sol:CMFNFT",
						"label": "addressMintedBalance",
						"offset": 0,
						"slot": "16",
						"type": "t_mapping(t_address,t_uint256)"
					}
				],
				"types": {
					"t_address": {
						"encoding": "inplace",
						"label": "address",
						"numberOfBytes": "20"
					},
					"t_array(t_uint256)dyn_storage": {
						"base": "t_uint256",
						"encoding": "dynamic_array",
						"label": "uint256[]",
						"numberOfBytes": "32"
					},
					"t_bool": {
						"encoding": "inplace",
						"label": "bool",
						"numberOfBytes": "1"
					},
					"t_mapping(t_address,t_bool)": {
						"encoding": "mapping",
						"key": "t_address",
						"label": "mapping(address => bool)",
						"numberOfBytes": "32",
						"value": "t_bool"
					},
					"t_mapping(t_address,t_mapping(t_address,t_bool))": {
						"encoding": "mapping",
						"key": "t_address",
						"label": "mapping(address => mapping(address => bool))",
						"numberOfBytes": "32",
						"value": "t_mapping(t_address,t_bool)"
					},
					"t_mapping(t_address,t_mapping(t_uint256,t_uint256))": {
						"encoding": "mapping",
						"key": "t_address",
						"label": "mapping(address => mapping(uint256 => uint256))",
						"numberOfBytes": "32",
						"value": "t_mapping(t_uint256,t_uint256)"
					},
					"t_mapping(t_address,t_uint256)": {
						"encoding": "mapping",
						"key": "t_address",
						"label": "mapping(address => uint256)",
						"numberOfBytes": "32",
						"value": "t_uint256"
					},
					"t_mapping(t_uint256,t_address)": {
						"encoding": "mapping",
						"key": "t_uint256",
						"label": "mapping(uint256 => address)",
						"numberOfBytes": "32",
						"value": "t_address"
					},
					"t_mapping(t_uint256,t_uint256)": {
						"encoding": "mapping",
						"key": "t_uint256",
						"label": "mapping(uint256 => uint256)",
						"numberOfBytes": "32",
						"value": "t_uint256"
					},
					"t_string_storage": {
						"encoding": "bytes",
						"label": "string",
						"numberOfBytes": "32"
					},
					"t_uint256": {
						"encoding": "inplace",
						"label": "uint256",
						"numberOfBytes": "32"
					}
				}
			},
			"userdoc": {
				"kind": "user",
				"methods": {},
				"version": 1
			}
		}
	}
}