{
	"Contracts/ERC721.sol": {
		"NFT": {
			"abi": [
				{
					"inputs": [
						{
							"internalType": "string",
							"name": "_name",
							"type": "string"
						},
						{
							"internalType": "string",
							"name": "_symbol",
							"type": "string"
						},
						{
							"internalType": "string",
							"name": "_initBaseURI",
							"type": "string"
						}
					],
					"stateMutability": "nonpayable",
					"type": "constructor"
				},
				{
					"anonymous": false,
					"inputs": [
						{
							"indexed": true,
							"internalType": "address",
							"name": "owner",
							"type": "address"
						},
						{
							"indexed": true,
							"internalType": "address",
							"name": "approved",
							"type": "address"
						},
						{
							"indexed": true,
							"internalType": "uint256",
							"name": "tokenId",
							"type": "uint256"
						}
					],
					"name": "Approval",
					"type": "event"
				},
				{
					"anonymous": false,
					"inputs": [
						{
							"indexed": true,
							"internalType": "address",
							"name": "owner",
							"type": "address"
						},
						{
							"indexed": true,
							"internalType": "address",
							"name": "operator",
							"type": "address"
						},
						{
							"indexed": false,
							"internalType": "bool",
							"name": "approved",
							"type": "bool"
						}
					],
					"name": "ApprovalForAll",
					"type": "event"
				},
				{
					"anonymous": false,
					"inputs": [
						{
							"indexed": true,
							"internalType": "address",
							"name": "previousOwner",
							"type": "address"
						},
						{
							"indexed": true,
							"internalType": "address",
							"name": "newOwner",
							"type": "address"
						}
					],
					"name": "OwnershipTransferred",
					"type": "event"
				},
				{
					"anonymous": false,
					"inputs": [
						{
							"indexed": true,
							"internalType": "address",
							"name": "from",
							"type": "address"
						},
						{
							"indexed": true,
							"internalType": "address",
							"name": "to",
							"type": "address"
						},
						{
							"indexed": true,
							"internalType": "uint256",
							"name": "tokenId",
							"type": "uint256"
						}
					],
					"name": "Transfer",
					"type": "event"
				},
				{
					"inputs": [
						{
							"internalType": "address",
							"name": "",
							"type": "address"
						}
					],
					"name": "addressMintedBalance",
					"outputs": [
						{
							"internalType": "uint256",
							"name": "",
							"type": "uint256"
						}
					],
					"stateMutability": "view",
					"type": "function"
				},
				{
					"inputs": [
						{
							"internalType": "address",
							"name": "to",
							"type": "address"
						},
						{
							"internalType": "uint256",
							"name": "tokenId",
							"type": "uint256"
						}
					],
					"name": "approve",
					"outputs": [],
					"stateMutability": "nonpayable",
					"type": "function"
				},
				{
					"inputs": [
						{
							"internalType": "address",
							"name": "owner",
							"type": "address"
						}
					],
					"name": "balanceOf",
					"outputs": [
						{
							"internalType": "uint256",
							"name": "",
							"type": "uint256"
						}
					],
					"stateMutability": "view",
					"type": "function"
				},
				{
					"inputs": [],
					"name": "baseExtension",
					"outputs": [
						{
							"internalType": "string",
							"name": "",
							"type": "string"
						}
					],
					"stateMutability": "view",
					"type": "function"
				},
				{
					"inputs": [],
					"name": "baseURI",
					"outputs": [
						{
							"internalType": "string",
							"name": "",
							"type": "string"
						}
					],
					"stateMutability": "view",
					"type": "function"
				},
				{
					"inputs": [],
					"name": "cost",
					"outputs": [
						{
							"internalType": "uint256",
							"name": "",
							"type": "uint256"
						}
					],
					"stateMutability": "view",
					"type": "function"
				},
				{
					"inputs": [
						{
							"internalType": "uint256",
							"name": "tokenId",
							"type": "uint256"
						}
					],
					"name": "getApproved",
					"outputs": [
						{
							"internalType": "address",
							"name": "",
							"type": "address"
						}
					],
					"stateMutability": "view",
					"type": "function"
				},
				{
					"inputs": [
						{
							"internalType": "address",
							"name": "owner",
							"type": "address"
						},
						{
							"internalType": "address",
							"name": "operator",
							"type": "address"
						}
					],
					"name": "isApprovedForAll",
					"outputs": [
						{
							"internalType": "bool",
							"name": "",
							"type": "bool"
						}
					],
					"stateMutability": "view",
					"type": "function"
				},
				{
					"inputs": [
						{
							"internalType": "address",
							"name": "_user",
							"type": "address"
						}
					],
					"name": "isWhitelisted",
					"outputs": [
						{
							"internalType": "bool",
							"name": "",
							"type": "bool"
						}
					],
					"stateMutability": "view",
					"type": "function"
				},
				{
					"inputs": [],
					"name": "maxMintAmount",
					"outputs": [
						{
							"internalType": "uint256",
							"name": "",
							"type": "uint256"
						}
					],
					"stateMutability": "view",
					"type": "function"
				},
				{
					"inputs": [],
					"name": "maxSupply",
					"outputs": [
						{
							"internalType": "uint256",
							"name": "",
							"type": "uint256"
						}
					],
					"stateMutability": "view",
					"type": "function"
				},
				{
					"inputs": [
						{
							"internalType": "uint256",
							"name": "_mintAmount",
							"type": "uint256"
						}
					],
					"name": "mint",
					"outputs": [],
					"stateMutability": "payable",
					"type": "function"
				},
				{
					"inputs": [],
					"name": "name",
					"outputs": [
						{
							"internalType": "string",
							"name": "",
							"type": "string"
						}
					],
					"stateMutability": "view",
					"type": "function"
				},
				{
					"inputs": [],
					"name": "nftPerAddressLimit",
					"outputs": [
						{
							"internalType": "uint256",
							"name": "",
							"type": "uint256"
						}
					],
					"stateMutability": "view",
					"type": "function"
				},
				{
					"inputs": [],
					"name": "onlyWhitelisted",
					"outputs": [
						{
							"internalType": "bool",
							"name": "",
							"type": "bool"
						}
					],
					"stateMutability": "view",
					"type": "function"
				},
				{
					"inputs": [],
					"name": "owner",
					"outputs": [
						{
							"internalType": "address",
							"name": "",
							"type": "address"
						}
					],
					"stateMutability": "view",
					"type": "function"
				},
				{
					"inputs": [
						{
							"internalType": "uint256",
							"name": "tokenId",
							"type": "uint256"
						}
					],
					"name": "ownerOf",
					"outputs": [
						{
							"internalType": "address",
							"name": "",
							"type": "address"
						}
					],
					"stateMutability": "view",
					"type": "function"
				},
				{
					"inputs": [
						{
							"internalType": "bool",
							"name": "_state",
							"type": "bool"
						}
					],
					"name": "pause",
					"outputs": [],
					"stateMutability": "nonpayable",
					"type": "function"
				},
				{
					"inputs": [],
					"name": "paused",
					"outputs": [
						{
							"internalType": "bool",
							"name": "",
							"type": "bool"
						}
					],
					"stateMutability": "view",
					"type": "function"
				},
				{
					"inputs": [],
					"name": "renounceOwnership",
					"outputs": [],
					"stateMutability": "nonpayable",
					"type": "function"
				},
				{
					"inputs": [
						{
							"internalType": "address",
							"name": "from",
							"type": "address"
						},
						{
							"internalType": "address",
							"name": "to",
							"type": "address"
						},
						{
							"internalType": "uint256",
							"name": "tokenId",
							"type": "uint256"
						}
					],
					"name": "safeTransferFrom",
					"outputs": [],
					"stateMutability": "nonpayable",
					"type": "function"
				},
				{
					"inputs": [
						{
							"internalType": "address",
							"name": "from",
							"type": "address"
						},
						{
							"internalType": "address",
							"name": "to",
							"type": "address"
						},
						{
							"internalType": "uint256",
							"name": "tokenId",
							"type": "uint256"
						},
						{
							"internalType": "bytes",
							"name": "_data",
							"type": "bytes"
						}
					],
					"name": "safeTransferFrom",
					"outputs": [],
					"stateMutability": "nonpayable",
					"type": "function"
				},
				{
					"inputs": [
						{
							"internalType": "address",
							"name": "operator",
							"type": "address"
						},
						{
							"internalType": "bool",
							"name": "approved",
							"type": "bool"
						}
					],
					"name": "setApprovalForAll",
					"outputs": [],
					"stateMutability": "nonpayable",
					"type": "function"
				},
				{
					"inputs": [
						{
							"internalType": "string",
							"name": "_newBaseExtension",
							"type": "string"
						}
					],
					"name": "setBaseExtension",
					"outputs": [],
					"stateMutability": "nonpayable",
					"type": "function"
				},
				{
					"inputs": [
						{
							"internalType": "string",
							"name": "_newBaseURI",
							"type": "string"
						}
					],
					"name": "setBaseURI",
					"outputs": [],
					"stateMutability": "nonpayable",
					"type": "function"
				},
				{
					"inputs": [
						{
							"internalType": "uint256",
							"name": "_newCost",
							"type": "uint256"
						}
					],
					"name": "setCost",
					"outputs": [],
					"stateMutability": "nonpayable",
					"type": "function"
				},
				{
					"inputs": [
						{
							"internalType": "uint256",
							"name": "_limit",
							"type": "uint256"
						}
					],
					"name": "setNftPerAddressLimit",
					"outputs": [],
					"stateMutability": "nonpayable",
					"type": "function"
				},
				{
					"inputs": [
						{
							"internalType": "bool",
							"name": "_state",
							"type": "bool"
						}
					],
					"name": "setOnlyWhitelisted",
					"outputs": [],
					"stateMutability": "nonpayable",
					"type": "function"
				},
				{
					"inputs": [
						{
							"internalType": "uint256",
							"name": "_newmaxMintAmount",
							"type": "uint256"
						}
					],
					"name": "setmaxMintAmount",
					"outputs": [],
					"stateMutability": "nonpayable",
					"type": "function"
				},
				{
					"inputs": [
						{
							"internalType": "bytes4",
							"name": "interfaceId",
							"type": "bytes4"
						}
					],
					"name": "supportsInterface",
					"outputs": [
						{
							"internalType": "bool",
							"name": "",
							"type": "bool"
						}
					],
					"stateMutability": "view",
					"type": "function"
				},
				{
					"inputs": [],
					"name": "symbol",
					"outputs": [
						{
							"internalType": "string",
							"name": "",
							"type": "string"
						}
					],
					"stateMutability": "view",
					"type": "function"
				},
				{
					"inputs": [
						{
							"internalType": "uint256",
							"name": "index",
							"type": "uint256"
						}
					],
					"name": "tokenByIndex",
					"outputs": [
						{
							"internalType": "uint256",
							"name": "",
							"type": "uint256"
						}
					],
					"stateMutability": "view",
					"type": "function"
				},
				{
					"inputs": [
						{
							"internalType": "address",
							"name": "owner",
							"type": "address"
						},
						{
							"internalType": "uint256",
							"name": "index",
							"type": "uint256"
						}
					],
					"name": "tokenOfOwnerByIndex",
					"outputs": [
						{
							"internalType": "uint256",
							"name": "",
							"type": "uint256"
						}
					],
					"stateMutability": "view",
					"type": "function"
				},
				{
					"inputs": [
						{
							"internalType": "uint256",
							"name": "tokenId",
							"type": "uint256"
						}
					],
					"name": "tokenURI",
					"outputs": [
						{
							"internalType": "string",
							"name": "",
							"type": "string"
						}
					],
					"stateMutability": "view",
					"type": "function"
				},
				{
					"inputs": [],
					"name": "totalSupply",
					"outputs": [
						{
							"internalType": "uint256",
							"name": "",
							"type": "uint256"
						}
					],
					"stateMutability": "view",
					"type": "function"
				},
				{
					"inputs": [
						{
							"internalType": "address",
							"name": "from",
							"type": "address"
						},
						{
							"internalType": "address",
							"name": "to",
							"type": "address"
						},
						{
							"internalType": "uint256",
							"name": "tokenId",
							"type": "uint256"
						}
					],
					"name": "transferFrom",
					"outputs": [],
					"stateMutability": "nonpayable",
					"type": "function"
				},
				{
					"inputs": [
						{
							"internalType": "address",
							"name": "newOwner",
							"type": "address"
						}
					],
					"name": "transferOwnership",
					"outputs": [],
					"stateMutability": "nonpayable",
					"type": "function"
				},
				{
					"inputs": [
						{
							"internalType": "address",
							"name": "_owner",
							"type": "address"
						}
					],
					"name": "walletOfOwner",
					"outputs": [
						{
							"internalType": "uint256[]",
							"name": "",
							"type": "uint256[]"
						}
					],
					"stateMutability": "view",
					"type": "function"
				},
				{
					"inputs": [
						{
							"internalType": "address[]",
							"name": "_users",
							"type": "address[]"
						}
					],
					"name": "whitelistUsers",
					"outputs": [],
					"stateMutability": "nonpayable",
					"type": "function"
				},
				{
					"inputs": [
						{
							"internalType": "uint256",
							"name": "",
							"type": "uint256"
						}
					],
					"name": "whitelistedAddresses",
					"outputs": [
						{
							"internalType": "address",
							"name": "",
							"type": "address"
						}
					],
					"stateMutability": "view",
					"type": "function"
				},
				{
					"inputs": [],
					"name": "withdraw",
					"outputs": [],
					"stateMutability": "payable",
					"type": "function"
				}
			],
			"devdoc": {
				"kind": "dev",
				"methods": {
					"approve(address,uint256)": {
						"details": "See {IERC721-approve}."
					},
					"balanceOf(address)": {
						"details": "See {IERC721-balanceOf}."
					},
					"getApproved(uint256)": {
						"details": "See {IERC721-getApproved}."
					},
					"isApprovedForAll(address,address)": {
						"details": "See {IERC721-isApprovedForAll}."
					},
					"name()": {
						"details": "See {IERC721Metadata-name}."
					},
					"owner()": {
						"details": "Returns the address of the current owner."
					},
					"ownerOf(uint256)": {
						"details": "See {IERC721-ownerOf}."
					},
					"safeTransferFrom(address,address,uint256)": {
						"details": "See {IERC721-safeTransferFrom}."
					},
					"safeTransferFrom(address,address,uint256,bytes)": {
						"details": "See {IERC721-safeTransferFrom}."
					},
					"setApprovalForAll(address,bool)": {
						"details": "See {IERC721-setApprovalForAll}."
					},
					"supportsInterface(bytes4)": {
						"details": "See {IERC165-supportsInterface}."
					},
					"symbol()": {
						"details": "See {IERC721Metadata-symbol}."
					},
					"tokenByIndex(uint256)": {
						"details": "See {IERC721Enumerable-tokenByIndex}."
					},
					"tokenOfOwnerByIndex(address,uint256)": {
						"details": "See {IERC721Enumerable-tokenOfOwnerByIndex}."
					},
					"tokenURI(uint256)": {
						"details": "See {IERC721Metadata-tokenURI}."
					},
					"totalSupply()": {
						"details": "See {IERC721Enumerable-totalSupply}."
					},
					"transferFrom(address,address,uint256)": {
						"details": "See {IERC721-transferFrom}."
					}
				},
				"version": 1
			},
			"evm": {
				"assembly": "    /* \"Contracts/ERC721.sol\":25458:25495  string public baseExtension = \".json\" */\n  0xc0\n    /* \"Contracts/ERC721.sol\":25353:29135  contract NFT is ERC721Enumerable, Ownable {... */\n  0x40\n    /* \"Contracts/ERC721.sol\":25458:25495  string public baseExtension = \".json\" */\n  mstore\n  0x05\n    /* \"Contracts/ERC721.sol\":25353:29135  contract NFT is ERC721Enumerable, Ownable {... */\n  0x80\n    /* \"Contracts/ERC721.sol\":25458:25495  string public baseExtension = \".json\" */\n  dup2\n  swap1\n  mstore\n  shl(0xd9, 0x173539b7b7)\n  0xa0\n  swap1\n  dup2\n  mstore\n  tag_1\n  swap2\n  0x0c\n  swap2\n  swap1\n  tag_2\n  jump\t// in\ntag_1:\n  pop\n    /* \"Contracts/ERC721.sol\":25522:25532  0.05 ether */\n  0xb1a2bc2ec50000\n    /* \"Contracts/ERC721.sol\":25500:25532  uint256 public cost = 0.05 ether */\n  0x0d\n  sstore\n    /* \"Contracts/ERC721.sol\":25564:25569  10000 */\n  0x2710\n    /* \"Contracts/ERC721.sol\":25537:25569  uint256 public maxSupply = 10000 */\n  0x0e\n  sstore\n    /* \"Contracts/ERC721.sol\":25605:25607  20 */\n  0x14\n    /* \"Contracts/ERC721.sol\":25574:25607  uint256 public maxMintAmount = 20 */\n  0x0f\n  sstore\n    /* \"Contracts/ERC721.sol\":25648:25649  3 */\n  0x03\n    /* \"Contracts/ERC721.sol\":25612:25649  uint256 public nftPerAddressLimit = 3 */\n  0x10\n  sstore\n    /* \"Contracts/ERC721.sol\":25654:25680  bool public paused = false */\n  0x11\n  dup1\n  sload\n  not(0xffff)\n    /* \"Contracts/ERC721.sol\":25685:25719  bool public onlyWhitelisted = true */\n  and\n    /* \"Contracts/ERC721.sol\":25654:25680  bool public paused = false */\n  0x0100\n    /* \"Contracts/ERC721.sol\":25685:25719  bool public onlyWhitelisted = true */\n  or\n  swap1\n  sstore\n    /* \"Contracts/ERC721.sol\":25828:25996  constructor(... */\n  callvalue\n  dup1\n  iszero\n  tag_3\n  jumpi\n  0x00\n  dup1\n  revert\ntag_3:\n  pop\n  mload(0x40)\n  sub(codesize, bytecodeSize)\n  dup1\n  bytecodeSize\n  dup4\n  codecopy\n  dup2\n  add\n  0x40\n  dup2\n  swap1\n  mstore\n  tag_4\n  swap2\n  tag_5\n  jump\t// in\ntag_4:\n    /* \"Contracts/ERC721.sol\":10976:10989  _name = name_ */\n  dup3\n  mload\n    /* \"Contracts/ERC721.sol\":25941:25946  _name */\n  dup4\n  swap1\n    /* \"Contracts/ERC721.sol\":25948:25955  _symbol */\n  dup4\n  swap1\n    /* \"Contracts/ERC721.sol\":10976:10989  _name = name_ */\n  tag_10\n  swap1\n    /* \"Contracts/ERC721.sol\":10976:10981  _name */\n  0x00\n  swap1\n    /* \"Contracts/ERC721.sol\":10976:10989  _name = name_ */\n  0x20\n  dup6\n  add\n  swap1\n  tag_2\n  jump\t// in\ntag_10:\n  pop\n    /* \"Contracts/ERC721.sol\":11000:11017  _symbol = symbol_ */\n  dup1\n  mload\n  tag_11\n  swap1\n    /* \"Contracts/ERC721.sol\":11000:11007  _symbol */\n  0x01\n  swap1\n    /* \"Contracts/ERC721.sol\":11000:11017  _symbol = symbol_ */\n  0x20\n  dup5\n  add\n  swap1\n  tag_2\n  jump\t// in\ntag_11:\n  pop\n    /* \"Contracts/ERC721.sol\":10909:11025  constructor(string memory name_, string memory symbol_) {... */\n  pop\n  pop\n    /* \"Contracts/ERC721.sol\":24451:24474  _setOwner(_msgSender()) */\n  tag_13\n    /* \"Contracts/ERC721.sol\":24461:24473  _msgSender() */\n  tag_14\n    /* \"Contracts/ERC721.sol\":24461:24471  _msgSender */\n  shl(0x20, tag_15)\n    /* \"Contracts/ERC721.sol\":24461:24473  _msgSender() */\n  0x20\n  shr\n  jump\t// in\ntag_14:\n    /* \"Contracts/ERC721.sol\":24451:24460  _setOwner */\n  tag_16\n    /* \"Contracts/ERC721.sol\":24451:24474  _setOwner(_msgSender()) */\n  jump\t// in\ntag_13:\n    /* \"Contracts/ERC721.sol\":25964:25988  setBaseURI(_initBaseURI) */\n  tag_18\n    /* \"Contracts/ERC721.sol\":25975:25987  _initBaseURI */\n  dup2\n    /* \"Contracts/ERC721.sol\":25964:25974  setBaseURI */\n  tag_19\n    /* \"Contracts/ERC721.sol\":25964:25988  setBaseURI(_initBaseURI) */\n  jump\t// in\ntag_18:\n    /* \"Contracts/ERC721.sol\":25828:25996  constructor(... */\n  pop\n  pop\n  pop\n    /* \"Contracts/ERC721.sol\":25353:29135  contract NFT is ERC721Enumerable, Ownable {... */\n  jump(tag_46)\n    /* \"Contracts/ERC721.sol\":9908:10006  function _msgSender() internal view virtual returns (address) {... */\ntag_15:\n    /* \"Contracts/ERC721.sol\":9988:9998  msg.sender */\n  caller\n  swap1\n    /* \"Contracts/ERC721.sol\":9908:10006  function _msgSender() internal view virtual returns (address) {... */\n  jump\t// out\n    /* \"Contracts/ERC721.sol\":25173:25346  function _setOwner(address newOwner) private {... */\ntag_16:\n    /* \"Contracts/ERC721.sol\":25248:25254  _owner */\n  0x0a\n  dup1\n  sload\n  sub(shl(0xa0, 0x01), 0x01)\n    /* \"Contracts/ERC721.sol\":25265:25282  _owner = newOwner */\n  dup4\n  dup2\n  and\n  not(sub(shl(0xa0, 0x01), 0x01))\n  dup4\n  and\n  dup2\n  or\n  swap1\n  swap4\n  sstore\n    /* \"Contracts/ERC721.sol\":25298:25338  OwnershipTransferred(oldOwner, newOwner) */\n  mload(0x40)\n    /* \"Contracts/ERC721.sol\":25248:25254  _owner */\n  swap2\n  and\n  swap2\n    /* \"Contracts/ERC721.sol\":25265:25282  _owner = newOwner */\n  swap1\n    /* \"Contracts/ERC721.sol\":25248:25254  _owner */\n  dup3\n  swap1\n    /* \"Contracts/ERC721.sol\":25298:25338  OwnershipTransferred(oldOwner, newOwner) */\n  0x8be0079c531659141344cd1fd0a4f28419497f9722a3daafe3b4186f6b6457e0\n  swap1\n    /* \"Contracts/ERC721.sol\":25229:25245  address oldOwner */\n  0x00\n  swap1\n    /* \"Contracts/ERC721.sol\":25298:25338  OwnershipTransferred(oldOwner, newOwner) */\n  log3\n    /* \"Contracts/ERC721.sol\":25218:25346  {... */\n  pop\n    /* \"Contracts/ERC721.sol\":25173:25346  function _setOwner(address newOwner) private {... */\n  pop\n  jump\t// out\n    /* \"Contracts/ERC721.sol\":28416:28514  function setBaseURI(string memory _newBaseURI) public onlyOwner {... */\ntag_19:\n    /* \"Contracts/ERC721.sol\":24636:24642  _owner */\n  and(sub(shl(0xa0, 0x01), 0x01), sload(0x0a))\n    /* \"Contracts/ERC721.sol\":9988:9998  msg.sender */\n  caller\n    /* \"Contracts/ERC721.sol\":24783:24806  owner() == _msgSender() */\n  eq\n    /* \"Contracts/ERC721.sol\":24775:24843  require(owner() == _msgSender(), \"Ownable: caller is not the owner\") */\n  tag_27\n  jumpi\n  mload(0x40)\n  shl(0xe5, 0x461bcd)\n  dup2\n  mstore\n    /* \"#utility.yul\":2009:2011   */\n  0x20\n    /* \"Contracts/ERC721.sol\":24775:24843  require(owner() == _msgSender(), \"Ownable: caller is not the owner\") */\n  0x04\n  dup3\n  add\n    /* \"#utility.yul\":1991:2012   */\n  dup2\n  swap1\n  mstore\n    /* \"#utility.yul\":2028:2046   */\n  0x24\n  dup3\n  add\n    /* \"#utility.yul\":2021:2051   */\n  mstore\n    /* \"#utility.yul\":2087:2121   */\n  0x4f776e61626c653a2063616c6c6572206973206e6f7420746865206f776e6572\n    /* \"#utility.yul\":2067:2085   */\n  0x44\n  dup3\n  add\n    /* \"#utility.yul\":2060:2122   */\n  mstore\n    /* \"#utility.yul\":2139:2157   */\n  0x64\n  add\n    /* \"Contracts/ERC721.sol\":24775:24843  require(owner() == _msgSender(), \"Ownable: caller is not the owner\") */\n  mload(0x40)\n  dup1\n  swap2\n  sub\n  swap1\n  revert\ntag_27:\n    /* \"Contracts/ERC721.sol\":28487:28508  baseURI = _newBaseURI */\n  dup1\n  mload\n  tag_31\n  swap1\n    /* \"Contracts/ERC721.sol\":28487:28494  baseURI */\n  0x0b\n  swap1\n    /* \"Contracts/ERC721.sol\":28487:28508  baseURI = _newBaseURI */\n  0x20\n  dup5\n  add\n  swap1\n  tag_2\n  jump\t// in\ntag_31:\n  pop\n    /* \"Contracts/ERC721.sol\":28416:28514  function setBaseURI(string memory _newBaseURI) public onlyOwner {... */\n  pop\n  jump\t// out\n    /* \"Contracts/ERC721.sol\":25353:29135  contract NFT is ERC721Enumerable, Ownable {... */\ntag_2:\n  dup3\n  dup1\n  sload\n  tag_33\n  swap1\n  tag_34\n  jump\t// in\ntag_33:\n  swap1\n  0x00\n  mstore\n  keccak256(0x00, 0x20)\n  swap1\n  0x1f\n  add\n  0x20\n  swap1\n  div\n  dup2\n  add\n  swap3\n  dup3\n  tag_36\n  jumpi\n  0x00\n  dup6\n  sstore\n  jump(tag_39)\ntag_36:\n  dup3\n  0x1f\n  lt\n  tag_37\n  jumpi\n  dup1\n  mload\n  not(0xff)\n  and\n  dup4\n  dup1\n  add\n  or\n  dup6\n  sstore\n  jump(tag_39)\ntag_37:\n  dup3\n  dup1\n  add\n  0x01\n  add\n  dup6\n  sstore\n  dup3\n  iszero\n  tag_39\n  jumpi\n  swap2\n  dup3\n  add\ntag_38:\n  dup3\n  dup2\n  gt\n  iszero\n  tag_39\n  jumpi\n  dup3\n  mload\n  dup3\n  sstore\n  swap2\n  0x20\n  add\n  swap2\n  swap1\n  0x01\n  add\n  swap1\n  jump(tag_38)\ntag_39:\n  pop\n  tag_40\n  swap3\n  swap2\n  pop\n  tag_41\n  jump\t// in\ntag_40:\n  pop\n  swap1\n  jump\t// out\ntag_41:\ntag_42:\n  dup1\n  dup3\n  gt\n  iszero\n  tag_40\n  jumpi\n  0x00\n  dup2\n  sstore\n  0x01\n  add\n  jump(tag_42)\n    /* \"#utility.yul\":14:141   */\ntag_44:\n    /* \"#utility.yul\":75:85   */\n  0x4e487b71\n    /* \"#utility.yul\":70:73   */\n  0xe0\n    /* \"#utility.yul\":66:86   */\n  shl\n    /* \"#utility.yul\":63:64   */\n  0x00\n    /* \"#utility.yul\":56:87   */\n  mstore\n    /* \"#utility.yul\":106:110   */\n  0x41\n    /* \"#utility.yul\":103:104   */\n  0x04\n    /* \"#utility.yul\":96:111   */\n  mstore\n    /* \"#utility.yul\":130:134   */\n  0x24\n    /* \"#utility.yul\":127:128   */\n  0x00\n    /* \"#utility.yul\":120:135   */\n  revert\n    /* \"#utility.yul\":146:1031   */\ntag_45:\n    /* \"#utility.yul\":200:205   */\n  0x00\n    /* \"#utility.yul\":253:256   */\n  dup3\n    /* \"#utility.yul\":246:250   */\n  0x1f\n    /* \"#utility.yul\":238:244   */\n  dup4\n    /* \"#utility.yul\":234:251   */\n  add\n    /* \"#utility.yul\":230:257   */\n  slt\n    /* \"#utility.yul\":220:275   */\n  tag_49\n  jumpi\n    /* \"#utility.yul\":271:272   */\n  0x00\n    /* \"#utility.yul\":268:269   */\n  dup1\n    /* \"#utility.yul\":261:273   */\n  revert\n    /* \"#utility.yul\":220:275   */\ntag_49:\n    /* \"#utility.yul\":294:307   */\n  dup2\n  mload\n  sub(shl(0x40, 0x01), 0x01)\n    /* \"#utility.yul\":356:366   */\n  dup1\n  dup3\n  gt\n    /* \"#utility.yul\":353:389   */\n  iszero\n  tag_51\n  jumpi\n    /* \"#utility.yul\":369:387   */\n  tag_51\n  tag_44\n  jump\t// in\ntag_51:\n    /* \"#utility.yul\":444:446   */\n  0x40\n    /* \"#utility.yul\":438:447   */\n  mload\n    /* \"#utility.yul\":412:414   */\n  0x1f\n    /* \"#utility.yul\":498:511   */\n  dup4\n  add\n  not(0x1f)\n    /* \"#utility.yul\":494:516   */\n  swap1\n  dup2\n  and\n    /* \"#utility.yul\":518:520   */\n  0x3f\n    /* \"#utility.yul\":490:521   */\n  add\n    /* \"#utility.yul\":486:526   */\n  and\n    /* \"#utility.yul\":474:527   */\n  dup2\n  add\n  swap1\n    /* \"#utility.yul\":542:560   */\n  dup3\n  dup3\n  gt\n    /* \"#utility.yul\":562:584   */\n  dup2\n  dup4\n  lt\n    /* \"#utility.yul\":539:585   */\n  or\n    /* \"#utility.yul\":536:608   */\n  iszero\n  tag_53\n  jumpi\n    /* \"#utility.yul\":588:606   */\n  tag_53\n  tag_44\n  jump\t// in\ntag_53:\n    /* \"#utility.yul\":628:638   */\n  dup2\n    /* \"#utility.yul\":624:626   */\n  0x40\n    /* \"#utility.yul\":617:639   */\n  mstore\n    /* \"#utility.yul\":663:665   */\n  dup4\n    /* \"#utility.yul\":655:661   */\n  dup2\n    /* \"#utility.yul\":648:666   */\n  mstore\n    /* \"#utility.yul\":685:689   */\n  0x20\n    /* \"#utility.yul\":675:689   */\n  swap3\n  pop\n    /* \"#utility.yul\":730:733   */\n  dup7\n    /* \"#utility.yul\":725:727   */\n  dup4\n    /* \"#utility.yul\":720:722   */\n  dup6\n    /* \"#utility.yul\":712:718   */\n  dup9\n    /* \"#utility.yul\":708:723   */\n  add\n    /* \"#utility.yul\":704:728   */\n  add\n    /* \"#utility.yul\":701:734   */\n  gt\n    /* \"#utility.yul\":698:751   */\n  iszero\n  tag_54\n  jumpi\n    /* \"#utility.yul\":747:748   */\n  0x00\n    /* \"#utility.yul\":744:745   */\n  dup1\n    /* \"#utility.yul\":737:749   */\n  revert\n    /* \"#utility.yul\":698:751   */\ntag_54:\n    /* \"#utility.yul\":769:770   */\n  0x00\n    /* \"#utility.yul\":760:770   */\n  swap2\n  pop\n    /* \"#utility.yul\":779:912   */\ntag_55:\n    /* \"#utility.yul\":793:795   */\n  dup4\n    /* \"#utility.yul\":790:791   */\n  dup3\n    /* \"#utility.yul\":787:796   */\n  lt\n    /* \"#utility.yul\":779:912   */\n  iszero\n  tag_57\n  jumpi\n    /* \"#utility.yul\":881:895   */\n  dup6\n  dup3\n  add\n    /* \"#utility.yul\":877:900   */\n  dup4\n  add\n    /* \"#utility.yul\":871:901   */\n  mload\n    /* \"#utility.yul\":850:864   */\n  dup2\n  dup4\n  add\n    /* \"#utility.yul\":846:869   */\n  dup5\n  add\n    /* \"#utility.yul\":839:902   */\n  mstore\n    /* \"#utility.yul\":804:814   */\n  swap1\n  dup3\n  add\n  swap1\n    /* \"#utility.yul\":779:912   */\n  jump(tag_55)\ntag_57:\n    /* \"#utility.yul\":930:932   */\n  dup4\n    /* \"#utility.yul\":927:928   */\n  dup3\n    /* \"#utility.yul\":924:933   */\n  gt\n    /* \"#utility.yul\":921:1001   */\n  iszero\n  tag_58\n  jumpi\n    /* \"#utility.yul\":989:990   */\n  0x00\n    /* \"#utility.yul\":984:986   */\n  dup4\n    /* \"#utility.yul\":979:981   */\n  dup6\n    /* \"#utility.yul\":971:977   */\n  dup4\n    /* \"#utility.yul\":967:982   */\n  add\n    /* \"#utility.yul\":963:987   */\n  add\n    /* \"#utility.yul\":956:991   */\n  mstore\n    /* \"#utility.yul\":921:1001   */\ntag_58:\n    /* \"#utility.yul\":1019:1025   */\n  swap7\n    /* \"#utility.yul\":146:1031   */\n  swap6\n  pop\n  pop\n  pop\n  pop\n  pop\n  pop\n  jump\t// out\n    /* \"#utility.yul\":1036:1802   */\ntag_5:\n    /* \"#utility.yul\":1154:1160   */\n  0x00\n    /* \"#utility.yul\":1162:1168   */\n  dup1\n    /* \"#utility.yul\":1170:1176   */\n  0x00\n    /* \"#utility.yul\":1223:1225   */\n  0x60\n    /* \"#utility.yul\":1211:1220   */\n  dup5\n    /* \"#utility.yul\":1202:1209   */\n  dup7\n    /* \"#utility.yul\":1198:1221   */\n  sub\n    /* \"#utility.yul\":1194:1226   */\n  slt\n    /* \"#utility.yul\":1191:1243   */\n  iszero\n  tag_60\n  jumpi\n    /* \"#utility.yul\":1239:1240   */\n  0x00\n    /* \"#utility.yul\":1236:1237   */\n  dup1\n    /* \"#utility.yul\":1229:1241   */\n  revert\n    /* \"#utility.yul\":1191:1243   */\ntag_60:\n    /* \"#utility.yul\":1266:1282   */\n  dup4\n  mload\n  sub(shl(0x40, 0x01), 0x01)\n    /* \"#utility.yul\":1331:1345   */\n  dup1\n  dup3\n  gt\n    /* \"#utility.yul\":1328:1362   */\n  iszero\n  tag_61\n  jumpi\n    /* \"#utility.yul\":1358:1359   */\n  0x00\n    /* \"#utility.yul\":1355:1356   */\n  dup1\n    /* \"#utility.yul\":1348:1360   */\n  revert\n    /* \"#utility.yul\":1328:1362   */\ntag_61:\n    /* \"#utility.yul\":1381:1442   */\n  tag_62\n    /* \"#utility.yul\":1434:1441   */\n  dup8\n    /* \"#utility.yul\":1425:1431   */\n  dup4\n    /* \"#utility.yul\":1414:1423   */\n  dup9\n    /* \"#utility.yul\":1410:1432   */\n  add\n    /* \"#utility.yul\":1381:1442   */\n  tag_45\n  jump\t// in\ntag_62:\n    /* \"#utility.yul\":1371:1442   */\n  swap5\n  pop\n    /* \"#utility.yul\":1488:1490   */\n  0x20\n    /* \"#utility.yul\":1477:1486   */\n  dup7\n    /* \"#utility.yul\":1473:1491   */\n  add\n    /* \"#utility.yul\":1467:1492   */\n  mload\n    /* \"#utility.yul\":1451:1492   */\n  swap2\n  pop\n    /* \"#utility.yul\":1517:1519   */\n  dup1\n    /* \"#utility.yul\":1507:1515   */\n  dup3\n    /* \"#utility.yul\":1504:1520   */\n  gt\n    /* \"#utility.yul\":1501:1537   */\n  iszero\n  tag_63\n  jumpi\n    /* \"#utility.yul\":1533:1534   */\n  0x00\n    /* \"#utility.yul\":1530:1531   */\n  dup1\n    /* \"#utility.yul\":1523:1535   */\n  revert\n    /* \"#utility.yul\":1501:1537   */\ntag_63:\n    /* \"#utility.yul\":1556:1619   */\n  tag_64\n    /* \"#utility.yul\":1611:1618   */\n  dup8\n    /* \"#utility.yul\":1600:1608   */\n  dup4\n    /* \"#utility.yul\":1589:1598   */\n  dup9\n    /* \"#utility.yul\":1585:1609   */\n  add\n    /* \"#utility.yul\":1556:1619   */\n  tag_45\n  jump\t// in\ntag_64:\n    /* \"#utility.yul\":1546:1619   */\n  swap4\n  pop\n    /* \"#utility.yul\":1665:1667   */\n  0x40\n    /* \"#utility.yul\":1654:1663   */\n  dup7\n    /* \"#utility.yul\":1650:1668   */\n  add\n    /* \"#utility.yul\":1644:1669   */\n  mload\n    /* \"#utility.yul\":1628:1669   */\n  swap2\n  pop\n    /* \"#utility.yul\":1694:1696   */\n  dup1\n    /* \"#utility.yul\":1684:1692   */\n  dup3\n    /* \"#utility.yul\":1681:1697   */\n  gt\n    /* \"#utility.yul\":1678:1714   */\n  iszero\n  tag_65\n  jumpi\n    /* \"#utility.yul\":1710:1711   */\n  0x00\n    /* \"#utility.yul\":1707:1708   */\n  dup1\n    /* \"#utility.yul\":1700:1712   */\n  revert\n    /* \"#utility.yul\":1678:1714   */\ntag_65:\n  pop\n    /* \"#utility.yul\":1733:1796   */\n  tag_66\n    /* \"#utility.yul\":1788:1795   */\n  dup7\n    /* \"#utility.yul\":1777:1785   */\n  dup3\n    /* \"#utility.yul\":1766:1775   */\n  dup8\n    /* \"#utility.yul\":1762:1786   */\n  add\n    /* \"#utility.yul\":1733:1796   */\n  tag_45\n  jump\t// in\ntag_66:\n    /* \"#utility.yul\":1723:1796   */\n  swap2\n  pop\n  pop\n    /* \"#utility.yul\":1036:1802   */\n  swap3\n  pop\n  swap3\n  pop\n  swap3\n  jump\t// out\n    /* \"#utility.yul\":2168:2548   */\ntag_34:\n    /* \"#utility.yul\":2247:2248   */\n  0x01\n    /* \"#utility.yul\":2243:2255   */\n  dup2\n  dup2\n  shr\n  swap1\n    /* \"#utility.yul\":2290:2302   */\n  dup3\n  and\n  dup1\n    /* \"#utility.yul\":2311:2372   */\n  tag_69\n  jumpi\n    /* \"#utility.yul\":2365:2369   */\n  0x7f\n    /* \"#utility.yul\":2357:2363   */\n  dup3\n    /* \"#utility.yul\":2353:2370   */\n  and\n    /* \"#utility.yul\":2343:2370   */\n  swap2\n  pop\n    /* \"#utility.yul\":2311:2372   */\ntag_69:\n    /* \"#utility.yul\":2418:2420   */\n  0x20\n    /* \"#utility.yul\":2410:2416   */\n  dup3\n    /* \"#utility.yul\":2407:2421   */\n  lt\n    /* \"#utility.yul\":2387:2405   */\n  dup2\n    /* \"#utility.yul\":2384:2422   */\n  sub\n    /* \"#utility.yul\":2381:2542   */\n  tag_70\n  jumpi\n    /* \"#utility.yul\":2464:2474   */\n  0x4e487b71\n    /* \"#utility.yul\":2459:2462   */\n  0xe0\n    /* \"#utility.yul\":2455:2475   */\n  shl\n    /* \"#utility.yul\":2452:2453   */\n  0x00\n    /* \"#utility.yul\":2445:2476   */\n  mstore\n    /* \"#utility.yul\":2499:2503   */\n  0x22\n    /* \"#utility.yul\":2496:2497   */\n  0x04\n    /* \"#utility.yul\":2489:2504   */\n  mstore\n    /* \"#utility.yul\":2527:2531   */\n  0x24\n    /* \"#utility.yul\":2524:2525   */\n  0x00\n    /* \"#utility.yul\":2517:2532   */\n  revert\n    /* \"#utility.yul\":2381:2542   */\ntag_70:\n  pop\n    /* \"#utility.yul\":2168:2548   */\n  swap2\n  swap1\n  pop\n  jump\t// out\ntag_46:\n    /* \"Contracts/ERC721.sol\":25353:29135  contract NFT is ERC721Enumerable, Ownable {... */\n  dataSize(sub_0)\n  dup1\n  dataOffset(sub_0)\n  0x00\n  codecopy\n  0x00\n  return\nstop\n\nsub_0: assembly {\n        /* \"Contracts/ERC721.sol\":25353:29135  contract NFT is ERC721Enumerable, Ownable {... */\n      mstore(0x40, 0x80)\n      jumpi(tag_1, lt(calldatasize, 0x04))\n      shr(0xe0, calldataload(0x00))\n      dup1\n      0x6352211e\n      gt\n      tag_43\n      jumpi\n      dup1\n      0xb88d4fde\n      gt\n      tag_44\n      jumpi\n      dup1\n      0xd0eb26b0\n      gt\n      tag_45\n      jumpi\n      dup1\n      0xd0eb26b0\n      eq\n      tag_37\n      jumpi\n      dup1\n      0xd5abeb01\n      eq\n      tag_38\n      jumpi\n      dup1\n      0xda3ef23f\n      eq\n      tag_39\n      jumpi\n      dup1\n      0xe985e9c5\n      eq\n      tag_40\n      jumpi\n      dup1\n      0xedec5f27\n      eq\n      tag_41\n      jumpi\n      dup1\n      0xf2fde38b\n      eq\n      tag_42\n      jumpi\n      0x00\n      dup1\n      revert\n    tag_45:\n      dup1\n      0xb88d4fde\n      eq\n      tag_32\n      jumpi\n      dup1\n      0xba4e5c49\n      eq\n      tag_33\n      jumpi\n      dup1\n      0xba7d2c76\n      eq\n      tag_34\n      jumpi\n      dup1\n      0xc6682862\n      eq\n      tag_35\n      jumpi\n      dup1\n      0xc87b56dd\n      eq\n      tag_36\n      jumpi\n      0x00\n      dup1\n      revert\n    tag_44:\n      dup1\n      0x8da5cb5b\n      gt\n      tag_46\n      jumpi\n      dup1\n      0x8da5cb5b\n      eq\n      tag_27\n      jumpi\n      dup1\n      0x95d89b41\n      eq\n      tag_28\n      jumpi\n      dup1\n      0x9c70b512\n      eq\n      tag_29\n      jumpi\n      dup1\n      0xa0712d68\n      eq\n      tag_30\n      jumpi\n      dup1\n      0xa22cb465\n      eq\n      tag_31\n      jumpi\n      0x00\n      dup1\n      revert\n    tag_46:\n      dup1\n      0x6352211e\n      eq\n      tag_22\n      jumpi\n      dup1\n      0x6c0360eb\n      eq\n      tag_23\n      jumpi\n      dup1\n      0x70a08231\n      eq\n      tag_24\n      jumpi\n      dup1\n      0x715018a6\n      eq\n      tag_25\n      jumpi\n      dup1\n      0x7f00c7a6\n      eq\n      tag_26\n      jumpi\n      0x00\n      dup1\n      revert\n    tag_43:\n      dup1\n      0x2f745c59\n      gt\n      tag_47\n      jumpi\n      dup1\n      0x438b6300\n      gt\n      tag_48\n      jumpi\n      dup1\n      0x438b6300\n      eq\n      tag_17\n      jumpi\n      dup1\n      0x44a0d68a\n      eq\n      tag_18\n      jumpi\n      dup1\n      0x4f6ccce7\n      eq\n      tag_19\n      jumpi\n      dup1\n      0x55f804b3\n      eq\n      tag_20\n      jumpi\n      dup1\n      0x5c975abb\n      eq\n      tag_21\n      jumpi\n      0x00\n      dup1\n      revert\n    tag_48:\n      dup1\n      0x2f745c59\n      eq\n      tag_12\n      jumpi\n      dup1\n      0x3af32abf\n      eq\n      tag_13\n      jumpi\n      dup1\n      0x3c952764\n      eq\n      tag_14\n      jumpi\n      dup1\n      0x3ccfd60b\n      eq\n      tag_15\n      jumpi\n      dup1\n      0x42842e0e\n      eq\n      tag_16\n      jumpi\n      0x00\n      dup1\n      revert\n    tag_47:\n      dup1\n      0x13faede6\n      gt\n      tag_49\n      jumpi\n      dup1\n      0x13faede6\n      eq\n      tag_7\n      jumpi\n      dup1\n      0x18160ddd\n      eq\n      tag_8\n      jumpi\n      dup1\n      0x18cae269\n      eq\n      tag_9\n      jumpi\n      dup1\n      0x239c70ae\n      eq\n      tag_10\n      jumpi\n      dup1\n      0x23b872dd\n      eq\n      tag_11\n      jumpi\n      0x00\n      dup1\n      revert\n    tag_49:\n      dup1\n      0x01ffc9a7\n      eq\n      tag_2\n      jumpi\n      dup1\n      0x02329a29\n      eq\n      tag_3\n      jumpi\n      dup1\n      0x06fdde03\n      eq\n      tag_4\n      jumpi\n      dup1\n      0x081812fc\n      eq\n      tag_5\n      jumpi\n      dup1\n      0x095ea7b3\n      eq\n      tag_6\n      jumpi\n    tag_1:\n      0x00\n      dup1\n      revert\n        /* \"Contracts/ERC721.sol\":20207:20431  function supportsInterface(bytes4 interfaceId) public view virtual override(IERC165, ERC721) returns (bool) {... */\n    tag_2:\n      callvalue\n      dup1\n      iszero\n      tag_50\n      jumpi\n      0x00\n      dup1\n      revert\n    tag_50:\n      pop\n      tag_51\n      tag_52\n      calldatasize\n      0x04\n      tag_53\n      jump\t// in\n    tag_52:\n      tag_54\n      jump\t// in\n    tag_51:\n      mload(0x40)\n        /* \"#utility.yul\":565:579   */\n      swap1\n      iszero\n        /* \"#utility.yul\":558:580   */\n      iszero\n        /* \"#utility.yul\":540:581   */\n      dup2\n      mstore\n        /* \"#utility.yul\":528:530   */\n      0x20\n        /* \"#utility.yul\":513:531   */\n      add\n        /* \"Contracts/ERC721.sol\":20207:20431  function supportsInterface(bytes4 interfaceId) public view virtual override(IERC165, ERC721) returns (bool) {... */\n    tag_55:\n      mload(0x40)\n      dup1\n      swap2\n      sub\n      swap1\n      return\n        /* \"Contracts/ERC721.sol\":28652:28725  function pause(bool _state) public onlyOwner {... */\n    tag_3:\n      callvalue\n      dup1\n      iszero\n      tag_57\n      jumpi\n      0x00\n      dup1\n      revert\n    tag_57:\n      pop\n      tag_58\n      tag_59\n      calldatasize\n      0x04\n      tag_60\n      jump\t// in\n    tag_59:\n      tag_61\n      jump\t// in\n    tag_58:\n      stop\n        /* \"Contracts/ERC721.sol\":12042:12142  function name() public view virtual override returns (string memory) {... */\n    tag_4:\n      callvalue\n      dup1\n      iszero\n      tag_62\n      jumpi\n      0x00\n      dup1\n      revert\n    tag_62:\n      pop\n      tag_63\n      tag_64\n      jump\t// in\n    tag_63:\n      mload(0x40)\n      tag_55\n      swap2\n      swap1\n      tag_66\n      jump\t// in\n        /* \"Contracts/ERC721.sol\":13601:13822  function getApproved(uint256 tokenId) public view virtual override returns (address) {... */\n    tag_5:\n      callvalue\n      dup1\n      iszero\n      tag_67\n      jumpi\n      0x00\n      dup1\n      revert\n    tag_67:\n      pop\n      tag_68\n      tag_69\n      calldatasize\n      0x04\n      tag_70\n      jump\t// in\n    tag_69:\n      tag_71\n      jump\t// in\n    tag_68:\n      mload(0x40)\n      sub(shl(0xa0, 0x01), 0x01)\n        /* \"#utility.yul\":2042:2074   */\n      swap1\n      swap2\n      and\n        /* \"#utility.yul\":2024:2075   */\n      dup2\n      mstore\n        /* \"#utility.yul\":2012:2014   */\n      0x20\n        /* \"#utility.yul\":1997:2015   */\n      add\n        /* \"Contracts/ERC721.sol\":13601:13822  function getApproved(uint256 tokenId) public view virtual override returns (address) {... */\n      tag_55\n        /* \"#utility.yul\":1878:2081   */\n      jump\n        /* \"Contracts/ERC721.sol\":13124:13535  function approve(address to, uint256 tokenId) public virtual override {... */\n    tag_6:\n      callvalue\n      dup1\n      iszero\n      tag_74\n      jumpi\n      0x00\n      dup1\n      revert\n    tag_74:\n      pop\n      tag_58\n      tag_76\n      calldatasize\n      0x04\n      tag_77\n      jump\t// in\n    tag_76:\n      tag_78\n      jump\t// in\n        /* \"Contracts/ERC721.sol\":25500:25532  uint256 public cost = 0.05 ether */\n    tag_7:\n      callvalue\n      dup1\n      iszero\n      tag_79\n      jumpi\n      0x00\n      dup1\n      revert\n    tag_79:\n      pop\n      tag_80\n      sload(0x0d)\n      dup2\n      jump\n    tag_80:\n      mload(0x40)\n        /* \"#utility.yul\":2669:2694   */\n      swap1\n      dup2\n      mstore\n        /* \"#utility.yul\":2657:2659   */\n      0x20\n        /* \"#utility.yul\":2642:2660   */\n      add\n        /* \"Contracts/ERC721.sol\":25500:25532  uint256 public cost = 0.05 ether */\n      tag_55\n        /* \"#utility.yul\":2523:2700   */\n      jump\n        /* \"Contracts/ERC721.sol\":20847:20960  function totalSupply() public view virtual override returns (uint256) {... */\n    tag_8:\n      callvalue\n      dup1\n      iszero\n      tag_84\n      jumpi\n      0x00\n      dup1\n      revert\n    tag_84:\n      pop\n        /* \"Contracts/ERC721.sol\":20935:20945  _allTokens */\n      0x08\n        /* \"Contracts/ERC721.sol\":20935:20952  _allTokens.length */\n      sload\n        /* \"Contracts/ERC721.sol\":20847:20960  function totalSupply() public view virtual override returns (uint256) {... */\n      jump(tag_80)\n        /* \"Contracts/ERC721.sol\":25766:25821  mapping(address => uint256) public addressMintedBalance */\n    tag_9:\n      callvalue\n      dup1\n      iszero\n      tag_88\n      jumpi\n      0x00\n      dup1\n      revert\n    tag_88:\n      pop\n      tag_80\n      tag_90\n      calldatasize\n      0x04\n      tag_91\n      jump\t// in\n    tag_90:\n      mstore(0x20, 0x13)\n      0x00\n      swap1\n      dup2\n      mstore\n      0x40\n      swap1\n      keccak256\n      sload\n      dup2\n      jump\n        /* \"Contracts/ERC721.sol\":25574:25607  uint256 public maxMintAmount = 20 */\n    tag_10:\n      callvalue\n      dup1\n      iszero\n      tag_94\n      jumpi\n      0x00\n      dup1\n      revert\n    tag_94:\n      pop\n      tag_80\n      sload(0x0f)\n      dup2\n      jump\n        /* \"Contracts/ERC721.sol\":14491:14830  function transferFrom(... */\n    tag_11:\n      callvalue\n      dup1\n      iszero\n      tag_98\n      jumpi\n      0x00\n      dup1\n      revert\n    tag_98:\n      pop\n      tag_58\n      tag_100\n      calldatasize\n      0x04\n      tag_101\n      jump\t// in\n    tag_100:\n      tag_102\n      jump\t// in\n        /* \"Contracts/ERC721.sol\":20515:20771  function tokenOfOwnerByIndex(address owner, uint256 index) public view virtual override returns (uint256) {... */\n    tag_12:\n      callvalue\n      dup1\n      iszero\n      tag_103\n      jumpi\n      0x00\n      dup1\n      revert\n    tag_103:\n      pop\n      tag_80\n      tag_105\n      calldatasize\n      0x04\n      tag_77\n      jump\t// in\n    tag_105:\n      tag_106\n      jump\t// in\n        /* \"Contracts/ERC721.sol\":27062:27301  function isWhitelisted(address _user) public view returns (bool) {... */\n    tag_13:\n      callvalue\n      dup1\n      iszero\n      tag_108\n      jumpi\n      0x00\n      dup1\n      revert\n    tag_108:\n      pop\n      tag_51\n      tag_110\n      calldatasize\n      0x04\n      tag_91\n      jump\t// in\n    tag_110:\n      tag_111\n      jump\t// in\n        /* \"Contracts/ERC721.sol\":28733:28828  function setOnlyWhitelisted(bool _state) public onlyOwner {... */\n    tag_14:\n      callvalue\n      dup1\n      iszero\n      tag_113\n      jumpi\n      0x00\n      dup1\n      revert\n    tag_113:\n      pop\n      tag_58\n      tag_115\n      calldatasize\n      0x04\n      tag_60\n      jump\t// in\n    tag_115:\n      tag_116\n      jump\t// in\n        /* \"Contracts/ERC721.sol\":28987:29132  function withdraw() public payable onlyOwner {... */\n    tag_15:\n      tag_58\n      tag_118\n      jump\t// in\n        /* \"Contracts/ERC721.sol\":14901:15086  function safeTransferFrom(... */\n    tag_16:\n      callvalue\n      dup1\n      iszero\n      tag_119\n      jumpi\n      0x00\n      dup1\n      revert\n    tag_119:\n      pop\n      tag_58\n      tag_121\n      calldatasize\n      0x04\n      tag_101\n      jump\t// in\n    tag_121:\n      tag_122\n      jump\t// in\n        /* \"Contracts/ERC721.sol\":27307:27655  function walletOfOwner(address _owner)... */\n    tag_17:\n      callvalue\n      dup1\n      iszero\n      tag_123\n      jumpi\n      0x00\n      dup1\n      revert\n    tag_123:\n      pop\n      tag_124\n      tag_125\n      calldatasize\n      0x04\n      tag_91\n      jump\t// in\n    tag_125:\n      tag_126\n      jump\t// in\n    tag_124:\n      mload(0x40)\n      tag_55\n      swap2\n      swap1\n      tag_128\n      jump\t// in\n        /* \"Contracts/ERC721.sol\":28208:28288  function setCost(uint256 _newCost) public onlyOwner {... */\n    tag_18:\n      callvalue\n      dup1\n      iszero\n      tag_129\n      jumpi\n      0x00\n      dup1\n      revert\n    tag_129:\n      pop\n      tag_58\n      tag_131\n      calldatasize\n      0x04\n      tag_70\n      jump\t// in\n    tag_131:\n      tag_132\n      jump\t// in\n        /* \"Contracts/ERC721.sol\":21037:21270  function tokenByIndex(uint256 index) public view virtual override returns (uint256) {... */\n    tag_19:\n      callvalue\n      dup1\n      iszero\n      tag_133\n      jumpi\n      0x00\n      dup1\n      revert\n    tag_133:\n      pop\n      tag_80\n      tag_135\n      calldatasize\n      0x04\n      tag_70\n      jump\t// in\n    tag_135:\n      tag_136\n      jump\t// in\n        /* \"Contracts/ERC721.sol\":28416:28514  function setBaseURI(string memory _newBaseURI) public onlyOwner {... */\n    tag_20:\n      callvalue\n      dup1\n      iszero\n      tag_138\n      jumpi\n      0x00\n      dup1\n      revert\n    tag_138:\n      pop\n      tag_58\n      tag_140\n      calldatasize\n      0x04\n      tag_141\n      jump\t// in\n    tag_140:\n      tag_142\n      jump\t// in\n        /* \"Contracts/ERC721.sol\":25654:25680  bool public paused = false */\n    tag_21:\n      callvalue\n      dup1\n      iszero\n      tag_143\n      jumpi\n      0x00\n      dup1\n      revert\n    tag_143:\n      pop\n      sload(0x11)\n      tag_51\n      swap1\n      0xff\n      and\n      dup2\n      jump\n        /* \"Contracts/ERC721.sol\":11736:11975  function ownerOf(uint256 tokenId) public view virtual override returns (address) {... */\n    tag_22:\n      callvalue\n      dup1\n      iszero\n      tag_147\n      jumpi\n      0x00\n      dup1\n      revert\n    tag_147:\n      pop\n      tag_68\n      tag_149\n      calldatasize\n      0x04\n      tag_70\n      jump\t// in\n    tag_149:\n      tag_150\n      jump\t// in\n        /* \"Contracts/ERC721.sol\":25432:25453  string public baseURI */\n    tag_23:\n      callvalue\n      dup1\n      iszero\n      tag_152\n      jumpi\n      0x00\n      dup1\n      revert\n    tag_152:\n      pop\n      tag_63\n      tag_154\n      jump\t// in\n        /* \"Contracts/ERC721.sol\":11466:11674  function balanceOf(address owner) public view virtual override returns (uint256) {... */\n    tag_24:\n      callvalue\n      dup1\n      iszero\n      tag_156\n      jumpi\n      0x00\n      dup1\n      revert\n    tag_156:\n      pop\n      tag_80\n      tag_158\n      calldatasize\n      0x04\n      tag_91\n      jump\t// in\n    tag_158:\n      tag_159\n      jump\t// in\n        /* \"Contracts/ERC721.sol\":24871:24965  function renounceOwnership() public virtual onlyOwner {... */\n    tag_25:\n      callvalue\n      dup1\n      iszero\n      tag_161\n      jumpi\n      0x00\n      dup1\n      revert\n    tag_161:\n      pop\n      tag_58\n      tag_163\n      jump\t// in\n        /* \"Contracts/ERC721.sol\":28294:28410  function setmaxMintAmount(uint256 _newmaxMintAmount) public onlyOwner {... */\n    tag_26:\n      callvalue\n      dup1\n      iszero\n      tag_164\n      jumpi\n      0x00\n      dup1\n      revert\n    tag_164:\n      pop\n      tag_58\n      tag_166\n      calldatasize\n      0x04\n      tag_70\n      jump\t// in\n    tag_166:\n      tag_167\n      jump\t// in\n        /* \"Contracts/ERC721.sol\":24563:24650  function owner() public view virtual returns (address) {... */\n    tag_27:\n      callvalue\n      dup1\n      iszero\n      tag_168\n      jumpi\n      0x00\n      dup1\n      revert\n    tag_168:\n      pop\n        /* \"Contracts/ERC721.sol\":24636:24642  _owner */\n      and(sub(shl(0xa0, 0x01), 0x01), sload(0x0a))\n        /* \"Contracts/ERC721.sol\":24563:24650  function owner() public view virtual returns (address) {... */\n      jump(tag_68)\n        /* \"Contracts/ERC721.sol\":12211:12315  function symbol() public view virtual override returns (string memory) {... */\n    tag_28:\n      callvalue\n      dup1\n      iszero\n      tag_172\n      jumpi\n      0x00\n      dup1\n      revert\n    tag_172:\n      pop\n      tag_63\n      tag_174\n      jump\t// in\n        /* \"Contracts/ERC721.sol\":25685:25719  bool public onlyWhitelisted = true */\n    tag_29:\n      callvalue\n      dup1\n      iszero\n      tag_176\n      jumpi\n      0x00\n      dup1\n      revert\n    tag_176:\n      pop\n      sload(0x11)\n      tag_51\n      swap1\n      0x0100\n      swap1\n      div\n      0xff\n      and\n      dup2\n      jump\n        /* \"Contracts/ERC721.sol\":26123:27054  function mint(uint256 _mintAmount) public payable {... */\n    tag_30:\n      tag_58\n      tag_181\n      calldatasize\n      0x04\n      tag_70\n      jump\t// in\n    tag_181:\n      tag_182\n      jump\t// in\n        /* \"Contracts/ERC721.sol\":13894:14189  function setApprovalForAll(address operator, bool approved) public virtual override {... */\n    tag_31:\n      callvalue\n      dup1\n      iszero\n      tag_183\n      jumpi\n      0x00\n      dup1\n      revert\n    tag_183:\n      pop\n      tag_58\n      tag_185\n      calldatasize\n      0x04\n      tag_186\n      jump\t// in\n    tag_185:\n      tag_187\n      jump\t// in\n        /* \"Contracts/ERC721.sol\":15157:15485  function safeTransferFrom(... */\n    tag_32:\n      callvalue\n      dup1\n      iszero\n      tag_188\n      jumpi\n      0x00\n      dup1\n      revert\n    tag_188:\n      pop\n      tag_58\n      tag_190\n      calldatasize\n      0x04\n      tag_191\n      jump\t// in\n    tag_190:\n      tag_192\n      jump\t// in\n        /* \"Contracts/ERC721.sol\":25724:25761  address[] public whitelistedAddresses */\n    tag_33:\n      callvalue\n      dup1\n      iszero\n      tag_193\n      jumpi\n      0x00\n      dup1\n      revert\n    tag_193:\n      pop\n      tag_68\n      tag_195\n      calldatasize\n      0x04\n      tag_70\n      jump\t// in\n    tag_195:\n      tag_196\n      jump\t// in\n        /* \"Contracts/ERC721.sol\":25612:25649  uint256 public nftPerAddressLimit = 3 */\n    tag_34:\n      callvalue\n      dup1\n      iszero\n      tag_198\n      jumpi\n      0x00\n      dup1\n      revert\n    tag_198:\n      pop\n      tag_80\n      sload(0x10)\n      dup2\n      jump\n        /* \"Contracts/ERC721.sol\":25458:25495  string public baseExtension = \".json\" */\n    tag_35:\n      callvalue\n      dup1\n      iszero\n      tag_202\n      jumpi\n      0x00\n      dup1\n      revert\n    tag_202:\n      pop\n      tag_63\n      tag_204\n      jump\t// in\n        /* \"Contracts/ERC721.sol\":27661:28088  function tokenURI(uint256 tokenId)... */\n    tag_36:\n      callvalue\n      dup1\n      iszero\n      tag_206\n      jumpi\n      0x00\n      dup1\n      revert\n    tag_206:\n      pop\n      tag_63\n      tag_208\n      calldatasize\n      0x04\n      tag_70\n      jump\t// in\n    tag_208:\n      tag_209\n      jump\t// in\n        /* \"Contracts/ERC721.sol\":28096:28200  function setNftPerAddressLimit(uint256 _limit) public onlyOwner {... */\n    tag_37:\n      callvalue\n      dup1\n      iszero\n      tag_211\n      jumpi\n      0x00\n      dup1\n      revert\n    tag_211:\n      pop\n      tag_58\n      tag_213\n      calldatasize\n      0x04\n      tag_70\n      jump\t// in\n    tag_213:\n      tag_214\n      jump\t// in\n        /* \"Contracts/ERC721.sol\":25537:25569  uint256 public maxSupply = 10000 */\n    tag_38:\n      callvalue\n      dup1\n      iszero\n      tag_215\n      jumpi\n      0x00\n      dup1\n      revert\n    tag_215:\n      pop\n      tag_80\n      sload(0x0e)\n      dup2\n      jump\n        /* \"Contracts/ERC721.sol\":28522:28644  function setBaseExtension(string memory _newBaseExtension) public onlyOwner {... */\n    tag_39:\n      callvalue\n      dup1\n      iszero\n      tag_219\n      jumpi\n      0x00\n      dup1\n      revert\n    tag_219:\n      pop\n      tag_58\n      tag_221\n      calldatasize\n      0x04\n      tag_141\n      jump\t// in\n    tag_221:\n      tag_222\n      jump\t// in\n        /* \"Contracts/ERC721.sol\":14260:14424  function isApprovedForAll(address owner, address operator) public view virtual override returns (bool) {... */\n    tag_40:\n      callvalue\n      dup1\n      iszero\n      tag_223\n      jumpi\n      0x00\n      dup1\n      revert\n    tag_223:\n      pop\n      tag_51\n      tag_225\n      calldatasize\n      0x04\n      tag_226\n      jump\t// in\n    tag_225:\n      sub(shl(0xa0, 0x01), 0x01)\n        /* \"Contracts/ERC721.sol\":14381:14406  _operatorApprovals[owner] */\n      swap2\n      dup3\n      and\n        /* \"Contracts/ERC721.sol\":14357:14361  bool */\n      0x00\n        /* \"Contracts/ERC721.sol\":14381:14406  _operatorApprovals[owner] */\n      swap1\n      dup2\n      mstore\n        /* \"Contracts/ERC721.sol\":14381:14399  _operatorApprovals */\n      0x05\n        /* \"Contracts/ERC721.sol\":14381:14406  _operatorApprovals[owner] */\n      0x20\n      swap1\n      dup2\n      mstore\n      0x40\n      dup1\n      dup4\n      keccak256\n        /* \"Contracts/ERC721.sol\":14381:14416  _operatorApprovals[owner][operator] */\n      swap4\n      swap1\n      swap5\n      and\n      dup3\n      mstore\n      swap2\n      swap1\n      swap2\n      mstore\n      keccak256\n      sload\n      0xff\n      and\n      swap1\n        /* \"Contracts/ERC721.sol\":14260:14424  function isApprovedForAll(address owner, address operator) public view virtual override returns (bool) {... */\n      jump\n        /* \"Contracts/ERC721.sol\":28836:28980  function whitelistUsers(address[] calldata _users) public onlyOwner {... */\n    tag_41:\n      callvalue\n      dup1\n      iszero\n      tag_229\n      jumpi\n      0x00\n      dup1\n      revert\n    tag_229:\n      pop\n      tag_58\n      tag_231\n      calldatasize\n      0x04\n      tag_232\n      jump\t// in\n    tag_231:\n      tag_233\n      jump\t// in\n        /* \"Contracts/ERC721.sol\":24973:25165  function transferOwnership(address newOwner) public virtual onlyOwner {... */\n    tag_42:\n      callvalue\n      dup1\n      iszero\n      tag_234\n      jumpi\n      0x00\n      dup1\n      revert\n    tag_234:\n      pop\n      tag_58\n      tag_236\n      calldatasize\n      0x04\n      tag_91\n      jump\t// in\n    tag_236:\n      tag_237\n      jump\t// in\n        /* \"Contracts/ERC721.sol\":20207:20431  function supportsInterface(bytes4 interfaceId) public view virtual override(IERC165, ERC721) returns (bool) {... */\n    tag_54:\n        /* \"Contracts/ERC721.sol\":20309:20313  bool */\n      0x00\n      not(sub(shl(0xe0, 0x01), 0x01))\n        /* \"Contracts/ERC721.sol\":20333:20383  interfaceId == type(IERC721Enumerable).interfaceId */\n      dup3\n      and\n      shl(0xe0, 0x780e9d63)\n      eq\n      dup1\n        /* \"Contracts/ERC721.sol\":20333:20423  interfaceId == type(IERC721Enumerable).interfaceId || super.supportsInterface(interfaceId) */\n      tag_240\n      jumpi\n      pop\n        /* \"Contracts/ERC721.sol\":20387:20423  super.supportsInterface(interfaceId) */\n      tag_240\n        /* \"Contracts/ERC721.sol\":20411:20422  interfaceId */\n      dup3\n        /* \"Contracts/ERC721.sol\":20387:20410  super.supportsInterface */\n      tag_241\n        /* \"Contracts/ERC721.sol\":20387:20423  super.supportsInterface(interfaceId) */\n      jump\t// in\n    tag_240:\n        /* \"Contracts/ERC721.sol\":20326:20423  return interfaceId == type(IERC721Enumerable).interfaceId || super.supportsInterface(interfaceId) */\n      swap3\n        /* \"Contracts/ERC721.sol\":20207:20431  function supportsInterface(bytes4 interfaceId) public view virtual override(IERC165, ERC721) returns (bool) {... */\n      swap2\n      pop\n      pop\n      jump\t// out\n        /* \"Contracts/ERC721.sol\":28652:28725  function pause(bool _state) public onlyOwner {... */\n    tag_61:\n        /* \"Contracts/ERC721.sol\":24636:24642  _owner */\n      and(sub(shl(0xa0, 0x01), 0x01), sload(0x0a))\n        /* \"Contracts/ERC721.sol\":9988:9998  msg.sender */\n      caller\n        /* \"Contracts/ERC721.sol\":24783:24806  owner() == _msgSender() */\n      eq\n        /* \"Contracts/ERC721.sol\":24775:24843  require(owner() == _msgSender(), \"Ownable: caller is not the owner\") */\n      tag_246\n      jumpi\n      mload(0x40)\n      shl(0xe5, 0x461bcd)\n      dup2\n      mstore\n      0x04\n      add\n      tag_247\n      swap1\n      tag_248\n      jump\t// in\n    tag_247:\n      mload(0x40)\n      dup1\n      swap2\n      sub\n      swap1\n      revert\n    tag_246:\n        /* \"Contracts/ERC721.sol\":28704:28710  paused */\n      0x11\n        /* \"Contracts/ERC721.sol\":28704:28719  paused = _state */\n      dup1\n      sload\n      not(0xff)\n      and\n      swap2\n      iszero\n      iszero\n      swap2\n      swap1\n      swap2\n      or\n      swap1\n      sstore\n        /* \"Contracts/ERC721.sol\":28652:28725  function pause(bool _state) public onlyOwner {... */\n      jump\t// out\n        /* \"Contracts/ERC721.sol\":12042:12142  function name() public view virtual override returns (string memory) {... */\n    tag_64:\n        /* \"Contracts/ERC721.sol\":12096:12109  string memory */\n      0x60\n        /* \"Contracts/ERC721.sol\":12129:12134  _name */\n      0x00\n        /* \"Contracts/ERC721.sol\":12122:12134  return _name */\n      dup1\n      sload\n      tag_251\n      swap1\n      tag_252\n      jump\t// in\n    tag_251:\n      dup1\n      0x1f\n      add\n      0x20\n      dup1\n      swap2\n      div\n      mul\n      0x20\n      add\n      mload(0x40)\n      swap1\n      dup2\n      add\n      0x40\n      mstore\n      dup1\n      swap3\n      swap2\n      swap1\n      dup2\n      dup2\n      mstore\n      0x20\n      add\n      dup3\n      dup1\n      sload\n      tag_253\n      swap1\n      tag_252\n      jump\t// in\n    tag_253:\n      dup1\n      iszero\n      tag_254\n      jumpi\n      dup1\n      0x1f\n      lt\n      tag_255\n      jumpi\n      0x0100\n      dup1\n      dup4\n      sload\n      div\n      mul\n      dup4\n      mstore\n      swap2\n      0x20\n      add\n      swap2\n      jump(tag_254)\n    tag_255:\n      dup3\n      add\n      swap2\n      swap1\n      0x00\n      mstore\n      keccak256(0x00, 0x20)\n      swap1\n    tag_256:\n      dup2\n      sload\n      dup2\n      mstore\n      swap1\n      0x01\n      add\n      swap1\n      0x20\n      add\n      dup1\n      dup4\n      gt\n      tag_256\n      jumpi\n      dup3\n      swap1\n      sub\n      0x1f\n      and\n      dup3\n      add\n      swap2\n    tag_254:\n      pop\n      pop\n      pop\n      pop\n      pop\n      swap1\n      pop\n        /* \"Contracts/ERC721.sol\":12042:12142  function name() public view virtual override returns (string memory) {... */\n      swap1\n      jump\t// out\n        /* \"Contracts/ERC721.sol\":13601:13822  function getApproved(uint256 tokenId) public view virtual override returns (address) {... */\n    tag_71:\n        /* \"Contracts/ERC721.sol\":13677:13684  address */\n      0x00\n        /* \"Contracts/ERC721.sol\":15905:15921  _owners[tokenId] */\n      dup2\n      dup2\n      mstore\n        /* \"Contracts/ERC721.sol\":15905:15912  _owners */\n      0x02\n        /* \"Contracts/ERC721.sol\":15905:15921  _owners[tokenId] */\n      0x20\n      mstore\n      0x40\n      dup2\n      keccak256\n      sload\n      sub(shl(0xa0, 0x01), 0x01)\n      and\n        /* \"Contracts/ERC721.sol\":13697:13770  require(_exists(tokenId), \"ERC721: approved query for nonexistent token\") */\n      tag_260\n      jumpi\n      mload(0x40)\n      shl(0xe5, 0x461bcd)\n      dup2\n      mstore\n        /* \"#utility.yul\":7855:7857   */\n      0x20\n        /* \"Contracts/ERC721.sol\":13697:13770  require(_exists(tokenId), \"ERC721: approved query for nonexistent token\") */\n      0x04\n      dup3\n      add\n        /* \"#utility.yul\":7837:7858   */\n      mstore\n        /* \"#utility.yul\":7894:7896   */\n      0x2c\n        /* \"#utility.yul\":7874:7892   */\n      0x24\n      dup3\n      add\n        /* \"#utility.yul\":7867:7897   */\n      mstore\n        /* \"#utility.yul\":7933:7967   */\n      0x4552433732313a20617070726f76656420717565727920666f72206e6f6e6578\n        /* \"#utility.yul\":7913:7931   */\n      0x44\n      dup3\n      add\n        /* \"#utility.yul\":7906:7968   */\n      mstore\n      shl(0xa1, 0x34b9ba32b73a103a37b5b2b7)\n        /* \"#utility.yul\":7984:8002   */\n      0x64\n      dup3\n      add\n        /* \"#utility.yul\":7977:8019   */\n      mstore\n        /* \"#utility.yul\":8036:8055   */\n      0x84\n      add\n        /* \"Contracts/ERC721.sol\":13697:13770  require(_exists(tokenId), \"ERC721: approved query for nonexistent token\") */\n      tag_247\n        /* \"#utility.yul\":7653:8061   */\n      jump\n        /* \"Contracts/ERC721.sol\":13697:13770  require(_exists(tokenId), \"ERC721: approved query for nonexistent token\") */\n    tag_260:\n      pop\n        /* \"Contracts/ERC721.sol\":13790:13814  _tokenApprovals[tokenId] */\n      0x00\n      swap1\n      dup2\n      mstore\n        /* \"Contracts/ERC721.sol\":13790:13805  _tokenApprovals */\n      0x04\n        /* \"Contracts/ERC721.sol\":13790:13814  _tokenApprovals[tokenId] */\n      0x20\n      mstore\n      0x40\n      swap1\n      keccak256\n      sload\n      sub(shl(0xa0, 0x01), 0x01)\n      and\n      swap1\n        /* \"Contracts/ERC721.sol\":13601:13822  function getApproved(uint256 tokenId) public view virtual override returns (address) {... */\n      jump\t// out\n        /* \"Contracts/ERC721.sol\":13124:13535  function approve(address to, uint256 tokenId) public virtual override {... */\n    tag_78:\n        /* \"Contracts/ERC721.sol\":13205:13218  address owner */\n      0x00\n        /* \"Contracts/ERC721.sol\":13221:13244  ERC721.ownerOf(tokenId) */\n      tag_264\n        /* \"Contracts/ERC721.sol\":13236:13243  tokenId */\n      dup3\n        /* \"Contracts/ERC721.sol\":13221:13235  ERC721.ownerOf */\n      tag_150\n        /* \"Contracts/ERC721.sol\":13221:13244  ERC721.ownerOf(tokenId) */\n      jump\t// in\n    tag_264:\n        /* \"Contracts/ERC721.sol\":13205:13244  address owner = ERC721.ownerOf(tokenId) */\n      swap1\n      pop\n        /* \"Contracts/ERC721.sol\":13269:13274  owner */\n      dup1\n      sub(shl(0xa0, 0x01), 0x01)\n        /* \"Contracts/ERC721.sol\":13263:13274  to != owner */\n      and\n        /* \"Contracts/ERC721.sol\":13263:13265  to */\n      dup4\n      sub(shl(0xa0, 0x01), 0x01)\n        /* \"Contracts/ERC721.sol\":13263:13274  to != owner */\n      and\n      sub\n        /* \"Contracts/ERC721.sol\":13255:13312  require(to != owner, \"ERC721: approval to current owner\") */\n      tag_265\n      jumpi\n      mload(0x40)\n      shl(0xe5, 0x461bcd)\n      dup2\n      mstore\n        /* \"#utility.yul\":8268:8270   */\n      0x20\n        /* \"Contracts/ERC721.sol\":13255:13312  require(to != owner, \"ERC721: approval to current owner\") */\n      0x04\n      dup3\n      add\n        /* \"#utility.yul\":8250:8271   */\n      mstore\n        /* \"#utility.yul\":8307:8309   */\n      0x21\n        /* \"#utility.yul\":8287:8305   */\n      0x24\n      dup3\n      add\n        /* \"#utility.yul\":8280:8310   */\n      mstore\n        /* \"#utility.yul\":8346:8380   */\n      0x4552433732313a20617070726f76616c20746f2063757272656e74206f776e65\n        /* \"#utility.yul\":8326:8344   */\n      0x44\n      dup3\n      add\n        /* \"#utility.yul\":8319:8381   */\n      mstore\n      shl(0xf9, 0x39)\n        /* \"#utility.yul\":8397:8415   */\n      0x64\n      dup3\n      add\n        /* \"#utility.yul\":8390:8421   */\n      mstore\n        /* \"#utility.yul\":8438:8457   */\n      0x84\n      add\n        /* \"Contracts/ERC721.sol\":13255:13312  require(to != owner, \"ERC721: approval to current owner\") */\n      tag_247\n        /* \"#utility.yul\":8066:8463   */\n      jump\n        /* \"Contracts/ERC721.sol\":13255:13312  require(to != owner, \"ERC721: approval to current owner\") */\n    tag_265:\n        /* \"Contracts/ERC721.sol\":9988:9998  msg.sender */\n      caller\n      sub(shl(0xa0, 0x01), 0x01)\n        /* \"Contracts/ERC721.sol\":13347:13368  _msgSender() == owner */\n      dup3\n      and\n      eq\n      dup1\n        /* \"Contracts/ERC721.sol\":13347:13409  _msgSender() == owner || isApprovedForAll(owner, _msgSender()) */\n      tag_270\n      jumpi\n      pop\n        /* \"Contracts/ERC721.sol\":13372:13409  isApprovedForAll(owner, _msgSender()) */\n      tag_270\n        /* \"Contracts/ERC721.sol\":13389:13394  owner */\n      dup2\n        /* \"Contracts/ERC721.sol\":9988:9998  msg.sender */\n      caller\n        /* \"Contracts/ERC721.sol\":14260:14424  function isApprovedForAll(address owner, address operator) public view virtual override returns (bool) {... */\n      tag_225\n      jump\t// in\n        /* \"Contracts/ERC721.sol\":13372:13409  isApprovedForAll(owner, _msgSender()) */\n    tag_270:\n        /* \"Contracts/ERC721.sol\":13325:13493  require(... */\n      tag_272\n      jumpi\n      mload(0x40)\n      shl(0xe5, 0x461bcd)\n      dup2\n      mstore\n        /* \"#utility.yul\":8670:8672   */\n      0x20\n        /* \"Contracts/ERC721.sol\":13325:13493  require(... */\n      0x04\n      dup3\n      add\n        /* \"#utility.yul\":8652:8673   */\n      mstore\n        /* \"#utility.yul\":8709:8711   */\n      0x38\n        /* \"#utility.yul\":8689:8707   */\n      0x24\n      dup3\n      add\n        /* \"#utility.yul\":8682:8712   */\n      mstore\n        /* \"#utility.yul\":8748:8782   */\n      0x4552433732313a20617070726f76652063616c6c6572206973206e6f74206f77\n        /* \"#utility.yul\":8728:8746   */\n      0x44\n      dup3\n      add\n        /* \"#utility.yul\":8721:8783   */\n      mstore\n        /* \"#utility.yul\":8819:8845   */\n      0x6e6572206e6f7220617070726f76656420666f7220616c6c0000000000000000\n        /* \"#utility.yul\":8799:8817   */\n      0x64\n      dup3\n      add\n        /* \"#utility.yul\":8792:8846   */\n      mstore\n        /* \"#utility.yul\":8863:8882   */\n      0x84\n      add\n        /* \"Contracts/ERC721.sol\":13325:13493  require(... */\n      tag_247\n        /* \"#utility.yul\":8468:8888   */\n      jump\n        /* \"Contracts/ERC721.sol\":13325:13493  require(... */\n    tag_272:\n        /* \"Contracts/ERC721.sol\":13506:13527  _approve(to, tokenId) */\n      tag_275\n        /* \"Contracts/ERC721.sol\":13515:13517  to */\n      dup4\n        /* \"Contracts/ERC721.sol\":13519:13526  tokenId */\n      dup4\n        /* \"Contracts/ERC721.sol\":13506:13514  _approve */\n      tag_276\n        /* \"Contracts/ERC721.sol\":13506:13527  _approve(to, tokenId) */\n      jump\t// in\n    tag_275:\n        /* \"Contracts/ERC721.sol\":13194:13535  {... */\n      pop\n        /* \"Contracts/ERC721.sol\":13124:13535  function approve(address to, uint256 tokenId) public virtual override {... */\n      pop\n      pop\n      jump\t// out\n        /* \"Contracts/ERC721.sol\":14491:14830  function transferFrom(... */\n    tag_102:\n        /* \"Contracts/ERC721.sol\":14686:14727  _isApprovedOrOwner(_msgSender(), tokenId) */\n      tag_279\n        /* \"Contracts/ERC721.sol\":9988:9998  msg.sender */\n      caller\n        /* \"Contracts/ERC721.sol\":14719:14726  tokenId */\n      dup3\n        /* \"Contracts/ERC721.sol\":14686:14704  _isApprovedOrOwner */\n      tag_281\n        /* \"Contracts/ERC721.sol\":14686:14727  _isApprovedOrOwner(_msgSender(), tokenId) */\n      jump\t// in\n    tag_279:\n        /* \"Contracts/ERC721.sol\":14678:14781  require(_isApprovedOrOwner(_msgSender(), tokenId), \"ERC721: transfer caller is not owner nor approved\") */\n      tag_282\n      jumpi\n      mload(0x40)\n      shl(0xe5, 0x461bcd)\n      dup2\n      mstore\n      0x04\n      add\n      tag_247\n      swap1\n      tag_284\n      jump\t// in\n    tag_282:\n        /* \"Contracts/ERC721.sol\":14794:14822  _transfer(from, to, tokenId) */\n      tag_275\n        /* \"Contracts/ERC721.sol\":14804:14808  from */\n      dup4\n        /* \"Contracts/ERC721.sol\":14810:14812  to */\n      dup4\n        /* \"Contracts/ERC721.sol\":14814:14821  tokenId */\n      dup4\n        /* \"Contracts/ERC721.sol\":14794:14803  _transfer */\n      tag_286\n        /* \"Contracts/ERC721.sol\":14794:14822  _transfer(from, to, tokenId) */\n      jump\t// in\n        /* \"Contracts/ERC721.sol\":20515:20771  function tokenOfOwnerByIndex(address owner, uint256 index) public view virtual override returns (uint256) {... */\n    tag_106:\n        /* \"Contracts/ERC721.sol\":20612:20619  uint256 */\n      0x00\n        /* \"Contracts/ERC721.sol\":20648:20671  ERC721.balanceOf(owner) */\n      tag_288\n        /* \"Contracts/ERC721.sol\":20665:20670  owner */\n      dup4\n        /* \"Contracts/ERC721.sol\":20648:20664  ERC721.balanceOf */\n      tag_159\n        /* \"Contracts/ERC721.sol\":20648:20671  ERC721.balanceOf(owner) */\n      jump\t// in\n    tag_288:\n        /* \"Contracts/ERC721.sol\":20640:20645  index */\n      dup3\n        /* \"Contracts/ERC721.sol\":20640:20671  index < ERC721.balanceOf(owner) */\n      lt\n        /* \"Contracts/ERC721.sol\":20632:20719  require(index < ERC721.balanceOf(owner), \"ERC721Enumerable: owner index out of bounds\") */\n      tag_289\n      jumpi\n      mload(0x40)\n      shl(0xe5, 0x461bcd)\n      dup2\n      mstore\n        /* \"#utility.yul\":9513:9515   */\n      0x20\n        /* \"Contracts/ERC721.sol\":20632:20719  require(index < ERC721.balanceOf(owner), \"ERC721Enumerable: owner index out of bounds\") */\n      0x04\n      dup3\n      add\n        /* \"#utility.yul\":9495:9516   */\n      mstore\n        /* \"#utility.yul\":9552:9554   */\n      0x2b\n        /* \"#utility.yul\":9532:9550   */\n      0x24\n      dup3\n      add\n        /* \"#utility.yul\":9525:9555   */\n      mstore\n        /* \"#utility.yul\":9591:9625   */\n      0x455243373231456e756d657261626c653a206f776e657220696e646578206f75\n        /* \"#utility.yul\":9571:9589   */\n      0x44\n      dup3\n      add\n        /* \"#utility.yul\":9564:9626   */\n      mstore\n      shl(0xa8, 0x74206f6620626f756e6473)\n        /* \"#utility.yul\":9642:9660   */\n      0x64\n      dup3\n      add\n        /* \"#utility.yul\":9635:9676   */\n      mstore\n        /* \"#utility.yul\":9693:9712   */\n      0x84\n      add\n        /* \"Contracts/ERC721.sol\":20632:20719  require(index < ERC721.balanceOf(owner), \"ERC721Enumerable: owner index out of bounds\") */\n      tag_247\n        /* \"#utility.yul\":9311:9718   */\n      jump\n        /* \"Contracts/ERC721.sol\":20632:20719  require(index < ERC721.balanceOf(owner), \"ERC721Enumerable: owner index out of bounds\") */\n    tag_289:\n      pop\n      sub(shl(0xa0, 0x01), 0x01)\n        /* \"Contracts/ERC721.sol\":20737:20756  _ownedTokens[owner] */\n      swap2\n      swap1\n      swap2\n      and\n      0x00\n      swap1\n      dup2\n      mstore\n        /* \"Contracts/ERC721.sol\":20737:20749  _ownedTokens */\n      0x06\n        /* \"Contracts/ERC721.sol\":20737:20756  _ownedTokens[owner] */\n      0x20\n      swap1\n      dup2\n      mstore\n      0x40\n      dup1\n      dup4\n      keccak256\n        /* \"Contracts/ERC721.sol\":20737:20763  _ownedTokens[owner][index] */\n      swap4\n      dup4\n      mstore\n      swap3\n      swap1\n      mstore\n      keccak256\n      sload\n      swap1\n        /* \"Contracts/ERC721.sol\":20515:20771  function tokenOfOwnerByIndex(address owner, uint256 index) public view virtual override returns (uint256) {... */\n      jump\t// out\n        /* \"Contracts/ERC721.sol\":27062:27301  function isWhitelisted(address _user) public view returns (bool) {... */\n    tag_111:\n        /* \"Contracts/ERC721.sol\":27121:27125  bool */\n      0x00\n      dup1\n        /* \"Contracts/ERC721.sol\":27134:27277  for (uint i = 0; i < whitelistedAddresses.length; i++) {... */\n    tag_293:\n        /* \"Contracts/ERC721.sol\":27155:27175  whitelistedAddresses */\n      0x12\n        /* \"Contracts/ERC721.sol\":27155:27182  whitelistedAddresses.length */\n      sload\n        /* \"Contracts/ERC721.sol\":27151:27182  i < whitelistedAddresses.length */\n      dup2\n      lt\n        /* \"Contracts/ERC721.sol\":27134:27277  for (uint i = 0; i < whitelistedAddresses.length; i++) {... */\n      iszero\n      tag_294\n      jumpi\n        /* \"Contracts/ERC721.sol\":27229:27234  _user */\n      dup3\n      sub(shl(0xa0, 0x01), 0x01)\n        /* \"Contracts/ERC721.sol\":27202:27234  whitelistedAddresses[i] == _user */\n      and\n        /* \"Contracts/ERC721.sol\":27202:27222  whitelistedAddresses */\n      0x12\n        /* \"Contracts/ERC721.sol\":27223:27224  i */\n      dup3\n        /* \"Contracts/ERC721.sol\":27202:27225  whitelistedAddresses[i] */\n      dup2\n      sload\n      dup2\n      lt\n      tag_297\n      jumpi\n      tag_297\n      tag_298\n      jump\t// in\n    tag_297:\n      0x00\n      swap2\n      dup3\n      mstore\n      0x20\n      swap1\n      swap2\n      keccak256\n      add\n      sload\n      sub(shl(0xa0, 0x01), 0x01)\n      and\n        /* \"Contracts/ERC721.sol\":27202:27234  whitelistedAddresses[i] == _user */\n      sub\n        /* \"Contracts/ERC721.sol\":27198:27270  if (whitelistedAddresses[i] == _user) {... */\n      tag_300\n      jumpi\n      pop\n        /* \"Contracts/ERC721.sol\":27256:27260  true */\n      0x01\n      swap3\n        /* \"Contracts/ERC721.sol\":27062:27301  function isWhitelisted(address _user) public view returns (bool) {... */\n      swap2\n      pop\n      pop\n      jump\t// out\n        /* \"Contracts/ERC721.sol\":27198:27270  if (whitelistedAddresses[i] == _user) {... */\n    tag_300:\n        /* \"Contracts/ERC721.sol\":27184:27187  i++ */\n      dup1\n      tag_301\n      dup2\n      tag_302\n      jump\t// in\n    tag_301:\n      swap2\n      pop\n      pop\n        /* \"Contracts/ERC721.sol\":27134:27277  for (uint i = 0; i < whitelistedAddresses.length; i++) {... */\n      jump(tag_293)\n    tag_294:\n      pop\n        /* \"Contracts/ERC721.sol\":27290:27295  false */\n      0x00\n      swap3\n        /* \"Contracts/ERC721.sol\":27062:27301  function isWhitelisted(address _user) public view returns (bool) {... */\n      swap2\n      pop\n      pop\n      jump\t// out\n        /* \"Contracts/ERC721.sol\":28733:28828  function setOnlyWhitelisted(bool _state) public onlyOwner {... */\n    tag_116:\n        /* \"Contracts/ERC721.sol\":24636:24642  _owner */\n      and(sub(shl(0xa0, 0x01), 0x01), sload(0x0a))\n        /* \"Contracts/ERC721.sol\":9988:9998  msg.sender */\n      caller\n        /* \"Contracts/ERC721.sol\":24783:24806  owner() == _msgSender() */\n      eq\n        /* \"Contracts/ERC721.sol\":24775:24843  require(owner() == _msgSender(), \"Ownable: caller is not the owner\") */\n      tag_306\n      jumpi\n      mload(0x40)\n      shl(0xe5, 0x461bcd)\n      dup2\n      mstore\n      0x04\n      add\n      tag_247\n      swap1\n      tag_248\n      jump\t// in\n    tag_306:\n        /* \"Contracts/ERC721.sol\":28798:28813  onlyWhitelisted */\n      0x11\n        /* \"Contracts/ERC721.sol\":28798:28822  onlyWhitelisted = _state */\n      dup1\n      sload\n      swap2\n      iszero\n      iszero\n      0x0100\n      mul\n      not(0xff00)\n      swap1\n      swap3\n      and\n      swap2\n      swap1\n      swap2\n      or\n      swap1\n      sstore\n        /* \"Contracts/ERC721.sol\":28733:28828  function setOnlyWhitelisted(bool _state) public onlyOwner {... */\n      jump\t// out\n        /* \"Contracts/ERC721.sol\":28987:29132  function withdraw() public payable onlyOwner {... */\n    tag_118:\n        /* \"Contracts/ERC721.sol\":24636:24642  _owner */\n      and(sub(shl(0xa0, 0x01), 0x01), sload(0x0a))\n        /* \"Contracts/ERC721.sol\":9988:9998  msg.sender */\n      caller\n        /* \"Contracts/ERC721.sol\":24783:24806  owner() == _msgSender() */\n      eq\n        /* \"Contracts/ERC721.sol\":24775:24843  require(owner() == _msgSender(), \"Ownable: caller is not the owner\") */\n      tag_312\n      jumpi\n      mload(0x40)\n      shl(0xe5, 0x461bcd)\n      dup2\n      mstore\n      0x04\n      add\n      tag_247\n      swap1\n      tag_248\n      jump\t// in\n    tag_312:\n        /* \"Contracts/ERC721.sol\":29040:29047  bool os */\n      0x00\n        /* \"Contracts/ERC721.sol\":29061:29068  owner() */\n      tag_315\n        /* \"Contracts/ERC721.sol\":24636:24642  _owner */\n      and(sub(shl(0xa0, 0x01), 0x01), sload(0x0a))\n      swap1\n        /* \"Contracts/ERC721.sol\":24563:24650  function owner() public view virtual returns (address) {... */\n      jump\n        /* \"Contracts/ERC721.sol\":29061:29068  owner() */\n    tag_315:\n      sub(shl(0xa0, 0x01), 0x01)\n        /* \"Contracts/ERC721.sol\":29053:29074  payable(owner()).call */\n      and\n        /* \"Contracts/ERC721.sol\":29082:29103  address(this).balance */\n      selfbalance\n        /* \"Contracts/ERC721.sol\":29053:29108  payable(owner()).call{value: address(this).balance}(\"\") */\n      mload(0x40)\n      0x00\n      mload(0x40)\n      dup1\n      dup4\n      sub\n      dup2\n      dup6\n      dup8\n      gas\n      call\n      swap3\n      pop\n      pop\n      pop\n      returndatasize\n      dup1\n      0x00\n      dup2\n      eq\n      tag_320\n      jumpi\n      mload(0x40)\n      swap2\n      pop\n      and(add(returndatasize, 0x3f), not(0x1f))\n      dup3\n      add\n      0x40\n      mstore\n      returndatasize\n      dup3\n      mstore\n      returndatasize\n      0x00\n      0x20\n      dup5\n      add\n      returndatacopy\n      jump(tag_319)\n    tag_320:\n      0x60\n      swap2\n      pop\n    tag_319:\n      pop\n        /* \"Contracts/ERC721.sol\":29039:29108  (bool os, ) = payable(owner()).call{value: address(this).balance}(\"\") */\n      pop\n      swap1\n      pop\n        /* \"Contracts/ERC721.sol\":29123:29125  os */\n      dup1\n        /* \"Contracts/ERC721.sol\":29115:29126  require(os) */\n      tag_321\n      jumpi\n      0x00\n      dup1\n      revert\n    tag_321:\n        /* \"Contracts/ERC721.sol\":29032:29132  {... */\n      pop\n        /* \"Contracts/ERC721.sol\":28987:29132  function withdraw() public payable onlyOwner {... */\n      jump\t// out\n        /* \"Contracts/ERC721.sol\":14901:15086  function safeTransferFrom(... */\n    tag_122:\n        /* \"Contracts/ERC721.sol\":15039:15078  safeTransferFrom(from, to, tokenId, \"\") */\n      tag_275\n        /* \"Contracts/ERC721.sol\":15056:15060  from */\n      dup4\n        /* \"Contracts/ERC721.sol\":15062:15064  to */\n      dup4\n        /* \"Contracts/ERC721.sol\":15066:15073  tokenId */\n      dup4\n        /* \"Contracts/ERC721.sol\":15039:15078  safeTransferFrom(from, to, tokenId, \"\") */\n      mload(0x40)\n      dup1\n      0x20\n      add\n      0x40\n      mstore\n      dup1\n      0x00\n      dup2\n      mstore\n      pop\n        /* \"Contracts/ERC721.sol\":15039:15055  safeTransferFrom */\n      tag_192\n        /* \"Contracts/ERC721.sol\":15039:15078  safeTransferFrom(from, to, tokenId, \"\") */\n      jump\t// in\n        /* \"Contracts/ERC721.sol\":27307:27655  function walletOfOwner(address _owner)... */\n    tag_126:\n        /* \"Contracts/ERC721.sol\":27382:27398  uint256[] memory */\n      0x60\n        /* \"Contracts/ERC721.sol\":27410:27433  uint256 ownerTokenCount */\n      0x00\n        /* \"Contracts/ERC721.sol\":27436:27453  balanceOf(_owner) */\n      tag_325\n        /* \"Contracts/ERC721.sol\":27446:27452  _owner */\n      dup4\n        /* \"Contracts/ERC721.sol\":27436:27445  balanceOf */\n      tag_159\n        /* \"Contracts/ERC721.sol\":27436:27453  balanceOf(_owner) */\n      jump\t// in\n    tag_325:\n        /* \"Contracts/ERC721.sol\":27410:27453  uint256 ownerTokenCount = balanceOf(_owner) */\n      swap1\n      pop\n        /* \"Contracts/ERC721.sol\":27460:27485  uint256[] memory tokenIds */\n      0x00\n        /* \"Contracts/ERC721.sol\":27502:27517  ownerTokenCount */\n      dup2\n        /* \"Contracts/ERC721.sol\":27488:27518  new uint256[](ownerTokenCount) */\n      0xffffffffffffffff\n      dup2\n      gt\n      iszero\n      tag_327\n      jumpi\n      tag_327\n      tag_328\n      jump\t// in\n    tag_327:\n      mload(0x40)\n      swap1\n      dup1\n      dup3\n      mstore\n      dup1\n      0x20\n      mul\n      0x20\n      add\n      dup3\n      add\n      0x40\n      mstore\n      dup1\n      iszero\n      tag_329\n      jumpi\n      dup2\n      0x20\n      add\n      0x20\n      dup3\n      mul\n      dup1\n      calldatasize\n      dup4\n      calldatacopy\n      add\n      swap1\n      pop\n    tag_329:\n      pop\n        /* \"Contracts/ERC721.sol\":27460:27518  uint256[] memory tokenIds = new uint256[](ownerTokenCount) */\n      swap1\n      pop\n        /* \"Contracts/ERC721.sol\":27530:27539  uint256 i */\n      0x00\n        /* \"Contracts/ERC721.sol\":27525:27628  for (uint256 i; i < ownerTokenCount; i++) {... */\n    tag_330:\n        /* \"Contracts/ERC721.sol\":27545:27560  ownerTokenCount */\n      dup3\n        /* \"Contracts/ERC721.sol\":27541:27542  i */\n      dup2\n        /* \"Contracts/ERC721.sol\":27541:27560  i < ownerTokenCount */\n      lt\n        /* \"Contracts/ERC721.sol\":27525:27628  for (uint256 i; i < ownerTokenCount; i++) {... */\n      iszero\n      tag_331\n      jumpi\n        /* \"Contracts/ERC721.sol\":27590:27620  tokenOfOwnerByIndex(_owner, i) */\n      tag_333\n        /* \"Contracts/ERC721.sol\":27610:27616  _owner */\n      dup6\n        /* \"Contracts/ERC721.sol\":27618:27619  i */\n      dup3\n        /* \"Contracts/ERC721.sol\":27590:27609  tokenOfOwnerByIndex */\n      tag_106\n        /* \"Contracts/ERC721.sol\":27590:27620  tokenOfOwnerByIndex(_owner, i) */\n      jump\t// in\n    tag_333:\n        /* \"Contracts/ERC721.sol\":27576:27584  tokenIds */\n      dup3\n        /* \"Contracts/ERC721.sol\":27585:27586  i */\n      dup3\n        /* \"Contracts/ERC721.sol\":27576:27587  tokenIds[i] */\n      dup2\n      mload\n      dup2\n      lt\n      tag_335\n      jumpi\n      tag_335\n      tag_298\n      jump\t// in\n    tag_335:\n      0x20\n      swap1\n      dup2\n      mul\n      swap2\n      swap1\n      swap2\n      add\n      add\n        /* \"Contracts/ERC721.sol\":27576:27620  tokenIds[i] = tokenOfOwnerByIndex(_owner, i) */\n      mstore\n        /* \"Contracts/ERC721.sol\":27562:27565  i++ */\n      dup1\n      tag_336\n      dup2\n      tag_302\n      jump\t// in\n    tag_336:\n      swap2\n      pop\n      pop\n        /* \"Contracts/ERC721.sol\":27525:27628  for (uint256 i; i < ownerTokenCount; i++) {... */\n      jump(tag_330)\n    tag_331:\n      pop\n        /* \"Contracts/ERC721.sol\":27641:27649  tokenIds */\n      swap4\n        /* \"Contracts/ERC721.sol\":27307:27655  function walletOfOwner(address _owner)... */\n      swap3\n      pop\n      pop\n      pop\n      jump\t// out\n        /* \"Contracts/ERC721.sol\":28208:28288  function setCost(uint256 _newCost) public onlyOwner {... */\n    tag_132:\n        /* \"Contracts/ERC721.sol\":24636:24642  _owner */\n      and(sub(shl(0xa0, 0x01), 0x01), sload(0x0a))\n        /* \"Contracts/ERC721.sol\":9988:9998  msg.sender */\n      caller\n        /* \"Contracts/ERC721.sol\":24783:24806  owner() == _msgSender() */\n      eq\n        /* \"Contracts/ERC721.sol\":24775:24843  require(owner() == _msgSender(), \"Ownable: caller is not the owner\") */\n      tag_340\n      jumpi\n      mload(0x40)\n      shl(0xe5, 0x461bcd)\n      dup2\n      mstore\n      0x04\n      add\n      tag_247\n      swap1\n      tag_248\n      jump\t// in\n    tag_340:\n        /* \"Contracts/ERC721.sol\":28267:28271  cost */\n      0x0d\n        /* \"Contracts/ERC721.sol\":28267:28282  cost = _newCost */\n      sstore\n        /* \"Contracts/ERC721.sol\":28208:28288  function setCost(uint256 _newCost) public onlyOwner {... */\n      jump\t// out\n        /* \"Contracts/ERC721.sol\":21037:21270  function tokenByIndex(uint256 index) public view virtual override returns (uint256) {... */\n    tag_136:\n        /* \"Contracts/ERC721.sol\":21112:21119  uint256 */\n      0x00\n        /* \"Contracts/ERC721.sol\":21148:21178  ERC721Enumerable.totalSupply() */\n      tag_344\n        /* \"Contracts/ERC721.sol\":20935:20945  _allTokens */\n      0x08\n        /* \"Contracts/ERC721.sol\":20935:20952  _allTokens.length */\n      sload\n      swap1\n        /* \"Contracts/ERC721.sol\":20847:20960  function totalSupply() public view virtual override returns (uint256) {... */\n      jump\n        /* \"Contracts/ERC721.sol\":21148:21178  ERC721Enumerable.totalSupply() */\n    tag_344:\n        /* \"Contracts/ERC721.sol\":21140:21145  index */\n      dup3\n        /* \"Contracts/ERC721.sol\":21140:21178  index < ERC721Enumerable.totalSupply() */\n      lt\n        /* \"Contracts/ERC721.sol\":21132:21227  require(index < ERC721Enumerable.totalSupply(), \"ERC721Enumerable: global index out of bounds\") */\n      tag_345\n      jumpi\n      mload(0x40)\n      shl(0xe5, 0x461bcd)\n      dup2\n      mstore\n        /* \"#utility.yul\":10539:10541   */\n      0x20\n        /* \"Contracts/ERC721.sol\":21132:21227  require(index < ERC721Enumerable.totalSupply(), \"ERC721Enumerable: global index out of bounds\") */\n      0x04\n      dup3\n      add\n        /* \"#utility.yul\":10521:10542   */\n      mstore\n        /* \"#utility.yul\":10578:10580   */\n      0x2c\n        /* \"#utility.yul\":10558:10576   */\n      0x24\n      dup3\n      add\n        /* \"#utility.yul\":10551:10581   */\n      mstore\n        /* \"#utility.yul\":10617:10651   */\n      0x455243373231456e756d657261626c653a20676c6f62616c20696e646578206f\n        /* \"#utility.yul\":10597:10615   */\n      0x44\n      dup3\n      add\n        /* \"#utility.yul\":10590:10652   */\n      mstore\n      shl(0xa0, 0x7574206f6620626f756e6473)\n        /* \"#utility.yul\":10668:10686   */\n      0x64\n      dup3\n      add\n        /* \"#utility.yul\":10661:10703   */\n      mstore\n        /* \"#utility.yul\":10720:10739   */\n      0x84\n      add\n        /* \"Contracts/ERC721.sol\":21132:21227  require(index < ERC721Enumerable.totalSupply(), \"ERC721Enumerable: global index out of bounds\") */\n      tag_247\n        /* \"#utility.yul\":10337:10745   */\n      jump\n        /* \"Contracts/ERC721.sol\":21132:21227  require(index < ERC721Enumerable.totalSupply(), \"ERC721Enumerable: global index out of bounds\") */\n    tag_345:\n        /* \"Contracts/ERC721.sol\":21245:21255  _allTokens */\n      0x08\n        /* \"Contracts/ERC721.sol\":21256:21261  index */\n      dup3\n        /* \"Contracts/ERC721.sol\":21245:21262  _allTokens[index] */\n      dup2\n      sload\n      dup2\n      lt\n      tag_349\n      jumpi\n      tag_349\n      tag_298\n      jump\t// in\n    tag_349:\n      swap1\n      0x00\n      mstore\n      keccak256(0x00, 0x20)\n      add\n      sload\n        /* \"Contracts/ERC721.sol\":21238:21262  return _allTokens[index] */\n      swap1\n      pop\n        /* \"Contracts/ERC721.sol\":21037:21270  function tokenByIndex(uint256 index) public view virtual override returns (uint256) {... */\n      swap2\n      swap1\n      pop\n      jump\t// out\n        /* \"Contracts/ERC721.sol\":28416:28514  function setBaseURI(string memory _newBaseURI) public onlyOwner {... */\n    tag_142:\n        /* \"Contracts/ERC721.sol\":24636:24642  _owner */\n      and(sub(shl(0xa0, 0x01), 0x01), sload(0x0a))\n        /* \"Contracts/ERC721.sol\":9988:9998  msg.sender */\n      caller\n        /* \"Contracts/ERC721.sol\":24783:24806  owner() == _msgSender() */\n      eq\n        /* \"Contracts/ERC721.sol\":24775:24843  require(owner() == _msgSender(), \"Ownable: caller is not the owner\") */\n      tag_354\n      jumpi\n      mload(0x40)\n      shl(0xe5, 0x461bcd)\n      dup2\n      mstore\n      0x04\n      add\n      tag_247\n      swap1\n      tag_248\n      jump\t// in\n    tag_354:\n        /* \"Contracts/ERC721.sol\":28487:28508  baseURI = _newBaseURI */\n      dup1\n      mload\n      tag_357\n      swap1\n        /* \"Contracts/ERC721.sol\":28487:28494  baseURI */\n      0x0b\n      swap1\n        /* \"Contracts/ERC721.sol\":28487:28508  baseURI = _newBaseURI */\n      0x20\n      dup5\n      add\n      swap1\n      tag_358\n      jump\t// in\n    tag_357:\n      pop\n        /* \"Contracts/ERC721.sol\":28416:28514  function setBaseURI(string memory _newBaseURI) public onlyOwner {... */\n      pop\n      jump\t// out\n        /* \"Contracts/ERC721.sol\":11736:11975  function ownerOf(uint256 tokenId) public view virtual override returns (address) {... */\n    tag_150:\n        /* \"Contracts/ERC721.sol\":11808:11815  address */\n      0x00\n        /* \"Contracts/ERC721.sol\":11844:11860  _owners[tokenId] */\n      dup2\n      dup2\n      mstore\n        /* \"Contracts/ERC721.sol\":11844:11851  _owners */\n      0x02\n        /* \"Contracts/ERC721.sol\":11844:11860  _owners[tokenId] */\n      0x20\n      mstore\n      0x40\n      dup2\n      keccak256\n      sload\n      sub(shl(0xa0, 0x01), 0x01)\n      and\n      dup1\n        /* \"Contracts/ERC721.sol\":11871:11944  require(owner != address(0), \"ERC721: owner query for nonexistent token\") */\n      tag_240\n      jumpi\n      mload(0x40)\n      shl(0xe5, 0x461bcd)\n      dup2\n      mstore\n        /* \"#utility.yul\":10952:10954   */\n      0x20\n        /* \"Contracts/ERC721.sol\":11871:11944  require(owner != address(0), \"ERC721: owner query for nonexistent token\") */\n      0x04\n      dup3\n      add\n        /* \"#utility.yul\":10934:10955   */\n      mstore\n        /* \"#utility.yul\":10991:10993   */\n      0x29\n        /* \"#utility.yul\":10971:10989   */\n      0x24\n      dup3\n      add\n        /* \"#utility.yul\":10964:10994   */\n      mstore\n        /* \"#utility.yul\":11030:11064   */\n      0x4552433732313a206f776e657220717565727920666f72206e6f6e6578697374\n        /* \"#utility.yul\":11010:11028   */\n      0x44\n      dup3\n      add\n        /* \"#utility.yul\":11003:11065   */\n      mstore\n      shl(0xb9, 0x32b73a103a37b5b2b7)\n        /* \"#utility.yul\":11081:11099   */\n      0x64\n      dup3\n      add\n        /* \"#utility.yul\":11074:11113   */\n      mstore\n        /* \"#utility.yul\":11130:11149   */\n      0x84\n      add\n        /* \"Contracts/ERC721.sol\":11871:11944  require(owner != address(0), \"ERC721: owner query for nonexistent token\") */\n      tag_247\n        /* \"#utility.yul\":10750:11155   */\n      jump\n        /* \"Contracts/ERC721.sol\":25432:25453  string public baseURI */\n    tag_154:\n      0x0b\n      dup1\n      sload\n      tag_363\n      swap1\n      tag_252\n      jump\t// in\n    tag_363:\n      dup1\n      0x1f\n      add\n      0x20\n      dup1\n      swap2\n      div\n      mul\n      0x20\n      add\n      mload(0x40)\n      swap1\n      dup2\n      add\n      0x40\n      mstore\n      dup1\n      swap3\n      swap2\n      swap1\n      dup2\n      dup2\n      mstore\n      0x20\n      add\n      dup3\n      dup1\n      sload\n      tag_364\n      swap1\n      tag_252\n      jump\t// in\n    tag_364:\n      dup1\n      iszero\n      tag_365\n      jumpi\n      dup1\n      0x1f\n      lt\n      tag_366\n      jumpi\n      0x0100\n      dup1\n      dup4\n      sload\n      div\n      mul\n      dup4\n      mstore\n      swap2\n      0x20\n      add\n      swap2\n      jump(tag_365)\n    tag_366:\n      dup3\n      add\n      swap2\n      swap1\n      0x00\n      mstore\n      keccak256(0x00, 0x20)\n      swap1\n    tag_367:\n      dup2\n      sload\n      dup2\n      mstore\n      swap1\n      0x01\n      add\n      swap1\n      0x20\n      add\n      dup1\n      dup4\n      gt\n      tag_367\n      jumpi\n      dup3\n      swap1\n      sub\n      0x1f\n      and\n      dup3\n      add\n      swap2\n    tag_365:\n      pop\n      pop\n      pop\n      pop\n      pop\n      dup2\n      jump\t// out\n        /* \"Contracts/ERC721.sol\":11466:11674  function balanceOf(address owner) public view virtual override returns (uint256) {... */\n    tag_159:\n        /* \"Contracts/ERC721.sol\":11538:11545  uint256 */\n      0x00\n      sub(shl(0xa0, 0x01), 0x01)\n        /* \"Contracts/ERC721.sol\":11566:11585  owner != address(0) */\n      dup3\n      and\n        /* \"Contracts/ERC721.sol\":11558:11632  require(owner != address(0), \"ERC721: balance query for the zero address\") */\n      tag_369\n      jumpi\n      mload(0x40)\n      shl(0xe5, 0x461bcd)\n      dup2\n      mstore\n        /* \"#utility.yul\":11362:11364   */\n      0x20\n        /* \"Contracts/ERC721.sol\":11558:11632  require(owner != address(0), \"ERC721: balance query for the zero address\") */\n      0x04\n      dup3\n      add\n        /* \"#utility.yul\":11344:11365   */\n      mstore\n        /* \"#utility.yul\":11401:11403   */\n      0x2a\n        /* \"#utility.yul\":11381:11399   */\n      0x24\n      dup3\n      add\n        /* \"#utility.yul\":11374:11404   */\n      mstore\n        /* \"#utility.yul\":11440:11474   */\n      0x4552433732313a2062616c616e636520717565727920666f7220746865207a65\n        /* \"#utility.yul\":11420:11438   */\n      0x44\n      dup3\n      add\n        /* \"#utility.yul\":11413:11475   */\n      mstore\n      shl(0xb0, 0x726f2061646472657373)\n        /* \"#utility.yul\":11491:11509   */\n      0x64\n      dup3\n      add\n        /* \"#utility.yul\":11484:11524   */\n      mstore\n        /* \"#utility.yul\":11541:11560   */\n      0x84\n      add\n        /* \"Contracts/ERC721.sol\":11558:11632  require(owner != address(0), \"ERC721: balance query for the zero address\") */\n      tag_247\n        /* \"#utility.yul\":11160:11566   */\n      jump\n        /* \"Contracts/ERC721.sol\":11558:11632  require(owner != address(0), \"ERC721: balance query for the zero address\") */\n    tag_369:\n      pop\n      sub(shl(0xa0, 0x01), 0x01)\n        /* \"Contracts/ERC721.sol\":11650:11666  _balances[owner] */\n      and\n      0x00\n      swap1\n      dup2\n      mstore\n        /* \"Contracts/ERC721.sol\":11650:11659  _balances */\n      0x03\n        /* \"Contracts/ERC721.sol\":11650:11666  _balances[owner] */\n      0x20\n      mstore\n      0x40\n      swap1\n      keccak256\n      sload\n      swap1\n        /* \"Contracts/ERC721.sol\":11466:11674  function balanceOf(address owner) public view virtual override returns (uint256) {... */\n      jump\t// out\n        /* \"Contracts/ERC721.sol\":24871:24965  function renounceOwnership() public virtual onlyOwner {... */\n    tag_163:\n        /* \"Contracts/ERC721.sol\":24636:24642  _owner */\n      and(sub(shl(0xa0, 0x01), 0x01), sload(0x0a))\n        /* \"Contracts/ERC721.sol\":9988:9998  msg.sender */\n      caller\n        /* \"Contracts/ERC721.sol\":24783:24806  owner() == _msgSender() */\n      eq\n        /* \"Contracts/ERC721.sol\":24775:24843  require(owner() == _msgSender(), \"Ownable: caller is not the owner\") */\n      tag_375\n      jumpi\n      mload(0x40)\n      shl(0xe5, 0x461bcd)\n      dup2\n      mstore\n      0x04\n      add\n      tag_247\n      swap1\n      tag_248\n      jump\t// in\n    tag_375:\n        /* \"Contracts/ERC721.sol\":24936:24957  _setOwner(address(0)) */\n      tag_378\n        /* \"Contracts/ERC721.sol\":24954:24955  0 */\n      0x00\n        /* \"Contracts/ERC721.sol\":24936:24945  _setOwner */\n      tag_379\n        /* \"Contracts/ERC721.sol\":24936:24957  _setOwner(address(0)) */\n      jump\t// in\n    tag_378:\n        /* \"Contracts/ERC721.sol\":24871:24965  function renounceOwnership() public virtual onlyOwner {... */\n      jump\t// out\n        /* \"Contracts/ERC721.sol\":28294:28410  function setmaxMintAmount(uint256 _newmaxMintAmount) public onlyOwner {... */\n    tag_167:\n        /* \"Contracts/ERC721.sol\":24636:24642  _owner */\n      and(sub(shl(0xa0, 0x01), 0x01), sload(0x0a))\n        /* \"Contracts/ERC721.sol\":9988:9998  msg.sender */\n      caller\n        /* \"Contracts/ERC721.sol\":24783:24806  owner() == _msgSender() */\n      eq\n        /* \"Contracts/ERC721.sol\":24775:24843  require(owner() == _msgSender(), \"Ownable: caller is not the owner\") */\n      tag_383\n      jumpi\n      mload(0x40)\n      shl(0xe5, 0x461bcd)\n      dup2\n      mstore\n      0x04\n      add\n      tag_247\n      swap1\n      tag_248\n      jump\t// in\n    tag_383:\n        /* \"Contracts/ERC721.sol\":28371:28384  maxMintAmount */\n      0x0f\n        /* \"Contracts/ERC721.sol\":28371:28404  maxMintAmount = _newmaxMintAmount */\n      sstore\n        /* \"Contracts/ERC721.sol\":28294:28410  function setmaxMintAmount(uint256 _newmaxMintAmount) public onlyOwner {... */\n      jump\t// out\n        /* \"Contracts/ERC721.sol\":12211:12315  function symbol() public view virtual override returns (string memory) {... */\n    tag_174:\n        /* \"Contracts/ERC721.sol\":12267:12280  string memory */\n      0x60\n        /* \"Contracts/ERC721.sol\":12300:12307  _symbol */\n      0x01\n        /* \"Contracts/ERC721.sol\":12293:12307  return _symbol */\n      dup1\n      sload\n      tag_251\n      swap1\n      tag_252\n      jump\t// in\n        /* \"Contracts/ERC721.sol\":26123:27054  function mint(uint256 _mintAmount) public payable {... */\n    tag_182:\n        /* \"Contracts/ERC721.sol\":26189:26195  paused */\n      and(0xff, sload(0x11))\n        /* \"Contracts/ERC721.sol\":26188:26195  !paused */\n      iszero\n        /* \"Contracts/ERC721.sol\":26180:26222  require(!paused, \"the contract is paused\") */\n      tag_394\n      jumpi\n      mload(0x40)\n      shl(0xe5, 0x461bcd)\n      dup2\n      mstore\n        /* \"#utility.yul\":11773:11775   */\n      0x20\n        /* \"Contracts/ERC721.sol\":26180:26222  require(!paused, \"the contract is paused\") */\n      0x04\n      dup3\n      add\n        /* \"#utility.yul\":11755:11776   */\n      mstore\n        /* \"#utility.yul\":11812:11814   */\n      0x16\n        /* \"#utility.yul\":11792:11810   */\n      0x24\n      dup3\n      add\n        /* \"#utility.yul\":11785:11815   */\n      mstore\n      shl(0x52, 0x1d1a194818dbdb9d1c9858dd081a5cc81c185d5cd959)\n        /* \"#utility.yul\":11831:11849   */\n      0x44\n      dup3\n      add\n        /* \"#utility.yul\":11824:11876   */\n      mstore\n        /* \"#utility.yul\":11893:11911   */\n      0x64\n      add\n        /* \"Contracts/ERC721.sol\":26180:26222  require(!paused, \"the contract is paused\") */\n      tag_247\n        /* \"#utility.yul\":11571:11917   */\n      jump\n        /* \"Contracts/ERC721.sol\":26180:26222  require(!paused, \"the contract is paused\") */\n    tag_394:\n        /* \"Contracts/ERC721.sol\":26229:26243  uint256 supply */\n      0x00\n        /* \"Contracts/ERC721.sol\":26246:26259  totalSupply() */\n      tag_397\n        /* \"Contracts/ERC721.sol\":20935:20945  _allTokens */\n      0x08\n        /* \"Contracts/ERC721.sol\":20935:20952  _allTokens.length */\n      sload\n      swap1\n        /* \"Contracts/ERC721.sol\":20847:20960  function totalSupply() public view virtual override returns (uint256) {... */\n      jump\n        /* \"Contracts/ERC721.sol\":26246:26259  totalSupply() */\n    tag_397:\n        /* \"Contracts/ERC721.sol\":26229:26259  uint256 supply = totalSupply() */\n      swap1\n      pop\n        /* \"Contracts/ERC721.sol\":26288:26289  0 */\n      0x00\n        /* \"Contracts/ERC721.sol\":26274:26285  _mintAmount */\n      dup3\n        /* \"Contracts/ERC721.sol\":26274:26289  _mintAmount > 0 */\n      gt\n        /* \"Contracts/ERC721.sol\":26266:26321  require(_mintAmount > 0, \"need to mint at least 1 NFT\") */\n      tag_398\n      jumpi\n      mload(0x40)\n      shl(0xe5, 0x461bcd)\n      dup2\n      mstore\n        /* \"#utility.yul\":12124:12126   */\n      0x20\n        /* \"Contracts/ERC721.sol\":26266:26321  require(_mintAmount > 0, \"need to mint at least 1 NFT\") */\n      0x04\n      dup3\n      add\n        /* \"#utility.yul\":12106:12127   */\n      mstore\n        /* \"#utility.yul\":12163:12165   */\n      0x1b\n        /* \"#utility.yul\":12143:12161   */\n      0x24\n      dup3\n      add\n        /* \"#utility.yul\":12136:12166   */\n      mstore\n        /* \"#utility.yul\":12202:12231   */\n      0x6e65656420746f206d696e74206174206c656173742031204e46540000000000\n        /* \"#utility.yul\":12182:12200   */\n      0x44\n      dup3\n      add\n        /* \"#utility.yul\":12175:12232   */\n      mstore\n        /* \"#utility.yul\":12249:12267   */\n      0x64\n      add\n        /* \"Contracts/ERC721.sol\":26266:26321  require(_mintAmount > 0, \"need to mint at least 1 NFT\") */\n      tag_247\n        /* \"#utility.yul\":11922:12273   */\n      jump\n        /* \"Contracts/ERC721.sol\":26266:26321  require(_mintAmount > 0, \"need to mint at least 1 NFT\") */\n    tag_398:\n        /* \"Contracts/ERC721.sol\":26351:26364  maxMintAmount */\n      sload(0x0f)\n        /* \"Contracts/ERC721.sol\":26336:26347  _mintAmount */\n      dup3\n        /* \"Contracts/ERC721.sol\":26336:26364  _mintAmount <= maxMintAmount */\n      gt\n      iszero\n        /* \"Contracts/ERC721.sol\":26328:26405  require(_mintAmount <= maxMintAmount, \"max mint amount per session exceeded\") */\n      tag_401\n      jumpi\n      mload(0x40)\n      shl(0xe5, 0x461bcd)\n      dup2\n      mstore\n        /* \"#utility.yul\":12480:12482   */\n      0x20\n        /* \"Contracts/ERC721.sol\":26328:26405  require(_mintAmount <= maxMintAmount, \"max mint amount per session exceeded\") */\n      0x04\n      dup3\n      add\n        /* \"#utility.yul\":12462:12483   */\n      mstore\n        /* \"#utility.yul\":12519:12521   */\n      0x24\n        /* \"#utility.yul\":12499:12517   */\n      dup1\n      dup3\n      add\n        /* \"#utility.yul\":12492:12522   */\n      mstore\n        /* \"#utility.yul\":12558:12592   */\n      0x6d6178206d696e7420616d6f756e74207065722073657373696f6e2065786365\n        /* \"#utility.yul\":12538:12556   */\n      0x44\n      dup3\n      add\n        /* \"#utility.yul\":12531:12593   */\n      mstore\n      shl(0xe2, 0x19591959)\n        /* \"#utility.yul\":12609:12627   */\n      0x64\n      dup3\n      add\n        /* \"#utility.yul\":12602:12636   */\n      mstore\n        /* \"#utility.yul\":12653:12672   */\n      0x84\n      add\n        /* \"Contracts/ERC721.sol\":26328:26405  require(_mintAmount <= maxMintAmount, \"max mint amount per session exceeded\") */\n      tag_247\n        /* \"#utility.yul\":12278:12678   */\n      jump\n        /* \"Contracts/ERC721.sol\":26328:26405  require(_mintAmount <= maxMintAmount, \"max mint amount per session exceeded\") */\n    tag_401:\n        /* \"Contracts/ERC721.sol\":26444:26453  maxSupply */\n      sload(0x0e)\n        /* \"Contracts/ERC721.sol\":26420:26440  supply + _mintAmount */\n      tag_404\n        /* \"Contracts/ERC721.sol\":26429:26440  _mintAmount */\n      dup4\n        /* \"Contracts/ERC721.sol\":26420:26426  supply */\n      dup4\n        /* \"Contracts/ERC721.sol\":26420:26440  supply + _mintAmount */\n      tag_405\n      jump\t// in\n    tag_404:\n        /* \"Contracts/ERC721.sol\":26420:26453  supply + _mintAmount <= maxSupply */\n      gt\n      iszero\n        /* \"Contracts/ERC721.sol\":26412:26480  require(supply + _mintAmount <= maxSupply, \"max NFT limit exceeded\") */\n      tag_406\n      jumpi\n      mload(0x40)\n      shl(0xe5, 0x461bcd)\n      dup2\n      mstore\n        /* \"#utility.yul\":13018:13020   */\n      0x20\n        /* \"Contracts/ERC721.sol\":26412:26480  require(supply + _mintAmount <= maxSupply, \"max NFT limit exceeded\") */\n      0x04\n      dup3\n      add\n        /* \"#utility.yul\":13000:13021   */\n      mstore\n        /* \"#utility.yul\":13057:13059   */\n      0x16\n        /* \"#utility.yul\":13037:13055   */\n      0x24\n      dup3\n      add\n        /* \"#utility.yul\":13030:13060   */\n      mstore\n      shl(0x52, 0x1b585e08139195081b1a5b5a5d08195e18d959591959)\n        /* \"#utility.yul\":13076:13094   */\n      0x44\n      dup3\n      add\n        /* \"#utility.yul\":13069:13121   */\n      mstore\n        /* \"#utility.yul\":13138:13156   */\n      0x64\n      add\n        /* \"Contracts/ERC721.sol\":26412:26480  require(supply + _mintAmount <= maxSupply, \"max NFT limit exceeded\") */\n      tag_247\n        /* \"#utility.yul\":12816:13162   */\n      jump\n        /* \"Contracts/ERC721.sol\":26412:26480  require(supply + _mintAmount <= maxSupply, \"max NFT limit exceeded\") */\n    tag_406:\n        /* \"Contracts/ERC721.sol\":24636:24642  _owner */\n      and(sub(shl(0xa0, 0x01), 0x01), sload(0x0a))\n        /* \"Contracts/ERC721.sol\":26493:26503  msg.sender */\n      caller\n        /* \"Contracts/ERC721.sol\":26493:26514  msg.sender != owner() */\n      eq\n        /* \"Contracts/ERC721.sol\":26489:26905  if (msg.sender != owner()) {... */\n      tag_422\n      jumpi\n        /* \"Contracts/ERC721.sol\":26530:26545  onlyWhitelisted */\n      sload(0x11)\n      0x0100\n      swap1\n      div\n      0xff\n      and\n        /* \"Contracts/ERC721.sol\":26530:26553  onlyWhitelisted == true */\n      iszero\n      iszero\n        /* \"Contracts/ERC721.sol\":26530:26545  onlyWhitelisted */\n      0x01\n        /* \"Contracts/ERC721.sol\":26530:26553  onlyWhitelisted == true */\n      sub\n        /* \"Contracts/ERC721.sol\":26527:26825  if(onlyWhitelisted == true) {... */\n      tag_411\n      jumpi\n        /* \"Contracts/ERC721.sol\":26578:26603  isWhitelisted(msg.sender) */\n      tag_412\n        /* \"Contracts/ERC721.sol\":26592:26602  msg.sender */\n      caller\n        /* \"Contracts/ERC721.sol\":26578:26591  isWhitelisted */\n      tag_111\n        /* \"Contracts/ERC721.sol\":26578:26603  isWhitelisted(msg.sender) */\n      jump\t// in\n    tag_412:\n        /* \"Contracts/ERC721.sol\":26570:26631  require(isWhitelisted(msg.sender), \"user is not whitelisted\") */\n      tag_413\n      jumpi\n      mload(0x40)\n      shl(0xe5, 0x461bcd)\n      dup2\n      mstore\n        /* \"#utility.yul\":13369:13371   */\n      0x20\n        /* \"Contracts/ERC721.sol\":26570:26631  require(isWhitelisted(msg.sender), \"user is not whitelisted\") */\n      0x04\n      dup3\n      add\n        /* \"#utility.yul\":13351:13372   */\n      mstore\n        /* \"#utility.yul\":13408:13410   */\n      0x17\n        /* \"#utility.yul\":13388:13406   */\n      0x24\n      dup3\n      add\n        /* \"#utility.yul\":13381:13411   */\n      mstore\n        /* \"#utility.yul\":13447:13472   */\n      0x75736572206973206e6f742077686974656c6973746564000000000000000000\n        /* \"#utility.yul\":13427:13445   */\n      0x44\n      dup3\n      add\n        /* \"#utility.yul\":13420:13473   */\n      mstore\n        /* \"#utility.yul\":13490:13508   */\n      0x64\n      add\n        /* \"Contracts/ERC721.sol\":26570:26631  require(isWhitelisted(msg.sender), \"user is not whitelisted\") */\n      tag_247\n        /* \"#utility.yul\":13167:13514   */\n      jump\n        /* \"Contracts/ERC721.sol\":26570:26631  require(isWhitelisted(msg.sender), \"user is not whitelisted\") */\n    tag_413:\n        /* \"Contracts/ERC721.sol\":26694:26704  msg.sender */\n      caller\n        /* \"Contracts/ERC721.sol\":26646:26670  uint256 ownerMintedCount */\n      0x00\n        /* \"Contracts/ERC721.sol\":26673:26705  addressMintedBalance[msg.sender] */\n      swap1\n      dup2\n      mstore\n        /* \"Contracts/ERC721.sol\":26673:26693  addressMintedBalance */\n      0x13\n        /* \"Contracts/ERC721.sol\":26673:26705  addressMintedBalance[msg.sender] */\n      0x20\n      mstore\n      0x40\n      swap1\n      keccak256\n      sload\n        /* \"Contracts/ERC721.sol\":26762:26780  nftPerAddressLimit */\n      sload(0x10)\n        /* \"Contracts/ERC721.sol\":26728:26758  ownerMintedCount + _mintAmount */\n      tag_416\n        /* \"Contracts/ERC721.sol\":26747:26758  _mintAmount */\n      dup5\n        /* \"Contracts/ERC721.sol\":26673:26705  addressMintedBalance[msg.sender] */\n      dup4\n        /* \"Contracts/ERC721.sol\":26728:26758  ownerMintedCount + _mintAmount */\n      tag_405\n      jump\t// in\n    tag_416:\n        /* \"Contracts/ERC721.sol\":26728:26780  ownerMintedCount + _mintAmount <= nftPerAddressLimit */\n      gt\n      iszero\n        /* \"Contracts/ERC721.sol\":26720:26813  require(ownerMintedCount + _mintAmount <= nftPerAddressLimit, \"max NFT per address exceeded\") */\n      tag_417\n      jumpi\n      mload(0x40)\n      shl(0xe5, 0x461bcd)\n      dup2\n      mstore\n        /* \"#utility.yul\":13721:13723   */\n      0x20\n        /* \"Contracts/ERC721.sol\":26720:26813  require(ownerMintedCount + _mintAmount <= nftPerAddressLimit, \"max NFT per address exceeded\") */\n      0x04\n      dup3\n      add\n        /* \"#utility.yul\":13703:13724   */\n      mstore\n        /* \"#utility.yul\":13760:13762   */\n      0x1c\n        /* \"#utility.yul\":13740:13758   */\n      0x24\n      dup3\n      add\n        /* \"#utility.yul\":13733:13763   */\n      mstore\n        /* \"#utility.yul\":13799:13829   */\n      0x6d6178204e465420706572206164647265737320657863656564656400000000\n        /* \"#utility.yul\":13779:13797   */\n      0x44\n      dup3\n      add\n        /* \"#utility.yul\":13772:13830   */\n      mstore\n        /* \"#utility.yul\":13847:13865   */\n      0x64\n      add\n        /* \"Contracts/ERC721.sol\":26720:26813  require(ownerMintedCount + _mintAmount <= nftPerAddressLimit, \"max NFT per address exceeded\") */\n      tag_247\n        /* \"#utility.yul\":13519:13871   */\n      jump\n        /* \"Contracts/ERC721.sol\":26720:26813  require(ownerMintedCount + _mintAmount <= nftPerAddressLimit, \"max NFT per address exceeded\") */\n    tag_417:\n        /* \"Contracts/ERC721.sol\":26555:26825  {... */\n      pop\n        /* \"Contracts/ERC721.sol\":26527:26825  if(onlyWhitelisted == true) {... */\n    tag_411:\n        /* \"Contracts/ERC721.sol\":26863:26874  _mintAmount */\n      dup2\n        /* \"Contracts/ERC721.sol\":26856:26860  cost */\n      sload(0x0d)\n        /* \"Contracts/ERC721.sol\":26856:26874  cost * _mintAmount */\n      tag_420\n      swap2\n      swap1\n      tag_421\n      jump\t// in\n    tag_420:\n        /* \"Contracts/ERC721.sol\":26843:26852  msg.value */\n      callvalue\n        /* \"Contracts/ERC721.sol\":26843:26874  msg.value >= cost * _mintAmount */\n      lt\n      iszero\n        /* \"Contracts/ERC721.sol\":26835:26897  require(msg.value >= cost * _mintAmount, \"insufficient funds\") */\n      tag_422\n      jumpi\n      mload(0x40)\n      shl(0xe5, 0x461bcd)\n      dup2\n      mstore\n        /* \"#utility.yul\":14251:14253   */\n      0x20\n        /* \"Contracts/ERC721.sol\":26835:26897  require(msg.value >= cost * _mintAmount, \"insufficient funds\") */\n      0x04\n      dup3\n      add\n        /* \"#utility.yul\":14233:14254   */\n      mstore\n        /* \"#utility.yul\":14290:14292   */\n      0x12\n        /* \"#utility.yul\":14270:14288   */\n      0x24\n      dup3\n      add\n        /* \"#utility.yul\":14263:14293   */\n      mstore\n      shl(0x70, 0x696e73756666696369656e742066756e6473)\n        /* \"#utility.yul\":14309:14327   */\n      0x44\n      dup3\n      add\n        /* \"#utility.yul\":14302:14350   */\n      mstore\n        /* \"#utility.yul\":14367:14385   */\n      0x64\n      add\n        /* \"Contracts/ERC721.sol\":26835:26897  require(msg.value >= cost * _mintAmount, \"insufficient funds\") */\n      tag_247\n        /* \"#utility.yul\":14049:14391   */\n      jump\n        /* \"Contracts/ERC721.sol\":26835:26897  require(msg.value >= cost * _mintAmount, \"insufficient funds\") */\n    tag_422:\n        /* \"Contracts/ERC721.sol\":26930:26931  1 */\n      0x01\n        /* \"Contracts/ERC721.sol\":26913:27049  for (uint256 i = 1; i <= _mintAmount; i++) {... */\n    tag_425:\n        /* \"Contracts/ERC721.sol\":26938:26949  _mintAmount */\n      dup3\n        /* \"Contracts/ERC721.sol\":26933:26934  i */\n      dup2\n        /* \"Contracts/ERC721.sol\":26933:26949  i <= _mintAmount */\n      gt\n        /* \"Contracts/ERC721.sol\":26913:27049  for (uint256 i = 1; i <= _mintAmount; i++) {... */\n      tag_275\n      jumpi\n        /* \"Contracts/ERC721.sol\":26986:26996  msg.sender */\n      caller\n        /* \"Contracts/ERC721.sol\":26965:26997  addressMintedBalance[msg.sender] */\n      0x00\n      swap1\n      dup2\n      mstore\n        /* \"Contracts/ERC721.sol\":26965:26985  addressMintedBalance */\n      0x13\n        /* \"Contracts/ERC721.sol\":26965:26997  addressMintedBalance[msg.sender] */\n      0x20\n      mstore\n      0x40\n      dup2\n      keccak256\n        /* \"Contracts/ERC721.sol\":26965:26999  addressMintedBalance[msg.sender]++ */\n      dup1\n      sload\n      swap2\n      tag_428\n      dup4\n      tag_302\n      jump\t// in\n    tag_428:\n      swap1\n      swap2\n      sstore\n      pop\n        /* \"Contracts/ERC721.sol\":27008:27041  _safeMint(msg.sender, supply + i) */\n      tag_429\n      swap1\n      pop\n        /* \"Contracts/ERC721.sol\":27018:27028  msg.sender */\n      caller\n        /* \"Contracts/ERC721.sol\":27030:27040  supply + i */\n      tag_430\n        /* \"Contracts/ERC721.sol\":27039:27040  i */\n      dup4\n        /* \"Contracts/ERC721.sol\":27030:27036  supply */\n      dup6\n        /* \"Contracts/ERC721.sol\":27030:27040  supply + i */\n      tag_405\n      jump\t// in\n    tag_430:\n        /* \"Contracts/ERC721.sol\":27008:27017  _safeMint */\n      tag_431\n        /* \"Contracts/ERC721.sol\":27008:27041  _safeMint(msg.sender, supply + i) */\n      jump\t// in\n    tag_429:\n        /* \"Contracts/ERC721.sol\":26951:26954  i++ */\n      dup1\n      tag_432\n      dup2\n      tag_302\n      jump\t// in\n    tag_432:\n      swap2\n      pop\n      pop\n        /* \"Contracts/ERC721.sol\":26913:27049  for (uint256 i = 1; i <= _mintAmount; i++) {... */\n      jump(tag_425)\n        /* \"Contracts/ERC721.sol\":13894:14189  function setApprovalForAll(address operator, bool approved) public virtual override {... */\n    tag_187:\n        /* \"Contracts/ERC721.sol\":9988:9998  msg.sender */\n      caller\n      sub(shl(0xa0, 0x01), 0x01)\n        /* \"Contracts/ERC721.sol\":13997:14021  operator != _msgSender() */\n      dup4\n      and\n      sub\n        /* \"Contracts/ERC721.sol\":13989:14051  require(operator != _msgSender(), \"ERC721: approve to caller\") */\n      tag_435\n      jumpi\n      mload(0x40)\n      shl(0xe5, 0x461bcd)\n      dup2\n      mstore\n        /* \"#utility.yul\":14598:14600   */\n      0x20\n        /* \"Contracts/ERC721.sol\":13989:14051  require(operator != _msgSender(), \"ERC721: approve to caller\") */\n      0x04\n      dup3\n      add\n        /* \"#utility.yul\":14580:14601   */\n      mstore\n        /* \"#utility.yul\":14637:14639   */\n      0x19\n        /* \"#utility.yul\":14617:14635   */\n      0x24\n      dup3\n      add\n        /* \"#utility.yul\":14610:14640   */\n      mstore\n        /* \"#utility.yul\":14676:14703   */\n      0x4552433732313a20617070726f766520746f2063616c6c657200000000000000\n        /* \"#utility.yul\":14656:14674   */\n      0x44\n      dup3\n      add\n        /* \"#utility.yul\":14649:14704   */\n      mstore\n        /* \"#utility.yul\":14721:14739   */\n      0x64\n      add\n        /* \"Contracts/ERC721.sol\":13989:14051  require(operator != _msgSender(), \"ERC721: approve to caller\") */\n      tag_247\n        /* \"#utility.yul\":14396:14745   */\n      jump\n        /* \"Contracts/ERC721.sol\":13989:14051  require(operator != _msgSender(), \"ERC721: approve to caller\") */\n    tag_435:\n        /* \"Contracts/ERC721.sol\":9988:9998  msg.sender */\n      caller\n        /* \"Contracts/ERC721.sol\":14064:14096  _operatorApprovals[_msgSender()] */\n      0x00\n      dup2\n      dup2\n      mstore\n        /* \"Contracts/ERC721.sol\":14064:14082  _operatorApprovals */\n      0x05\n        /* \"Contracts/ERC721.sol\":14064:14096  _operatorApprovals[_msgSender()] */\n      0x20\n      swap1\n      dup2\n      mstore\n      0x40\n      dup1\n      dup4\n      keccak256\n      sub(shl(0xa0, 0x01), 0x01)\n        /* \"Contracts/ERC721.sol\":14064:14106  _operatorApprovals[_msgSender()][operator] */\n      dup8\n      and\n      dup1\n      dup6\n      mstore\n      swap1\n      dup4\n      mstore\n      swap3\n      dup2\n      swap1\n      keccak256\n        /* \"Contracts/ERC721.sol\":14064:14117  _operatorApprovals[_msgSender()][operator] = approved */\n      dup1\n      sload\n      not(0xff)\n      and\n      dup7\n      iszero\n      iszero\n      swap1\n      dup2\n      or\n      swap1\n      swap2\n      sstore\n        /* \"Contracts/ERC721.sol\":14133:14181  ApprovalForAll(_msgSender(), operator, approved) */\n      swap1\n      mload\n        /* \"#utility.yul\":540:581   */\n      swap1\n      dup2\n      mstore\n        /* \"Contracts/ERC721.sol\":14064:14106  _operatorApprovals[_msgSender()][operator] */\n      swap2\n      swap3\n        /* \"Contracts/ERC721.sol\":9988:9998  msg.sender */\n      swap2\n        /* \"Contracts/ERC721.sol\":14133:14181  ApprovalForAll(_msgSender(), operator, approved) */\n      0x17307eab39ab6107e8899845ad3d59bd9653f200f220920489ca2b5937696c31\n      swap2\n        /* \"#utility.yul\":513:531   */\n      add\n        /* \"Contracts/ERC721.sol\":14133:14181  ApprovalForAll(_msgSender(), operator, approved) */\n      mload(0x40)\n      dup1\n      swap2\n      sub\n      swap1\n      log3\n        /* \"Contracts/ERC721.sol\":13894:14189  function setApprovalForAll(address operator, bool approved) public virtual override {... */\n      pop\n      pop\n      jump\t// out\n        /* \"Contracts/ERC721.sol\":15157:15485  function safeTransferFrom(... */\n    tag_192:\n        /* \"Contracts/ERC721.sol\":15332:15373  _isApprovedOrOwner(_msgSender(), tokenId) */\n      tag_442\n        /* \"Contracts/ERC721.sol\":9988:9998  msg.sender */\n      caller\n        /* \"Contracts/ERC721.sol\":15365:15372  tokenId */\n      dup4\n        /* \"Contracts/ERC721.sol\":15332:15350  _isApprovedOrOwner */\n      tag_281\n        /* \"Contracts/ERC721.sol\":15332:15373  _isApprovedOrOwner(_msgSender(), tokenId) */\n      jump\t// in\n    tag_442:\n        /* \"Contracts/ERC721.sol\":15324:15427  require(_isApprovedOrOwner(_msgSender(), tokenId), \"ERC721: transfer caller is not owner nor approved\") */\n      tag_444\n      jumpi\n      mload(0x40)\n      shl(0xe5, 0x461bcd)\n      dup2\n      mstore\n      0x04\n      add\n      tag_247\n      swap1\n      tag_284\n      jump\t// in\n    tag_444:\n        /* \"Contracts/ERC721.sol\":15438:15477  _safeTransfer(from, to, tokenId, _data) */\n      tag_446\n        /* \"Contracts/ERC721.sol\":15452:15456  from */\n      dup5\n        /* \"Contracts/ERC721.sol\":15458:15460  to */\n      dup5\n        /* \"Contracts/ERC721.sol\":15462:15469  tokenId */\n      dup5\n        /* \"Contracts/ERC721.sol\":15471:15476  _data */\n      dup5\n        /* \"Contracts/ERC721.sol\":15438:15451  _safeTransfer */\n      tag_447\n        /* \"Contracts/ERC721.sol\":15438:15477  _safeTransfer(from, to, tokenId, _data) */\n      jump\t// in\n    tag_446:\n        /* \"Contracts/ERC721.sol\":15157:15485  function safeTransferFrom(... */\n      pop\n      pop\n      pop\n      pop\n      jump\t// out\n        /* \"Contracts/ERC721.sol\":25724:25761  address[] public whitelistedAddresses */\n    tag_196:\n      0x12\n      dup2\n      dup2\n      sload\n      dup2\n      lt\n      tag_448\n      jumpi\n      0x00\n      dup1\n      revert\n    tag_448:\n      0x00\n      swap2\n      dup3\n      mstore\n      0x20\n      swap1\n      swap2\n      keccak256\n      add\n      sload\n      sub(shl(0xa0, 0x01), 0x01)\n      and\n      swap1\n      pop\n      dup2\n      jump\t// out\n        /* \"Contracts/ERC721.sol\":25458:25495  string public baseExtension = \".json\" */\n    tag_204:\n      0x0c\n      dup1\n      sload\n      tag_363\n      swap1\n      tag_252\n      jump\t// in\n        /* \"Contracts/ERC721.sol\":27661:28088  function tokenURI(uint256 tokenId)... */\n    tag_209:\n        /* \"Contracts/ERC721.sol\":15881:15885  bool */\n      0x00\n        /* \"Contracts/ERC721.sol\":15905:15921  _owners[tokenId] */\n      dup2\n      dup2\n      mstore\n        /* \"Contracts/ERC721.sol\":15905:15912  _owners */\n      0x02\n        /* \"Contracts/ERC721.sol\":15905:15921  _owners[tokenId] */\n      0x20\n      mstore\n      0x40\n      swap1\n      keccak256\n      sload\n        /* \"Contracts/ERC721.sol\":27759:27772  string memory */\n      0x60\n      swap1\n      sub(shl(0xa0, 0x01), 0x01)\n        /* \"Contracts/ERC721.sol\":15905:15921  _owners[tokenId] */\n      and\n        /* \"Contracts/ERC721.sol\":27784:27881  require(... */\n      tag_457\n      jumpi\n      mload(0x40)\n      shl(0xe5, 0x461bcd)\n      dup2\n      mstore\n        /* \"#utility.yul\":14952:14954   */\n      0x20\n        /* \"Contracts/ERC721.sol\":27784:27881  require(... */\n      0x04\n      dup3\n      add\n        /* \"#utility.yul\":14934:14955   */\n      mstore\n        /* \"#utility.yul\":14991:14993   */\n      0x2f\n        /* \"#utility.yul\":14971:14989   */\n      0x24\n      dup3\n      add\n        /* \"#utility.yul\":14964:14994   */\n      mstore\n        /* \"#utility.yul\":15030:15064   */\n      0x4552433732314d657461646174613a2055524920717565727920666f72206e6f\n        /* \"#utility.yul\":15010:15028   */\n      0x44\n      dup3\n      add\n        /* \"#utility.yul\":15003:15065   */\n      mstore\n      shl(0x89, 0x3732bc34b9ba32b73a103a37b5b2b7)\n        /* \"#utility.yul\":15081:15099   */\n      0x64\n      dup3\n      add\n        /* \"#utility.yul\":15074:15119   */\n      mstore\n        /* \"#utility.yul\":15136:15155   */\n      0x84\n      add\n        /* \"Contracts/ERC721.sol\":27784:27881  require(... */\n      tag_247\n        /* \"#utility.yul\":14750:15161   */\n      jump\n        /* \"Contracts/ERC721.sol\":27784:27881  require(... */\n    tag_457:\n        /* \"Contracts/ERC721.sol\":27894:27922  string memory currentBaseURI */\n      0x00\n        /* \"Contracts/ERC721.sol\":27925:27935  _baseURI() */\n      tag_460\n        /* \"Contracts/ERC721.sol\":27925:27933  _baseURI */\n      tag_461\n        /* \"Contracts/ERC721.sol\":27925:27935  _baseURI() */\n      jump\t// in\n    tag_460:\n        /* \"Contracts/ERC721.sol\":27894:27935  string memory currentBaseURI = _baseURI() */\n      swap1\n      pop\n        /* \"Contracts/ERC721.sol\":27980:27981  0 */\n      0x00\n        /* \"Contracts/ERC721.sol\":27955:27969  currentBaseURI */\n      dup2\n        /* \"Contracts/ERC721.sol\":27949:27977  bytes(currentBaseURI).length */\n      mload\n        /* \"Contracts/ERC721.sol\":27949:27981  bytes(currentBaseURI).length > 0 */\n      gt\n        /* \"Contracts/ERC721.sol\":27949:28082  bytes(currentBaseURI).length > 0... */\n      tag_462\n      jumpi\n      mload(0x40)\n      dup1\n      0x20\n      add\n      0x40\n      mstore\n      dup1\n      0x00\n      dup2\n      mstore\n      pop\n      jump(tag_463)\n    tag_462:\n        /* \"Contracts/ERC721.sol\":28017:28031  currentBaseURI */\n      dup1\n        /* \"Contracts/ERC721.sol\":28033:28051  tokenId.toString() */\n      tag_464\n        /* \"Contracts/ERC721.sol\":28033:28040  tokenId */\n      dup5\n        /* \"Contracts/ERC721.sol\":28033:28049  tokenId.toString */\n      tag_465\n        /* \"Contracts/ERC721.sol\":28033:28051  tokenId.toString() */\n      jump\t// in\n    tag_464:\n        /* \"Contracts/ERC721.sol\":28053:28066  baseExtension */\n      0x0c\n        /* \"Contracts/ERC721.sol\":28000:28067  abi.encodePacked(currentBaseURI, tokenId.toString(), baseExtension) */\n      add(0x20, mload(0x40))\n      tag_466\n      swap4\n      swap3\n      swap2\n      swap1\n      tag_467\n      jump\t// in\n    tag_466:\n      mload(0x40)\n      0x20\n      dup2\n      dup4\n      sub\n      sub\n      dup2\n      mstore\n      swap1\n      0x40\n      mstore\n        /* \"Contracts/ERC721.sol\":27949:28082  bytes(currentBaseURI).length > 0... */\n    tag_463:\n        /* \"Contracts/ERC721.sol\":27942:28082  return bytes(currentBaseURI).length > 0... */\n      swap4\n        /* \"Contracts/ERC721.sol\":27661:28088  function tokenURI(uint256 tokenId)... */\n      swap3\n      pop\n      pop\n      pop\n      jump\t// out\n        /* \"Contracts/ERC721.sol\":28096:28200  function setNftPerAddressLimit(uint256 _limit) public onlyOwner {... */\n    tag_214:\n        /* \"Contracts/ERC721.sol\":24636:24642  _owner */\n      and(sub(shl(0xa0, 0x01), 0x01), sload(0x0a))\n        /* \"Contracts/ERC721.sol\":9988:9998  msg.sender */\n      caller\n        /* \"Contracts/ERC721.sol\":24783:24806  owner() == _msgSender() */\n      eq\n        /* \"Contracts/ERC721.sol\":24775:24843  require(owner() == _msgSender(), \"Ownable: caller is not the owner\") */\n      tag_471\n      jumpi\n      mload(0x40)\n      shl(0xe5, 0x461bcd)\n      dup2\n      mstore\n      0x04\n      add\n      tag_247\n      swap1\n      tag_248\n      jump\t// in\n    tag_471:\n        /* \"Contracts/ERC721.sol\":28167:28185  nftPerAddressLimit */\n      0x10\n        /* \"Contracts/ERC721.sol\":28167:28194  nftPerAddressLimit = _limit */\n      sstore\n        /* \"Contracts/ERC721.sol\":28096:28200  function setNftPerAddressLimit(uint256 _limit) public onlyOwner {... */\n      jump\t// out\n        /* \"Contracts/ERC721.sol\":28522:28644  function setBaseExtension(string memory _newBaseExtension) public onlyOwner {... */\n    tag_222:\n        /* \"Contracts/ERC721.sol\":24636:24642  _owner */\n      and(sub(shl(0xa0, 0x01), 0x01), sload(0x0a))\n        /* \"Contracts/ERC721.sol\":9988:9998  msg.sender */\n      caller\n        /* \"Contracts/ERC721.sol\":24783:24806  owner() == _msgSender() */\n      eq\n        /* \"Contracts/ERC721.sol\":24775:24843  require(owner() == _msgSender(), \"Ownable: caller is not the owner\") */\n      tag_477\n      jumpi\n      mload(0x40)\n      shl(0xe5, 0x461bcd)\n      dup2\n      mstore\n      0x04\n      add\n      tag_247\n      swap1\n      tag_248\n      jump\t// in\n    tag_477:\n        /* \"Contracts/ERC721.sol\":28605:28638  baseExtension = _newBaseExtension */\n      dup1\n      mload\n      tag_357\n      swap1\n        /* \"Contracts/ERC721.sol\":28605:28618  baseExtension */\n      0x0c\n      swap1\n        /* \"Contracts/ERC721.sol\":28605:28638  baseExtension = _newBaseExtension */\n      0x20\n      dup5\n      add\n      swap1\n      tag_358\n      jump\t// in\n        /* \"Contracts/ERC721.sol\":28836:28980  function whitelistUsers(address[] calldata _users) public onlyOwner {... */\n    tag_233:\n        /* \"Contracts/ERC721.sol\":24636:24642  _owner */\n      and(sub(shl(0xa0, 0x01), 0x01), sload(0x0a))\n        /* \"Contracts/ERC721.sol\":9988:9998  msg.sender */\n      caller\n        /* \"Contracts/ERC721.sol\":24783:24806  owner() == _msgSender() */\n      eq\n        /* \"Contracts/ERC721.sol\":24775:24843  require(owner() == _msgSender(), \"Ownable: caller is not the owner\") */\n      tag_485\n      jumpi\n      mload(0x40)\n      shl(0xe5, 0x461bcd)\n      dup2\n      mstore\n      0x04\n      add\n      tag_247\n      swap1\n      tag_248\n      jump\t// in\n    tag_485:\n        /* \"Contracts/ERC721.sol\":28911:28938  delete whitelistedAddresses */\n      tag_488\n        /* \"Contracts/ERC721.sol\":28918:28938  whitelistedAddresses */\n      0x12\n      0x00\n        /* \"Contracts/ERC721.sol\":28911:28938  delete whitelistedAddresses */\n      tag_489\n      jump\t// in\n    tag_488:\n        /* \"Contracts/ERC721.sol\":28945:28974  whitelistedAddresses = _users */\n      tag_275\n        /* \"Contracts/ERC721.sol\":28945:28965  whitelistedAddresses */\n      0x12\n        /* \"Contracts/ERC721.sol\":28968:28974  _users */\n      dup4\n      dup4\n        /* \"Contracts/ERC721.sol\":28945:28974  whitelistedAddresses = _users */\n      tag_491\n      jump\t// in\n        /* \"Contracts/ERC721.sol\":24973:25165  function transferOwnership(address newOwner) public virtual onlyOwner {... */\n    tag_237:\n        /* \"Contracts/ERC721.sol\":24636:24642  _owner */\n      and(sub(shl(0xa0, 0x01), 0x01), sload(0x0a))\n        /* \"Contracts/ERC721.sol\":9988:9998  msg.sender */\n      caller\n        /* \"Contracts/ERC721.sol\":24783:24806  owner() == _msgSender() */\n      eq\n        /* \"Contracts/ERC721.sol\":24775:24843  require(owner() == _msgSender(), \"Ownable: caller is not the owner\") */\n      tag_495\n      jumpi\n      mload(0x40)\n      shl(0xe5, 0x461bcd)\n      dup2\n      mstore\n      0x04\n      add\n      tag_247\n      swap1\n      tag_248\n      jump\t// in\n    tag_495:\n      sub(shl(0xa0, 0x01), 0x01)\n        /* \"Contracts/ERC721.sol\":25062:25084  newOwner != address(0) */\n      dup2\n      and\n        /* \"Contracts/ERC721.sol\":25054:25127  require(newOwner != address(0), \"Ownable: new owner is the zero address\") */\n      tag_498\n      jumpi\n      mload(0x40)\n      shl(0xe5, 0x461bcd)\n      dup2\n      mstore\n        /* \"#utility.yul\":17026:17028   */\n      0x20\n        /* \"Contracts/ERC721.sol\":25054:25127  require(newOwner != address(0), \"Ownable: new owner is the zero address\") */\n      0x04\n      dup3\n      add\n        /* \"#utility.yul\":17008:17029   */\n      mstore\n        /* \"#utility.yul\":17065:17067   */\n      0x26\n        /* \"#utility.yul\":17045:17063   */\n      0x24\n      dup3\n      add\n        /* \"#utility.yul\":17038:17068   */\n      mstore\n        /* \"#utility.yul\":17104:17138   */\n      0x4f776e61626c653a206e6577206f776e657220697320746865207a65726f2061\n        /* \"#utility.yul\":17084:17102   */\n      0x44\n      dup3\n      add\n        /* \"#utility.yul\":17077:17139   */\n      mstore\n      shl(0xd0, 0x646472657373)\n        /* \"#utility.yul\":17155:17173   */\n      0x64\n      dup3\n      add\n        /* \"#utility.yul\":17148:17184   */\n      mstore\n        /* \"#utility.yul\":17201:17220   */\n      0x84\n      add\n        /* \"Contracts/ERC721.sol\":25054:25127  require(newOwner != address(0), \"Ownable: new owner is the zero address\") */\n      tag_247\n        /* \"#utility.yul\":16824:17226   */\n      jump\n        /* \"Contracts/ERC721.sol\":25054:25127  require(newOwner != address(0), \"Ownable: new owner is the zero address\") */\n    tag_498:\n        /* \"Contracts/ERC721.sol\":25138:25157  _setOwner(newOwner) */\n      tag_321\n        /* \"Contracts/ERC721.sol\":25148:25156  newOwner */\n      dup2\n        /* \"Contracts/ERC721.sol\":25138:25147  _setOwner */\n      tag_379\n        /* \"Contracts/ERC721.sol\":25138:25157  _setOwner(newOwner) */\n      jump\t// in\n        /* \"Contracts/ERC721.sol\":11097:11402  function supportsInterface(bytes4 interfaceId) public view virtual override(ERC165, IERC165) returns (bool) {... */\n    tag_241:\n        /* \"Contracts/ERC721.sol\":11199:11203  bool */\n      0x00\n      not(sub(shl(0xe0, 0x01), 0x01))\n        /* \"Contracts/ERC721.sol\":11236:11276  interfaceId == type(IERC721).interfaceId */\n      dup3\n      and\n      shl(0xe0, 0x80ac58cd)\n      eq\n      dup1\n        /* \"Contracts/ERC721.sol\":11236:11341  interfaceId == type(IERC721).interfaceId ||... */\n      tag_503\n      jumpi\n      pop\n      not(sub(shl(0xe0, 0x01), 0x01))\n        /* \"Contracts/ERC721.sol\":11293:11341  interfaceId == type(IERC721Metadata).interfaceId */\n      dup3\n      and\n      shl(0xe0, 0x5b5e139f)\n      eq\n        /* \"Contracts/ERC721.sol\":11236:11341  interfaceId == type(IERC721).interfaceId ||... */\n    tag_503:\n        /* \"Contracts/ERC721.sol\":11236:11394  interfaceId == type(IERC721).interfaceId ||... */\n      dup1\n      tag_240\n      jumpi\n      pop\n      shl(0xe0, 0x01ffc9a7)\n      not(sub(shl(0xe0, 0x01), 0x01))\n        /* \"Contracts/ERC721.sol\":2809:2849  interfaceId == type(IERC165).interfaceId */\n      dup4\n      and\n      eq\n        /* \"Contracts/ERC721.sol\":11358:11394  super.supportsInterface(interfaceId) */\n      tag_240\n        /* \"Contracts/ERC721.sol\":2700:2857  function supportsInterface(bytes4 interfaceId) public view virtual override returns (bool) {... */\n      jump\n        /* \"Contracts/ERC721.sol\":18476:18650  function _approve(address to, uint256 tokenId) internal virtual {... */\n    tag_276:\n        /* \"Contracts/ERC721.sol\":18551:18575  _tokenApprovals[tokenId] */\n      0x00\n      dup2\n      dup2\n      mstore\n        /* \"Contracts/ERC721.sol\":18551:18566  _tokenApprovals */\n      0x04\n        /* \"Contracts/ERC721.sol\":18551:18575  _tokenApprovals[tokenId] */\n      0x20\n      mstore\n      0x40\n      swap1\n      keccak256\n        /* \"Contracts/ERC721.sol\":18551:18580  _tokenApprovals[tokenId] = to */\n      dup1\n      sload\n      not(sub(shl(0xa0, 0x01), 0x01))\n      and\n      sub(shl(0xa0, 0x01), 0x01)\n      dup5\n      and\n      swap1\n      dup2\n      or\n      swap1\n      swap2\n      sstore\n        /* \"Contracts/ERC721.sol\":18551:18575  _tokenApprovals[tokenId] */\n      dup2\n      swap1\n        /* \"Contracts/ERC721.sol\":18605:18628  ERC721.ownerOf(tokenId) */\n      tag_510\n        /* \"Contracts/ERC721.sol\":18551:18575  _tokenApprovals[tokenId] */\n      dup3\n        /* \"Contracts/ERC721.sol\":18605:18619  ERC721.ownerOf */\n      tag_150\n        /* \"Contracts/ERC721.sol\":18605:18628  ERC721.ownerOf(tokenId) */\n      jump\t// in\n    tag_510:\n      sub(shl(0xa0, 0x01), 0x01)\n        /* \"Contracts/ERC721.sol\":18596:18642  Approval(ERC721.ownerOf(tokenId), to, tokenId) */\n      and\n      0x8c5be1e5ebec7d5bd14f71427d1e84f3dd0314c0f7b2291e5b200ac8c7c3b925\n      mload(0x40)\n      mload(0x40)\n      dup1\n      swap2\n      sub\n      swap1\n      log4\n        /* \"Contracts/ERC721.sol\":18476:18650  function _approve(address to, uint256 tokenId) internal virtual {... */\n      pop\n      pop\n      jump\t// out\n        /* \"Contracts/ERC721.sol\":16110:16458  function _isApprovedOrOwner(address spender, uint256 tokenId) internal view virtual returns (bool) {... */\n    tag_281:\n        /* \"Contracts/ERC721.sol\":16203:16207  bool */\n      0x00\n        /* \"Contracts/ERC721.sol\":15905:15921  _owners[tokenId] */\n      dup2\n      dup2\n      mstore\n        /* \"Contracts/ERC721.sol\":15905:15912  _owners */\n      0x02\n        /* \"Contracts/ERC721.sol\":15905:15921  _owners[tokenId] */\n      0x20\n      mstore\n      0x40\n      dup2\n      keccak256\n      sload\n      sub(shl(0xa0, 0x01), 0x01)\n      and\n        /* \"Contracts/ERC721.sol\":16220:16293  require(_exists(tokenId), \"ERC721: operator query for nonexistent token\") */\n      tag_513\n      jumpi\n      mload(0x40)\n      shl(0xe5, 0x461bcd)\n      dup2\n      mstore\n        /* \"#utility.yul\":17433:17435   */\n      0x20\n        /* \"Contracts/ERC721.sol\":16220:16293  require(_exists(tokenId), \"ERC721: operator query for nonexistent token\") */\n      0x04\n      dup3\n      add\n        /* \"#utility.yul\":17415:17436   */\n      mstore\n        /* \"#utility.yul\":17472:17474   */\n      0x2c\n        /* \"#utility.yul\":17452:17470   */\n      0x24\n      dup3\n      add\n        /* \"#utility.yul\":17445:17475   */\n      mstore\n        /* \"#utility.yul\":17511:17545   */\n      0x4552433732313a206f70657261746f7220717565727920666f72206e6f6e6578\n        /* \"#utility.yul\":17491:17509   */\n      0x44\n      dup3\n      add\n        /* \"#utility.yul\":17484:17546   */\n      mstore\n      shl(0xa1, 0x34b9ba32b73a103a37b5b2b7)\n        /* \"#utility.yul\":17562:17580   */\n      0x64\n      dup3\n      add\n        /* \"#utility.yul\":17555:17597   */\n      mstore\n        /* \"#utility.yul\":17614:17633   */\n      0x84\n      add\n        /* \"Contracts/ERC721.sol\":16220:16293  require(_exists(tokenId), \"ERC721: operator query for nonexistent token\") */\n      tag_247\n        /* \"#utility.yul\":17231:17639   */\n      jump\n        /* \"Contracts/ERC721.sol\":16220:16293  require(_exists(tokenId), \"ERC721: operator query for nonexistent token\") */\n    tag_513:\n        /* \"Contracts/ERC721.sol\":16304:16317  address owner */\n      0x00\n        /* \"Contracts/ERC721.sol\":16320:16343  ERC721.ownerOf(tokenId) */\n      tag_516\n        /* \"Contracts/ERC721.sol\":16335:16342  tokenId */\n      dup4\n        /* \"Contracts/ERC721.sol\":16320:16334  ERC721.ownerOf */\n      tag_150\n        /* \"Contracts/ERC721.sol\":16320:16343  ERC721.ownerOf(tokenId) */\n      jump\t// in\n    tag_516:\n        /* \"Contracts/ERC721.sol\":16304:16343  address owner = ERC721.ownerOf(tokenId) */\n      swap1\n      pop\n        /* \"Contracts/ERC721.sol\":16373:16378  owner */\n      dup1\n      sub(shl(0xa0, 0x01), 0x01)\n        /* \"Contracts/ERC721.sol\":16362:16378  spender == owner */\n      and\n        /* \"Contracts/ERC721.sol\":16362:16369  spender */\n      dup5\n      sub(shl(0xa0, 0x01), 0x01)\n        /* \"Contracts/ERC721.sol\":16362:16378  spender == owner */\n      and\n      eq\n        /* \"Contracts/ERC721.sol\":16362:16413  spender == owner || getApproved(tokenId) == spender */\n      dup1\n      tag_517\n      jumpi\n      pop\n        /* \"Contracts/ERC721.sol\":16406:16413  spender */\n      dup4\n      sub(shl(0xa0, 0x01), 0x01)\n        /* \"Contracts/ERC721.sol\":16382:16413  getApproved(tokenId) == spender */\n      and\n        /* \"Contracts/ERC721.sol\":16382:16402  getApproved(tokenId) */\n      tag_518\n        /* \"Contracts/ERC721.sol\":16394:16401  tokenId */\n      dup5\n        /* \"Contracts/ERC721.sol\":16382:16393  getApproved */\n      tag_71\n        /* \"Contracts/ERC721.sol\":16382:16402  getApproved(tokenId) */\n      jump\t// in\n    tag_518:\n      sub(shl(0xa0, 0x01), 0x01)\n        /* \"Contracts/ERC721.sol\":16382:16413  getApproved(tokenId) == spender */\n      and\n      eq\n        /* \"Contracts/ERC721.sol\":16362:16413  spender == owner || getApproved(tokenId) == spender */\n    tag_517:\n        /* \"Contracts/ERC721.sol\":16362:16449  spender == owner || getApproved(tokenId) == spender || isApprovedForAll(owner, spender) */\n      dup1\n      tag_520\n      jumpi\n      pop\n      sub(shl(0xa0, 0x01), 0x01)\n        /* \"Contracts/ERC721.sol\":14381:14406  _operatorApprovals[owner] */\n      dup1\n      dup3\n      and\n        /* \"Contracts/ERC721.sol\":14357:14361  bool */\n      0x00\n        /* \"Contracts/ERC721.sol\":14381:14406  _operatorApprovals[owner] */\n      swap1\n      dup2\n      mstore\n        /* \"Contracts/ERC721.sol\":14381:14399  _operatorApprovals */\n      0x05\n        /* \"Contracts/ERC721.sol\":14381:14406  _operatorApprovals[owner] */\n      0x20\n      swap1\n      dup2\n      mstore\n      0x40\n      dup1\n      dup4\n      keccak256\n        /* \"Contracts/ERC721.sol\":14381:14416  _operatorApprovals[owner][operator] */\n      swap4\n      dup9\n      and\n      dup4\n      mstore\n      swap3\n      swap1\n      mstore\n      keccak256\n      sload\n      0xff\n      and\n        /* \"Contracts/ERC721.sol\":16417:16449  isApprovedForAll(owner, spender) */\n    tag_520:\n        /* \"Contracts/ERC721.sol\":16354:16450  return (spender == owner || getApproved(tokenId) == spender || isApprovedForAll(owner, spender)) */\n      swap5\n        /* \"Contracts/ERC721.sol\":16110:16458  function _isApprovedOrOwner(address spender, uint256 tokenId) internal view virtual returns (bool) {... */\n      swap4\n      pop\n      pop\n      pop\n      pop\n      jump\t// out\n        /* \"Contracts/ERC721.sol\":17890:18468  function _transfer(... */\n    tag_286:\n        /* \"Contracts/ERC721.sol\":18049:18053  from */\n      dup3\n      sub(shl(0xa0, 0x01), 0x01)\n        /* \"Contracts/ERC721.sol\":18022:18053  ERC721.ownerOf(tokenId) == from */\n      and\n        /* \"Contracts/ERC721.sol\":18022:18045  ERC721.ownerOf(tokenId) */\n      tag_522\n        /* \"Contracts/ERC721.sol\":18037:18044  tokenId */\n      dup3\n        /* \"Contracts/ERC721.sol\":18022:18036  ERC721.ownerOf */\n      tag_150\n        /* \"Contracts/ERC721.sol\":18022:18045  ERC721.ownerOf(tokenId) */\n      jump\t// in\n    tag_522:\n      sub(shl(0xa0, 0x01), 0x01)\n        /* \"Contracts/ERC721.sol\":18022:18053  ERC721.ownerOf(tokenId) == from */\n      and\n      eq\n        /* \"Contracts/ERC721.sol\":18014:18099  require(ERC721.ownerOf(tokenId) == from, \"ERC721: transfer of token that is not own\") */\n      tag_523\n      jumpi\n      mload(0x40)\n      shl(0xe5, 0x461bcd)\n      dup2\n      mstore\n        /* \"#utility.yul\":17846:17848   */\n      0x20\n        /* \"Contracts/ERC721.sol\":18014:18099  require(ERC721.ownerOf(tokenId) == from, \"ERC721: transfer of token that is not own\") */\n      0x04\n      dup3\n      add\n        /* \"#utility.yul\":17828:17849   */\n      mstore\n        /* \"#utility.yul\":17885:17887   */\n      0x29\n        /* \"#utility.yul\":17865:17883   */\n      0x24\n      dup3\n      add\n        /* \"#utility.yul\":17858:17888   */\n      mstore\n        /* \"#utility.yul\":17924:17958   */\n      0x4552433732313a207472616e73666572206f6620746f6b656e20746861742069\n        /* \"#utility.yul\":17904:17922   */\n      0x44\n      dup3\n      add\n        /* \"#utility.yul\":17897:17959   */\n      mstore\n      shl(0xb9, 0x39903737ba1037bbb7)\n        /* \"#utility.yul\":17975:17993   */\n      0x64\n      dup3\n      add\n        /* \"#utility.yul\":17968:18007   */\n      mstore\n        /* \"#utility.yul\":18024:18043   */\n      0x84\n      add\n        /* \"Contracts/ERC721.sol\":18014:18099  require(ERC721.ownerOf(tokenId) == from, \"ERC721: transfer of token that is not own\") */\n      tag_247\n        /* \"#utility.yul\":17644:18049   */\n      jump\n        /* \"Contracts/ERC721.sol\":18014:18099  require(ERC721.ownerOf(tokenId) == from, \"ERC721: transfer of token that is not own\") */\n    tag_523:\n      sub(shl(0xa0, 0x01), 0x01)\n        /* \"Contracts/ERC721.sol\":18118:18134  to != address(0) */\n      dup3\n      and\n        /* \"Contracts/ERC721.sol\":18110:18175  require(to != address(0), \"ERC721: transfer to the zero address\") */\n      tag_526\n      jumpi\n      mload(0x40)\n      shl(0xe5, 0x461bcd)\n      dup2\n      mstore\n        /* \"#utility.yul\":18256:18258   */\n      0x20\n        /* \"Contracts/ERC721.sol\":18110:18175  require(to != address(0), \"ERC721: transfer to the zero address\") */\n      0x04\n      dup3\n      add\n        /* \"#utility.yul\":18238:18259   */\n      mstore\n        /* \"#utility.yul\":18295:18297   */\n      0x24\n        /* \"#utility.yul\":18275:18293   */\n      dup1\n      dup3\n      add\n        /* \"#utility.yul\":18268:18298   */\n      mstore\n        /* \"#utility.yul\":18334:18368   */\n      0x4552433732313a207472616e7366657220746f20746865207a65726f20616464\n        /* \"#utility.yul\":18314:18332   */\n      0x44\n      dup3\n      add\n        /* \"#utility.yul\":18307:18369   */\n      mstore\n      shl(0xe0, 0x72657373)\n        /* \"#utility.yul\":18385:18403   */\n      0x64\n      dup3\n      add\n        /* \"#utility.yul\":18378:18412   */\n      mstore\n        /* \"#utility.yul\":18429:18448   */\n      0x84\n      add\n        /* \"Contracts/ERC721.sol\":18110:18175  require(to != address(0), \"ERC721: transfer to the zero address\") */\n      tag_247\n        /* \"#utility.yul\":18054:18454   */\n      jump\n        /* \"Contracts/ERC721.sol\":18110:18175  require(to != address(0), \"ERC721: transfer to the zero address\") */\n    tag_526:\n        /* \"Contracts/ERC721.sol\":18188:18227  _beforeTokenTransfer(from, to, tokenId) */\n      tag_529\n        /* \"Contracts/ERC721.sol\":18209:18213  from */\n      dup4\n        /* \"Contracts/ERC721.sol\":18215:18217  to */\n      dup4\n        /* \"Contracts/ERC721.sol\":18219:18226  tokenId */\n      dup4\n        /* \"Contracts/ERC721.sol\":18188:18208  _beforeTokenTransfer */\n      tag_530\n        /* \"Contracts/ERC721.sol\":18188:18227  _beforeTokenTransfer(from, to, tokenId) */\n      jump\t// in\n    tag_529:\n        /* \"Contracts/ERC721.sol\":18292:18321  _approve(address(0), tokenId) */\n      tag_531\n        /* \"Contracts/ERC721.sol\":18309:18310  0 */\n      0x00\n        /* \"Contracts/ERC721.sol\":18313:18320  tokenId */\n      dup3\n        /* \"Contracts/ERC721.sol\":18292:18300  _approve */\n      tag_276\n        /* \"Contracts/ERC721.sol\":18292:18321  _approve(address(0), tokenId) */\n      jump\t// in\n    tag_531:\n      sub(shl(0xa0, 0x01), 0x01)\n        /* \"Contracts/ERC721.sol\":18334:18349  _balances[from] */\n      dup4\n      and\n      0x00\n      swap1\n      dup2\n      mstore\n        /* \"Contracts/ERC721.sol\":18334:18343  _balances */\n      0x03\n        /* \"Contracts/ERC721.sol\":18334:18349  _balances[from] */\n      0x20\n      mstore\n      0x40\n      dup2\n      keccak256\n        /* \"Contracts/ERC721.sol\":18334:18354  _balances[from] -= 1 */\n      dup1\n      sload\n        /* \"Contracts/ERC721.sol\":18353:18354  1 */\n      0x01\n      swap3\n        /* \"Contracts/ERC721.sol\":18334:18349  _balances[from] */\n      swap1\n        /* \"Contracts/ERC721.sol\":18334:18354  _balances[from] -= 1 */\n      tag_532\n      swap1\n        /* \"Contracts/ERC721.sol\":18353:18354  1 */\n      dup5\n      swap1\n        /* \"Contracts/ERC721.sol\":18334:18354  _balances[from] -= 1 */\n      tag_533\n      jump\t// in\n    tag_532:\n      swap1\n      swap2\n      sstore\n      pop\n      pop\n      sub(shl(0xa0, 0x01), 0x01)\n        /* \"Contracts/ERC721.sol\":18365:18378  _balances[to] */\n      dup3\n      and\n      0x00\n      swap1\n      dup2\n      mstore\n        /* \"Contracts/ERC721.sol\":18365:18374  _balances */\n      0x03\n        /* \"Contracts/ERC721.sol\":18365:18378  _balances[to] */\n      0x20\n      mstore\n      0x40\n      dup2\n      keccak256\n        /* \"Contracts/ERC721.sol\":18365:18383  _balances[to] += 1 */\n      dup1\n      sload\n        /* \"Contracts/ERC721.sol\":18382:18383  1 */\n      0x01\n      swap3\n        /* \"Contracts/ERC721.sol\":18365:18378  _balances[to] */\n      swap1\n        /* \"Contracts/ERC721.sol\":18365:18383  _balances[to] += 1 */\n      tag_534\n      swap1\n        /* \"Contracts/ERC721.sol\":18382:18383  1 */\n      dup5\n      swap1\n        /* \"Contracts/ERC721.sol\":18365:18383  _balances[to] += 1 */\n      tag_405\n      jump\t// in\n    tag_534:\n      swap1\n      swap2\n      sstore\n      pop\n      pop\n        /* \"Contracts/ERC721.sol\":18394:18410  _owners[tokenId] */\n      0x00\n      dup2\n      dup2\n      mstore\n        /* \"Contracts/ERC721.sol\":18394:18401  _owners */\n      0x02\n        /* \"Contracts/ERC721.sol\":18394:18410  _owners[tokenId] */\n      0x20\n      mstore\n      0x40\n      dup1\n      dup3\n      keccak256\n        /* \"Contracts/ERC721.sol\":18394:18415  _owners[tokenId] = to */\n      dup1\n      sload\n      not(sub(shl(0xa0, 0x01), 0x01))\n      and\n      sub(shl(0xa0, 0x01), 0x01)\n      dup7\n      dup2\n      and\n      swap2\n      dup3\n      or\n      swap1\n      swap3\n      sstore\n        /* \"Contracts/ERC721.sol\":18433:18460  Transfer(from, to, tokenId) */\n      swap2\n      mload\n        /* \"Contracts/ERC721.sol\":18394:18410  _owners[tokenId] */\n      dup5\n      swap4\n        /* \"Contracts/ERC721.sol\":18433:18460  Transfer(from, to, tokenId) */\n      swap2\n      dup8\n      and\n      swap2\n      0xddf252ad1be2c89b69c2b068fc378daa952ba7f163c4a11628f55a4df523b3ef\n      swap2\n      log4\n        /* \"Contracts/ERC721.sol\":17890:18468  function _transfer(... */\n      pop\n      pop\n      pop\n      jump\t// out\n        /* \"Contracts/ERC721.sol\":25173:25346  function _setOwner(address newOwner) private {... */\n    tag_379:\n        /* \"Contracts/ERC721.sol\":25248:25254  _owner */\n      0x0a\n      dup1\n      sload\n      sub(shl(0xa0, 0x01), 0x01)\n        /* \"Contracts/ERC721.sol\":25265:25282  _owner = newOwner */\n      dup4\n      dup2\n      and\n      not(sub(shl(0xa0, 0x01), 0x01))\n      dup4\n      and\n      dup2\n      or\n      swap1\n      swap4\n      sstore\n        /* \"Contracts/ERC721.sol\":25298:25338  OwnershipTransferred(oldOwner, newOwner) */\n      mload(0x40)\n        /* \"Contracts/ERC721.sol\":25248:25254  _owner */\n      swap2\n      and\n      swap2\n        /* \"Contracts/ERC721.sol\":25265:25282  _owner = newOwner */\n      swap1\n        /* \"Contracts/ERC721.sol\":25248:25254  _owner */\n      dup3\n      swap1\n        /* \"Contracts/ERC721.sol\":25298:25338  OwnershipTransferred(oldOwner, newOwner) */\n      0x8be0079c531659141344cd1fd0a4f28419497f9722a3daafe3b4186f6b6457e0\n      swap1\n        /* \"Contracts/ERC721.sol\":25229:25245  address oldOwner */\n      0x00\n      swap1\n        /* \"Contracts/ERC721.sol\":25298:25338  OwnershipTransferred(oldOwner, newOwner) */\n      log3\n        /* \"Contracts/ERC721.sol\":25218:25346  {... */\n      pop\n        /* \"Contracts/ERC721.sol\":25173:25346  function _setOwner(address newOwner) private {... */\n      pop\n      jump\t// out\n        /* \"Contracts/ERC721.sol\":16466:16576  function _safeMint(address to, uint256 tokenId) internal virtual {... */\n    tag_431:\n        /* \"Contracts/ERC721.sol\":16542:16568  _safeMint(to, tokenId, \"\") */\n      tag_357\n        /* \"Contracts/ERC721.sol\":16552:16554  to */\n      dup3\n        /* \"Contracts/ERC721.sol\":16556:16563  tokenId */\n      dup3\n        /* \"Contracts/ERC721.sol\":16542:16568  _safeMint(to, tokenId, \"\") */\n      mload(0x40)\n      dup1\n      0x20\n      add\n      0x40\n      mstore\n      dup1\n      0x00\n      dup2\n      mstore\n      pop\n        /* \"Contracts/ERC721.sol\":16542:16551  _safeMint */\n      tag_538\n        /* \"Contracts/ERC721.sol\":16542:16568  _safeMint(to, tokenId, \"\") */\n      jump\t// in\n        /* \"Contracts/ERC721.sol\":15493:15808  function _safeTransfer(... */\n    tag_447:\n        /* \"Contracts/ERC721.sol\":15650:15678  _transfer(from, to, tokenId) */\n      tag_540\n        /* \"Contracts/ERC721.sol\":15660:15664  from */\n      dup5\n        /* \"Contracts/ERC721.sol\":15666:15668  to */\n      dup5\n        /* \"Contracts/ERC721.sol\":15670:15677  tokenId */\n      dup5\n        /* \"Contracts/ERC721.sol\":15650:15659  _transfer */\n      tag_286\n        /* \"Contracts/ERC721.sol\":15650:15678  _transfer(from, to, tokenId) */\n      jump\t// in\n    tag_540:\n        /* \"Contracts/ERC721.sol\":15697:15745  _checkOnERC721Received(from, to, tokenId, _data) */\n      tag_541\n        /* \"Contracts/ERC721.sol\":15720:15724  from */\n      dup5\n        /* \"Contracts/ERC721.sol\":15726:15728  to */\n      dup5\n        /* \"Contracts/ERC721.sol\":15730:15737  tokenId */\n      dup5\n        /* \"Contracts/ERC721.sol\":15739:15744  _data */\n      dup5\n        /* \"Contracts/ERC721.sol\":15697:15719  _checkOnERC721Received */\n      tag_542\n        /* \"Contracts/ERC721.sol\":15697:15745  _checkOnERC721Received(from, to, tokenId, _data) */\n      jump\t// in\n    tag_541:\n        /* \"Contracts/ERC721.sol\":15689:15800  require(_checkOnERC721Received(from, to, tokenId, _data), \"ERC721: transfer to non ERC721Receiver implementer\") */\n      tag_446\n      jumpi\n      mload(0x40)\n      shl(0xe5, 0x461bcd)\n      dup2\n      mstore\n      0x04\n      add\n      tag_247\n      swap1\n      tag_545\n      jump\t// in\n        /* \"Contracts/ERC721.sol\":26002:26104  function _baseURI() internal view virtual override returns (string memory) {... */\n    tag_461:\n        /* \"Contracts/ERC721.sol\":26062:26075  string memory */\n      0x60\n        /* \"Contracts/ERC721.sol\":26091:26098  baseURI */\n      0x0b\n        /* \"Contracts/ERC721.sol\":26084:26098  return baseURI */\n      dup1\n      sload\n      tag_251\n      swap1\n      tag_252\n      jump\t// in\n        /* \"Contracts/ERC721.sol\":2954:3677  function toString(uint256 value) internal pure returns (string memory) {... */\n    tag_465:\n        /* \"Contracts/ERC721.sol\":3010:3023  string memory */\n      0x60\n        /* \"Contracts/ERC721.sol\":3231:3236  value */\n      dup2\n        /* \"Contracts/ERC721.sol\":3240:3241  0 */\n      0x00\n        /* \"Contracts/ERC721.sol\":3231:3241  value == 0 */\n      sub\n        /* \"Contracts/ERC721.sol\":3227:3280  if (value == 0) {... */\n      tag_553\n      jumpi\n      pop\n      pop\n        /* \"Contracts/ERC721.sol\":3258:3268  return \"0\" */\n      0x40\n      dup1\n      mload\n      dup1\n      dup3\n      add\n      swap1\n      swap2\n      mstore\n      0x01\n      dup2\n      mstore\n      shl(0xfc, 0x03)\n      0x20\n      dup3\n      add\n      mstore\n      swap1\n        /* \"Contracts/ERC721.sol\":2954:3677  function toString(uint256 value) internal pure returns (string memory) {... */\n      jump\t// out\n        /* \"Contracts/ERC721.sol\":3227:3280  if (value == 0) {... */\n    tag_553:\n        /* \"Contracts/ERC721.sol\":3305:3310  value */\n      dup2\n        /* \"Contracts/ERC721.sol\":3290:3302  uint256 temp */\n      0x00\n        /* \"Contracts/ERC721.sol\":3346:3424  while (temp != 0) {... */\n    tag_554:\n        /* \"Contracts/ERC721.sol\":3353:3362  temp != 0 */\n      dup2\n      iszero\n        /* \"Contracts/ERC721.sol\":3346:3424  while (temp != 0) {... */\n      tag_555\n      jumpi\n        /* \"Contracts/ERC721.sol\":3379:3387  digits++ */\n      dup1\n      tag_556\n      dup2\n      tag_302\n      jump\t// in\n    tag_556:\n      swap2\n      pop\n        /* \"Contracts/ERC721.sol\":3402:3412  temp /= 10 */\n      tag_557\n      swap1\n      pop\n        /* \"Contracts/ERC721.sol\":3410:3412  10 */\n      0x0a\n        /* \"Contracts/ERC721.sol\":3402:3412  temp /= 10 */\n      dup4\n      tag_558\n      jump\t// in\n    tag_557:\n      swap2\n      pop\n        /* \"Contracts/ERC721.sol\":3346:3424  while (temp != 0) {... */\n      jump(tag_554)\n    tag_555:\n        /* \"Contracts/ERC721.sol\":3434:3453  bytes memory buffer */\n      0x00\n        /* \"Contracts/ERC721.sol\":3466:3472  digits */\n      dup2\n        /* \"Contracts/ERC721.sol\":3456:3473  new bytes(digits) */\n      0xffffffffffffffff\n      dup2\n      gt\n      iszero\n      tag_560\n      jumpi\n      tag_560\n      tag_328\n      jump\t// in\n    tag_560:\n      mload(0x40)\n      swap1\n      dup1\n      dup3\n      mstore\n      dup1\n      0x1f\n      add\n      not(0x1f)\n      and\n      0x20\n      add\n      dup3\n      add\n      0x40\n      mstore\n      dup1\n      iszero\n      tag_561\n      jumpi\n      0x20\n      dup3\n      add\n      dup2\n      dup1\n      calldatasize\n      dup4\n      calldatacopy\n      add\n      swap1\n      pop\n    tag_561:\n      pop\n        /* \"Contracts/ERC721.sol\":3434:3473  bytes memory buffer = new bytes(digits) */\n      swap1\n      pop\n        /* \"Contracts/ERC721.sol\":3484:3638  while (value != 0) {... */\n    tag_562:\n        /* \"Contracts/ERC721.sol\":3491:3501  value != 0 */\n      dup5\n      iszero\n        /* \"Contracts/ERC721.sol\":3484:3638  while (value != 0) {... */\n      tag_520\n      jumpi\n        /* \"Contracts/ERC721.sol\":3518:3529  digits -= 1 */\n      tag_564\n        /* \"Contracts/ERC721.sol\":3528:3529  1 */\n      0x01\n        /* \"Contracts/ERC721.sol\":3518:3529  digits -= 1 */\n      dup4\n      tag_533\n      jump\t// in\n    tag_564:\n      swap2\n      pop\n        /* \"Contracts/ERC721.sol\":3587:3597  value % 10 */\n      tag_565\n        /* \"Contracts/ERC721.sol\":3595:3597  10 */\n      0x0a\n        /* \"Contracts/ERC721.sol\":3587:3592  value */\n      dup7\n        /* \"Contracts/ERC721.sol\":3587:3597  value % 10 */\n      tag_566\n      jump\t// in\n    tag_565:\n        /* \"Contracts/ERC721.sol\":3574:3598  48 + uint256(value % 10) */\n      tag_567\n      swap1\n        /* \"Contracts/ERC721.sol\":3574:3576  48 */\n      0x30\n        /* \"Contracts/ERC721.sol\":3574:3598  48 + uint256(value % 10) */\n      tag_405\n      jump\t// in\n    tag_567:\n        /* \"Contracts/ERC721.sol\":3561:3600  bytes1(uint8(48 + uint256(value % 10))) */\n      0xf8\n      shl\n        /* \"Contracts/ERC721.sol\":3544:3550  buffer */\n      dup2\n        /* \"Contracts/ERC721.sol\":3551:3557  digits */\n      dup4\n        /* \"Contracts/ERC721.sol\":3544:3558  buffer[digits] */\n      dup2\n      mload\n      dup2\n      lt\n      tag_569\n      jumpi\n      tag_569\n      tag_298\n      jump\t// in\n    tag_569:\n      0x20\n      add\n      add\n        /* \"Contracts/ERC721.sol\":3544:3600  buffer[digits] = bytes1(uint8(48 + uint256(value % 10))) */\n      swap1\n      not(sub(shl(0xf8, 0x01), 0x01))\n      and\n      swap1\n      dup2\n      0x00\n      byte\n      swap1\n      mstore8\n      pop\n        /* \"Contracts/ERC721.sol\":3615:3626  value /= 10 */\n      tag_570\n        /* \"Contracts/ERC721.sol\":3624:3626  10 */\n      0x0a\n        /* \"Contracts/ERC721.sol\":3615:3626  value /= 10 */\n      dup7\n      tag_558\n      jump\t// in\n    tag_570:\n      swap5\n      pop\n        /* \"Contracts/ERC721.sol\":3484:3638  while (value != 0) {... */\n      jump(tag_562)\n        /* \"Contracts/ERC721.sol\":21278:21867  function _beforeTokenTransfer(... */\n    tag_530:\n      sub(shl(0xa0, 0x01), 0x01)\n        /* \"Contracts/ERC721.sol\":21484:21502  from == address(0) */\n      dup4\n      and\n        /* \"Contracts/ERC721.sol\":21480:21667  if (from == address(0)) {... */\n      tag_575\n      jumpi\n        /* \"Contracts/ERC721.sol\":21519:21559  _addTokenToAllTokensEnumeration(tokenId) */\n      tag_576\n        /* \"Contracts/ERC721.sol\":21551:21558  tokenId */\n      dup2\n        /* \"Contracts/ERC721.sol\":22401:22411  _allTokens */\n      0x08\n        /* \"Contracts/ERC721.sol\":22401:22418  _allTokens.length */\n      dup1\n      sload\n        /* \"Contracts/ERC721.sol\":22374:22398  _allTokensIndex[tokenId] */\n      0x00\n      dup4\n      dup2\n      mstore\n        /* \"Contracts/ERC721.sol\":22374:22389  _allTokensIndex */\n      0x09\n        /* \"Contracts/ERC721.sol\":22374:22398  _allTokensIndex[tokenId] */\n      0x20\n      mstore\n      0x40\n      dup2\n      keccak256\n        /* \"Contracts/ERC721.sol\":22374:22418  _allTokensIndex[tokenId] = _allTokens.length */\n      dup3\n      swap1\n      sstore\n        /* \"Contracts/ERC721.sol\":22429:22453  _allTokens.push(tokenId) */\n      0x01\n      dup3\n      add\n      dup4\n      sstore\n      swap2\n      swap1\n      swap2\n      mstore\n      0xf3f7a9fe364faab93b216da50a3214154f22a0a2b415b23a84c8169e8b636ee3\n      add\n      sstore\n        /* \"Contracts/ERC721.sol\":22297:22461  function _addTokenToAllTokensEnumeration(uint256 tokenId) private {... */\n      jump\n        /* \"Contracts/ERC721.sol\":21519:21559  _addTokenToAllTokensEnumeration(tokenId) */\n    tag_576:\n        /* \"Contracts/ERC721.sol\":21480:21667  if (from == address(0)) {... */\n      jump(tag_580)\n    tag_575:\n        /* \"Contracts/ERC721.sol\":21589:21591  to */\n      dup2\n      sub(shl(0xa0, 0x01), 0x01)\n        /* \"Contracts/ERC721.sol\":21581:21591  from != to */\n      and\n        /* \"Contracts/ERC721.sol\":21581:21585  from */\n      dup4\n      sub(shl(0xa0, 0x01), 0x01)\n        /* \"Contracts/ERC721.sol\":21581:21591  from != to */\n      and\n      eq\n        /* \"Contracts/ERC721.sol\":21577:21667  if (from != to) {... */\n      tag_580\n      jumpi\n        /* \"Contracts/ERC721.sol\":21608:21655  _removeTokenFromOwnerEnumeration(from, tokenId) */\n      tag_580\n        /* \"Contracts/ERC721.sol\":21641:21645  from */\n      dup4\n        /* \"Contracts/ERC721.sol\":21647:21654  tokenId */\n      dup3\n        /* \"Contracts/ERC721.sol\":21608:21640  _removeTokenFromOwnerEnumeration */\n      tag_581\n        /* \"Contracts/ERC721.sol\":21608:21655  _removeTokenFromOwnerEnumeration(from, tokenId) */\n      jump\t// in\n    tag_580:\n      sub(shl(0xa0, 0x01), 0x01)\n        /* \"Contracts/ERC721.sol\":21681:21697  to == address(0) */\n      dup3\n      and\n        /* \"Contracts/ERC721.sol\":21677:21860  if (to == address(0)) {... */\n      tag_582\n      jumpi\n        /* \"Contracts/ERC721.sol\":21714:21759  _removeTokenFromAllTokensEnumeration(tokenId) */\n      tag_275\n        /* \"Contracts/ERC721.sol\":21751:21758  tokenId */\n      dup2\n        /* \"Contracts/ERC721.sol\":21714:21750  _removeTokenFromAllTokensEnumeration */\n      tag_584\n        /* \"Contracts/ERC721.sol\":21714:21759  _removeTokenFromAllTokensEnumeration(tokenId) */\n      jump\t// in\n        /* \"Contracts/ERC721.sol\":21677:21860  if (to == address(0)) {... */\n    tag_582:\n        /* \"Contracts/ERC721.sol\":21787:21791  from */\n      dup3\n      sub(shl(0xa0, 0x01), 0x01)\n        /* \"Contracts/ERC721.sol\":21781:21791  to != from */\n      and\n        /* \"Contracts/ERC721.sol\":21781:21783  to */\n      dup3\n      sub(shl(0xa0, 0x01), 0x01)\n        /* \"Contracts/ERC721.sol\":21781:21791  to != from */\n      and\n      eq\n        /* \"Contracts/ERC721.sol\":21777:21860  if (to != from) {... */\n      tag_275\n      jumpi\n        /* \"Contracts/ERC721.sol\":21808:21848  _addTokenToOwnerEnumeration(to, tokenId) */\n      tag_275\n        /* \"Contracts/ERC721.sol\":21836:21838  to */\n      dup3\n        /* \"Contracts/ERC721.sol\":21840:21847  tokenId */\n      dup3\n        /* \"Contracts/ERC721.sol\":21808:21835  _addTokenToOwnerEnumeration */\n      tag_588\n        /* \"Contracts/ERC721.sol\":21808:21848  _addTokenToOwnerEnumeration(to, tokenId) */\n      jump\t// in\n        /* \"Contracts/ERC721.sol\":16803:17124  function _safeMint(... */\n    tag_538:\n        /* \"Contracts/ERC721.sol\":16933:16951  _mint(to, tokenId) */\n      tag_590\n        /* \"Contracts/ERC721.sol\":16939:16941  to */\n      dup4\n        /* \"Contracts/ERC721.sol\":16943:16950  tokenId */\n      dup4\n        /* \"Contracts/ERC721.sol\":16933:16938  _mint */\n      tag_591\n        /* \"Contracts/ERC721.sol\":16933:16951  _mint(to, tokenId) */\n      jump\t// in\n    tag_590:\n        /* \"Contracts/ERC721.sol\":16984:17038  _checkOnERC721Received(address(0), to, tokenId, _data) */\n      tag_592\n        /* \"Contracts/ERC721.sol\":17015:17016  0 */\n      0x00\n        /* \"Contracts/ERC721.sol\":17019:17021  to */\n      dup5\n        /* \"Contracts/ERC721.sol\":17023:17030  tokenId */\n      dup5\n        /* \"Contracts/ERC721.sol\":17032:17037  _data */\n      dup5\n        /* \"Contracts/ERC721.sol\":16984:17006  _checkOnERC721Received */\n      tag_542\n        /* \"Contracts/ERC721.sol\":16984:17038  _checkOnERC721Received(address(0), to, tokenId, _data) */\n      jump\t// in\n    tag_592:\n        /* \"Contracts/ERC721.sol\":16962:17116  require(... */\n      tag_275\n      jumpi\n      mload(0x40)\n      shl(0xe5, 0x461bcd)\n      dup2\n      mstore\n      0x04\n      add\n      tag_247\n      swap1\n      tag_545\n      jump\t// in\n        /* \"Contracts/ERC721.sol\":18658:19457  function _checkOnERC721Received(... */\n    tag_542:\n        /* \"Contracts/ERC721.sol\":18813:18817  bool */\n      0x00\n      sub(shl(0xa0, 0x01), 0x01)\n        /* \"Contracts/ERC721.sol\":18834:18847  to.isContract */\n      dup5\n      and\n        /* \"Contracts/ERC721.sol\":5061:5081  extcodesize(account) */\n      extcodesize\n        /* \"Contracts/ERC721.sol\":5109:5117  size > 0 */\n      iszero\n        /* \"Contracts/ERC721.sol\":18830:19450  if (to.isContract()) {... */\n      tag_598\n      jumpi\n        /* \"Contracts/ERC721.sol\":18870:18942  IERC721Receiver(to).onERC721Received(_msgSender(), from, tokenId, _data) */\n      mload(0x40)\n      shl(0xe1, 0x0a85bd01)\n      dup2\n      mstore\n      sub(shl(0xa0, 0x01), 0x01)\n        /* \"Contracts/ERC721.sol\":18870:18906  IERC721Receiver(to).onERC721Received */\n      dup6\n      and\n      swap1\n      0x150b7a02\n      swap1\n        /* \"Contracts/ERC721.sol\":18870:18942  IERC721Receiver(to).onERC721Received(_msgSender(), from, tokenId, _data) */\n      tag_600\n      swap1\n        /* \"Contracts/ERC721.sol\":9988:9998  msg.sender */\n      caller\n      swap1\n        /* \"Contracts/ERC721.sol\":18921:18925  from */\n      dup10\n      swap1\n        /* \"Contracts/ERC721.sol\":18927:18934  tokenId */\n      dup9\n      swap1\n        /* \"Contracts/ERC721.sol\":18936:18941  _data */\n      dup9\n      swap1\n        /* \"Contracts/ERC721.sol\":18870:18942  IERC721Receiver(to).onERC721Received(_msgSender(), from, tokenId, _data) */\n      0x04\n      add\n      tag_601\n      jump\t// in\n    tag_600:\n      0x20\n      mload(0x40)\n      dup1\n      dup4\n      sub\n      dup2\n      0x00\n      dup8\n      gas\n      call\n      swap3\n      pop\n      pop\n      pop\n      dup1\n      iszero\n      tag_602\n      jumpi\n      pop\n      0x40\n      dup1\n      mload\n      0x1f\n      returndatasize\n      swap1\n      dup2\n      add\n      not(0x1f)\n      and\n      dup3\n      add\n      swap1\n      swap3\n      mstore\n      tag_603\n      swap2\n      dup2\n      add\n      swap1\n      tag_604\n      jump\t// in\n    tag_603:\n      0x01\n    tag_602:\n        /* \"Contracts/ERC721.sol\":18866:19395  try IERC721Receiver(to).onERC721Received(_msgSender(), from, tokenId, _data) returns (bytes4 retval) {... */\n      tag_605\n      jumpi\n      returndatasize\n      dup1\n      dup1\n      iszero\n      tag_610\n      jumpi\n      mload(0x40)\n      swap2\n      pop\n      and(add(returndatasize, 0x3f), not(0x1f))\n      dup3\n      add\n      0x40\n      mstore\n      returndatasize\n      dup3\n      mstore\n      returndatasize\n      0x00\n      0x20\n      dup5\n      add\n      returndatacopy\n      jump(tag_609)\n    tag_610:\n      0x60\n      swap2\n      pop\n    tag_609:\n      pop\n        /* \"Contracts/ERC721.sol\":19112:19118  reason */\n      dup1\n        /* \"Contracts/ERC721.sol\":19112:19125  reason.length */\n      mload\n        /* \"Contracts/ERC721.sol\":19129:19130  0 */\n      0x00\n        /* \"Contracts/ERC721.sol\":19112:19130  reason.length == 0 */\n      sub\n        /* \"Contracts/ERC721.sol\":19108:19380  if (reason.length == 0) {... */\n      tag_611\n      jumpi\n        /* \"Contracts/ERC721.sol\":19155:19215  revert(\"ERC721: transfer to non ERC721Receiver implementer\") */\n      mload(0x40)\n      shl(0xe5, 0x461bcd)\n      dup2\n      mstore\n      0x04\n      add\n      tag_247\n      swap1\n      tag_545\n      jump\t// in\n        /* \"Contracts/ERC721.sol\":19108:19380  if (reason.length == 0) {... */\n    tag_611:\n        /* \"Contracts/ERC721.sol\":19330:19336  reason */\n      dup1\n        /* \"Contracts/ERC721.sol\":19324:19337  mload(reason) */\n      mload\n        /* \"Contracts/ERC721.sol\":19315:19321  reason */\n      dup2\n        /* \"Contracts/ERC721.sol\":19311:19313  32 */\n      0x20\n        /* \"Contracts/ERC721.sol\":19307:19322  add(32, reason) */\n      add\n        /* \"Contracts/ERC721.sol\":19300:19338  revert(add(32, reason), mload(reason)) */\n      revert\n        /* \"Contracts/ERC721.sol\":18866:19395  try IERC721Receiver(to).onERC721Received(_msgSender(), from, tokenId, _data) returns (bytes4 retval) {... */\n    tag_605:\n      not(sub(shl(0xe0, 0x01), 0x01))\n        /* \"Contracts/ERC721.sol\":18993:19044  retval == IERC721Receiver.onERC721Received.selector */\n      and\n      shl(0xe1, 0x0a85bd01)\n      eq\n      swap1\n      pop\n        /* \"Contracts/ERC721.sol\":18986:19044  return retval == IERC721Receiver.onERC721Received.selector */\n      jump(tag_520)\n        /* \"Contracts/ERC721.sol\":18830:19450  if (to.isContract()) {... */\n    tag_598:\n      pop\n        /* \"Contracts/ERC721.sol\":19434:19438  true */\n      0x01\n        /* \"Contracts/ERC721.sol\":18658:19457  function _checkOnERC721Received(... */\n      swap5\n      swap4\n      pop\n      pop\n      pop\n      pop\n      jump\t// out\n        /* \"Contracts/ERC721.sol\":22469:23457  function _removeTokenFromOwnerEnumeration(address from, uint256 tokenId) private {... */\n    tag_581:\n        /* \"Contracts/ERC721.sol\":22735:22757  uint256 lastTokenIndex */\n      0x00\n        /* \"Contracts/ERC721.sol\":22785:22786  1 */\n      0x01\n        /* \"Contracts/ERC721.sol\":22760:22782  ERC721.balanceOf(from) */\n      tag_620\n        /* \"Contracts/ERC721.sol\":22777:22781  from */\n      dup5\n        /* \"Contracts/ERC721.sol\":22760:22776  ERC721.balanceOf */\n      tag_159\n        /* \"Contracts/ERC721.sol\":22760:22782  ERC721.balanceOf(from) */\n      jump\t// in\n    tag_620:\n        /* \"Contracts/ERC721.sol\":22760:22786  ERC721.balanceOf(from) - 1 */\n      tag_621\n      swap2\n      swap1\n      tag_533\n      jump\t// in\n    tag_621:\n        /* \"Contracts/ERC721.sol\":22797:22815  uint256 tokenIndex */\n      0x00\n        /* \"Contracts/ERC721.sol\":22818:22844  _ownedTokensIndex[tokenId] */\n      dup4\n      dup2\n      mstore\n        /* \"Contracts/ERC721.sol\":22818:22835  _ownedTokensIndex */\n      0x07\n        /* \"Contracts/ERC721.sol\":22818:22844  _ownedTokensIndex[tokenId] */\n      0x20\n      mstore\n      0x40\n      swap1\n      keccak256\n      sload\n        /* \"Contracts/ERC721.sol\":22735:22786  uint256 lastTokenIndex = ERC721.balanceOf(from) - 1 */\n      swap1\n      swap2\n      pop\n        /* \"Contracts/ERC721.sol\":22951:22979  tokenIndex != lastTokenIndex */\n      dup1\n      dup3\n      eq\n        /* \"Contracts/ERC721.sol\":22947:23275  if (tokenIndex != lastTokenIndex) {... */\n      tag_622\n      jumpi\n      sub(shl(0xa0, 0x01), 0x01)\n        /* \"Contracts/ERC721.sol\":23018:23036  _ownedTokens[from] */\n      dup5\n      and\n        /* \"Contracts/ERC721.sol\":22996:23015  uint256 lastTokenId */\n      0x00\n        /* \"Contracts/ERC721.sol\":23018:23036  _ownedTokens[from] */\n      swap1\n      dup2\n      mstore\n        /* \"Contracts/ERC721.sol\":23018:23030  _ownedTokens */\n      0x06\n        /* \"Contracts/ERC721.sol\":23018:23036  _ownedTokens[from] */\n      0x20\n      swap1\n      dup2\n      mstore\n      0x40\n      dup1\n      dup4\n      keccak256\n        /* \"Contracts/ERC721.sol\":23018:23052  _ownedTokens[from][lastTokenIndex] */\n      dup6\n      dup5\n      mstore\n      dup3\n      mstore\n      dup1\n      dup4\n      keccak256\n      sload\n        /* \"Contracts/ERC721.sol\":23069:23099  _ownedTokens[from][tokenIndex] */\n      dup5\n      dup5\n      mstore\n      dup2\n      dup5\n      keccak256\n        /* \"Contracts/ERC721.sol\":23069:23113  _ownedTokens[from][tokenIndex] = lastTokenId */\n      dup2\n      swap1\n      sstore\n        /* \"Contracts/ERC721.sol\":23186:23216  _ownedTokensIndex[lastTokenId] */\n      dup4\n      mstore\n        /* \"Contracts/ERC721.sol\":23186:23203  _ownedTokensIndex */\n      0x07\n        /* \"Contracts/ERC721.sol\":23186:23216  _ownedTokensIndex[lastTokenId] */\n      swap1\n      swap2\n      mstore\n      swap1\n      keccak256\n        /* \"Contracts/ERC721.sol\":23186:23229  _ownedTokensIndex[lastTokenId] = tokenIndex */\n      dup2\n      swap1\n      sstore\n        /* \"Contracts/ERC721.sol\":22947:23275  if (tokenIndex != lastTokenIndex) {... */\n    tag_622:\n      pop\n        /* \"Contracts/ERC721.sol\":23371:23397  _ownedTokensIndex[tokenId] */\n      0x00\n      swap2\n      dup3\n      mstore\n        /* \"Contracts/ERC721.sol\":23371:23388  _ownedTokensIndex */\n      0x07\n        /* \"Contracts/ERC721.sol\":23371:23397  _ownedTokensIndex[tokenId] */\n      0x20\n      swap1\n      dup2\n      mstore\n      0x40\n      dup1\n      dup5\n      keccak256\n        /* \"Contracts/ERC721.sol\":23364:23397  delete _ownedTokensIndex[tokenId] */\n      dup5\n      swap1\n      sstore\n      sub(shl(0xa0, 0x01), 0x01)\n        /* \"Contracts/ERC721.sol\":23415:23433  _ownedTokens[from] */\n      swap1\n      swap5\n      and\n      dup4\n      mstore\n        /* \"Contracts/ERC721.sol\":23415:23427  _ownedTokens */\n      0x06\n        /* \"Contracts/ERC721.sol\":23415:23433  _ownedTokens[from] */\n      dup2\n      mstore\n      dup4\n      dup4\n      keccak256\n        /* \"Contracts/ERC721.sol\":23415:23449  _ownedTokens[from][lastTokenIndex] */\n      swap2\n      dup4\n      mstore\n      mstore\n      swap1\n      dup2\n      keccak256\n        /* \"Contracts/ERC721.sol\":23408:23449  delete _ownedTokens[from][lastTokenIndex] */\n      sstore\n        /* \"Contracts/ERC721.sol\":22469:23457  function _removeTokenFromOwnerEnumeration(address from, uint256 tokenId) private {... */\n      jump\t// out\n        /* \"Contracts/ERC721.sol\":23465:24153  function _removeTokenFromAllTokensEnumeration(uint256 tokenId) private {... */\n    tag_584:\n        /* \"Contracts/ERC721.sol\":23743:23753  _allTokens */\n      0x08\n        /* \"Contracts/ERC721.sol\":23743:23760  _allTokens.length */\n      sload\n        /* \"Contracts/ERC721.sol\":23718:23740  uint256 lastTokenIndex */\n      0x00\n      swap1\n        /* \"Contracts/ERC721.sol\":23743:23764  _allTokens.length - 1 */\n      tag_624\n      swap1\n        /* \"Contracts/ERC721.sol\":23763:23764  1 */\n      0x01\n      swap1\n        /* \"Contracts/ERC721.sol\":23743:23764  _allTokens.length - 1 */\n      tag_533\n      jump\t// in\n    tag_624:\n        /* \"Contracts/ERC721.sol\":23775:23793  uint256 tokenIndex */\n      0x00\n        /* \"Contracts/ERC721.sol\":23796:23820  _allTokensIndex[tokenId] */\n      dup4\n      dup2\n      mstore\n        /* \"Contracts/ERC721.sol\":23796:23811  _allTokensIndex */\n      0x09\n        /* \"Contracts/ERC721.sol\":23796:23820  _allTokensIndex[tokenId] */\n      0x20\n      mstore\n      0x40\n      dup2\n      keccak256\n      sload\n        /* \"Contracts/ERC721.sol\":23855:23865  _allTokens */\n      0x08\n        /* \"Contracts/ERC721.sol\":23855:23881  _allTokens[lastTokenIndex] */\n      dup1\n      sload\n        /* \"Contracts/ERC721.sol\":23718:23764  uint256 lastTokenIndex = _allTokens.length - 1 */\n      swap4\n      swap5\n      pop\n        /* \"Contracts/ERC721.sol\":23796:23820  _allTokensIndex[tokenId] */\n      swap1\n      swap3\n        /* \"Contracts/ERC721.sol\":23718:23764  uint256 lastTokenIndex = _allTokens.length - 1 */\n      dup5\n      swap1\n        /* \"Contracts/ERC721.sol\":23855:23881  _allTokens[lastTokenIndex] */\n      dup2\n      lt\n      tag_626\n      jumpi\n      tag_626\n      tag_298\n      jump\t// in\n    tag_626:\n      swap1\n      0x00\n      mstore\n      keccak256(0x00, 0x20)\n      add\n      sload\n        /* \"Contracts/ERC721.sol\":23833:23881  uint256 lastTokenId = _allTokens[lastTokenIndex] */\n      swap1\n      pop\n        /* \"Contracts/ERC721.sol\":23919:23930  lastTokenId */\n      dup1\n        /* \"Contracts/ERC721.sol\":23894:23904  _allTokens */\n      0x08\n        /* \"Contracts/ERC721.sol\":23905:23915  tokenIndex */\n      dup4\n        /* \"Contracts/ERC721.sol\":23894:23916  _allTokens[tokenIndex] */\n      dup2\n      sload\n      dup2\n      lt\n      tag_629\n      jumpi\n      tag_629\n      tag_298\n      jump\t// in\n    tag_629:\n      0x00\n      swap2\n      dup3\n      mstore\n      0x20\n      dup1\n      dup4\n      keccak256\n      swap1\n      swap2\n      add\n        /* \"Contracts/ERC721.sol\":23894:23930  _allTokens[tokenIndex] = lastTokenId */\n      swap3\n      swap1\n      swap3\n      sstore\n        /* \"Contracts/ERC721.sol\":23999:24027  _allTokensIndex[lastTokenId] */\n      dup3\n      dup2\n      mstore\n        /* \"Contracts/ERC721.sol\":23999:24014  _allTokensIndex */\n      0x09\n        /* \"Contracts/ERC721.sol\":23999:24027  _allTokensIndex[lastTokenId] */\n      swap1\n      swap2\n      mstore\n      0x40\n      dup1\n      dup3\n      keccak256\n        /* \"Contracts/ERC721.sol\":23999:24040  _allTokensIndex[lastTokenId] = tokenIndex */\n      dup5\n      swap1\n      sstore\n        /* \"Contracts/ERC721.sol\":24094:24118  _allTokensIndex[tokenId] */\n      dup6\n      dup3\n      mstore\n      dup2\n      keccak256\n        /* \"Contracts/ERC721.sol\":24087:24118  delete _allTokensIndex[tokenId] */\n      sstore\n        /* \"Contracts/ERC721.sol\":24129:24139  _allTokens */\n      0x08\n        /* \"Contracts/ERC721.sol\":24129:24145  _allTokens.pop() */\n      dup1\n      sload\n      dup1\n      tag_632\n      jumpi\n      tag_632\n      tag_633\n      jump\t// in\n    tag_632:\n      0x01\n      swap1\n      sub\n      dup2\n      dup2\n      swap1\n      0x00\n      mstore\n      keccak256(0x00, 0x20)\n      add\n      0x00\n      swap1\n      sstore\n      swap1\n      sstore\n        /* \"Contracts/ERC721.sol\":23536:24153  {... */\n      pop\n      pop\n      pop\n        /* \"Contracts/ERC721.sol\":23465:24153  function _removeTokenFromAllTokensEnumeration(uint256 tokenId) private {... */\n      pop\n      jump\t// out\n        /* \"Contracts/ERC721.sol\":21875:22096  function _addTokenToOwnerEnumeration(address to, uint256 tokenId) private {... */\n    tag_588:\n        /* \"Contracts/ERC721.sol\":21960:21974  uint256 length */\n      0x00\n        /* \"Contracts/ERC721.sol\":21977:21997  ERC721.balanceOf(to) */\n      tag_636\n        /* \"Contracts/ERC721.sol\":21994:21996  to */\n      dup4\n        /* \"Contracts/ERC721.sol\":21977:21993  ERC721.balanceOf */\n      tag_159\n        /* \"Contracts/ERC721.sol\":21977:21997  ERC721.balanceOf(to) */\n      jump\t// in\n    tag_636:\n      sub(shl(0xa0, 0x01), 0x01)\n        /* \"Contracts/ERC721.sol\":22008:22024  _ownedTokens[to] */\n      swap1\n      swap4\n      and\n      0x00\n      swap1\n      dup2\n      mstore\n        /* \"Contracts/ERC721.sol\":22008:22020  _ownedTokens */\n      0x06\n        /* \"Contracts/ERC721.sol\":22008:22024  _ownedTokens[to] */\n      0x20\n      swap1\n      dup2\n      mstore\n      0x40\n      dup1\n      dup4\n      keccak256\n        /* \"Contracts/ERC721.sol\":22008:22032  _ownedTokens[to][length] */\n      dup7\n      dup5\n      mstore\n      dup3\n      mstore\n      dup1\n      dup4\n      keccak256\n        /* \"Contracts/ERC721.sol\":22008:22042  _ownedTokens[to][length] = tokenId */\n      dup6\n      swap1\n      sstore\n        /* \"Contracts/ERC721.sol\":22053:22079  _ownedTokensIndex[tokenId] */\n      swap4\n      dup3\n      mstore\n        /* \"Contracts/ERC721.sol\":22053:22070  _ownedTokensIndex */\n      0x07\n        /* \"Contracts/ERC721.sol\":22053:22079  _ownedTokensIndex[tokenId] */\n      swap1\n      mstore\n      swap2\n      swap1\n      swap2\n      keccak256\n        /* \"Contracts/ERC721.sol\":22053:22088  _ownedTokensIndex[tokenId] = length */\n      swap2\n      swap1\n      swap2\n      sstore\n      pop\n        /* \"Contracts/ERC721.sol\":21875:22096  function _addTokenToOwnerEnumeration(address to, uint256 tokenId) private {... */\n      jump\t// out\n        /* \"Contracts/ERC721.sol\":17132:17514  function _mint(address to, uint256 tokenId) internal virtual {... */\n    tag_591:\n      sub(shl(0xa0, 0x01), 0x01)\n        /* \"Contracts/ERC721.sol\":17212:17228  to != address(0) */\n      dup3\n      and\n        /* \"Contracts/ERC721.sol\":17204:17265  require(to != address(0), \"ERC721: mint to the zero address\") */\n      tag_638\n      jumpi\n      mload(0x40)\n      shl(0xe5, 0x461bcd)\n      dup2\n      mstore\n        /* \"#utility.yul\":20464:20466   */\n      0x20\n        /* \"Contracts/ERC721.sol\":17204:17265  require(to != address(0), \"ERC721: mint to the zero address\") */\n      0x04\n      dup3\n      add\n        /* \"#utility.yul\":20446:20467   */\n      dup2\n      swap1\n      mstore\n        /* \"#utility.yul\":20483:20501   */\n      0x24\n      dup3\n      add\n        /* \"#utility.yul\":20476:20506   */\n      mstore\n        /* \"#utility.yul\":20542:20576   */\n      0x4552433732313a206d696e7420746f20746865207a65726f2061646472657373\n        /* \"#utility.yul\":20522:20540   */\n      0x44\n      dup3\n      add\n        /* \"#utility.yul\":20515:20577   */\n      mstore\n        /* \"#utility.yul\":20594:20612   */\n      0x64\n      add\n        /* \"Contracts/ERC721.sol\":17204:17265  require(to != address(0), \"ERC721: mint to the zero address\") */\n      tag_247\n        /* \"#utility.yul\":20262:20618   */\n      jump\n        /* \"Contracts/ERC721.sol\":17204:17265  require(to != address(0), \"ERC721: mint to the zero address\") */\n    tag_638:\n        /* \"Contracts/ERC721.sol\":15881:15885  bool */\n      0x00\n        /* \"Contracts/ERC721.sol\":15905:15921  _owners[tokenId] */\n      dup2\n      dup2\n      mstore\n        /* \"Contracts/ERC721.sol\":15905:15912  _owners */\n      0x02\n        /* \"Contracts/ERC721.sol\":15905:15921  _owners[tokenId] */\n      0x20\n      mstore\n      0x40\n      swap1\n      keccak256\n      sload\n      sub(shl(0xa0, 0x01), 0x01)\n      and\n        /* \"Contracts/ERC721.sol\":15905:15935  _owners[tokenId] != address(0) */\n      iszero\n        /* \"Contracts/ERC721.sol\":17276:17334  require(!_exists(tokenId), \"ERC721: token already minted\") */\n      tag_642\n      jumpi\n      mload(0x40)\n      shl(0xe5, 0x461bcd)\n      dup2\n      mstore\n        /* \"#utility.yul\":20825:20827   */\n      0x20\n        /* \"Contracts/ERC721.sol\":17276:17334  require(!_exists(tokenId), \"ERC721: token already minted\") */\n      0x04\n      dup3\n      add\n        /* \"#utility.yul\":20807:20828   */\n      mstore\n        /* \"#utility.yul\":20864:20866   */\n      0x1c\n        /* \"#utility.yul\":20844:20862   */\n      0x24\n      dup3\n      add\n        /* \"#utility.yul\":20837:20867   */\n      mstore\n        /* \"#utility.yul\":20903:20933   */\n      0x4552433732313a20746f6b656e20616c7265616479206d696e74656400000000\n        /* \"#utility.yul\":20883:20901   */\n      0x44\n      dup3\n      add\n        /* \"#utility.yul\":20876:20934   */\n      mstore\n        /* \"#utility.yul\":20951:20969   */\n      0x64\n      add\n        /* \"Contracts/ERC721.sol\":17276:17334  require(!_exists(tokenId), \"ERC721: token already minted\") */\n      tag_247\n        /* \"#utility.yul\":20623:20975   */\n      jump\n        /* \"Contracts/ERC721.sol\":17276:17334  require(!_exists(tokenId), \"ERC721: token already minted\") */\n    tag_642:\n        /* \"Contracts/ERC721.sol\":17347:17392  _beforeTokenTransfer(address(0), to, tokenId) */\n      tag_645\n        /* \"Contracts/ERC721.sol\":17376:17377  0 */\n      0x00\n        /* \"Contracts/ERC721.sol\":17380:17382  to */\n      dup4\n        /* \"Contracts/ERC721.sol\":17384:17391  tokenId */\n      dup4\n        /* \"Contracts/ERC721.sol\":17347:17367  _beforeTokenTransfer */\n      tag_530\n        /* \"Contracts/ERC721.sol\":17347:17392  _beforeTokenTransfer(address(0), to, tokenId) */\n      jump\t// in\n    tag_645:\n      sub(shl(0xa0, 0x01), 0x01)\n        /* \"Contracts/ERC721.sol\":17405:17418  _balances[to] */\n      dup3\n      and\n      0x00\n      swap1\n      dup2\n      mstore\n        /* \"Contracts/ERC721.sol\":17405:17414  _balances */\n      0x03\n        /* \"Contracts/ERC721.sol\":17405:17418  _balances[to] */\n      0x20\n      mstore\n      0x40\n      dup2\n      keccak256\n        /* \"Contracts/ERC721.sol\":17405:17423  _balances[to] += 1 */\n      dup1\n      sload\n        /* \"Contracts/ERC721.sol\":17422:17423  1 */\n      0x01\n      swap3\n        /* \"Contracts/ERC721.sol\":17405:17418  _balances[to] */\n      swap1\n        /* \"Contracts/ERC721.sol\":17405:17423  _balances[to] += 1 */\n      tag_646\n      swap1\n        /* \"Contracts/ERC721.sol\":17422:17423  1 */\n      dup5\n      swap1\n        /* \"Contracts/ERC721.sol\":17405:17423  _balances[to] += 1 */\n      tag_405\n      jump\t// in\n    tag_646:\n      swap1\n      swap2\n      sstore\n      pop\n      pop\n        /* \"Contracts/ERC721.sol\":17434:17450  _owners[tokenId] */\n      0x00\n      dup2\n      dup2\n      mstore\n        /* \"Contracts/ERC721.sol\":17434:17441  _owners */\n      0x02\n        /* \"Contracts/ERC721.sol\":17434:17450  _owners[tokenId] */\n      0x20\n      mstore\n      0x40\n      dup1\n      dup3\n      keccak256\n        /* \"Contracts/ERC721.sol\":17434:17455  _owners[tokenId] = to */\n      dup1\n      sload\n      not(sub(shl(0xa0, 0x01), 0x01))\n      and\n      sub(shl(0xa0, 0x01), 0x01)\n      dup7\n      and\n      swap1\n      dup2\n      or\n      swap1\n      swap2\n      sstore\n        /* \"Contracts/ERC721.sol\":17473:17506  Transfer(address(0), to, tokenId) */\n      swap1\n      mload\n        /* \"Contracts/ERC721.sol\":17434:17450  _owners[tokenId] */\n      dup4\n      swap3\n      swap1\n        /* \"Contracts/ERC721.sol\":17473:17506  Transfer(address(0), to, tokenId) */\n      0xddf252ad1be2c89b69c2b068fc378daa952ba7f163c4a11628f55a4df523b3ef\n      swap1\n        /* \"Contracts/ERC721.sol\":17434:17450  _owners[tokenId] */\n      dup3\n      swap1\n        /* \"Contracts/ERC721.sol\":17473:17506  Transfer(address(0), to, tokenId) */\n      log4\n        /* \"Contracts/ERC721.sol\":17132:17514  function _mint(address to, uint256 tokenId) internal virtual {... */\n      pop\n      pop\n      jump\t// out\n    tag_358:\n      dup3\n      dup1\n      sload\n      tag_648\n      swap1\n      tag_252\n      jump\t// in\n    tag_648:\n      swap1\n      0x00\n      mstore\n      keccak256(0x00, 0x20)\n      swap1\n      0x1f\n      add\n      0x20\n      swap1\n      div\n      dup2\n      add\n      swap3\n      dup3\n      tag_650\n      jumpi\n      0x00\n      dup6\n      sstore\n      jump(tag_653)\n    tag_650:\n      dup3\n      0x1f\n      lt\n      tag_651\n      jumpi\n      dup1\n      mload\n      not(0xff)\n      and\n      dup4\n      dup1\n      add\n      or\n      dup6\n      sstore\n      jump(tag_653)\n    tag_651:\n      dup3\n      dup1\n      add\n      0x01\n      add\n      dup6\n      sstore\n      dup3\n      iszero\n      tag_653\n      jumpi\n      swap2\n      dup3\n      add\n    tag_652:\n      dup3\n      dup2\n      gt\n      iszero\n      tag_653\n      jumpi\n      dup3\n      mload\n      dup3\n      sstore\n      swap2\n      0x20\n      add\n      swap2\n      swap1\n      0x01\n      add\n      swap1\n      jump(tag_652)\n    tag_653:\n      pop\n      tag_654\n      swap3\n      swap2\n      pop\n      tag_655\n      jump\t// in\n    tag_654:\n      pop\n      swap1\n      jump\t// out\n    tag_489:\n      pop\n      dup1\n      sload\n      0x00\n      dup3\n      sstore\n      swap1\n      0x00\n      mstore\n      keccak256(0x00, 0x20)\n      swap1\n      dup2\n      add\n      swap1\n      tag_321\n      swap2\n      swap1\n      tag_655\n      jump\t// in\n    tag_491:\n      dup3\n      dup1\n      sload\n      dup3\n      dup3\n      sstore\n      swap1\n      0x00\n      mstore\n      keccak256(0x00, 0x20)\n      swap1\n      dup2\n      add\n      swap3\n      dup3\n      iszero\n      tag_653\n      jumpi\n      swap2\n      0x20\n      mul\n      dup3\n      add\n    tag_659:\n      dup3\n      dup2\n      gt\n      iszero\n      tag_653\n      jumpi\n      dup2\n      sload\n      not(sub(shl(0xa0, 0x01), 0x01))\n      and\n      sub(shl(0xa0, 0x01), 0x01)\n      dup5\n      calldataload\n      and\n      or\n      dup3\n      sstore\n      0x20\n      swap1\n      swap3\n      add\n      swap2\n      0x01\n      swap1\n      swap2\n      add\n      swap1\n      jump(tag_659)\n    tag_655:\n    tag_662:\n      dup1\n      dup3\n      gt\n      iszero\n      tag_654\n      jumpi\n      0x00\n      dup2\n      sstore\n      0x01\n      add\n      jump(tag_662)\n        /* \"#utility.yul\":14:145   */\n    tag_664:\n      not(sub(shl(0xe0, 0x01), 0x01))\n        /* \"#utility.yul\":88:120   */\n      dup2\n      and\n        /* \"#utility.yul\":78:121   */\n      dup2\n      eq\n        /* \"#utility.yul\":68:139   */\n      tag_321\n      jumpi\n        /* \"#utility.yul\":135:136   */\n      0x00\n        /* \"#utility.yul\":132:133   */\n      dup1\n        /* \"#utility.yul\":125:137   */\n      revert\n        /* \"#utility.yul\":150:395   */\n    tag_53:\n        /* \"#utility.yul\":208:214   */\n      0x00\n        /* \"#utility.yul\":261:263   */\n      0x20\n        /* \"#utility.yul\":249:258   */\n      dup3\n        /* \"#utility.yul\":240:247   */\n      dup5\n        /* \"#utility.yul\":236:259   */\n      sub\n        /* \"#utility.yul\":232:264   */\n      slt\n        /* \"#utility.yul\":229:281   */\n      iszero\n      tag_677\n      jumpi\n        /* \"#utility.yul\":277:278   */\n      0x00\n        /* \"#utility.yul\":274:275   */\n      dup1\n        /* \"#utility.yul\":267:279   */\n      revert\n        /* \"#utility.yul\":229:281   */\n    tag_677:\n        /* \"#utility.yul\":316:325   */\n      dup2\n        /* \"#utility.yul\":303:326   */\n      calldataload\n        /* \"#utility.yul\":335:365   */\n      tag_463\n        /* \"#utility.yul\":359:364   */\n      dup2\n        /* \"#utility.yul\":335:365   */\n      tag_664\n      jump\t// in\n        /* \"#utility.yul\":592:752   */\n    tag_665:\n        /* \"#utility.yul\":657:677   */\n      dup1\n      calldataload\n        /* \"#utility.yul\":713:726   */\n      dup1\n      iszero\n        /* \"#utility.yul\":706:727   */\n      iszero\n        /* \"#utility.yul\":696:728   */\n      dup2\n      eq\n        /* \"#utility.yul\":686:746   */\n      tag_681\n      jumpi\n        /* \"#utility.yul\":742:743   */\n      0x00\n        /* \"#utility.yul\":739:740   */\n      dup1\n        /* \"#utility.yul\":732:744   */\n      revert\n        /* \"#utility.yul\":686:746   */\n    tag_681:\n        /* \"#utility.yul\":592:752   */\n      swap2\n      swap1\n      pop\n      jump\t// out\n        /* \"#utility.yul\":757:937   */\n    tag_60:\n        /* \"#utility.yul\":813:819   */\n      0x00\n        /* \"#utility.yul\":866:868   */\n      0x20\n        /* \"#utility.yul\":854:863   */\n      dup3\n        /* \"#utility.yul\":845:852   */\n      dup5\n        /* \"#utility.yul\":841:864   */\n      sub\n        /* \"#utility.yul\":837:869   */\n      slt\n        /* \"#utility.yul\":834:886   */\n      iszero\n      tag_683\n      jumpi\n        /* \"#utility.yul\":882:883   */\n      0x00\n        /* \"#utility.yul\":879:880   */\n      dup1\n        /* \"#utility.yul\":872:884   */\n      revert\n        /* \"#utility.yul\":834:886   */\n    tag_683:\n        /* \"#utility.yul\":905:931   */\n      tag_463\n        /* \"#utility.yul\":921:930   */\n      dup3\n        /* \"#utility.yul\":905:931   */\n      tag_665\n      jump\t// in\n        /* \"#utility.yul\":942:1200   */\n    tag_666:\n        /* \"#utility.yul\":1014:1015   */\n      0x00\n        /* \"#utility.yul\":1024:1137   */\n    tag_686:\n        /* \"#utility.yul\":1038:1044   */\n      dup4\n        /* \"#utility.yul\":1035:1036   */\n      dup2\n        /* \"#utility.yul\":1032:1045   */\n      lt\n        /* \"#utility.yul\":1024:1137   */\n      iszero\n      tag_688\n      jumpi\n        /* \"#utility.yul\":1114:1125   */\n      dup2\n      dup2\n      add\n        /* \"#utility.yul\":1108:1126   */\n      mload\n        /* \"#utility.yul\":1095:1106   */\n      dup4\n      dup3\n      add\n        /* \"#utility.yul\":1088:1127   */\n      mstore\n        /* \"#utility.yul\":1060:1062   */\n      0x20\n        /* \"#utility.yul\":1053:1063   */\n      add\n        /* \"#utility.yul\":1024:1137   */\n      jump(tag_686)\n    tag_688:\n        /* \"#utility.yul\":1155:1161   */\n      dup4\n        /* \"#utility.yul\":1152:1153   */\n      dup2\n        /* \"#utility.yul\":1149:1162   */\n      gt\n        /* \"#utility.yul\":1146:1194   */\n      iszero\n      tag_446\n      jumpi\n      pop\n      pop\n        /* \"#utility.yul\":1190:1191   */\n      0x00\n        /* \"#utility.yul\":1172:1188   */\n      swap2\n      add\n        /* \"#utility.yul\":1165:1192   */\n      mstore\n        /* \"#utility.yul\":942:1200   */\n      jump\t// out\n        /* \"#utility.yul\":1205:1463   */\n    tag_667:\n        /* \"#utility.yul\":1247:1250   */\n      0x00\n        /* \"#utility.yul\":1285:1290   */\n      dup2\n        /* \"#utility.yul\":1279:1291   */\n      mload\n        /* \"#utility.yul\":1312:1318   */\n      dup1\n        /* \"#utility.yul\":1307:1310   */\n      dup5\n        /* \"#utility.yul\":1300:1319   */\n      mstore\n        /* \"#utility.yul\":1328:1391   */\n      tag_691\n        /* \"#utility.yul\":1384:1390   */\n      dup2\n        /* \"#utility.yul\":1377:1381   */\n      0x20\n        /* \"#utility.yul\":1372:1375   */\n      dup7\n        /* \"#utility.yul\":1368:1382   */\n      add\n        /* \"#utility.yul\":1361:1365   */\n      0x20\n        /* \"#utility.yul\":1354:1359   */\n      dup7\n        /* \"#utility.yul\":1350:1366   */\n      add\n        /* \"#utility.yul\":1328:1391   */\n      tag_666\n      jump\t// in\n    tag_691:\n        /* \"#utility.yul\":1445:1447   */\n      0x1f\n        /* \"#utility.yul\":1424:1439   */\n      add\n      not(0x1f)\n        /* \"#utility.yul\":1420:1449   */\n      and\n        /* \"#utility.yul\":1411:1450   */\n      swap3\n      swap1\n      swap3\n      add\n        /* \"#utility.yul\":1452:1456   */\n      0x20\n        /* \"#utility.yul\":1407:1457   */\n      add\n      swap3\n        /* \"#utility.yul\":1205:1463   */\n      swap2\n      pop\n      pop\n      jump\t// out\n        /* \"#utility.yul\":1468:1688   */\n    tag_66:\n        /* \"#utility.yul\":1617:1619   */\n      0x20\n        /* \"#utility.yul\":1606:1615   */\n      dup2\n        /* \"#utility.yul\":1599:1620   */\n      mstore\n        /* \"#utility.yul\":1580:1584   */\n      0x00\n        /* \"#utility.yul\":1637:1682   */\n      tag_463\n        /* \"#utility.yul\":1678:1680   */\n      0x20\n        /* \"#utility.yul\":1667:1676   */\n      dup4\n        /* \"#utility.yul\":1663:1681   */\n      add\n        /* \"#utility.yul\":1655:1661   */\n      dup5\n        /* \"#utility.yul\":1637:1682   */\n      tag_667\n      jump\t// in\n        /* \"#utility.yul\":1693:1873   */\n    tag_70:\n        /* \"#utility.yul\":1752:1758   */\n      0x00\n        /* \"#utility.yul\":1805:1807   */\n      0x20\n        /* \"#utility.yul\":1793:1802   */\n      dup3\n        /* \"#utility.yul\":1784:1791   */\n      dup5\n        /* \"#utility.yul\":1780:1803   */\n      sub\n        /* \"#utility.yul\":1776:1808   */\n      slt\n        /* \"#utility.yul\":1773:1825   */\n      iszero\n      tag_695\n      jumpi\n        /* \"#utility.yul\":1821:1822   */\n      0x00\n        /* \"#utility.yul\":1818:1819   */\n      dup1\n        /* \"#utility.yul\":1811:1823   */\n      revert\n        /* \"#utility.yul\":1773:1825   */\n    tag_695:\n      pop\n        /* \"#utility.yul\":1844:1867   */\n      calldataload\n      swap2\n        /* \"#utility.yul\":1693:1873   */\n      swap1\n      pop\n      jump\t// out\n        /* \"#utility.yul\":2086:2259   */\n    tag_668:\n        /* \"#utility.yul\":2154:2174   */\n      dup1\n      calldataload\n      sub(shl(0xa0, 0x01), 0x01)\n        /* \"#utility.yul\":2203:2234   */\n      dup2\n      and\n        /* \"#utility.yul\":2193:2235   */\n      dup2\n      eq\n        /* \"#utility.yul\":2183:2253   */\n      tag_681\n      jumpi\n        /* \"#utility.yul\":2249:2250   */\n      0x00\n        /* \"#utility.yul\":2246:2247   */\n      dup1\n        /* \"#utility.yul\":2239:2251   */\n      revert\n        /* \"#utility.yul\":2264:2518   */\n    tag_77:\n        /* \"#utility.yul\":2332:2338   */\n      0x00\n        /* \"#utility.yul\":2340:2346   */\n      dup1\n        /* \"#utility.yul\":2393:2395   */\n      0x40\n        /* \"#utility.yul\":2381:2390   */\n      dup4\n        /* \"#utility.yul\":2372:2379   */\n      dup6\n        /* \"#utility.yul\":2368:2391   */\n      sub\n        /* \"#utility.yul\":2364:2396   */\n      slt\n        /* \"#utility.yul\":2361:2413   */\n      iszero\n      tag_700\n      jumpi\n        /* \"#utility.yul\":2409:2410   */\n      0x00\n        /* \"#utility.yul\":2406:2407   */\n      dup1\n        /* \"#utility.yul\":2399:2411   */\n      revert\n        /* \"#utility.yul\":2361:2413   */\n    tag_700:\n        /* \"#utility.yul\":2432:2461   */\n      tag_701\n        /* \"#utility.yul\":2451:2460   */\n      dup4\n        /* \"#utility.yul\":2432:2461   */\n      tag_668\n      jump\t// in\n    tag_701:\n        /* \"#utility.yul\":2422:2461   */\n      swap5\n        /* \"#utility.yul\":2508:2510   */\n      0x20\n        /* \"#utility.yul\":2493:2511   */\n      swap4\n      swap1\n      swap4\n      add\n        /* \"#utility.yul\":2480:2512   */\n      calldataload\n      swap4\n      pop\n      pop\n      pop\n        /* \"#utility.yul\":2264:2518   */\n      jump\t// out\n        /* \"#utility.yul\":2705:2891   */\n    tag_91:\n        /* \"#utility.yul\":2764:2770   */\n      0x00\n        /* \"#utility.yul\":2817:2819   */\n      0x20\n        /* \"#utility.yul\":2805:2814   */\n      dup3\n        /* \"#utility.yul\":2796:2803   */\n      dup5\n        /* \"#utility.yul\":2792:2815   */\n      sub\n        /* \"#utility.yul\":2788:2820   */\n      slt\n        /* \"#utility.yul\":2785:2837   */\n      iszero\n      tag_704\n      jumpi\n        /* \"#utility.yul\":2833:2834   */\n      0x00\n        /* \"#utility.yul\":2830:2831   */\n      dup1\n        /* \"#utility.yul\":2823:2835   */\n      revert\n        /* \"#utility.yul\":2785:2837   */\n    tag_704:\n        /* \"#utility.yul\":2856:2885   */\n      tag_463\n        /* \"#utility.yul\":2875:2884   */\n      dup3\n        /* \"#utility.yul\":2856:2885   */\n      tag_668\n      jump\t// in\n        /* \"#utility.yul\":2896:3224   */\n    tag_101:\n        /* \"#utility.yul\":2973:2979   */\n      0x00\n        /* \"#utility.yul\":2981:2987   */\n      dup1\n        /* \"#utility.yul\":2989:2995   */\n      0x00\n        /* \"#utility.yul\":3042:3044   */\n      0x60\n        /* \"#utility.yul\":3030:3039   */\n      dup5\n        /* \"#utility.yul\":3021:3028   */\n      dup7\n        /* \"#utility.yul\":3017:3040   */\n      sub\n        /* \"#utility.yul\":3013:3045   */\n      slt\n        /* \"#utility.yul\":3010:3062   */\n      iszero\n      tag_707\n      jumpi\n        /* \"#utility.yul\":3058:3059   */\n      0x00\n        /* \"#utility.yul\":3055:3056   */\n      dup1\n        /* \"#utility.yul\":3048:3060   */\n      revert\n        /* \"#utility.yul\":3010:3062   */\n    tag_707:\n        /* \"#utility.yul\":3081:3110   */\n      tag_708\n        /* \"#utility.yul\":3100:3109   */\n      dup5\n        /* \"#utility.yul\":3081:3110   */\n      tag_668\n      jump\t// in\n    tag_708:\n        /* \"#utility.yul\":3071:3110   */\n      swap3\n      pop\n        /* \"#utility.yul\":3129:3167   */\n      tag_709\n        /* \"#utility.yul\":3163:3165   */\n      0x20\n        /* \"#utility.yul\":3152:3161   */\n      dup6\n        /* \"#utility.yul\":3148:3166   */\n      add\n        /* \"#utility.yul\":3129:3167   */\n      tag_668\n      jump\t// in\n    tag_709:\n        /* \"#utility.yul\":3119:3167   */\n      swap2\n      pop\n        /* \"#utility.yul\":3214:3216   */\n      0x40\n        /* \"#utility.yul\":3203:3212   */\n      dup5\n        /* \"#utility.yul\":3199:3217   */\n      add\n        /* \"#utility.yul\":3186:3218   */\n      calldataload\n        /* \"#utility.yul\":3176:3218   */\n      swap1\n      pop\n        /* \"#utility.yul\":2896:3224   */\n      swap3\n      pop\n      swap3\n      pop\n      swap3\n      jump\t// out\n        /* \"#utility.yul\":3229:3861   */\n    tag_128:\n        /* \"#utility.yul\":3400:3402   */\n      0x20\n        /* \"#utility.yul\":3452:3473   */\n      dup1\n      dup3\n      mstore\n        /* \"#utility.yul\":3522:3535   */\n      dup3\n      mload\n        /* \"#utility.yul\":3425:3443   */\n      dup3\n      dup3\n      add\n        /* \"#utility.yul\":3544:3566   */\n      dup2\n      swap1\n      mstore\n        /* \"#utility.yul\":3371:3375   */\n      0x00\n      swap2\n        /* \"#utility.yul\":3400:3402   */\n      swap1\n        /* \"#utility.yul\":3623:3638   */\n      dup5\n      dup3\n      add\n      swap1\n        /* \"#utility.yul\":3597:3599   */\n      0x40\n        /* \"#utility.yul\":3582:3600   */\n      dup6\n      add\n      swap1\n        /* \"#utility.yul\":3371:3375   */\n      dup5\n        /* \"#utility.yul\":3666:3835   */\n    tag_711:\n        /* \"#utility.yul\":3680:3686   */\n      dup2\n        /* \"#utility.yul\":3677:3678   */\n      dup2\n        /* \"#utility.yul\":3674:3687   */\n      lt\n        /* \"#utility.yul\":3666:3835   */\n      iszero\n      tag_713\n      jumpi\n        /* \"#utility.yul\":3741:3754   */\n      dup4\n      mload\n        /* \"#utility.yul\":3729:3755   */\n      dup4\n      mstore\n        /* \"#utility.yul\":3810:3825   */\n      swap3\n      dup5\n      add\n      swap3\n        /* \"#utility.yul\":3775:3787   */\n      swap2\n      dup5\n      add\n      swap2\n        /* \"#utility.yul\":3702:3703   */\n      0x01\n        /* \"#utility.yul\":3695:3704   */\n      add\n        /* \"#utility.yul\":3666:3835   */\n      jump(tag_711)\n    tag_713:\n      pop\n        /* \"#utility.yul\":3852:3855   */\n      swap1\n      swap7\n        /* \"#utility.yul\":3229:3861   */\n      swap6\n      pop\n      pop\n      pop\n      pop\n      pop\n      pop\n      jump\t// out\n        /* \"#utility.yul\":3866:3993   */\n    tag_328:\n        /* \"#utility.yul\":3927:3937   */\n      0x4e487b71\n        /* \"#utility.yul\":3922:3925   */\n      0xe0\n        /* \"#utility.yul\":3918:3938   */\n      shl\n        /* \"#utility.yul\":3915:3916   */\n      0x00\n        /* \"#utility.yul\":3908:3939   */\n      mstore\n        /* \"#utility.yul\":3958:3962   */\n      0x41\n        /* \"#utility.yul\":3955:3956   */\n      0x04\n        /* \"#utility.yul\":3948:3963   */\n      mstore\n        /* \"#utility.yul\":3982:3986   */\n      0x24\n        /* \"#utility.yul\":3979:3980   */\n      0x00\n        /* \"#utility.yul\":3972:3987   */\n      revert\n        /* \"#utility.yul\":3998:4630   */\n    tag_669:\n        /* \"#utility.yul\":4063:4068   */\n      0x00\n        /* \"#utility.yul\":4093:4111   */\n      0xffffffffffffffff\n        /* \"#utility.yul\":4134:4136   */\n      dup1\n        /* \"#utility.yul\":4126:4132   */\n      dup5\n        /* \"#utility.yul\":4123:4137   */\n      gt\n        /* \"#utility.yul\":4120:4160   */\n      iszero\n      tag_717\n      jumpi\n        /* \"#utility.yul\":4140:4158   */\n      tag_717\n      tag_328\n      jump\t// in\n    tag_717:\n        /* \"#utility.yul\":4215:4217   */\n      0x40\n        /* \"#utility.yul\":4209:4218   */\n      mload\n        /* \"#utility.yul\":4183:4185   */\n      0x1f\n        /* \"#utility.yul\":4269:4284   */\n      dup6\n      add\n      not(0x1f)\n        /* \"#utility.yul\":4265:4289   */\n      swap1\n      dup2\n      and\n        /* \"#utility.yul\":4291:4293   */\n      0x3f\n        /* \"#utility.yul\":4261:4294   */\n      add\n        /* \"#utility.yul\":4257:4299   */\n      and\n        /* \"#utility.yul\":4245:4300   */\n      dup2\n      add\n      swap1\n        /* \"#utility.yul\":4315:4333   */\n      dup3\n      dup3\n      gt\n        /* \"#utility.yul\":4335:4357   */\n      dup2\n      dup4\n      lt\n        /* \"#utility.yul\":4312:4358   */\n      or\n        /* \"#utility.yul\":4309:4381   */\n      iszero\n      tag_719\n      jumpi\n        /* \"#utility.yul\":4361:4379   */\n      tag_719\n      tag_328\n      jump\t// in\n    tag_719:\n        /* \"#utility.yul\":4401:4411   */\n      dup2\n        /* \"#utility.yul\":4397:4399   */\n      0x40\n        /* \"#utility.yul\":4390:4412   */\n      mstore\n        /* \"#utility.yul\":4430:4436   */\n      dup1\n        /* \"#utility.yul\":4421:4436   */\n      swap4\n      pop\n        /* \"#utility.yul\":4460:4466   */\n      dup6\n        /* \"#utility.yul\":4452:4458   */\n      dup2\n        /* \"#utility.yul\":4445:4467   */\n      mstore\n        /* \"#utility.yul\":4500:4503   */\n      dup7\n        /* \"#utility.yul\":4491:4497   */\n      dup7\n        /* \"#utility.yul\":4486:4489   */\n      dup7\n        /* \"#utility.yul\":4482:4498   */\n      add\n        /* \"#utility.yul\":4479:4504   */\n      gt\n        /* \"#utility.yul\":4476:4521   */\n      iszero\n      tag_720\n      jumpi\n        /* \"#utility.yul\":4517:4518   */\n      0x00\n        /* \"#utility.yul\":4514:4515   */\n      dup1\n        /* \"#utility.yul\":4507:4519   */\n      revert\n        /* \"#utility.yul\":4476:4521   */\n    tag_720:\n        /* \"#utility.yul\":4567:4573   */\n      dup6\n        /* \"#utility.yul\":4562:4565   */\n      dup6\n        /* \"#utility.yul\":4555:4559   */\n      0x20\n        /* \"#utility.yul\":4547:4553   */\n      dup4\n        /* \"#utility.yul\":4543:4560   */\n      add\n        /* \"#utility.yul\":4530:4574   */\n      calldatacopy\n        /* \"#utility.yul\":4622:4623   */\n      0x00\n        /* \"#utility.yul\":4615:4619   */\n      0x20\n        /* \"#utility.yul\":4606:4612   */\n      dup8\n        /* \"#utility.yul\":4598:4604   */\n      dup4\n        /* \"#utility.yul\":4594:4613   */\n      add\n        /* \"#utility.yul\":4590:4620   */\n      add\n        /* \"#utility.yul\":4583:4624   */\n      mstore\n      pop\n      pop\n      pop\n        /* \"#utility.yul\":3998:4630   */\n      swap4\n      swap3\n      pop\n      pop\n      pop\n      jump\t// out\n        /* \"#utility.yul\":4635:5086   */\n    tag_141:\n        /* \"#utility.yul\":4704:4710   */\n      0x00\n        /* \"#utility.yul\":4757:4759   */\n      0x20\n        /* \"#utility.yul\":4745:4754   */\n      dup3\n        /* \"#utility.yul\":4736:4743   */\n      dup5\n        /* \"#utility.yul\":4732:4755   */\n      sub\n        /* \"#utility.yul\":4728:4760   */\n      slt\n        /* \"#utility.yul\":4725:4777   */\n      iszero\n      tag_722\n      jumpi\n        /* \"#utility.yul\":4773:4774   */\n      0x00\n        /* \"#utility.yul\":4770:4771   */\n      dup1\n        /* \"#utility.yul\":4763:4775   */\n      revert\n        /* \"#utility.yul\":4725:4777   */\n    tag_722:\n        /* \"#utility.yul\":4813:4822   */\n      dup2\n        /* \"#utility.yul\":4800:4823   */\n      calldataload\n        /* \"#utility.yul\":4846:4864   */\n      0xffffffffffffffff\n        /* \"#utility.yul\":4838:4844   */\n      dup2\n        /* \"#utility.yul\":4835:4865   */\n      gt\n        /* \"#utility.yul\":4832:4882   */\n      iszero\n      tag_723\n      jumpi\n        /* \"#utility.yul\":4878:4879   */\n      0x00\n        /* \"#utility.yul\":4875:4876   */\n      dup1\n        /* \"#utility.yul\":4868:4880   */\n      revert\n        /* \"#utility.yul\":4832:4882   */\n    tag_723:\n        /* \"#utility.yul\":4901:4923   */\n      dup3\n      add\n        /* \"#utility.yul\":4954:4958   */\n      0x1f\n        /* \"#utility.yul\":4946:4959   */\n      dup2\n      add\n        /* \"#utility.yul\":4942:4969   */\n      dup5\n      sgt\n        /* \"#utility.yul\":4932:4987   */\n      tag_724\n      jumpi\n        /* \"#utility.yul\":4983:4984   */\n      0x00\n        /* \"#utility.yul\":4980:4981   */\n      dup1\n        /* \"#utility.yul\":4973:4985   */\n      revert\n        /* \"#utility.yul\":4932:4987   */\n    tag_724:\n        /* \"#utility.yul\":5006:5080   */\n      tag_520\n        /* \"#utility.yul\":5072:5079   */\n      dup5\n        /* \"#utility.yul\":5067:5069   */\n      dup3\n        /* \"#utility.yul\":5054:5070   */\n      calldataload\n        /* \"#utility.yul\":5049:5051   */\n      0x20\n        /* \"#utility.yul\":5045:5047   */\n      dup5\n        /* \"#utility.yul\":5041:5052   */\n      add\n        /* \"#utility.yul\":5006:5080   */\n      tag_669\n      jump\t// in\n        /* \"#utility.yul\":5091:5345   */\n    tag_186:\n        /* \"#utility.yul\":5156:5162   */\n      0x00\n        /* \"#utility.yul\":5164:5170   */\n      dup1\n        /* \"#utility.yul\":5217:5219   */\n      0x40\n        /* \"#utility.yul\":5205:5214   */\n      dup4\n        /* \"#utility.yul\":5196:5203   */\n      dup6\n        /* \"#utility.yul\":5192:5215   */\n      sub\n        /* \"#utility.yul\":5188:5220   */\n      slt\n        /* \"#utility.yul\":5185:5237   */\n      iszero\n      tag_727\n      jumpi\n        /* \"#utility.yul\":5233:5234   */\n      0x00\n        /* \"#utility.yul\":5230:5231   */\n      dup1\n        /* \"#utility.yul\":5223:5235   */\n      revert\n        /* \"#utility.yul\":5185:5237   */\n    tag_727:\n        /* \"#utility.yul\":5256:5285   */\n      tag_728\n        /* \"#utility.yul\":5275:5284   */\n      dup4\n        /* \"#utility.yul\":5256:5285   */\n      tag_668\n      jump\t// in\n    tag_728:\n        /* \"#utility.yul\":5246:5285   */\n      swap2\n      pop\n        /* \"#utility.yul\":5304:5339   */\n      tag_729\n        /* \"#utility.yul\":5335:5337   */\n      0x20\n        /* \"#utility.yul\":5324:5333   */\n      dup5\n        /* \"#utility.yul\":5320:5338   */\n      add\n        /* \"#utility.yul\":5304:5339   */\n      tag_665\n      jump\t// in\n    tag_729:\n        /* \"#utility.yul\":5294:5339   */\n      swap1\n      pop\n        /* \"#utility.yul\":5091:5345   */\n      swap3\n      pop\n      swap3\n      swap1\n      pop\n      jump\t// out\n        /* \"#utility.yul\":5350:6017   */\n    tag_191:\n        /* \"#utility.yul\":5445:5451   */\n      0x00\n        /* \"#utility.yul\":5453:5459   */\n      dup1\n        /* \"#utility.yul\":5461:5467   */\n      0x00\n        /* \"#utility.yul\":5469:5475   */\n      dup1\n        /* \"#utility.yul\":5522:5525   */\n      0x80\n        /* \"#utility.yul\":5510:5519   */\n      dup6\n        /* \"#utility.yul\":5501:5508   */\n      dup8\n        /* \"#utility.yul\":5497:5520   */\n      sub\n        /* \"#utility.yul\":5493:5526   */\n      slt\n        /* \"#utility.yul\":5490:5543   */\n      iszero\n      tag_731\n      jumpi\n        /* \"#utility.yul\":5539:5540   */\n      0x00\n        /* \"#utility.yul\":5536:5537   */\n      dup1\n        /* \"#utility.yul\":5529:5541   */\n      revert\n        /* \"#utility.yul\":5490:5543   */\n    tag_731:\n        /* \"#utility.yul\":5562:5591   */\n      tag_732\n        /* \"#utility.yul\":5581:5590   */\n      dup6\n        /* \"#utility.yul\":5562:5591   */\n      tag_668\n      jump\t// in\n    tag_732:\n        /* \"#utility.yul\":5552:5591   */\n      swap4\n      pop\n        /* \"#utility.yul\":5610:5648   */\n      tag_733\n        /* \"#utility.yul\":5644:5646   */\n      0x20\n        /* \"#utility.yul\":5633:5642   */\n      dup7\n        /* \"#utility.yul\":5629:5647   */\n      add\n        /* \"#utility.yul\":5610:5648   */\n      tag_668\n      jump\t// in\n    tag_733:\n        /* \"#utility.yul\":5600:5648   */\n      swap3\n      pop\n        /* \"#utility.yul\":5695:5697   */\n      0x40\n        /* \"#utility.yul\":5684:5693   */\n      dup6\n        /* \"#utility.yul\":5680:5698   */\n      add\n        /* \"#utility.yul\":5667:5699   */\n      calldataload\n        /* \"#utility.yul\":5657:5699   */\n      swap2\n      pop\n        /* \"#utility.yul\":5750:5752   */\n      0x60\n        /* \"#utility.yul\":5739:5748   */\n      dup6\n        /* \"#utility.yul\":5735:5753   */\n      add\n        /* \"#utility.yul\":5722:5754   */\n      calldataload\n        /* \"#utility.yul\":5777:5795   */\n      0xffffffffffffffff\n        /* \"#utility.yul\":5769:5775   */\n      dup2\n        /* \"#utility.yul\":5766:5796   */\n      gt\n        /* \"#utility.yul\":5763:5813   */\n      iszero\n      tag_734\n      jumpi\n        /* \"#utility.yul\":5809:5810   */\n      0x00\n        /* \"#utility.yul\":5806:5807   */\n      dup1\n        /* \"#utility.yul\":5799:5811   */\n      revert\n        /* \"#utility.yul\":5763:5813   */\n    tag_734:\n        /* \"#utility.yul\":5832:5854   */\n      dup6\n      add\n        /* \"#utility.yul\":5885:5889   */\n      0x1f\n        /* \"#utility.yul\":5877:5890   */\n      dup2\n      add\n        /* \"#utility.yul\":5873:5900   */\n      dup8\n      sgt\n        /* \"#utility.yul\":5863:5918   */\n      tag_735\n      jumpi\n        /* \"#utility.yul\":5914:5915   */\n      0x00\n        /* \"#utility.yul\":5911:5912   */\n      dup1\n        /* \"#utility.yul\":5904:5916   */\n      revert\n        /* \"#utility.yul\":5863:5918   */\n    tag_735:\n        /* \"#utility.yul\":5937:6011   */\n      tag_736\n        /* \"#utility.yul\":6003:6010   */\n      dup8\n        /* \"#utility.yul\":5998:6000   */\n      dup3\n        /* \"#utility.yul\":5985:6001   */\n      calldataload\n        /* \"#utility.yul\":5980:5982   */\n      0x20\n        /* \"#utility.yul\":5976:5978   */\n      dup5\n        /* \"#utility.yul\":5972:5983   */\n      add\n        /* \"#utility.yul\":5937:6011   */\n      tag_669\n      jump\t// in\n    tag_736:\n        /* \"#utility.yul\":5927:6011   */\n      swap2\n      pop\n      pop\n        /* \"#utility.yul\":5350:6017   */\n      swap3\n      swap6\n      swap2\n      swap5\n      pop\n      swap3\n      pop\n      jump\t// out\n        /* \"#utility.yul\":6022:6282   */\n    tag_226:\n        /* \"#utility.yul\":6090:6096   */\n      0x00\n        /* \"#utility.yul\":6098:6104   */\n      dup1\n        /* \"#utility.yul\":6151:6153   */\n      0x40\n        /* \"#utility.yul\":6139:6148   */\n      dup4\n        /* \"#utility.yul\":6130:6137   */\n      dup6\n        /* \"#utility.yul\":6126:6149   */\n      sub\n        /* \"#utility.yul\":6122:6154   */\n      slt\n        /* \"#utility.yul\":6119:6171   */\n      iszero\n      tag_738\n      jumpi\n        /* \"#utility.yul\":6167:6168   */\n      0x00\n        /* \"#utility.yul\":6164:6165   */\n      dup1\n        /* \"#utility.yul\":6157:6169   */\n      revert\n        /* \"#utility.yul\":6119:6171   */\n    tag_738:\n        /* \"#utility.yul\":6190:6219   */\n      tag_739\n        /* \"#utility.yul\":6209:6218   */\n      dup4\n        /* \"#utility.yul\":6190:6219   */\n      tag_668\n      jump\t// in\n    tag_739:\n        /* \"#utility.yul\":6180:6219   */\n      swap2\n      pop\n        /* \"#utility.yul\":6238:6276   */\n      tag_729\n        /* \"#utility.yul\":6272:6274   */\n      0x20\n        /* \"#utility.yul\":6261:6270   */\n      dup5\n        /* \"#utility.yul\":6257:6275   */\n      add\n        /* \"#utility.yul\":6238:6276   */\n      tag_668\n      jump\t// in\n        /* \"#utility.yul\":6287:6902   */\n    tag_232:\n        /* \"#utility.yul\":6373:6379   */\n      0x00\n        /* \"#utility.yul\":6381:6387   */\n      dup1\n        /* \"#utility.yul\":6434:6436   */\n      0x20\n        /* \"#utility.yul\":6422:6431   */\n      dup4\n        /* \"#utility.yul\":6413:6420   */\n      dup6\n        /* \"#utility.yul\":6409:6432   */\n      sub\n        /* \"#utility.yul\":6405:6437   */\n      slt\n        /* \"#utility.yul\":6402:6454   */\n      iszero\n      tag_742\n      jumpi\n        /* \"#utility.yul\":6450:6451   */\n      0x00\n        /* \"#utility.yul\":6447:6448   */\n      dup1\n        /* \"#utility.yul\":6440:6452   */\n      revert\n        /* \"#utility.yul\":6402:6454   */\n    tag_742:\n        /* \"#utility.yul\":6490:6499   */\n      dup3\n        /* \"#utility.yul\":6477:6500   */\n      calldataload\n        /* \"#utility.yul\":6519:6537   */\n      0xffffffffffffffff\n        /* \"#utility.yul\":6560:6562   */\n      dup1\n        /* \"#utility.yul\":6552:6558   */\n      dup3\n        /* \"#utility.yul\":6549:6563   */\n      gt\n        /* \"#utility.yul\":6546:6580   */\n      iszero\n      tag_743\n      jumpi\n        /* \"#utility.yul\":6576:6577   */\n      0x00\n        /* \"#utility.yul\":6573:6574   */\n      dup1\n        /* \"#utility.yul\":6566:6578   */\n      revert\n        /* \"#utility.yul\":6546:6580   */\n    tag_743:\n        /* \"#utility.yul\":6614:6620   */\n      dup2\n        /* \"#utility.yul\":6603:6612   */\n      dup6\n        /* \"#utility.yul\":6599:6621   */\n      add\n        /* \"#utility.yul\":6589:6621   */\n      swap2\n      pop\n        /* \"#utility.yul\":6659:6666   */\n      dup6\n        /* \"#utility.yul\":6652:6656   */\n      0x1f\n        /* \"#utility.yul\":6648:6650   */\n      dup4\n        /* \"#utility.yul\":6644:6657   */\n      add\n        /* \"#utility.yul\":6640:6667   */\n      slt\n        /* \"#utility.yul\":6630:6685   */\n      tag_744\n      jumpi\n        /* \"#utility.yul\":6681:6682   */\n      0x00\n        /* \"#utility.yul\":6678:6679   */\n      dup1\n        /* \"#utility.yul\":6671:6683   */\n      revert\n        /* \"#utility.yul\":6630:6685   */\n    tag_744:\n        /* \"#utility.yul\":6721:6723   */\n      dup2\n        /* \"#utility.yul\":6708:6724   */\n      calldataload\n        /* \"#utility.yul\":6747:6749   */\n      dup2\n        /* \"#utility.yul\":6739:6745   */\n      dup2\n        /* \"#utility.yul\":6736:6750   */\n      gt\n        /* \"#utility.yul\":6733:6767   */\n      iszero\n      tag_745\n      jumpi\n        /* \"#utility.yul\":6763:6764   */\n      0x00\n        /* \"#utility.yul\":6760:6761   */\n      dup1\n        /* \"#utility.yul\":6753:6765   */\n      revert\n        /* \"#utility.yul\":6733:6767   */\n    tag_745:\n        /* \"#utility.yul\":6816:6823   */\n      dup7\n        /* \"#utility.yul\":6811:6813   */\n      0x20\n        /* \"#utility.yul\":6801:6807   */\n      dup3\n        /* \"#utility.yul\":6798:6799   */\n      0x05\n        /* \"#utility.yul\":6794:6808   */\n      shl\n        /* \"#utility.yul\":6790:6792   */\n      dup6\n        /* \"#utility.yul\":6786:6809   */\n      add\n        /* \"#utility.yul\":6782:6814   */\n      add\n        /* \"#utility.yul\":6779:6824   */\n      gt\n        /* \"#utility.yul\":6776:6841   */\n      iszero\n      tag_746\n      jumpi\n        /* \"#utility.yul\":6837:6838   */\n      0x00\n        /* \"#utility.yul\":6834:6835   */\n      dup1\n        /* \"#utility.yul\":6827:6839   */\n      revert\n        /* \"#utility.yul\":6776:6841   */\n    tag_746:\n        /* \"#utility.yul\":6868:6870   */\n      0x20\n        /* \"#utility.yul\":6860:6871   */\n      swap3\n      swap1\n      swap3\n      add\n      swap7\n        /* \"#utility.yul\":6890:6896   */\n      swap2\n      swap6\n      pop\n        /* \"#utility.yul\":6287:6902   */\n      swap1\n      swap4\n      pop\n      pop\n      pop\n      pop\n      jump\t// out\n        /* \"#utility.yul\":6907:7263   */\n    tag_248:\n        /* \"#utility.yul\":7109:7111   */\n      0x20\n        /* \"#utility.yul\":7091:7112   */\n      dup1\n      dup3\n      mstore\n        /* \"#utility.yul\":7128:7146   */\n      dup2\n      dup2\n      add\n        /* \"#utility.yul\":7121:7151   */\n      mstore\n        /* \"#utility.yul\":7187:7221   */\n      0x4f776e61626c653a2063616c6c6572206973206e6f7420746865206f776e6572\n        /* \"#utility.yul\":7182:7184   */\n      0x40\n        /* \"#utility.yul\":7167:7185   */\n      dup3\n      add\n        /* \"#utility.yul\":7160:7222   */\n      mstore\n        /* \"#utility.yul\":7254:7256   */\n      0x60\n        /* \"#utility.yul\":7239:7257   */\n      add\n      swap1\n        /* \"#utility.yul\":6907:7263   */\n      jump\t// out\n        /* \"#utility.yul\":7268:7648   */\n    tag_252:\n        /* \"#utility.yul\":7347:7348   */\n      0x01\n        /* \"#utility.yul\":7343:7355   */\n      dup2\n      dup2\n      shr\n      swap1\n        /* \"#utility.yul\":7390:7402   */\n      dup3\n      and\n      dup1\n        /* \"#utility.yul\":7411:7472   */\n      tag_749\n      jumpi\n        /* \"#utility.yul\":7465:7469   */\n      0x7f\n        /* \"#utility.yul\":7457:7463   */\n      dup3\n        /* \"#utility.yul\":7453:7470   */\n      and\n        /* \"#utility.yul\":7443:7470   */\n      swap2\n      pop\n        /* \"#utility.yul\":7411:7472   */\n    tag_749:\n        /* \"#utility.yul\":7518:7520   */\n      0x20\n        /* \"#utility.yul\":7510:7516   */\n      dup3\n        /* \"#utility.yul\":7507:7521   */\n      lt\n        /* \"#utility.yul\":7487:7505   */\n      dup2\n        /* \"#utility.yul\":7484:7522   */\n      sub\n        /* \"#utility.yul\":7481:7642   */\n      tag_750\n      jumpi\n        /* \"#utility.yul\":7564:7574   */\n      0x4e487b71\n        /* \"#utility.yul\":7559:7562   */\n      0xe0\n        /* \"#utility.yul\":7555:7575   */\n      shl\n        /* \"#utility.yul\":7552:7553   */\n      0x00\n        /* \"#utility.yul\":7545:7576   */\n      mstore\n        /* \"#utility.yul\":7599:7603   */\n      0x22\n        /* \"#utility.yul\":7596:7597   */\n      0x04\n        /* \"#utility.yul\":7589:7604   */\n      mstore\n        /* \"#utility.yul\":7627:7631   */\n      0x24\n        /* \"#utility.yul\":7624:7625   */\n      0x00\n        /* \"#utility.yul\":7617:7632   */\n      revert\n        /* \"#utility.yul\":7481:7642   */\n    tag_750:\n      pop\n        /* \"#utility.yul\":7268:7648   */\n      swap2\n      swap1\n      pop\n      jump\t// out\n        /* \"#utility.yul\":8893:9306   */\n    tag_284:\n        /* \"#utility.yul\":9095:9097   */\n      0x20\n        /* \"#utility.yul\":9077:9098   */\n      dup1\n      dup3\n      mstore\n        /* \"#utility.yul\":9134:9136   */\n      0x31\n        /* \"#utility.yul\":9114:9132   */\n      swap1\n      dup3\n      add\n        /* \"#utility.yul\":9107:9137   */\n      mstore\n        /* \"#utility.yul\":9173:9207   */\n      0x4552433732313a207472616e736665722063616c6c6572206973206e6f74206f\n        /* \"#utility.yul\":9168:9170   */\n      0x40\n        /* \"#utility.yul\":9153:9171   */\n      dup3\n      add\n        /* \"#utility.yul\":9146:9208   */\n      mstore\n      shl(0x7a, 0x1ddb995c881b9bdc88185c1c1c9bdd9959)\n        /* \"#utility.yul\":9239:9241   */\n      0x60\n        /* \"#utility.yul\":9224:9242   */\n      dup3\n      add\n        /* \"#utility.yul\":9217:9264   */\n      mstore\n        /* \"#utility.yul\":9296:9299   */\n      0x80\n        /* \"#utility.yul\":9281:9300   */\n      add\n      swap1\n        /* \"#utility.yul\":8893:9306   */\n      jump\t// out\n        /* \"#utility.yul\":9723:9850   */\n    tag_298:\n        /* \"#utility.yul\":9784:9794   */\n      0x4e487b71\n        /* \"#utility.yul\":9779:9782   */\n      0xe0\n        /* \"#utility.yul\":9775:9795   */\n      shl\n        /* \"#utility.yul\":9772:9773   */\n      0x00\n        /* \"#utility.yul\":9765:9796   */\n      mstore\n        /* \"#utility.yul\":9815:9819   */\n      0x32\n        /* \"#utility.yul\":9812:9813   */\n      0x04\n        /* \"#utility.yul\":9805:9820   */\n      mstore\n        /* \"#utility.yul\":9839:9843   */\n      0x24\n        /* \"#utility.yul\":9836:9837   */\n      0x00\n        /* \"#utility.yul\":9829:9844   */\n      revert\n        /* \"#utility.yul\":9855:9982   */\n    tag_670:\n        /* \"#utility.yul\":9916:9926   */\n      0x4e487b71\n        /* \"#utility.yul\":9911:9914   */\n      0xe0\n        /* \"#utility.yul\":9907:9927   */\n      shl\n        /* \"#utility.yul\":9904:9905   */\n      0x00\n        /* \"#utility.yul\":9897:9928   */\n      mstore\n        /* \"#utility.yul\":9947:9951   */\n      0x11\n        /* \"#utility.yul\":9944:9945   */\n      0x04\n        /* \"#utility.yul\":9937:9952   */\n      mstore\n        /* \"#utility.yul\":9971:9975   */\n      0x24\n        /* \"#utility.yul\":9968:9969   */\n      0x00\n        /* \"#utility.yul\":9961:9976   */\n      revert\n        /* \"#utility.yul\":9987:10122   */\n    tag_302:\n        /* \"#utility.yul\":10026:10029   */\n      0x00\n        /* \"#utility.yul\":10047:10064   */\n      0x01\n      dup3\n      add\n        /* \"#utility.yul\":10044:10087   */\n      tag_760\n      jumpi\n        /* \"#utility.yul\":10067:10085   */\n      tag_760\n      tag_670\n      jump\t// in\n    tag_760:\n      pop\n        /* \"#utility.yul\":10114:10115   */\n      0x01\n        /* \"#utility.yul\":10103:10116   */\n      add\n      swap1\n        /* \"#utility.yul\":9987:10122   */\n      jump\t// out\n        /* \"#utility.yul\":12683:12811   */\n    tag_405:\n        /* \"#utility.yul\":12723:12726   */\n      0x00\n        /* \"#utility.yul\":12754:12755   */\n      dup3\n        /* \"#utility.yul\":12750:12756   */\n      not\n        /* \"#utility.yul\":12747:12748   */\n      dup3\n        /* \"#utility.yul\":12744:12757   */\n      gt\n        /* \"#utility.yul\":12741:12780   */\n      iszero\n      tag_770\n      jumpi\n        /* \"#utility.yul\":12760:12778   */\n      tag_770\n      tag_670\n      jump\t// in\n    tag_770:\n      pop\n        /* \"#utility.yul\":12796:12805   */\n      add\n      swap1\n        /* \"#utility.yul\":12683:12811   */\n      jump\t// out\n        /* \"#utility.yul\":13876:14044   */\n    tag_421:\n        /* \"#utility.yul\":13916:13923   */\n      0x00\n        /* \"#utility.yul\":13982:13983   */\n      dup2\n        /* \"#utility.yul\":13978:13979   */\n      0x00\n        /* \"#utility.yul\":13974:13980   */\n      not\n        /* \"#utility.yul\":13970:13984   */\n      div\n        /* \"#utility.yul\":13967:13968   */\n      dup4\n        /* \"#utility.yul\":13964:13985   */\n      gt\n        /* \"#utility.yul\":13959:13960   */\n      dup3\n        /* \"#utility.yul\":13952:13961   */\n      iszero\n        /* \"#utility.yul\":13945:13962   */\n      iszero\n        /* \"#utility.yul\":13941:13986   */\n      and\n        /* \"#utility.yul\":13938:14009   */\n      iszero\n      tag_776\n      jumpi\n        /* \"#utility.yul\":13989:14007   */\n      tag_776\n      tag_670\n      jump\t// in\n    tag_776:\n      pop\n        /* \"#utility.yul\":14029:14038   */\n      mul\n      swap1\n        /* \"#utility.yul\":13876:14044   */\n      jump\t// out\n        /* \"#utility.yul\":15292:16819   */\n    tag_467:\n        /* \"#utility.yul\":15516:15519   */\n      0x00\n        /* \"#utility.yul\":15554:15560   */\n      dup5\n        /* \"#utility.yul\":15548:15561   */\n      mload\n        /* \"#utility.yul\":15580:15584   */\n      0x20\n        /* \"#utility.yul\":15593:15644   */\n      tag_782\n        /* \"#utility.yul\":15637:15643   */\n      dup3\n        /* \"#utility.yul\":15632:15635   */\n      dup6\n        /* \"#utility.yul\":15627:15629   */\n      dup4\n        /* \"#utility.yul\":15619:15625   */\n      dup11\n        /* \"#utility.yul\":15615:15630   */\n      add\n        /* \"#utility.yul\":15593:15644   */\n      tag_666\n      jump\t// in\n    tag_782:\n        /* \"#utility.yul\":15707:15720   */\n      dup6\n      mload\n        /* \"#utility.yul\":15666:15682   */\n      swap2\n      dup5\n      add\n      swap2\n        /* \"#utility.yul\":15729:15784   */\n      tag_783\n        /* \"#utility.yul\":15707:15720   */\n      dup2\n        /* \"#utility.yul\":15666:15682   */\n      dup5\n        /* \"#utility.yul\":15751:15766   */\n      dup5\n      dup11\n      add\n        /* \"#utility.yul\":15729:15784   */\n      tag_666\n      jump\t// in\n    tag_783:\n        /* \"#utility.yul\":15873:15886   */\n      dup6\n      sload\n        /* \"#utility.yul\":15806:15826   */\n      swap3\n      add\n      swap2\n        /* \"#utility.yul\":15846:15847   */\n      0x00\n      swap1\n        /* \"#utility.yul\":15933:15934   */\n      0x01\n        /* \"#utility.yul\":15955:15973   */\n      dup2\n      dup2\n      shr\n      swap1\n        /* \"#utility.yul\":16008:16026   */\n      dup1\n      dup4\n      and\n      dup1\n        /* \"#utility.yul\":16035:16128   */\n      tag_784\n      jumpi\n        /* \"#utility.yul\":16113:16117   */\n      0x7f\n        /* \"#utility.yul\":16103:16111   */\n      dup4\n        /* \"#utility.yul\":16099:16118   */\n      and\n        /* \"#utility.yul\":16087:16118   */\n      swap3\n      pop\n        /* \"#utility.yul\":16035:16128   */\n    tag_784:\n        /* \"#utility.yul\":16176:16178   */\n      dup6\n        /* \"#utility.yul\":16166:16174   */\n      dup4\n        /* \"#utility.yul\":16163:16179   */\n      lt\n        /* \"#utility.yul\":16143:16161   */\n      dup2\n        /* \"#utility.yul\":16140:16180   */\n      sub\n        /* \"#utility.yul\":16137:16304   */\n      tag_785\n      jumpi\n      shl(0xe0, 0x4e487b71)\n        /* \"#utility.yul\":16203:16236   */\n      dup6\n      mstore\n        /* \"#utility.yul\":16259:16263   */\n      0x22\n        /* \"#utility.yul\":16256:16257   */\n      0x04\n        /* \"#utility.yul\":16249:16264   */\n      mstore\n        /* \"#utility.yul\":16289:16293   */\n      0x24\n        /* \"#utility.yul\":16210:16213   */\n      dup6\n        /* \"#utility.yul\":16277:16294   */\n      revert\n        /* \"#utility.yul\":16137:16304   */\n    tag_785:\n        /* \"#utility.yul\":16320:16338   */\n      dup1\n        /* \"#utility.yul\":16347:16457   */\n      dup1\n      iszero\n      tag_787\n      jumpi\n        /* \"#utility.yul\":16471:16472   */\n      0x01\n        /* \"#utility.yul\":16466:16794   */\n      dup2\n      eq\n      tag_788\n      jumpi\n        /* \"#utility.yul\":16313:16794   */\n      jump(tag_786)\n        /* \"#utility.yul\":16347:16457   */\n    tag_787:\n      not(0xff)\n        /* \"#utility.yul\":16382:16406   */\n      dup6\n      and\n        /* \"#utility.yul\":16368:16407   */\n      dup9\n      mstore\n        /* \"#utility.yul\":16427:16447   */\n      dup4\n      dup9\n      add\n      swap6\n      pop\n        /* \"#utility.yul\":16347:16457   */\n      jump(tag_786)\n        /* \"#utility.yul\":16466:16794   */\n    tag_788:\n        /* \"#utility.yul\":15239:15240   */\n      0x00\n        /* \"#utility.yul\":15232:15246   */\n      dup12\n      dup2\n      mstore\n        /* \"#utility.yul\":15276:15280   */\n      0x20\n        /* \"#utility.yul\":15263:15281   */\n      swap1\n      keccak256\n        /* \"#utility.yul\":16561:16562   */\n      0x00\n        /* \"#utility.yul\":16575:16744   */\n    tag_790:\n        /* \"#utility.yul\":16589:16597   */\n      dup6\n        /* \"#utility.yul\":16586:16587   */\n      dup2\n        /* \"#utility.yul\":16583:16598   */\n      lt\n        /* \"#utility.yul\":16575:16744   */\n      iszero\n      tag_792\n      jumpi\n        /* \"#utility.yul\":16671:16685   */\n      dup2\n      sload\n        /* \"#utility.yul\":16656:16669   */\n      dup11\n      dup3\n      add\n        /* \"#utility.yul\":16649:16686   */\n      mstore\n        /* \"#utility.yul\":16714:16730   */\n      swap1\n      dup5\n      add\n      swap1\n        /* \"#utility.yul\":16606:16616   */\n      dup9\n      add\n        /* \"#utility.yul\":16575:16744   */\n      jump(tag_790)\n    tag_792:\n        /* \"#utility.yul\":16579:16582   */\n      pop\n      pop\n        /* \"#utility.yul\":16775:16783   */\n      dup4\n        /* \"#utility.yul\":16768:16773   */\n      dup9\n        /* \"#utility.yul\":16764:16784   */\n      add\n        /* \"#utility.yul\":16757:16784   */\n      swap6\n      pop\n        /* \"#utility.yul\":16313:16794   */\n    tag_786:\n      pop\n        /* \"#utility.yul\":16810:16813   */\n      swap4\n      swap12\n        /* \"#utility.yul\":15292:16819   */\n      swap11\n      pop\n      pop\n      pop\n      pop\n      pop\n      pop\n      pop\n      pop\n      pop\n      pop\n      pop\n      jump\t// out\n        /* \"#utility.yul\":18459:18584   */\n    tag_533:\n        /* \"#utility.yul\":18499:18503   */\n      0x00\n        /* \"#utility.yul\":18527:18528   */\n      dup3\n        /* \"#utility.yul\":18524:18525   */\n      dup3\n        /* \"#utility.yul\":18521:18529   */\n      lt\n        /* \"#utility.yul\":18518:18552   */\n      iszero\n      tag_799\n      jumpi\n        /* \"#utility.yul\":18532:18550   */\n      tag_799\n      tag_670\n      jump\t// in\n    tag_799:\n      pop\n        /* \"#utility.yul\":18569:18578   */\n      sub\n      swap1\n        /* \"#utility.yul\":18459:18584   */\n      jump\t// out\n        /* \"#utility.yul\":18589:19003   */\n    tag_545:\n        /* \"#utility.yul\":18791:18793   */\n      0x20\n        /* \"#utility.yul\":18773:18794   */\n      dup1\n      dup3\n      mstore\n        /* \"#utility.yul\":18830:18832   */\n      0x32\n        /* \"#utility.yul\":18810:18828   */\n      swap1\n      dup3\n      add\n        /* \"#utility.yul\":18803:18833   */\n      mstore\n        /* \"#utility.yul\":18869:18903   */\n      0x4552433732313a207472616e7366657220746f206e6f6e204552433732315265\n        /* \"#utility.yul\":18864:18866   */\n      0x40\n        /* \"#utility.yul\":18849:18867   */\n      dup3\n      add\n        /* \"#utility.yul\":18842:18904   */\n      mstore\n      shl(0x71, 0x31b2b4bb32b91034b6b83632b6b2b73a32b9)\n        /* \"#utility.yul\":18935:18937   */\n      0x60\n        /* \"#utility.yul\":18920:18938   */\n      dup3\n      add\n        /* \"#utility.yul\":18913:18961   */\n      mstore\n        /* \"#utility.yul\":18993:18996   */\n      0x80\n        /* \"#utility.yul\":18978:18997   */\n      add\n      swap1\n        /* \"#utility.yul\":18589:19003   */\n      jump\t// out\n        /* \"#utility.yul\":19008:19135   */\n    tag_672:\n        /* \"#utility.yul\":19069:19079   */\n      0x4e487b71\n        /* \"#utility.yul\":19064:19067   */\n      0xe0\n        /* \"#utility.yul\":19060:19080   */\n      shl\n        /* \"#utility.yul\":19057:19058   */\n      0x00\n        /* \"#utility.yul\":19050:19081   */\n      mstore\n        /* \"#utility.yul\":19100:19104   */\n      0x12\n        /* \"#utility.yul\":19097:19098   */\n      0x04\n        /* \"#utility.yul\":19090:19105   */\n      mstore\n        /* \"#utility.yul\":19124:19128   */\n      0x24\n        /* \"#utility.yul\":19121:19122   */\n      0x00\n        /* \"#utility.yul\":19114:19129   */\n      revert\n        /* \"#utility.yul\":19140:19260   */\n    tag_558:\n        /* \"#utility.yul\":19180:19181   */\n      0x00\n        /* \"#utility.yul\":19206:19207   */\n      dup3\n        /* \"#utility.yul\":19196:19231   */\n      tag_804\n      jumpi\n        /* \"#utility.yul\":19211:19229   */\n      tag_804\n      tag_672\n      jump\t// in\n    tag_804:\n      pop\n        /* \"#utility.yul\":19245:19254   */\n      div\n      swap1\n        /* \"#utility.yul\":19140:19260   */\n      jump\t// out\n        /* \"#utility.yul\":19265:19377   */\n    tag_566:\n        /* \"#utility.yul\":19297:19298   */\n      0x00\n        /* \"#utility.yul\":19323:19324   */\n      dup3\n        /* \"#utility.yul\":19313:19348   */\n      tag_807\n      jumpi\n        /* \"#utility.yul\":19328:19346   */\n      tag_807\n      tag_672\n      jump\t// in\n    tag_807:\n      pop\n        /* \"#utility.yul\":19362:19371   */\n      mod\n      swap1\n        /* \"#utility.yul\":19265:19377   */\n      jump\t// out\n        /* \"#utility.yul\":19382:19871   */\n    tag_601:\n      sub(shl(0xa0, 0x01), 0x01)\n        /* \"#utility.yul\":19651:19666   */\n      dup6\n      dup2\n      and\n        /* \"#utility.yul\":19633:19667   */\n      dup3\n      mstore\n        /* \"#utility.yul\":19703:19718   */\n      dup5\n      and\n        /* \"#utility.yul\":19698:19700   */\n      0x20\n        /* \"#utility.yul\":19683:19701   */\n      dup3\n      add\n        /* \"#utility.yul\":19676:19719   */\n      mstore\n        /* \"#utility.yul\":19750:19752   */\n      0x40\n        /* \"#utility.yul\":19735:19753   */\n      dup2\n      add\n        /* \"#utility.yul\":19728:19762   */\n      dup4\n      swap1\n      mstore\n        /* \"#utility.yul\":19798:19801   */\n      0x80\n        /* \"#utility.yul\":19793:19795   */\n      0x60\n        /* \"#utility.yul\":19778:19796   */\n      dup3\n      add\n        /* \"#utility.yul\":19771:19802   */\n      dup2\n      swap1\n      mstore\n        /* \"#utility.yul\":19576:19580   */\n      0x00\n      swap1\n        /* \"#utility.yul\":19819:19865   */\n      tag_809\n      swap1\n        /* \"#utility.yul\":19845:19864   */\n      dup4\n      add\n        /* \"#utility.yul\":19837:19843   */\n      dup5\n        /* \"#utility.yul\":19819:19865   */\n      tag_667\n      jump\t// in\n    tag_809:\n        /* \"#utility.yul\":19811:19865   */\n      swap7\n        /* \"#utility.yul\":19382:19871   */\n      swap6\n      pop\n      pop\n      pop\n      pop\n      pop\n      pop\n      jump\t// out\n        /* \"#utility.yul\":19876:20125   */\n    tag_604:\n        /* \"#utility.yul\":19945:19951   */\n      0x00\n        /* \"#utility.yul\":19998:20000   */\n      0x20\n        /* \"#utility.yul\":19986:19995   */\n      dup3\n        /* \"#utility.yul\":19977:19984   */\n      dup5\n        /* \"#utility.yul\":19973:19996   */\n      sub\n        /* \"#utility.yul\":19969:20001   */\n      slt\n        /* \"#utility.yul\":19966:20018   */\n      iszero\n      tag_811\n      jumpi\n        /* \"#utility.yul\":20014:20015   */\n      0x00\n        /* \"#utility.yul\":20011:20012   */\n      dup1\n        /* \"#utility.yul\":20004:20016   */\n      revert\n        /* \"#utility.yul\":19966:20018   */\n    tag_811:\n        /* \"#utility.yul\":20046:20055   */\n      dup2\n        /* \"#utility.yul\":20040:20056   */\n      mload\n        /* \"#utility.yul\":20065:20095   */\n      tag_463\n        /* \"#utility.yul\":20089:20094   */\n      dup2\n        /* \"#utility.yul\":20065:20095   */\n      tag_664\n      jump\t// in\n        /* \"#utility.yul\":20130:20257   */\n    tag_633:\n        /* \"#utility.yul\":20191:20201   */\n      0x4e487b71\n        /* \"#utility.yul\":20186:20189   */\n      0xe0\n        /* \"#utility.yul\":20182:20202   */\n      shl\n        /* \"#utility.yul\":20179:20180   */\n      0x00\n        /* \"#utility.yul\":20172:20203   */\n      mstore\n        /* \"#utility.yul\":20222:20226   */\n      0x31\n        /* \"#utility.yul\":20219:20220   */\n      0x04\n        /* \"#utility.yul\":20212:20227   */\n      mstore\n        /* \"#utility.yul\":20246:20250   */\n      0x24\n        /* \"#utility.yul\":20243:20244   */\n      0x00\n        /* \"#utility.yul\":20236:20251   */\n      revert\n\n    auxdata: 0xa2646970667358221220345dcf30fe3370ab3dcbf2eb26311c171e5f1c161f302e96dccde377b154489c64736f6c634300080e0033\n}\n",
				"bytecode": {
					"linkReferences": {},
					"object": "60c06040526005608081905264173539b7b760d91b60a09081526200002891600c9190620001b1565b5066b1a2bc2ec50000600d55612710600e556014600f5560036010556011805461ffff19166101001790553480156200006057600080fd5b5060405162002c3138038062002c31833981016040819052620000839162000324565b8251839083906200009c906000906020850190620001b1565b508051620000b2906001906020840190620001b1565b505050620000cf620000c9620000e360201b60201c565b620000e7565b620000da8162000139565b505050620003f1565b3390565b600a80546001600160a01b038381166001600160a01b0319831681179093556040519116919082907f8be0079c531659141344cd1fd0a4f28419497f9722a3daafe3b4186f6b6457e090600090a35050565b600a546001600160a01b03163314620001985760405162461bcd60e51b815260206004820181905260248201527f4f776e61626c653a2063616c6c6572206973206e6f7420746865206f776e6572604482015260640160405180910390fd5b8051620001ad90600b906020840190620001b1565b5050565b828054620001bf90620003b5565b90600052602060002090601f016020900481019282620001e357600085556200022e565b82601f10620001fe57805160ff19168380011785556200022e565b828001600101855582156200022e579182015b828111156200022e57825182559160200191906001019062000211565b506200023c92915062000240565b5090565b5b808211156200023c576000815560010162000241565b634e487b7160e01b600052604160045260246000fd5b600082601f8301126200027f57600080fd5b81516001600160401b03808211156200029c576200029c62000257565b604051601f8301601f19908116603f01168101908282118183101715620002c757620002c762000257565b81604052838152602092508683858801011115620002e457600080fd5b600091505b83821015620003085785820183015181830184015290820190620002e9565b838211156200031a5760008385830101525b9695505050505050565b6000806000606084860312156200033a57600080fd5b83516001600160401b03808211156200035257600080fd5b62000360878388016200026d565b945060208601519150808211156200037757600080fd5b62000385878388016200026d565b935060408601519150808211156200039c57600080fd5b50620003ab868287016200026d565b9150509250925092565b600181811c90821680620003ca57607f821691505b602082108103620003eb57634e487b7160e01b600052602260045260246000fd5b50919050565b61283080620004016000396000f3fe6080604052600436106102465760003560e01c80636352211e11610139578063b88d4fde116100b6578063d0eb26b01161007a578063d0eb26b014610681578063d5abeb01146106a1578063da3ef23f146106b7578063e985e9c5146106d7578063edec5f2714610720578063f2fde38b1461074057600080fd5b8063b88d4fde146105f6578063ba4e5c4914610616578063ba7d2c7614610636578063c66828621461064c578063c87b56dd1461066157600080fd5b80638da5cb5b116100fd5780638da5cb5b1461057157806395d89b411461058f5780639c70b512146105a4578063a0712d68146105c3578063a22cb465146105d657600080fd5b80636352211e146104e75780636c0360eb1461050757806370a082311461051c578063715018a61461053c5780637f00c7a61461055157600080fd5b80632f745c59116101c7578063438b63001161018b578063438b63001461044057806344a0d68a1461046d5780634f6ccce71461048d57806355f804b3146104ad5780635c975abb146104cd57600080fd5b80632f745c59146103b85780633af32abf146103d85780633c952764146103f85780633ccfd60b1461041857806342842e0e1461042057600080fd5b806313faede61161020e57806313faede61461031c57806318160ddd1461034057806318cae26914610355578063239c70ae1461038257806323b872dd1461039857600080fd5b806301ffc9a71461024b57806302329a291461028057806306fdde03146102a2578063081812fc146102c4578063095ea7b3146102fc575b600080fd5b34801561025757600080fd5b5061026b610266366004612114565b610760565b60405190151581526020015b60405180910390f35b34801561028c57600080fd5b506102a061029b366004612146565b61078b565b005b3480156102ae57600080fd5b506102b76107d1565b60405161027791906121b9565b3480156102d057600080fd5b506102e46102df3660046121cc565b610863565b6040516001600160a01b039091168152602001610277565b34801561030857600080fd5b506102a06103173660046121fc565b6108f8565b34801561032857600080fd5b50610332600d5481565b604051908152602001610277565b34801561034c57600080fd5b50600854610332565b34801561036157600080fd5b50610332610370366004612226565b60136020526000908152604090205481565b34801561038e57600080fd5b50610332600f5481565b3480156103a457600080fd5b506102a06103b3366004612241565b610a0d565b3480156103c457600080fd5b506103326103d33660046121fc565b610a3e565b3480156103e457600080fd5b5061026b6103f3366004612226565b610ad4565b34801561040457600080fd5b506102a0610413366004612146565b610b3d565b6102a0610b81565b34801561042c57600080fd5b506102a061043b366004612241565b610c1f565b34801561044c57600080fd5b5061046061045b366004612226565b610c3a565b604051610277919061227d565b34801561047957600080fd5b506102a06104883660046121cc565b610cdc565b34801561049957600080fd5b506103326104a83660046121cc565b610d0b565b3480156104b957600080fd5b506102a06104c836600461234d565b610d9e565b3480156104d957600080fd5b5060115461026b9060ff1681565b3480156104f357600080fd5b506102e46105023660046121cc565b610ddf565b34801561051357600080fd5b506102b7610e56565b34801561052857600080fd5b50610332610537366004612226565b610ee4565b34801561054857600080fd5b506102a0610f6b565b34801561055d57600080fd5b506102a061056c3660046121cc565b610fa1565b34801561057d57600080fd5b50600a546001600160a01b03166102e4565b34801561059b57600080fd5b506102b7610fd0565b3480156105b057600080fd5b5060115461026b90610100900460ff1681565b6102a06105d13660046121cc565b610fdf565b3480156105e257600080fd5b506102a06105f1366004612396565b6112c4565b34801561060257600080fd5b506102a06106113660046123c9565b611388565b34801561062257600080fd5b506102e46106313660046121cc565b6113c0565b34801561064257600080fd5b5061033260105481565b34801561065857600080fd5b506102b76113ea565b34801561066d57600080fd5b506102b761067c3660046121cc565b6113f7565b34801561068d57600080fd5b506102a061069c3660046121cc565b6114d5565b3480156106ad57600080fd5b50610332600e5481565b3480156106c357600080fd5b506102a06106d236600461234d565b611504565b3480156106e357600080fd5b5061026b6106f2366004612445565b6001600160a01b03918216600090815260056020908152604080832093909416825291909152205460ff1690565b34801561072c57600080fd5b506102a061073b36600461246f565b611541565b34801561074c57600080fd5b506102a061075b366004612226565b611583565b60006001600160e01b0319821663780e9d6360e01b148061078557506107858261161b565b92915050565b600a546001600160a01b031633146107be5760405162461bcd60e51b81526004016107b5906124e4565b60405180910390fd5b6011805460ff1916911515919091179055565b6060600080546107e090612519565b80601f016020809104026020016040519081016040528092919081815260200182805461080c90612519565b80156108595780601f1061082e57610100808354040283529160200191610859565b820191906000526020600020905b81548152906001019060200180831161083c57829003601f168201915b5050505050905090565b6000818152600260205260408120546001600160a01b03166108dc5760405162461bcd60e51b815260206004820152602c60248201527f4552433732313a20617070726f76656420717565727920666f72206e6f6e657860448201526b34b9ba32b73a103a37b5b2b760a11b60648201526084016107b5565b506000908152600460205260409020546001600160a01b031690565b600061090382610ddf565b9050806001600160a01b0316836001600160a01b0316036109705760405162461bcd60e51b815260206004820152602160248201527f4552433732313a20617070726f76616c20746f2063757272656e74206f776e656044820152603960f91b60648201526084016107b5565b336001600160a01b038216148061098c575061098c81336106f2565b6109fe5760405162461bcd60e51b815260206004820152603860248201527f4552433732313a20617070726f76652063616c6c6572206973206e6f74206f7760448201527f6e6572206e6f7220617070726f76656420666f7220616c6c000000000000000060648201526084016107b5565b610a08838361166b565b505050565b610a1733826116d9565b610a335760405162461bcd60e51b81526004016107b590612553565b610a088383836117d0565b6000610a4983610ee4565b8210610aab5760405162461bcd60e51b815260206004820152602b60248201527f455243373231456e756d657261626c653a206f776e657220696e646578206f7560448201526a74206f6620626f756e647360a81b60648201526084016107b5565b506001600160a01b03919091166000908152600660209081526040808320938352929052205490565b6000805b601254811015610b3457826001600160a01b031660128281548110610aff57610aff6125a4565b6000918252602090912001546001600160a01b031603610b225750600192915050565b80610b2c816125d0565b915050610ad8565b50600092915050565b600a546001600160a01b03163314610b675760405162461bcd60e51b81526004016107b5906124e4565b601180549115156101000261ff0019909216919091179055565b600a546001600160a01b03163314610bab5760405162461bcd60e51b81526004016107b5906124e4565b6000610bbf600a546001600160a01b031690565b6001600160a01b03164760405160006040518083038185875af1925050503d8060008114610c09576040519150601f19603f3d011682016040523d82523d6000602084013e610c0e565b606091505b5050905080610c1c57600080fd5b50565b610a0883838360405180602001604052806000815250611388565b60606000610c4783610ee4565b905060008167ffffffffffffffff811115610c6457610c646122c1565b604051908082528060200260200182016040528015610c8d578160200160208202803683370190505b50905060005b82811015610cd457610ca58582610a3e565b828281518110610cb757610cb76125a4565b602090810291909101015280610ccc816125d0565b915050610c93565b509392505050565b600a546001600160a01b03163314610d065760405162461bcd60e51b81526004016107b5906124e4565b600d55565b6000610d1660085490565b8210610d795760405162461bcd60e51b815260206004820152602c60248201527f455243373231456e756d657261626c653a20676c6f62616c20696e646578206f60448201526b7574206f6620626f756e647360a01b60648201526084016107b5565b60088281548110610d8c57610d8c6125a4565b90600052602060002001549050919050565b600a546001600160a01b03163314610dc85760405162461bcd60e51b81526004016107b5906124e4565b8051610ddb90600b906020840190611ff4565b5050565b6000818152600260205260408120546001600160a01b0316806107855760405162461bcd60e51b815260206004820152602960248201527f4552433732313a206f776e657220717565727920666f72206e6f6e657869737460448201526832b73a103a37b5b2b760b91b60648201526084016107b5565b600b8054610e6390612519565b80601f0160208091040260200160405190810160405280929190818152602001828054610e8f90612519565b8015610edc5780601f10610eb157610100808354040283529160200191610edc565b820191906000526020600020905b815481529060010190602001808311610ebf57829003601f168201915b505050505081565b60006001600160a01b038216610f4f5760405162461bcd60e51b815260206004820152602a60248201527f4552433732313a2062616c616e636520717565727920666f7220746865207a65604482015269726f206164647265737360b01b60648201526084016107b5565b506001600160a01b031660009081526003602052604090205490565b600a546001600160a01b03163314610f955760405162461bcd60e51b81526004016107b5906124e4565b610f9f600061197b565b565b600a546001600160a01b03163314610fcb5760405162461bcd60e51b81526004016107b5906124e4565b600f55565b6060600180546107e090612519565b60115460ff161561102b5760405162461bcd60e51b81526020600482015260166024820152751d1a194818dbdb9d1c9858dd081a5cc81c185d5cd95960521b60448201526064016107b5565b600061103660085490565b9050600082116110885760405162461bcd60e51b815260206004820152601b60248201527f6e65656420746f206d696e74206174206c656173742031204e4654000000000060448201526064016107b5565b600f548211156110e65760405162461bcd60e51b8152602060048201526024808201527f6d6178206d696e7420616d6f756e74207065722073657373696f6e20657863656044820152631959195960e21b60648201526084016107b5565b600e546110f383836125e9565b111561113a5760405162461bcd60e51b81526020600482015260166024820152751b585e08139195081b1a5b5a5d08195e18d95959195960521b60448201526064016107b5565b600a546001600160a01b0316331461127457601154610100900460ff1615156001036112225761116933610ad4565b6111b55760405162461bcd60e51b815260206004820152601760248201527f75736572206973206e6f742077686974656c697374656400000000000000000060448201526064016107b5565b336000908152601360205260409020546010546111d284836125e9565b11156112205760405162461bcd60e51b815260206004820152601c60248201527f6d6178204e46542070657220616464726573732065786365656465640000000060448201526064016107b5565b505b81600d546112309190612601565b3410156112745760405162461bcd60e51b8152602060048201526012602482015271696e73756666696369656e742066756e647360701b60448201526064016107b5565b60015b828111610a0857336000908152601360205260408120805491611299836125d0565b909155506112b29050336112ad83856125e9565b6119cd565b806112bc816125d0565b915050611277565b336001600160a01b0383160361131c5760405162461bcd60e51b815260206004820152601960248201527f4552433732313a20617070726f766520746f2063616c6c65720000000000000060448201526064016107b5565b3360008181526005602090815260408083206001600160a01b03871680855290835292819020805460ff191686151590811790915590519081529192917f17307eab39ab6107e8899845ad3d59bd9653f200f220920489ca2b5937696c31910160405180910390a35050565b61139233836116d9565b6113ae5760405162461bcd60e51b81526004016107b590612553565b6113ba848484846119e7565b50505050565b601281815481106113d057600080fd5b6000918252602090912001546001600160a01b0316905081565b600c8054610e6390612519565b6000818152600260205260409020546060906001600160a01b03166114765760405162461bcd60e51b815260206004820152602f60248201527f4552433732314d657461646174613a2055524920717565727920666f72206e6f60448201526e3732bc34b9ba32b73a103a37b5b2b760891b60648201526084016107b5565b6000611480611a1a565b905060008151116114a057604051806020016040528060008152506114ce565b806114aa84611a29565b600c6040516020016114be93929190612620565b6040516020818303038152906040525b9392505050565b600a546001600160a01b031633146114ff5760405162461bcd60e51b81526004016107b5906124e4565b601055565b600a546001600160a01b0316331461152e5760405162461bcd60e51b81526004016107b5906124e4565b8051610ddb90600c906020840190611ff4565b600a546001600160a01b0316331461156b5760405162461bcd60e51b81526004016107b5906124e4565b61157760126000612078565b610a0860128383612096565b600a546001600160a01b031633146115ad5760405162461bcd60e51b81526004016107b5906124e4565b6001600160a01b0381166116125760405162461bcd60e51b815260206004820152602660248201527f4f776e61626c653a206e6577206f776e657220697320746865207a65726f206160448201526564647265737360d01b60648201526084016107b5565b610c1c8161197b565b60006001600160e01b031982166380ac58cd60e01b148061164c57506001600160e01b03198216635b5e139f60e01b145b8061078557506301ffc9a760e01b6001600160e01b0319831614610785565b600081815260046020526040902080546001600160a01b0319166001600160a01b03841690811790915581906116a082610ddf565b6001600160a01b03167f8c5be1e5ebec7d5bd14f71427d1e84f3dd0314c0f7b2291e5b200ac8c7c3b92560405160405180910390a45050565b6000818152600260205260408120546001600160a01b03166117525760405162461bcd60e51b815260206004820152602c60248201527f4552433732313a206f70657261746f7220717565727920666f72206e6f6e657860448201526b34b9ba32b73a103a37b5b2b760a11b60648201526084016107b5565b600061175d83610ddf565b9050806001600160a01b0316846001600160a01b031614806117985750836001600160a01b031661178d84610863565b6001600160a01b0316145b806117c857506001600160a01b0380821660009081526005602090815260408083209388168352929052205460ff165b949350505050565b826001600160a01b03166117e382610ddf565b6001600160a01b03161461184b5760405162461bcd60e51b815260206004820152602960248201527f4552433732313a207472616e73666572206f6620746f6b656e2074686174206960448201526839903737ba1037bbb760b91b60648201526084016107b5565b6001600160a01b0382166118ad5760405162461bcd60e51b8152602060048201526024808201527f4552433732313a207472616e7366657220746f20746865207a65726f206164646044820152637265737360e01b60648201526084016107b5565b6118b8838383611b2a565b6118c360008261166b565b6001600160a01b03831660009081526003602052604081208054600192906118ec9084906126e3565b90915550506001600160a01b038216600090815260036020526040812080546001929061191a9084906125e9565b909155505060008181526002602052604080822080546001600160a01b0319166001600160a01b0386811691821790925591518493918716917fddf252ad1be2c89b69c2b068fc378daa952ba7f163c4a11628f55a4df523b3ef91a4505050565b600a80546001600160a01b038381166001600160a01b0319831681179093556040519116919082907f8be0079c531659141344cd1fd0a4f28419497f9722a3daafe3b4186f6b6457e090600090a35050565b610ddb828260405180602001604052806000815250611be2565b6119f28484846117d0565b6119fe84848484611c15565b6113ba5760405162461bcd60e51b81526004016107b5906126fa565b6060600b80546107e090612519565b606081600003611a505750506040805180820190915260018152600360fc1b602082015290565b8160005b8115611a7a5780611a64816125d0565b9150611a739050600a83612762565b9150611a54565b60008167ffffffffffffffff811115611a9557611a956122c1565b6040519080825280601f01601f191660200182016040528015611abf576020820181803683370190505b5090505b84156117c857611ad46001836126e3565b9150611ae1600a86612776565b611aec9060306125e9565b60f81b818381518110611b0157611b016125a4565b60200101906001600160f81b031916908160001a905350611b23600a86612762565b9450611ac3565b6001600160a01b038316611b8557611b8081600880546000838152600960205260408120829055600182018355919091527ff3f7a9fe364faab93b216da50a3214154f22a0a2b415b23a84c8169e8b636ee30155565b611ba8565b816001600160a01b0316836001600160a01b031614611ba857611ba88382611d16565b6001600160a01b038216611bbf57610a0881611db3565b826001600160a01b0316826001600160a01b031614610a0857610a088282611e62565b611bec8383611ea6565b611bf96000848484611c15565b610a085760405162461bcd60e51b81526004016107b5906126fa565b60006001600160a01b0384163b15611d0b57604051630a85bd0160e11b81526001600160a01b0385169063150b7a0290611c5990339089908890889060040161278a565b6020604051808303816000875af1925050508015611c94575060408051601f3d908101601f19168201909252611c91918101906127c7565b60015b611cf1573d808015611cc2576040519150601f19603f3d011682016040523d82523d6000602084013e611cc7565b606091505b508051600003611ce95760405162461bcd60e51b81526004016107b5906126fa565b805181602001fd5b6001600160e01b031916630a85bd0160e11b1490506117c8565b506001949350505050565b60006001611d2384610ee4565b611d2d91906126e3565b600083815260076020526040902054909150808214611d80576001600160a01b03841660009081526006602090815260408083208584528252808320548484528184208190558352600790915290208190555b5060009182526007602090815260408084208490556001600160a01b039094168352600681528383209183525290812055565b600854600090611dc5906001906126e3565b60008381526009602052604081205460088054939450909284908110611ded57611ded6125a4565b906000526020600020015490508060088381548110611e0e57611e0e6125a4565b6000918252602080832090910192909255828152600990915260408082208490558582528120556008805480611e4657611e466127e4565b6001900381819060005260206000200160009055905550505050565b6000611e6d83610ee4565b6001600160a01b039093166000908152600660209081526040808320868452825280832085905593825260079052919091209190915550565b6001600160a01b038216611efc5760405162461bcd60e51b815260206004820181905260248201527f4552433732313a206d696e7420746f20746865207a65726f206164647265737360448201526064016107b5565b6000818152600260205260409020546001600160a01b031615611f615760405162461bcd60e51b815260206004820152601c60248201527f4552433732313a20746f6b656e20616c7265616479206d696e7465640000000060448201526064016107b5565b611f6d60008383611b2a565b6001600160a01b0382166000908152600360205260408120805460019290611f969084906125e9565b909155505060008181526002602052604080822080546001600160a01b0319166001600160a01b03861690811790915590518392907fddf252ad1be2c89b69c2b068fc378daa952ba7f163c4a11628f55a4df523b3ef908290a45050565b82805461200090612519565b90600052602060002090601f0160209004810192826120225760008555612068565b82601f1061203b57805160ff1916838001178555612068565b82800160010185558215612068579182015b8281111561206857825182559160200191906001019061204d565b506120749291506120e9565b5090565b5080546000825590600052602060002090810190610c1c91906120e9565b828054828255906000526020600020908101928215612068579160200282015b828111156120685781546001600160a01b0319166001600160a01b038435161782556020909201916001909101906120b6565b5b8082111561207457600081556001016120ea565b6001600160e01b031981168114610c1c57600080fd5b60006020828403121561212657600080fd5b81356114ce816120fe565b8035801515811461214157600080fd5b919050565b60006020828403121561215857600080fd5b6114ce82612131565b60005b8381101561217c578181015183820152602001612164565b838111156113ba5750506000910152565b600081518084526121a5816020860160208601612161565b601f01601f19169290920160200192915050565b6020815260006114ce602083018461218d565b6000602082840312156121de57600080fd5b5035919050565b80356001600160a01b038116811461214157600080fd5b6000806040838503121561220f57600080fd5b612218836121e5565b946020939093013593505050565b60006020828403121561223857600080fd5b6114ce826121e5565b60008060006060848603121561225657600080fd5b61225f846121e5565b925061226d602085016121e5565b9150604084013590509250925092565b6020808252825182820181905260009190848201906040850190845b818110156122b557835183529284019291840191600101612299565b50909695505050505050565b634e487b7160e01b600052604160045260246000fd5b600067ffffffffffffffff808411156122f2576122f26122c1565b604051601f8501601f19908116603f0116810190828211818310171561231a5761231a6122c1565b8160405280935085815286868601111561233357600080fd5b858560208301376000602087830101525050509392505050565b60006020828403121561235f57600080fd5b813567ffffffffffffffff81111561237657600080fd5b8201601f8101841361238757600080fd5b6117c8848235602084016122d7565b600080604083850312156123a957600080fd5b6123b2836121e5565b91506123c060208401612131565b90509250929050565b600080600080608085870312156123df57600080fd5b6123e8856121e5565b93506123f6602086016121e5565b925060408501359150606085013567ffffffffffffffff81111561241957600080fd5b8501601f8101871361242a57600080fd5b612439878235602084016122d7565b91505092959194509250565b6000806040838503121561245857600080fd5b612461836121e5565b91506123c0602084016121e5565b6000806020838503121561248257600080fd5b823567ffffffffffffffff8082111561249a57600080fd5b818501915085601f8301126124ae57600080fd5b8135818111156124bd57600080fd5b8660208260051b85010111156124d257600080fd5b60209290920196919550909350505050565b6020808252818101527f4f776e61626c653a2063616c6c6572206973206e6f7420746865206f776e6572604082015260600190565b600181811c9082168061252d57607f821691505b60208210810361254d57634e487b7160e01b600052602260045260246000fd5b50919050565b60208082526031908201527f4552433732313a207472616e736665722063616c6c6572206973206e6f74206f6040820152701ddb995c881b9bdc88185c1c1c9bdd9959607a1b606082015260800190565b634e487b7160e01b600052603260045260246000fd5b634e487b7160e01b600052601160045260246000fd5b6000600182016125e2576125e26125ba565b5060010190565b600082198211156125fc576125fc6125ba565b500190565b600081600019048311821515161561261b5761261b6125ba565b500290565b6000845160206126338285838a01612161565b8551918401916126468184848a01612161565b8554920191600090600181811c908083168061266357607f831692505b858310810361268057634e487b7160e01b85526022600452602485fd5b80801561269457600181146126a5576126d2565b60ff198516885283880195506126d2565b60008b81526020902060005b858110156126ca5781548a8201529084019088016126b1565b505083880195505b50939b9a5050505050505050505050565b6000828210156126f5576126f56125ba565b500390565b60208082526032908201527f4552433732313a207472616e7366657220746f206e6f6e20455243373231526560408201527131b2b4bb32b91034b6b83632b6b2b73a32b960711b606082015260800190565b634e487b7160e01b600052601260045260246000fd5b6000826127715761277161274c565b500490565b6000826127855761278561274c565b500690565b6001600160a01b03858116825284166020820152604081018390526080606082018190526000906127bd9083018461218d565b9695505050505050565b6000602082840312156127d957600080fd5b81516114ce816120fe565b634e487b7160e01b600052603160045260246000fdfea2646970667358221220345dcf30fe3370ab3dcbf2eb26311c171e5f1c161f302e96dccde377b154489c64736f6c634300080e0033",
					"opcodes": "PUSH1 0xC0 PUSH1 0x40 MSTORE PUSH1 0x5 PUSH1 0x80 DUP2 SWAP1 MSTORE PUSH5 0x173539B7B7 PUSH1 0xD9 SHL PUSH1 0xA0 SWAP1 DUP2 MSTORE PUSH3 0x28 SWAP2 PUSH1 0xC SWAP2 SWAP1 PUSH3 0x1B1 JUMP JUMPDEST POP PUSH7 0xB1A2BC2EC50000 PUSH1 0xD SSTORE PUSH2 0x2710 PUSH1 0xE SSTORE PUSH1 0x14 PUSH1 0xF SSTORE PUSH1 0x3 PUSH1 0x10 SSTORE PUSH1 0x11 DUP1 SLOAD PUSH2 0xFFFF NOT AND PUSH2 0x100 OR SWAP1 SSTORE CALLVALUE DUP1 ISZERO PUSH3 0x60 JUMPI PUSH1 0x0 DUP1 REVERT JUMPDEST POP PUSH1 0x40 MLOAD PUSH3 0x2C31 CODESIZE SUB DUP1 PUSH3 0x2C31 DUP4 CODECOPY DUP2 ADD PUSH1 0x40 DUP2 SWAP1 MSTORE PUSH3 0x83 SWAP2 PUSH3 0x324 JUMP JUMPDEST DUP3 MLOAD DUP4 SWAP1 DUP4 SWAP1 PUSH3 0x9C SWAP1 PUSH1 0x0 SWAP1 PUSH1 0x20 DUP6 ADD SWAP1 PUSH3 0x1B1 JUMP JUMPDEST POP DUP1 MLOAD PUSH3 0xB2 SWAP1 PUSH1 0x1 SWAP1 PUSH1 0x20 DUP5 ADD SWAP1 PUSH3 0x1B1 JUMP JUMPDEST POP POP POP PUSH3 0xCF PUSH3 0xC9 PUSH3 0xE3 PUSH1 0x20 SHL PUSH1 0x20 SHR JUMP JUMPDEST PUSH3 0xE7 JUMP JUMPDEST PUSH3 0xDA DUP2 PUSH3 0x139 JUMP JUMPDEST POP POP POP PUSH3 0x3F1 JUMP JUMPDEST CALLER SWAP1 JUMP JUMPDEST PUSH1 0xA DUP1 SLOAD PUSH1 0x1 PUSH1 0x1 PUSH1 0xA0 SHL SUB DUP4 DUP2 AND PUSH1 0x1 PUSH1 0x1 PUSH1 0xA0 SHL SUB NOT DUP4 AND DUP2 OR SWAP1 SWAP4 SSTORE PUSH1 0x40 MLOAD SWAP2 AND SWAP2 SWAP1 DUP3 SWAP1 PUSH32 0x8BE0079C531659141344CD1FD0A4F28419497F9722A3DAAFE3B4186F6B6457E0 SWAP1 PUSH1 0x0 SWAP1 LOG3 POP POP JUMP JUMPDEST PUSH1 0xA SLOAD PUSH1 0x1 PUSH1 0x1 PUSH1 0xA0 SHL SUB AND CALLER EQ PUSH3 0x198 JUMPI PUSH1 0x40 MLOAD PUSH3 0x461BCD PUSH1 0xE5 SHL DUP2 MSTORE PUSH1 0x20 PUSH1 0x4 DUP3 ADD DUP2 SWAP1 MSTORE PUSH1 0x24 DUP3 ADD MSTORE PUSH32 0x4F776E61626C653A2063616C6C6572206973206E6F7420746865206F776E6572 PUSH1 0x44 DUP3 ADD MSTORE PUSH1 0x64 ADD PUSH1 0x40 MLOAD DUP1 SWAP2 SUB SWAP1 REVERT JUMPDEST DUP1 MLOAD PUSH3 0x1AD SWAP1 PUSH1 0xB SWAP1 PUSH1 0x20 DUP5 ADD SWAP1 PUSH3 0x1B1 JUMP JUMPDEST POP POP JUMP JUMPDEST DUP3 DUP1 SLOAD PUSH3 0x1BF SWAP1 PUSH3 0x3B5 JUMP JUMPDEST SWAP1 PUSH1 0x0 MSTORE PUSH1 0x20 PUSH1 0x0 KECCAK256 SWAP1 PUSH1 0x1F ADD PUSH1 0x20 SWAP1 DIV DUP2 ADD SWAP3 DUP3 PUSH3 0x1E3 JUMPI PUSH1 0x0 DUP6 SSTORE PUSH3 0x22E JUMP JUMPDEST DUP3 PUSH1 0x1F LT PUSH3 0x1FE JUMPI DUP1 MLOAD PUSH1 0xFF NOT AND DUP4 DUP1 ADD OR DUP6 SSTORE PUSH3 0x22E JUMP JUMPDEST DUP3 DUP1 ADD PUSH1 0x1 ADD DUP6 SSTORE DUP3 ISZERO PUSH3 0x22E JUMPI SWAP2 DUP3 ADD JUMPDEST DUP3 DUP2 GT ISZERO PUSH3 0x22E JUMPI DUP3 MLOAD DUP3 SSTORE SWAP2 PUSH1 0x20 ADD SWAP2 SWAP1 PUSH1 0x1 ADD SWAP1 PUSH3 0x211 JUMP JUMPDEST POP PUSH3 0x23C SWAP3 SWAP2 POP PUSH3 0x240 JUMP JUMPDEST POP SWAP1 JUMP JUMPDEST JUMPDEST DUP1 DUP3 GT ISZERO PUSH3 0x23C JUMPI PUSH1 0x0 DUP2 SSTORE PUSH1 0x1 ADD PUSH3 0x241 JUMP JUMPDEST PUSH4 0x4E487B71 PUSH1 0xE0 SHL PUSH1 0x0 MSTORE PUSH1 0x41 PUSH1 0x4 MSTORE PUSH1 0x24 PUSH1 0x0 REVERT JUMPDEST PUSH1 0x0 DUP3 PUSH1 0x1F DUP4 ADD SLT PUSH3 0x27F JUMPI PUSH1 0x0 DUP1 REVERT JUMPDEST DUP2 MLOAD PUSH1 0x1 PUSH1 0x1 PUSH1 0x40 SHL SUB DUP1 DUP3 GT ISZERO PUSH3 0x29C JUMPI PUSH3 0x29C PUSH3 0x257 JUMP JUMPDEST PUSH1 0x40 MLOAD PUSH1 0x1F DUP4 ADD PUSH1 0x1F NOT SWAP1 DUP2 AND PUSH1 0x3F ADD AND DUP2 ADD SWAP1 DUP3 DUP3 GT DUP2 DUP4 LT OR ISZERO PUSH3 0x2C7 JUMPI PUSH3 0x2C7 PUSH3 0x257 JUMP JUMPDEST DUP2 PUSH1 0x40 MSTORE DUP4 DUP2 MSTORE PUSH1 0x20 SWAP3 POP DUP7 DUP4 DUP6 DUP9 ADD ADD GT ISZERO PUSH3 0x2E4 JUMPI PUSH1 0x0 DUP1 REVERT JUMPDEST PUSH1 0x0 SWAP2 POP JUMPDEST DUP4 DUP3 LT ISZERO PUSH3 0x308 JUMPI DUP6 DUP3 ADD DUP4 ADD MLOAD DUP2 DUP4 ADD DUP5 ADD MSTORE SWAP1 DUP3 ADD SWAP1 PUSH3 0x2E9 JUMP JUMPDEST DUP4 DUP3 GT ISZERO PUSH3 0x31A JUMPI PUSH1 0x0 DUP4 DUP6 DUP4 ADD ADD MSTORE JUMPDEST SWAP7 SWAP6 POP POP POP POP POP POP JUMP JUMPDEST PUSH1 0x0 DUP1 PUSH1 0x0 PUSH1 0x60 DUP5 DUP7 SUB SLT ISZERO PUSH3 0x33A JUMPI PUSH1 0x0 DUP1 REVERT JUMPDEST DUP4 MLOAD PUSH1 0x1 PUSH1 0x1 PUSH1 0x40 SHL SUB DUP1 DUP3 GT ISZERO PUSH3 0x352 JUMPI PUSH1 0x0 DUP1 REVERT JUMPDEST PUSH3 0x360 DUP8 DUP4 DUP9 ADD PUSH3 0x26D JUMP JUMPDEST SWAP5 POP PUSH1 0x20 DUP7 ADD MLOAD SWAP2 POP DUP1 DUP3 GT ISZERO PUSH3 0x377 JUMPI PUSH1 0x0 DUP1 REVERT JUMPDEST PUSH3 0x385 DUP8 DUP4 DUP9 ADD PUSH3 0x26D JUMP JUMPDEST SWAP4 POP PUSH1 0x40 DUP7 ADD MLOAD SWAP2 POP DUP1 DUP3 GT ISZERO PUSH3 0x39C JUMPI PUSH1 0x0 DUP1 REVERT JUMPDEST POP PUSH3 0x3AB DUP7 DUP3 DUP8 ADD PUSH3 0x26D JUMP JUMPDEST SWAP2 POP POP SWAP3 POP SWAP3 POP SWAP3 JUMP JUMPDEST PUSH1 0x1 DUP2 DUP2 SHR SWAP1 DUP3 AND DUP1 PUSH3 0x3CA JUMPI PUSH1 0x7F DUP3 AND SWAP2 POP JUMPDEST PUSH1 0x20 DUP3 LT DUP2 SUB PUSH3 0x3EB JUMPI PUSH4 0x4E487B71 PUSH1 0xE0 SHL PUSH1 0x0 MSTORE PUSH1 0x22 PUSH1 0x4 MSTORE PUSH1 0x24 PUSH1 0x0 REVERT JUMPDEST POP SWAP2 SWAP1 POP JUMP JUMPDEST PUSH2 0x2830 DUP1 PUSH3 0x401 PUSH1 0x0 CODECOPY PUSH1 0x0 RETURN INVALID PUSH1 0x80 PUSH1 0x40 MSTORE PUSH1 0x4 CALLDATASIZE LT PUSH2 0x246 JUMPI PUSH1 0x0 CALLDATALOAD PUSH1 0xE0 SHR DUP1 PUSH4 0x6352211E GT PUSH2 0x139 JUMPI DUP1 PUSH4 0xB88D4FDE GT PUSH2 0xB6 JUMPI DUP1 PUSH4 0xD0EB26B0 GT PUSH2 0x7A JUMPI DUP1 PUSH4 0xD0EB26B0 EQ PUSH2 0x681 JUMPI DUP1 PUSH4 0xD5ABEB01 EQ PUSH2 0x6A1 JUMPI DUP1 PUSH4 0xDA3EF23F EQ PUSH2 0x6B7 JUMPI DUP1 PUSH4 0xE985E9C5 EQ PUSH2 0x6D7 JUMPI DUP1 PUSH4 0xEDEC5F27 EQ PUSH2 0x720 JUMPI DUP1 PUSH4 0xF2FDE38B EQ PUSH2 0x740 JUMPI PUSH1 0x0 DUP1 REVERT JUMPDEST DUP1 PUSH4 0xB88D4FDE EQ PUSH2 0x5F6 JUMPI DUP1 PUSH4 0xBA4E5C49 EQ PUSH2 0x616 JUMPI DUP1 PUSH4 0xBA7D2C76 EQ PUSH2 0x636 JUMPI DUP1 PUSH4 0xC6682862 EQ PUSH2 0x64C JUMPI DUP1 PUSH4 0xC87B56DD EQ PUSH2 0x661 JUMPI PUSH1 0x0 DUP1 REVERT JUMPDEST DUP1 PUSH4 0x8DA5CB5B GT PUSH2 0xFD JUMPI DUP1 PUSH4 0x8DA5CB5B EQ PUSH2 0x571 JUMPI DUP1 PUSH4 0x95D89B41 EQ PUSH2 0x58F JUMPI DUP1 PUSH4 0x9C70B512 EQ PUSH2 0x5A4 JUMPI DUP1 PUSH4 0xA0712D68 EQ PUSH2 0x5C3 JUMPI DUP1 PUSH4 0xA22CB465 EQ PUSH2 0x5D6 JUMPI PUSH1 0x0 DUP1 REVERT JUMPDEST DUP1 PUSH4 0x6352211E EQ PUSH2 0x4E7 JUMPI DUP1 PUSH4 0x6C0360EB EQ PUSH2 0x507 JUMPI DUP1 PUSH4 0x70A08231 EQ PUSH2 0x51C JUMPI DUP1 PUSH4 0x715018A6 EQ PUSH2 0x53C JUMPI DUP1 PUSH4 0x7F00C7A6 EQ PUSH2 0x551 JUMPI PUSH1 0x0 DUP1 REVERT JUMPDEST DUP1 PUSH4 0x2F745C59 GT PUSH2 0x1C7 JUMPI DUP1 PUSH4 0x438B6300 GT PUSH2 0x18B JUMPI DUP1 PUSH4 0x438B6300 EQ PUSH2 0x440 JUMPI DUP1 PUSH4 0x44A0D68A EQ PUSH2 0x46D JUMPI DUP1 PUSH4 0x4F6CCCE7 EQ PUSH2 0x48D JUMPI DUP1 PUSH4 0x55F804B3 EQ PUSH2 0x4AD JUMPI DUP1 PUSH4 0x5C975ABB EQ PUSH2 0x4CD JUMPI PUSH1 0x0 DUP1 REVERT JUMPDEST DUP1 PUSH4 0x2F745C59 EQ PUSH2 0x3B8 JUMPI DUP1 PUSH4 0x3AF32ABF EQ PUSH2 0x3D8 JUMPI DUP1 PUSH4 0x3C952764 EQ PUSH2 0x3F8 JUMPI DUP1 PUSH4 0x3CCFD60B EQ PUSH2 0x418 JUMPI DUP1 PUSH4 0x42842E0E EQ PUSH2 0x420 JUMPI PUSH1 0x0 DUP1 REVERT JUMPDEST DUP1 PUSH4 0x13FAEDE6 GT PUSH2 0x20E JUMPI DUP1 PUSH4 0x13FAEDE6 EQ PUSH2 0x31C JUMPI DUP1 PUSH4 0x18160DDD EQ PUSH2 0x340 JUMPI DUP1 PUSH4 0x18CAE269 EQ PUSH2 0x355 JUMPI DUP1 PUSH4 0x239C70AE EQ PUSH2 0x382 JUMPI DUP1 PUSH4 0x23B872DD EQ PUSH2 0x398 JUMPI PUSH1 0x0 DUP1 REVERT JUMPDEST DUP1 PUSH4 0x1FFC9A7 EQ PUSH2 0x24B JUMPI DUP1 PUSH4 0x2329A29 EQ PUSH2 0x280 JUMPI DUP1 PUSH4 0x6FDDE03 EQ PUSH2 0x2A2 JUMPI DUP1 PUSH4 0x81812FC EQ PUSH2 0x2C4 JUMPI DUP1 PUSH4 0x95EA7B3 EQ PUSH2 0x2FC JUMPI JUMPDEST PUSH1 0x0 DUP1 REVERT JUMPDEST CALLVALUE DUP1 ISZERO PUSH2 0x257 JUMPI PUSH1 0x0 DUP1 REVERT JUMPDEST POP PUSH2 0x26B PUSH2 0x266 CALLDATASIZE PUSH1 0x4 PUSH2 0x2114 JUMP JUMPDEST PUSH2 0x760 JUMP JUMPDEST PUSH1 0x40 MLOAD SWAP1 ISZERO ISZERO DUP2 MSTORE PUSH1 0x20 ADD JUMPDEST PUSH1 0x40 MLOAD DUP1 SWAP2 SUB SWAP1 RETURN JUMPDEST CALLVALUE DUP1 ISZERO PUSH2 0x28C JUMPI PUSH1 0x0 DUP1 REVERT JUMPDEST POP PUSH2 0x2A0 PUSH2 0x29B CALLDATASIZE PUSH1 0x4 PUSH2 0x2146 JUMP JUMPDEST PUSH2 0x78B JUMP JUMPDEST STOP JUMPDEST CALLVALUE DUP1 ISZERO PUSH2 0x2AE JUMPI PUSH1 0x0 DUP1 REVERT JUMPDEST POP PUSH2 0x2B7 PUSH2 0x7D1 JUMP JUMPDEST PUSH1 0x40 MLOAD PUSH2 0x277 SWAP2 SWAP1 PUSH2 0x21B9 JUMP JUMPDEST CALLVALUE DUP1 ISZERO PUSH2 0x2D0 JUMPI PUSH1 0x0 DUP1 REVERT JUMPDEST POP PUSH2 0x2E4 PUSH2 0x2DF CALLDATASIZE PUSH1 0x4 PUSH2 0x21CC JUMP JUMPDEST PUSH2 0x863 JUMP JUMPDEST PUSH1 0x40 MLOAD PUSH1 0x1 PUSH1 0x1 PUSH1 0xA0 SHL SUB SWAP1 SWAP2 AND DUP2 MSTORE PUSH1 0x20 ADD PUSH2 0x277 JUMP JUMPDEST CALLVALUE DUP1 ISZERO PUSH2 0x308 JUMPI PUSH1 0x0 DUP1 REVERT JUMPDEST POP PUSH2 0x2A0 PUSH2 0x317 CALLDATASIZE PUSH1 0x4 PUSH2 0x21FC JUMP JUMPDEST PUSH2 0x8F8 JUMP JUMPDEST CALLVALUE DUP1 ISZERO PUSH2 0x328 JUMPI PUSH1 0x0 DUP1 REVERT JUMPDEST POP PUSH2 0x332 PUSH1 0xD SLOAD DUP2 JUMP JUMPDEST PUSH1 0x40 MLOAD SWAP1 DUP2 MSTORE PUSH1 0x20 ADD PUSH2 0x277 JUMP JUMPDEST CALLVALUE DUP1 ISZERO PUSH2 0x34C JUMPI PUSH1 0x0 DUP1 REVERT JUMPDEST POP PUSH1 0x8 SLOAD PUSH2 0x332 JUMP JUMPDEST CALLVALUE DUP1 ISZERO PUSH2 0x361 JUMPI PUSH1 0x0 DUP1 REVERT JUMPDEST POP PUSH2 0x332 PUSH2 0x370 CALLDATASIZE PUSH1 0x4 PUSH2 0x2226 JUMP JUMPDEST PUSH1 0x13 PUSH1 0x20 MSTORE PUSH1 0x0 SWAP1 DUP2 MSTORE PUSH1 0x40 SWAP1 KECCAK256 SLOAD DUP2 JUMP JUMPDEST CALLVALUE DUP1 ISZERO PUSH2 0x38E JUMPI PUSH1 0x0 DUP1 REVERT JUMPDEST POP PUSH2 0x332 PUSH1 0xF SLOAD DUP2 JUMP JUMPDEST CALLVALUE DUP1 ISZERO PUSH2 0x3A4 JUMPI PUSH1 0x0 DUP1 REVERT JUMPDEST POP PUSH2 0x2A0 PUSH2 0x3B3 CALLDATASIZE PUSH1 0x4 PUSH2 0x2241 JUMP JUMPDEST PUSH2 0xA0D JUMP JUMPDEST CALLVALUE DUP1 ISZERO PUSH2 0x3C4 JUMPI PUSH1 0x0 DUP1 REVERT JUMPDEST POP PUSH2 0x332 PUSH2 0x3D3 CALLDATASIZE PUSH1 0x4 PUSH2 0x21FC JUMP JUMPDEST PUSH2 0xA3E JUMP JUMPDEST CALLVALUE DUP1 ISZERO PUSH2 0x3E4 JUMPI PUSH1 0x0 DUP1 REVERT JUMPDEST POP PUSH2 0x26B PUSH2 0x3F3 CALLDATASIZE PUSH1 0x4 PUSH2 0x2226 JUMP JUMPDEST PUSH2 0xAD4 JUMP JUMPDEST CALLVALUE DUP1 ISZERO PUSH2 0x404 JUMPI PUSH1 0x0 DUP1 REVERT JUMPDEST POP PUSH2 0x2A0 PUSH2 0x413 CALLDATASIZE PUSH1 0x4 PUSH2 0x2146 JUMP JUMPDEST PUSH2 0xB3D JUMP JUMPDEST PUSH2 0x2A0 PUSH2 0xB81 JUMP JUMPDEST CALLVALUE DUP1 ISZERO PUSH2 0x42C JUMPI PUSH1 0x0 DUP1 REVERT JUMPDEST POP PUSH2 0x2A0 PUSH2 0x43B CALLDATASIZE PUSH1 0x4 PUSH2 0x2241 JUMP JUMPDEST PUSH2 0xC1F JUMP JUMPDEST CALLVALUE DUP1 ISZERO PUSH2 0x44C JUMPI PUSH1 0x0 DUP1 REVERT JUMPDEST POP PUSH2 0x460 PUSH2 0x45B CALLDATASIZE PUSH1 0x4 PUSH2 0x2226 JUMP JUMPDEST PUSH2 0xC3A JUMP JUMPDEST PUSH1 0x40 MLOAD PUSH2 0x277 SWAP2 SWAP1 PUSH2 0x227D JUMP JUMPDEST CALLVALUE DUP1 ISZERO PUSH2 0x479 JUMPI PUSH1 0x0 DUP1 REVERT JUMPDEST POP PUSH2 0x2A0 PUSH2 0x488 CALLDATASIZE PUSH1 0x4 PUSH2 0x21CC JUMP JUMPDEST PUSH2 0xCDC JUMP JUMPDEST CALLVALUE DUP1 ISZERO PUSH2 0x499 JUMPI PUSH1 0x0 DUP1 REVERT JUMPDEST POP PUSH2 0x332 PUSH2 0x4A8 CALLDATASIZE PUSH1 0x4 PUSH2 0x21CC JUMP JUMPDEST PUSH2 0xD0B JUMP JUMPDEST CALLVALUE DUP1 ISZERO PUSH2 0x4B9 JUMPI PUSH1 0x0 DUP1 REVERT JUMPDEST POP PUSH2 0x2A0 PUSH2 0x4C8 CALLDATASIZE PUSH1 0x4 PUSH2 0x234D JUMP JUMPDEST PUSH2 0xD9E JUMP JUMPDEST CALLVALUE DUP1 ISZERO PUSH2 0x4D9 JUMPI PUSH1 0x0 DUP1 REVERT JUMPDEST POP PUSH1 0x11 SLOAD PUSH2 0x26B SWAP1 PUSH1 0xFF AND DUP2 JUMP JUMPDEST CALLVALUE DUP1 ISZERO PUSH2 0x4F3 JUMPI PUSH1 0x0 DUP1 REVERT JUMPDEST POP PUSH2 0x2E4 PUSH2 0x502 CALLDATASIZE PUSH1 0x4 PUSH2 0x21CC JUMP JUMPDEST PUSH2 0xDDF JUMP JUMPDEST CALLVALUE DUP1 ISZERO PUSH2 0x513 JUMPI PUSH1 0x0 DUP1 REVERT JUMPDEST POP PUSH2 0x2B7 PUSH2 0xE56 JUMP JUMPDEST CALLVALUE DUP1 ISZERO PUSH2 0x528 JUMPI PUSH1 0x0 DUP1 REVERT JUMPDEST POP PUSH2 0x332 PUSH2 0x537 CALLDATASIZE PUSH1 0x4 PUSH2 0x2226 JUMP JUMPDEST PUSH2 0xEE4 JUMP JUMPDEST CALLVALUE DUP1 ISZERO PUSH2 0x548 JUMPI PUSH1 0x0 DUP1 REVERT JUMPDEST POP PUSH2 0x2A0 PUSH2 0xF6B JUMP JUMPDEST CALLVALUE DUP1 ISZERO PUSH2 0x55D JUMPI PUSH1 0x0 DUP1 REVERT JUMPDEST POP PUSH2 0x2A0 PUSH2 0x56C CALLDATASIZE PUSH1 0x4 PUSH2 0x21CC JUMP JUMPDEST PUSH2 0xFA1 JUMP JUMPDEST CALLVALUE DUP1 ISZERO PUSH2 0x57D JUMPI PUSH1 0x0 DUP1 REVERT JUMPDEST POP PUSH1 0xA SLOAD PUSH1 0x1 PUSH1 0x1 PUSH1 0xA0 SHL SUB AND PUSH2 0x2E4 JUMP JUMPDEST CALLVALUE DUP1 ISZERO PUSH2 0x59B JUMPI PUSH1 0x0 DUP1 REVERT JUMPDEST POP PUSH2 0x2B7 PUSH2 0xFD0 JUMP JUMPDEST CALLVALUE DUP1 ISZERO PUSH2 0x5B0 JUMPI PUSH1 0x0 DUP1 REVERT JUMPDEST POP PUSH1 0x11 SLOAD PUSH2 0x26B SWAP1 PUSH2 0x100 SWAP1 DIV PUSH1 0xFF AND DUP2 JUMP JUMPDEST PUSH2 0x2A0 PUSH2 0x5D1 CALLDATASIZE PUSH1 0x4 PUSH2 0x21CC JUMP JUMPDEST PUSH2 0xFDF JUMP JUMPDEST CALLVALUE DUP1 ISZERO PUSH2 0x5E2 JUMPI PUSH1 0x0 DUP1 REVERT JUMPDEST POP PUSH2 0x2A0 PUSH2 0x5F1 CALLDATASIZE PUSH1 0x4 PUSH2 0x2396 JUMP JUMPDEST PUSH2 0x12C4 JUMP JUMPDEST CALLVALUE DUP1 ISZERO PUSH2 0x602 JUMPI PUSH1 0x0 DUP1 REVERT JUMPDEST POP PUSH2 0x2A0 PUSH2 0x611 CALLDATASIZE PUSH1 0x4 PUSH2 0x23C9 JUMP JUMPDEST PUSH2 0x1388 JUMP JUMPDEST CALLVALUE DUP1 ISZERO PUSH2 0x622 JUMPI PUSH1 0x0 DUP1 REVERT JUMPDEST POP PUSH2 0x2E4 PUSH2 0x631 CALLDATASIZE PUSH1 0x4 PUSH2 0x21CC JUMP JUMPDEST PUSH2 0x13C0 JUMP JUMPDEST CALLVALUE DUP1 ISZERO PUSH2 0x642 JUMPI PUSH1 0x0 DUP1 REVERT JUMPDEST POP PUSH2 0x332 PUSH1 0x10 SLOAD DUP2 JUMP JUMPDEST CALLVALUE DUP1 ISZERO PUSH2 0x658 JUMPI PUSH1 0x0 DUP1 REVERT JUMPDEST POP PUSH2 0x2B7 PUSH2 0x13EA JUMP JUMPDEST CALLVALUE DUP1 ISZERO PUSH2 0x66D JUMPI PUSH1 0x0 DUP1 REVERT JUMPDEST POP PUSH2 0x2B7 PUSH2 0x67C CALLDATASIZE PUSH1 0x4 PUSH2 0x21CC JUMP JUMPDEST PUSH2 0x13F7 JUMP JUMPDEST CALLVALUE DUP1 ISZERO PUSH2 0x68D JUMPI PUSH1 0x0 DUP1 REVERT JUMPDEST POP PUSH2 0x2A0 PUSH2 0x69C CALLDATASIZE PUSH1 0x4 PUSH2 0x21CC JUMP JUMPDEST PUSH2 0x14D5 JUMP JUMPDEST CALLVALUE DUP1 ISZERO PUSH2 0x6AD JUMPI PUSH1 0x0 DUP1 REVERT JUMPDEST POP PUSH2 0x332 PUSH1 0xE SLOAD DUP2 JUMP JUMPDEST CALLVALUE DUP1 ISZERO PUSH2 0x6C3 JUMPI PUSH1 0x0 DUP1 REVERT JUMPDEST POP PUSH2 0x2A0 PUSH2 0x6D2 CALLDATASIZE PUSH1 0x4 PUSH2 0x234D JUMP JUMPDEST PUSH2 0x1504 JUMP JUMPDEST CALLVALUE DUP1 ISZERO PUSH2 0x6E3 JUMPI PUSH1 0x0 DUP1 REVERT JUMPDEST POP PUSH2 0x26B PUSH2 0x6F2 CALLDATASIZE PUSH1 0x4 PUSH2 0x2445 JUMP JUMPDEST PUSH1 0x1 PUSH1 0x1 PUSH1 0xA0 SHL SUB SWAP2 DUP3 AND PUSH1 0x0 SWAP1 DUP2 MSTORE PUSH1 0x5 PUSH1 0x20 SWAP1 DUP2 MSTORE PUSH1 0x40 DUP1 DUP4 KECCAK256 SWAP4 SWAP1 SWAP5 AND DUP3 MSTORE SWAP2 SWAP1 SWAP2 MSTORE KECCAK256 SLOAD PUSH1 0xFF AND SWAP1 JUMP JUMPDEST CALLVALUE DUP1 ISZERO PUSH2 0x72C JUMPI PUSH1 0x0 DUP1 REVERT JUMPDEST POP PUSH2 0x2A0 PUSH2 0x73B CALLDATASIZE PUSH1 0x4 PUSH2 0x246F JUMP JUMPDEST PUSH2 0x1541 JUMP JUMPDEST CALLVALUE DUP1 ISZERO PUSH2 0x74C JUMPI PUSH1 0x0 DUP1 REVERT JUMPDEST POP PUSH2 0x2A0 PUSH2 0x75B CALLDATASIZE PUSH1 0x4 PUSH2 0x2226 JUMP JUMPDEST PUSH2 0x1583 JUMP JUMPDEST PUSH1 0x0 PUSH1 0x1 PUSH1 0x1 PUSH1 0xE0 SHL SUB NOT DUP3 AND PUSH4 0x780E9D63 PUSH1 0xE0 SHL EQ DUP1 PUSH2 0x785 JUMPI POP PUSH2 0x785 DUP3 PUSH2 0x161B JUMP JUMPDEST SWAP3 SWAP2 POP POP JUMP JUMPDEST PUSH1 0xA SLOAD PUSH1 0x1 PUSH1 0x1 PUSH1 0xA0 SHL SUB AND CALLER EQ PUSH2 0x7BE JUMPI PUSH1 0x40 MLOAD PUSH3 0x461BCD PUSH1 0xE5 SHL DUP2 MSTORE PUSH1 0x4 ADD PUSH2 0x7B5 SWAP1 PUSH2 0x24E4 JUMP JUMPDEST PUSH1 0x40 MLOAD DUP1 SWAP2 SUB SWAP1 REVERT JUMPDEST PUSH1 0x11 DUP1 SLOAD PUSH1 0xFF NOT AND SWAP2 ISZERO ISZERO SWAP2 SWAP1 SWAP2 OR SWAP1 SSTORE JUMP JUMPDEST PUSH1 0x60 PUSH1 0x0 DUP1 SLOAD PUSH2 0x7E0 SWAP1 PUSH2 0x2519 JUMP JUMPDEST DUP1 PUSH1 0x1F ADD PUSH1 0x20 DUP1 SWAP2 DIV MUL PUSH1 0x20 ADD PUSH1 0x40 MLOAD SWAP1 DUP2 ADD PUSH1 0x40 MSTORE DUP1 SWAP3 SWAP2 SWAP1 DUP2 DUP2 MSTORE PUSH1 0x20 ADD DUP3 DUP1 SLOAD PUSH2 0x80C SWAP1 PUSH2 0x2519 JUMP JUMPDEST DUP1 ISZERO PUSH2 0x859 JUMPI DUP1 PUSH1 0x1F LT PUSH2 0x82E JUMPI PUSH2 0x100 DUP1 DUP4 SLOAD DIV MUL DUP4 MSTORE SWAP2 PUSH1 0x20 ADD SWAP2 PUSH2 0x859 JUMP JUMPDEST DUP3 ADD SWAP2 SWAP1 PUSH1 0x0 MSTORE PUSH1 0x20 PUSH1 0x0 KECCAK256 SWAP1 JUMPDEST DUP2 SLOAD DUP2 MSTORE SWAP1 PUSH1 0x1 ADD SWAP1 PUSH1 0x20 ADD DUP1 DUP4 GT PUSH2 0x83C JUMPI DUP3 SWAP1 SUB PUSH1 0x1F AND DUP3 ADD SWAP2 JUMPDEST POP POP POP POP POP SWAP1 POP SWAP1 JUMP JUMPDEST PUSH1 0x0 DUP2 DUP2 MSTORE PUSH1 0x2 PUSH1 0x20 MSTORE PUSH1 0x40 DUP2 KECCAK256 SLOAD PUSH1 0x1 PUSH1 0x1 PUSH1 0xA0 SHL SUB AND PUSH2 0x8DC JUMPI PUSH1 0x40 MLOAD PUSH3 0x461BCD PUSH1 0xE5 SHL DUP2 MSTORE PUSH1 0x20 PUSH1 0x4 DUP3 ADD MSTORE PUSH1 0x2C PUSH1 0x24 DUP3 ADD MSTORE PUSH32 0x4552433732313A20617070726F76656420717565727920666F72206E6F6E6578 PUSH1 0x44 DUP3 ADD MSTORE PUSH12 0x34B9BA32B73A103A37B5B2B7 PUSH1 0xA1 SHL PUSH1 0x64 DUP3 ADD MSTORE PUSH1 0x84 ADD PUSH2 0x7B5 JUMP JUMPDEST POP PUSH1 0x0 SWAP1 DUP2 MSTORE PUSH1 0x4 PUSH1 0x20 MSTORE PUSH1 0x40 SWAP1 KECCAK256 SLOAD PUSH1 0x1 PUSH1 0x1 PUSH1 0xA0 SHL SUB AND SWAP1 JUMP JUMPDEST PUSH1 0x0 PUSH2 0x903 DUP3 PUSH2 0xDDF JUMP JUMPDEST SWAP1 POP DUP1 PUSH1 0x1 PUSH1 0x1 PUSH1 0xA0 SHL SUB AND DUP4 PUSH1 0x1 PUSH1 0x1 PUSH1 0xA0 SHL SUB AND SUB PUSH2 0x970 JUMPI PUSH1 0x40 MLOAD PUSH3 0x461BCD PUSH1 0xE5 SHL DUP2 MSTORE PUSH1 0x20 PUSH1 0x4 DUP3 ADD MSTORE PUSH1 0x21 PUSH1 0x24 DUP3 ADD MSTORE PUSH32 0x4552433732313A20617070726F76616C20746F2063757272656E74206F776E65 PUSH1 0x44 DUP3 ADD MSTORE PUSH1 0x39 PUSH1 0xF9 SHL PUSH1 0x64 DUP3 ADD MSTORE PUSH1 0x84 ADD PUSH2 0x7B5 JUMP JUMPDEST CALLER PUSH1 0x1 PUSH1 0x1 PUSH1 0xA0 SHL SUB DUP3 AND EQ DUP1 PUSH2 0x98C JUMPI POP PUSH2 0x98C DUP2 CALLER PUSH2 0x6F2 JUMP JUMPDEST PUSH2 0x9FE JUMPI PUSH1 0x40 MLOAD PUSH3 0x461BCD PUSH1 0xE5 SHL DUP2 MSTORE PUSH1 0x20 PUSH1 0x4 DUP3 ADD MSTORE PUSH1 0x38 PUSH1 0x24 DUP3 ADD MSTORE PUSH32 0x4552433732313A20617070726F76652063616C6C6572206973206E6F74206F77 PUSH1 0x44 DUP3 ADD MSTORE PUSH32 0x6E6572206E6F7220617070726F76656420666F7220616C6C0000000000000000 PUSH1 0x64 DUP3 ADD MSTORE PUSH1 0x84 ADD PUSH2 0x7B5 JUMP JUMPDEST PUSH2 0xA08 DUP4 DUP4 PUSH2 0x166B JUMP JUMPDEST POP POP POP JUMP JUMPDEST PUSH2 0xA17 CALLER DUP3 PUSH2 0x16D9 JUMP JUMPDEST PUSH2 0xA33 JUMPI PUSH1 0x40 MLOAD PUSH3 0x461BCD PUSH1 0xE5 SHL DUP2 MSTORE PUSH1 0x4 ADD PUSH2 0x7B5 SWAP1 PUSH2 0x2553 JUMP JUMPDEST PUSH2 0xA08 DUP4 DUP4 DUP4 PUSH2 0x17D0 JUMP JUMPDEST PUSH1 0x0 PUSH2 0xA49 DUP4 PUSH2 0xEE4 JUMP JUMPDEST DUP3 LT PUSH2 0xAAB JUMPI PUSH1 0x40 MLOAD PUSH3 0x461BCD PUSH1 0xE5 SHL DUP2 MSTORE PUSH1 0x20 PUSH1 0x4 DUP3 ADD MSTORE PUSH1 0x2B PUSH1 0x24 DUP3 ADD MSTORE PUSH32 0x455243373231456E756D657261626C653A206F776E657220696E646578206F75 PUSH1 0x44 DUP3 ADD MSTORE PUSH11 0x74206F6620626F756E6473 PUSH1 0xA8 SHL PUSH1 0x64 DUP3 ADD MSTORE PUSH1 0x84 ADD PUSH2 0x7B5 JUMP JUMPDEST POP PUSH1 0x1 PUSH1 0x1 PUSH1 0xA0 SHL SUB SWAP2 SWAP1 SWAP2 AND PUSH1 0x0 SWAP1 DUP2 MSTORE PUSH1 0x6 PUSH1 0x20 SWAP1 DUP2 MSTORE PUSH1 0x40 DUP1 DUP4 KECCAK256 SWAP4 DUP4 MSTORE SWAP3 SWAP1 MSTORE KECCAK256 SLOAD SWAP1 JUMP JUMPDEST PUSH1 0x0 DUP1 JUMPDEST PUSH1 0x12 SLOAD DUP2 LT ISZERO PUSH2 0xB34 JUMPI DUP3 PUSH1 0x1 PUSH1 0x1 PUSH1 0xA0 SHL SUB AND PUSH1 0x12 DUP3 DUP2 SLOAD DUP2 LT PUSH2 0xAFF JUMPI PUSH2 0xAFF PUSH2 0x25A4 JUMP JUMPDEST PUSH1 0x0 SWAP2 DUP3 MSTORE PUSH1 0x20 SWAP1 SWAP2 KECCAK256 ADD SLOAD PUSH1 0x1 PUSH1 0x1 PUSH1 0xA0 SHL SUB AND SUB PUSH2 0xB22 JUMPI POP PUSH1 0x1 SWAP3 SWAP2 POP POP JUMP JUMPDEST DUP1 PUSH2 0xB2C DUP2 PUSH2 0x25D0 JUMP JUMPDEST SWAP2 POP POP PUSH2 0xAD8 JUMP JUMPDEST POP PUSH1 0x0 SWAP3 SWAP2 POP POP JUMP JUMPDEST PUSH1 0xA SLOAD PUSH1 0x1 PUSH1 0x1 PUSH1 0xA0 SHL SUB AND CALLER EQ PUSH2 0xB67 JUMPI PUSH1 0x40 MLOAD PUSH3 0x461BCD PUSH1 0xE5 SHL DUP2 MSTORE PUSH1 0x4 ADD PUSH2 0x7B5 SWAP1 PUSH2 0x24E4 JUMP JUMPDEST PUSH1 0x11 DUP1 SLOAD SWAP2 ISZERO ISZERO PUSH2 0x100 MUL PUSH2 0xFF00 NOT SWAP1 SWAP3 AND SWAP2 SWAP1 SWAP2 OR SWAP1 SSTORE JUMP JUMPDEST PUSH1 0xA SLOAD PUSH1 0x1 PUSH1 0x1 PUSH1 0xA0 SHL SUB AND CALLER EQ PUSH2 0xBAB JUMPI PUSH1 0x40 MLOAD PUSH3 0x461BCD PUSH1 0xE5 SHL DUP2 MSTORE PUSH1 0x4 ADD PUSH2 0x7B5 SWAP1 PUSH2 0x24E4 JUMP JUMPDEST PUSH1 0x0 PUSH2 0xBBF PUSH1 0xA SLOAD PUSH1 0x1 PUSH1 0x1 PUSH1 0xA0 SHL SUB AND SWAP1 JUMP JUMPDEST PUSH1 0x1 PUSH1 0x1 PUSH1 0xA0 SHL SUB AND SELFBALANCE PUSH1 0x40 MLOAD PUSH1 0x0 PUSH1 0x40 MLOAD DUP1 DUP4 SUB DUP2 DUP6 DUP8 GAS CALL SWAP3 POP POP POP RETURNDATASIZE DUP1 PUSH1 0x0 DUP2 EQ PUSH2 0xC09 JUMPI PUSH1 0x40 MLOAD SWAP2 POP PUSH1 0x1F NOT PUSH1 0x3F RETURNDATASIZE ADD AND DUP3 ADD PUSH1 0x40 MSTORE RETURNDATASIZE DUP3 MSTORE RETURNDATASIZE PUSH1 0x0 PUSH1 0x20 DUP5 ADD RETURNDATACOPY PUSH2 0xC0E JUMP JUMPDEST PUSH1 0x60 SWAP2 POP JUMPDEST POP POP SWAP1 POP DUP1 PUSH2 0xC1C JUMPI PUSH1 0x0 DUP1 REVERT JUMPDEST POP JUMP JUMPDEST PUSH2 0xA08 DUP4 DUP4 DUP4 PUSH1 0x40 MLOAD DUP1 PUSH1 0x20 ADD PUSH1 0x40 MSTORE DUP1 PUSH1 0x0 DUP2 MSTORE POP PUSH2 0x1388 JUMP JUMPDEST PUSH1 0x60 PUSH1 0x0 PUSH2 0xC47 DUP4 PUSH2 0xEE4 JUMP JUMPDEST SWAP1 POP PUSH1 0x0 DUP2 PUSH8 0xFFFFFFFFFFFFFFFF DUP2 GT ISZERO PUSH2 0xC64 JUMPI PUSH2 0xC64 PUSH2 0x22C1 JUMP JUMPDEST PUSH1 0x40 MLOAD SWAP1 DUP1 DUP3 MSTORE DUP1 PUSH1 0x20 MUL PUSH1 0x20 ADD DUP3 ADD PUSH1 0x40 MSTORE DUP1 ISZERO PUSH2 0xC8D JUMPI DUP2 PUSH1 0x20 ADD PUSH1 0x20 DUP3 MUL DUP1 CALLDATASIZE DUP4 CALLDATACOPY ADD SWAP1 POP JUMPDEST POP SWAP1 POP PUSH1 0x0 JUMPDEST DUP3 DUP2 LT ISZERO PUSH2 0xCD4 JUMPI PUSH2 0xCA5 DUP6 DUP3 PUSH2 0xA3E JUMP JUMPDEST DUP3 DUP3 DUP2 MLOAD DUP2 LT PUSH2 0xCB7 JUMPI PUSH2 0xCB7 PUSH2 0x25A4 JUMP JUMPDEST PUSH1 0x20 SWAP1 DUP2 MUL SWAP2 SWAP1 SWAP2 ADD ADD MSTORE DUP1 PUSH2 0xCCC DUP2 PUSH2 0x25D0 JUMP JUMPDEST SWAP2 POP POP PUSH2 0xC93 JUMP JUMPDEST POP SWAP4 SWAP3 POP POP POP JUMP JUMPDEST PUSH1 0xA SLOAD PUSH1 0x1 PUSH1 0x1 PUSH1 0xA0 SHL SUB AND CALLER EQ PUSH2 0xD06 JUMPI PUSH1 0x40 MLOAD PUSH3 0x461BCD PUSH1 0xE5 SHL DUP2 MSTORE PUSH1 0x4 ADD PUSH2 0x7B5 SWAP1 PUSH2 0x24E4 JUMP JUMPDEST PUSH1 0xD SSTORE JUMP JUMPDEST PUSH1 0x0 PUSH2 0xD16 PUSH1 0x8 SLOAD SWAP1 JUMP JUMPDEST DUP3 LT PUSH2 0xD79 JUMPI PUSH1 0x40 MLOAD PUSH3 0x461BCD PUSH1 0xE5 SHL DUP2 MSTORE PUSH1 0x20 PUSH1 0x4 DUP3 ADD MSTORE PUSH1 0x2C PUSH1 0x24 DUP3 ADD MSTORE PUSH32 0x455243373231456E756D657261626C653A20676C6F62616C20696E646578206F PUSH1 0x44 DUP3 ADD MSTORE PUSH12 0x7574206F6620626F756E6473 PUSH1 0xA0 SHL PUSH1 0x64 DUP3 ADD MSTORE PUSH1 0x84 ADD PUSH2 0x7B5 JUMP JUMPDEST PUSH1 0x8 DUP3 DUP2 SLOAD DUP2 LT PUSH2 0xD8C JUMPI PUSH2 0xD8C PUSH2 0x25A4 JUMP JUMPDEST SWAP1 PUSH1 0x0 MSTORE PUSH1 0x20 PUSH1 0x0 KECCAK256 ADD SLOAD SWAP1 POP SWAP2 SWAP1 POP JUMP JUMPDEST PUSH1 0xA SLOAD PUSH1 0x1 PUSH1 0x1 PUSH1 0xA0 SHL SUB AND CALLER EQ PUSH2 0xDC8 JUMPI PUSH1 0x40 MLOAD PUSH3 0x461BCD PUSH1 0xE5 SHL DUP2 MSTORE PUSH1 0x4 ADD PUSH2 0x7B5 SWAP1 PUSH2 0x24E4 JUMP JUMPDEST DUP1 MLOAD PUSH2 0xDDB SWAP1 PUSH1 0xB SWAP1 PUSH1 0x20 DUP5 ADD SWAP1 PUSH2 0x1FF4 JUMP JUMPDEST POP POP JUMP JUMPDEST PUSH1 0x0 DUP2 DUP2 MSTORE PUSH1 0x2 PUSH1 0x20 MSTORE PUSH1 0x40 DUP2 KECCAK256 SLOAD PUSH1 0x1 PUSH1 0x1 PUSH1 0xA0 SHL SUB AND DUP1 PUSH2 0x785 JUMPI PUSH1 0x40 MLOAD PUSH3 0x461BCD PUSH1 0xE5 SHL DUP2 MSTORE PUSH1 0x20 PUSH1 0x4 DUP3 ADD MSTORE PUSH1 0x29 PUSH1 0x24 DUP3 ADD MSTORE PUSH32 0x4552433732313A206F776E657220717565727920666F72206E6F6E6578697374 PUSH1 0x44 DUP3 ADD MSTORE PUSH9 0x32B73A103A37B5B2B7 PUSH1 0xB9 SHL PUSH1 0x64 DUP3 ADD MSTORE PUSH1 0x84 ADD PUSH2 0x7B5 JUMP JUMPDEST PUSH1 0xB DUP1 SLOAD PUSH2 0xE63 SWAP1 PUSH2 0x2519 JUMP JUMPDEST DUP1 PUSH1 0x1F ADD PUSH1 0x20 DUP1 SWAP2 DIV MUL PUSH1 0x20 ADD PUSH1 0x40 MLOAD SWAP1 DUP2 ADD PUSH1 0x40 MSTORE DUP1 SWAP3 SWAP2 SWAP1 DUP2 DUP2 MSTORE PUSH1 0x20 ADD DUP3 DUP1 SLOAD PUSH2 0xE8F SWAP1 PUSH2 0x2519 JUMP JUMPDEST DUP1 ISZERO PUSH2 0xEDC JUMPI DUP1 PUSH1 0x1F LT PUSH2 0xEB1 JUMPI PUSH2 0x100 DUP1 DUP4 SLOAD DIV MUL DUP4 MSTORE SWAP2 PUSH1 0x20 ADD SWAP2 PUSH2 0xEDC JUMP JUMPDEST DUP3 ADD SWAP2 SWAP1 PUSH1 0x0 MSTORE PUSH1 0x20 PUSH1 0x0 KECCAK256 SWAP1 JUMPDEST DUP2 SLOAD DUP2 MSTORE SWAP1 PUSH1 0x1 ADD SWAP1 PUSH1 0x20 ADD DUP1 DUP4 GT PUSH2 0xEBF JUMPI DUP3 SWAP1 SUB PUSH1 0x1F AND DUP3 ADD SWAP2 JUMPDEST POP POP POP POP POP DUP2 JUMP JUMPDEST PUSH1 0x0 PUSH1 0x1 PUSH1 0x1 PUSH1 0xA0 SHL SUB DUP3 AND PUSH2 0xF4F JUMPI PUSH1 0x40 MLOAD PUSH3 0x461BCD PUSH1 0xE5 SHL DUP2 MSTORE PUSH1 0x20 PUSH1 0x4 DUP3 ADD MSTORE PUSH1 0x2A PUSH1 0x24 DUP3 ADD MSTORE PUSH32 0x4552433732313A2062616C616E636520717565727920666F7220746865207A65 PUSH1 0x44 DUP3 ADD MSTORE PUSH10 0x726F2061646472657373 PUSH1 0xB0 SHL PUSH1 0x64 DUP3 ADD MSTORE PUSH1 0x84 ADD PUSH2 0x7B5 JUMP JUMPDEST POP PUSH1 0x1 PUSH1 0x1 PUSH1 0xA0 SHL SUB AND PUSH1 0x0 SWAP1 DUP2 MSTORE PUSH1 0x3 PUSH1 0x20 MSTORE PUSH1 0x40 SWAP1 KECCAK256 SLOAD SWAP1 JUMP JUMPDEST PUSH1 0xA SLOAD PUSH1 0x1 PUSH1 0x1 PUSH1 0xA0 SHL SUB AND CALLER EQ PUSH2 0xF95 JUMPI PUSH1 0x40 MLOAD PUSH3 0x461BCD PUSH1 0xE5 SHL DUP2 MSTORE PUSH1 0x4 ADD PUSH2 0x7B5 SWAP1 PUSH2 0x24E4 JUMP JUMPDEST PUSH2 0xF9F PUSH1 0x0 PUSH2 0x197B JUMP JUMPDEST JUMP JUMPDEST PUSH1 0xA SLOAD PUSH1 0x1 PUSH1 0x1 PUSH1 0xA0 SHL SUB AND CALLER EQ PUSH2 0xFCB JUMPI PUSH1 0x40 MLOAD PUSH3 0x461BCD PUSH1 0xE5 SHL DUP2 MSTORE PUSH1 0x4 ADD PUSH2 0x7B5 SWAP1 PUSH2 0x24E4 JUMP JUMPDEST PUSH1 0xF SSTORE JUMP JUMPDEST PUSH1 0x60 PUSH1 0x1 DUP1 SLOAD PUSH2 0x7E0 SWAP1 PUSH2 0x2519 JUMP JUMPDEST PUSH1 0x11 SLOAD PUSH1 0xFF AND ISZERO PUSH2 0x102B JUMPI PUSH1 0x40 MLOAD PUSH3 0x461BCD PUSH1 0xE5 SHL DUP2 MSTORE PUSH1 0x20 PUSH1 0x4 DUP3 ADD MSTORE PUSH1 0x16 PUSH1 0x24 DUP3 ADD MSTORE PUSH22 0x1D1A194818DBDB9D1C9858DD081A5CC81C185D5CD959 PUSH1 0x52 SHL PUSH1 0x44 DUP3 ADD MSTORE PUSH1 0x64 ADD PUSH2 0x7B5 JUMP JUMPDEST PUSH1 0x0 PUSH2 0x1036 PUSH1 0x8 SLOAD SWAP1 JUMP JUMPDEST SWAP1 POP PUSH1 0x0 DUP3 GT PUSH2 0x1088 JUMPI PUSH1 0x40 MLOAD PUSH3 0x461BCD PUSH1 0xE5 SHL DUP2 MSTORE PUSH1 0x20 PUSH1 0x4 DUP3 ADD MSTORE PUSH1 0x1B PUSH1 0x24 DUP3 ADD MSTORE PUSH32 0x6E65656420746F206D696E74206174206C656173742031204E46540000000000 PUSH1 0x44 DUP3 ADD MSTORE PUSH1 0x64 ADD PUSH2 0x7B5 JUMP JUMPDEST PUSH1 0xF SLOAD DUP3 GT ISZERO PUSH2 0x10E6 JUMPI PUSH1 0x40 MLOAD PUSH3 0x461BCD PUSH1 0xE5 SHL DUP2 MSTORE PUSH1 0x20 PUSH1 0x4 DUP3 ADD MSTORE PUSH1 0x24 DUP1 DUP3 ADD MSTORE PUSH32 0x6D6178206D696E7420616D6F756E74207065722073657373696F6E2065786365 PUSH1 0x44 DUP3 ADD MSTORE PUSH4 0x19591959 PUSH1 0xE2 SHL PUSH1 0x64 DUP3 ADD MSTORE PUSH1 0x84 ADD PUSH2 0x7B5 JUMP JUMPDEST PUSH1 0xE SLOAD PUSH2 0x10F3 DUP4 DUP4 PUSH2 0x25E9 JUMP JUMPDEST GT ISZERO PUSH2 0x113A JUMPI PUSH1 0x40 MLOAD PUSH3 0x461BCD PUSH1 0xE5 SHL DUP2 MSTORE PUSH1 0x20 PUSH1 0x4 DUP3 ADD MSTORE PUSH1 0x16 PUSH1 0x24 DUP3 ADD MSTORE PUSH22 0x1B585E08139195081B1A5B5A5D08195E18D959591959 PUSH1 0x52 SHL PUSH1 0x44 DUP3 ADD MSTORE PUSH1 0x64 ADD PUSH2 0x7B5 JUMP JUMPDEST PUSH1 0xA SLOAD PUSH1 0x1 PUSH1 0x1 PUSH1 0xA0 SHL SUB AND CALLER EQ PUSH2 0x1274 JUMPI PUSH1 0x11 SLOAD PUSH2 0x100 SWAP1 DIV PUSH1 0xFF AND ISZERO ISZERO PUSH1 0x1 SUB PUSH2 0x1222 JUMPI PUSH2 0x1169 CALLER PUSH2 0xAD4 JUMP JUMPDEST PUSH2 0x11B5 JUMPI PUSH1 0x40 MLOAD PUSH3 0x461BCD PUSH1 0xE5 SHL DUP2 MSTORE PUSH1 0x20 PUSH1 0x4 DUP3 ADD MSTORE PUSH1 0x17 PUSH1 0x24 DUP3 ADD MSTORE PUSH32 0x75736572206973206E6F742077686974656C6973746564000000000000000000 PUSH1 0x44 DUP3 ADD MSTORE PUSH1 0x64 ADD PUSH2 0x7B5 JUMP JUMPDEST CALLER PUSH1 0x0 SWAP1 DUP2 MSTORE PUSH1 0x13 PUSH1 0x20 MSTORE PUSH1 0x40 SWAP1 KECCAK256 SLOAD PUSH1 0x10 SLOAD PUSH2 0x11D2 DUP5 DUP4 PUSH2 0x25E9 JUMP JUMPDEST GT ISZERO PUSH2 0x1220 JUMPI PUSH1 0x40 MLOAD PUSH3 0x461BCD PUSH1 0xE5 SHL DUP2 MSTORE PUSH1 0x20 PUSH1 0x4 DUP3 ADD MSTORE PUSH1 0x1C PUSH1 0x24 DUP3 ADD MSTORE PUSH32 0x6D6178204E465420706572206164647265737320657863656564656400000000 PUSH1 0x44 DUP3 ADD MSTORE PUSH1 0x64 ADD PUSH2 0x7B5 JUMP JUMPDEST POP JUMPDEST DUP2 PUSH1 0xD SLOAD PUSH2 0x1230 SWAP2 SWAP1 PUSH2 0x2601 JUMP JUMPDEST CALLVALUE LT ISZERO PUSH2 0x1274 JUMPI PUSH1 0x40 MLOAD PUSH3 0x461BCD PUSH1 0xE5 SHL DUP2 MSTORE PUSH1 0x20 PUSH1 0x4 DUP3 ADD MSTORE PUSH1 0x12 PUSH1 0x24 DUP3 ADD MSTORE PUSH18 0x696E73756666696369656E742066756E6473 PUSH1 0x70 SHL PUSH1 0x44 DUP3 ADD MSTORE PUSH1 0x64 ADD PUSH2 0x7B5 JUMP JUMPDEST PUSH1 0x1 JUMPDEST DUP3 DUP2 GT PUSH2 0xA08 JUMPI CALLER PUSH1 0x0 SWAP1 DUP2 MSTORE PUSH1 0x13 PUSH1 0x20 MSTORE PUSH1 0x40 DUP2 KECCAK256 DUP1 SLOAD SWAP2 PUSH2 0x1299 DUP4 PUSH2 0x25D0 JUMP JUMPDEST SWAP1 SWAP2 SSTORE POP PUSH2 0x12B2 SWAP1 POP CALLER PUSH2 0x12AD DUP4 DUP6 PUSH2 0x25E9 JUMP JUMPDEST PUSH2 0x19CD JUMP JUMPDEST DUP1 PUSH2 0x12BC DUP2 PUSH2 0x25D0 JUMP JUMPDEST SWAP2 POP POP PUSH2 0x1277 JUMP JUMPDEST CALLER PUSH1 0x1 PUSH1 0x1 PUSH1 0xA0 SHL SUB DUP4 AND SUB PUSH2 0x131C JUMPI PUSH1 0x40 MLOAD PUSH3 0x461BCD PUSH1 0xE5 SHL DUP2 MSTORE PUSH1 0x20 PUSH1 0x4 DUP3 ADD MSTORE PUSH1 0x19 PUSH1 0x24 DUP3 ADD MSTORE PUSH32 0x4552433732313A20617070726F766520746F2063616C6C657200000000000000 PUSH1 0x44 DUP3 ADD MSTORE PUSH1 0x64 ADD PUSH2 0x7B5 JUMP JUMPDEST CALLER PUSH1 0x0 DUP2 DUP2 MSTORE PUSH1 0x5 PUSH1 0x20 SWAP1 DUP2 MSTORE PUSH1 0x40 DUP1 DUP4 KECCAK256 PUSH1 0x1 PUSH1 0x1 PUSH1 0xA0 SHL SUB DUP8 AND DUP1 DUP6 MSTORE SWAP1 DUP4 MSTORE SWAP3 DUP2 SWAP1 KECCAK256 DUP1 SLOAD PUSH1 0xFF NOT AND DUP7 ISZERO ISZERO SWAP1 DUP2 OR SWAP1 SWAP2 SSTORE SWAP1 MLOAD SWAP1 DUP2 MSTORE SWAP2 SWAP3 SWAP2 PUSH32 0x17307EAB39AB6107E8899845AD3D59BD9653F200F220920489CA2B5937696C31 SWAP2 ADD PUSH1 0x40 MLOAD DUP1 SWAP2 SUB SWAP1 LOG3 POP POP JUMP JUMPDEST PUSH2 0x1392 CALLER DUP4 PUSH2 0x16D9 JUMP JUMPDEST PUSH2 0x13AE JUMPI PUSH1 0x40 MLOAD PUSH3 0x461BCD PUSH1 0xE5 SHL DUP2 MSTORE PUSH1 0x4 ADD PUSH2 0x7B5 SWAP1 PUSH2 0x2553 JUMP JUMPDEST PUSH2 0x13BA DUP5 DUP5 DUP5 DUP5 PUSH2 0x19E7 JUMP JUMPDEST POP POP POP POP JUMP JUMPDEST PUSH1 0x12 DUP2 DUP2 SLOAD DUP2 LT PUSH2 0x13D0 JUMPI PUSH1 0x0 DUP1 REVERT JUMPDEST PUSH1 0x0 SWAP2 DUP3 MSTORE PUSH1 0x20 SWAP1 SWAP2 KECCAK256 ADD SLOAD PUSH1 0x1 PUSH1 0x1 PUSH1 0xA0 SHL SUB AND SWAP1 POP DUP2 JUMP JUMPDEST PUSH1 0xC DUP1 SLOAD PUSH2 0xE63 SWAP1 PUSH2 0x2519 JUMP JUMPDEST PUSH1 0x0 DUP2 DUP2 MSTORE PUSH1 0x2 PUSH1 0x20 MSTORE PUSH1 0x40 SWAP1 KECCAK256 SLOAD PUSH1 0x60 SWAP1 PUSH1 0x1 PUSH1 0x1 PUSH1 0xA0 SHL SUB AND PUSH2 0x1476 JUMPI PUSH1 0x40 MLOAD PUSH3 0x461BCD PUSH1 0xE5 SHL DUP2 MSTORE PUSH1 0x20 PUSH1 0x4 DUP3 ADD MSTORE PUSH1 0x2F PUSH1 0x24 DUP3 ADD MSTORE PUSH32 0x4552433732314D657461646174613A2055524920717565727920666F72206E6F PUSH1 0x44 DUP3 ADD MSTORE PUSH15 0x3732BC34B9BA32B73A103A37B5B2B7 PUSH1 0x89 SHL PUSH1 0x64 DUP3 ADD MSTORE PUSH1 0x84 ADD PUSH2 0x7B5 JUMP JUMPDEST PUSH1 0x0 PUSH2 0x1480 PUSH2 0x1A1A JUMP JUMPDEST SWAP1 POP PUSH1 0x0 DUP2 MLOAD GT PUSH2 0x14A0 JUMPI PUSH1 0x40 MLOAD DUP1 PUSH1 0x20 ADD PUSH1 0x40 MSTORE DUP1 PUSH1 0x0 DUP2 MSTORE POP PUSH2 0x14CE JUMP JUMPDEST DUP1 PUSH2 0x14AA DUP5 PUSH2 0x1A29 JUMP JUMPDEST PUSH1 0xC PUSH1 0x40 MLOAD PUSH1 0x20 ADD PUSH2 0x14BE SWAP4 SWAP3 SWAP2 SWAP1 PUSH2 0x2620 JUMP JUMPDEST PUSH1 0x40 MLOAD PUSH1 0x20 DUP2 DUP4 SUB SUB DUP2 MSTORE SWAP1 PUSH1 0x40 MSTORE JUMPDEST SWAP4 SWAP3 POP POP POP JUMP JUMPDEST PUSH1 0xA SLOAD PUSH1 0x1 PUSH1 0x1 PUSH1 0xA0 SHL SUB AND CALLER EQ PUSH2 0x14FF JUMPI PUSH1 0x40 MLOAD PUSH3 0x461BCD PUSH1 0xE5 SHL DUP2 MSTORE PUSH1 0x4 ADD PUSH2 0x7B5 SWAP1 PUSH2 0x24E4 JUMP JUMPDEST PUSH1 0x10 SSTORE JUMP JUMPDEST PUSH1 0xA SLOAD PUSH1 0x1 PUSH1 0x1 PUSH1 0xA0 SHL SUB AND CALLER EQ PUSH2 0x152E JUMPI PUSH1 0x40 MLOAD PUSH3 0x461BCD PUSH1 0xE5 SHL DUP2 MSTORE PUSH1 0x4 ADD PUSH2 0x7B5 SWAP1 PUSH2 0x24E4 JUMP JUMPDEST DUP1 MLOAD PUSH2 0xDDB SWAP1 PUSH1 0xC SWAP1 PUSH1 0x20 DUP5 ADD SWAP1 PUSH2 0x1FF4 JUMP JUMPDEST PUSH1 0xA SLOAD PUSH1 0x1 PUSH1 0x1 PUSH1 0xA0 SHL SUB AND CALLER EQ PUSH2 0x156B JUMPI PUSH1 0x40 MLOAD PUSH3 0x461BCD PUSH1 0xE5 SHL DUP2 MSTORE PUSH1 0x4 ADD PUSH2 0x7B5 SWAP1 PUSH2 0x24E4 JUMP JUMPDEST PUSH2 0x1577 PUSH1 0x12 PUSH1 0x0 PUSH2 0x2078 JUMP JUMPDEST PUSH2 0xA08 PUSH1 0x12 DUP4 DUP4 PUSH2 0x2096 JUMP JUMPDEST PUSH1 0xA SLOAD PUSH1 0x1 PUSH1 0x1 PUSH1 0xA0 SHL SUB AND CALLER EQ PUSH2 0x15AD JUMPI PUSH1 0x40 MLOAD PUSH3 0x461BCD PUSH1 0xE5 SHL DUP2 MSTORE PUSH1 0x4 ADD PUSH2 0x7B5 SWAP1 PUSH2 0x24E4 JUMP JUMPDEST PUSH1 0x1 PUSH1 0x1 PUSH1 0xA0 SHL SUB DUP2 AND PUSH2 0x1612 JUMPI PUSH1 0x40 MLOAD PUSH3 0x461BCD PUSH1 0xE5 SHL DUP2 MSTORE PUSH1 0x20 PUSH1 0x4 DUP3 ADD MSTORE PUSH1 0x26 PUSH1 0x24 DUP3 ADD MSTORE PUSH32 0x4F776E61626C653A206E6577206F776E657220697320746865207A65726F2061 PUSH1 0x44 DUP3 ADD MSTORE PUSH6 0x646472657373 PUSH1 0xD0 SHL PUSH1 0x64 DUP3 ADD MSTORE PUSH1 0x84 ADD PUSH2 0x7B5 JUMP JUMPDEST PUSH2 0xC1C DUP2 PUSH2 0x197B JUMP JUMPDEST PUSH1 0x0 PUSH1 0x1 PUSH1 0x1 PUSH1 0xE0 SHL SUB NOT DUP3 AND PUSH4 0x80AC58CD PUSH1 0xE0 SHL EQ DUP1 PUSH2 0x164C JUMPI POP PUSH1 0x1 PUSH1 0x1 PUSH1 0xE0 SHL SUB NOT DUP3 AND PUSH4 0x5B5E139F PUSH1 0xE0 SHL EQ JUMPDEST DUP1 PUSH2 0x785 JUMPI POP PUSH4 0x1FFC9A7 PUSH1 0xE0 SHL PUSH1 0x1 PUSH1 0x1 PUSH1 0xE0 SHL SUB NOT DUP4 AND EQ PUSH2 0x785 JUMP JUMPDEST PUSH1 0x0 DUP2 DUP2 MSTORE PUSH1 0x4 PUSH1 0x20 MSTORE PUSH1 0x40 SWAP1 KECCAK256 DUP1 SLOAD PUSH1 0x1 PUSH1 0x1 PUSH1 0xA0 SHL SUB NOT AND PUSH1 0x1 PUSH1 0x1 PUSH1 0xA0 SHL SUB DUP5 AND SWAP1 DUP2 OR SWAP1 SWAP2 SSTORE DUP2 SWAP1 PUSH2 0x16A0 DUP3 PUSH2 0xDDF JUMP JUMPDEST PUSH1 0x1 PUSH1 0x1 PUSH1 0xA0 SHL SUB AND PUSH32 0x8C5BE1E5EBEC7D5BD14F71427D1E84F3DD0314C0F7B2291E5B200AC8C7C3B925 PUSH1 0x40 MLOAD PUSH1 0x40 MLOAD DUP1 SWAP2 SUB SWAP1 LOG4 POP POP JUMP JUMPDEST PUSH1 0x0 DUP2 DUP2 MSTORE PUSH1 0x2 PUSH1 0x20 MSTORE PUSH1 0x40 DUP2 KECCAK256 SLOAD PUSH1 0x1 PUSH1 0x1 PUSH1 0xA0 SHL SUB AND PUSH2 0x1752 JUMPI PUSH1 0x40 MLOAD PUSH3 0x461BCD PUSH1 0xE5 SHL DUP2 MSTORE PUSH1 0x20 PUSH1 0x4 DUP3 ADD MSTORE PUSH1 0x2C PUSH1 0x24 DUP3 ADD MSTORE PUSH32 0x4552433732313A206F70657261746F7220717565727920666F72206E6F6E6578 PUSH1 0x44 DUP3 ADD MSTORE PUSH12 0x34B9BA32B73A103A37B5B2B7 PUSH1 0xA1 SHL PUSH1 0x64 DUP3 ADD MSTORE PUSH1 0x84 ADD PUSH2 0x7B5 JUMP JUMPDEST PUSH1 0x0 PUSH2 0x175D DUP4 PUSH2 0xDDF JUMP JUMPDEST SWAP1 POP DUP1 PUSH1 0x1 PUSH1 0x1 PUSH1 0xA0 SHL SUB AND DUP5 PUSH1 0x1 PUSH1 0x1 PUSH1 0xA0 SHL SUB AND EQ DUP1 PUSH2 0x1798 JUMPI POP DUP4 PUSH1 0x1 PUSH1 0x1 PUSH1 0xA0 SHL SUB AND PUSH2 0x178D DUP5 PUSH2 0x863 JUMP JUMPDEST PUSH1 0x1 PUSH1 0x1 PUSH1 0xA0 SHL SUB AND EQ JUMPDEST DUP1 PUSH2 0x17C8 JUMPI POP PUSH1 0x1 PUSH1 0x1 PUSH1 0xA0 SHL SUB DUP1 DUP3 AND PUSH1 0x0 SWAP1 DUP2 MSTORE PUSH1 0x5 PUSH1 0x20 SWAP1 DUP2 MSTORE PUSH1 0x40 DUP1 DUP4 KECCAK256 SWAP4 DUP9 AND DUP4 MSTORE SWAP3 SWAP1 MSTORE KECCAK256 SLOAD PUSH1 0xFF AND JUMPDEST SWAP5 SWAP4 POP POP POP POP JUMP JUMPDEST DUP3 PUSH1 0x1 PUSH1 0x1 PUSH1 0xA0 SHL SUB AND PUSH2 0x17E3 DUP3 PUSH2 0xDDF JUMP JUMPDEST PUSH1 0x1 PUSH1 0x1 PUSH1 0xA0 SHL SUB AND EQ PUSH2 0x184B JUMPI PUSH1 0x40 MLOAD PUSH3 0x461BCD PUSH1 0xE5 SHL DUP2 MSTORE PUSH1 0x20 PUSH1 0x4 DUP3 ADD MSTORE PUSH1 0x29 PUSH1 0x24 DUP3 ADD MSTORE PUSH32 0x4552433732313A207472616E73666572206F6620746F6B656E20746861742069 PUSH1 0x44 DUP3 ADD MSTORE PUSH9 0x39903737BA1037BBB7 PUSH1 0xB9 SHL PUSH1 0x64 DUP3 ADD MSTORE PUSH1 0x84 ADD PUSH2 0x7B5 JUMP JUMPDEST PUSH1 0x1 PUSH1 0x1 PUSH1 0xA0 SHL SUB DUP3 AND PUSH2 0x18AD JUMPI PUSH1 0x40 MLOAD PUSH3 0x461BCD PUSH1 0xE5 SHL DUP2 MSTORE PUSH1 0x20 PUSH1 0x4 DUP3 ADD MSTORE PUSH1 0x24 DUP1 DUP3 ADD MSTORE PUSH32 0x4552433732313A207472616E7366657220746F20746865207A65726F20616464 PUSH1 0x44 DUP3 ADD MSTORE PUSH4 0x72657373 PUSH1 0xE0 SHL PUSH1 0x64 DUP3 ADD MSTORE PUSH1 0x84 ADD PUSH2 0x7B5 JUMP JUMPDEST PUSH2 0x18B8 DUP4 DUP4 DUP4 PUSH2 0x1B2A JUMP JUMPDEST PUSH2 0x18C3 PUSH1 0x0 DUP3 PUSH2 0x166B JUMP JUMPDEST PUSH1 0x1 PUSH1 0x1 PUSH1 0xA0 SHL SUB DUP4 AND PUSH1 0x0 SWAP1 DUP2 MSTORE PUSH1 0x3 PUSH1 0x20 MSTORE PUSH1 0x40 DUP2 KECCAK256 DUP1 SLOAD PUSH1 0x1 SWAP3 SWAP1 PUSH2 0x18EC SWAP1 DUP5 SWAP1 PUSH2 0x26E3 JUMP JUMPDEST SWAP1 SWAP2 SSTORE POP POP PUSH1 0x1 PUSH1 0x1 PUSH1 0xA0 SHL SUB DUP3 AND PUSH1 0x0 SWAP1 DUP2 MSTORE PUSH1 0x3 PUSH1 0x20 MSTORE PUSH1 0x40 DUP2 KECCAK256 DUP1 SLOAD PUSH1 0x1 SWAP3 SWAP1 PUSH2 0x191A SWAP1 DUP5 SWAP1 PUSH2 0x25E9 JUMP JUMPDEST SWAP1 SWAP2 SSTORE POP POP PUSH1 0x0 DUP2 DUP2 MSTORE PUSH1 0x2 PUSH1 0x20 MSTORE PUSH1 0x40 DUP1 DUP3 KECCAK256 DUP1 SLOAD PUSH1 0x1 PUSH1 0x1 PUSH1 0xA0 SHL SUB NOT AND PUSH1 0x1 PUSH1 0x1 PUSH1 0xA0 SHL SUB DUP7 DUP2 AND SWAP2 DUP3 OR SWAP1 SWAP3 SSTORE SWAP2 MLOAD DUP5 SWAP4 SWAP2 DUP8 AND SWAP2 PUSH32 0xDDF252AD1BE2C89B69C2B068FC378DAA952BA7F163C4A11628F55A4DF523B3EF SWAP2 LOG4 POP POP POP JUMP JUMPDEST PUSH1 0xA DUP1 SLOAD PUSH1 0x1 PUSH1 0x1 PUSH1 0xA0 SHL SUB DUP4 DUP2 AND PUSH1 0x1 PUSH1 0x1 PUSH1 0xA0 SHL SUB NOT DUP4 AND DUP2 OR SWAP1 SWAP4 SSTORE PUSH1 0x40 MLOAD SWAP2 AND SWAP2 SWAP1 DUP3 SWAP1 PUSH32 0x8BE0079C531659141344CD1FD0A4F28419497F9722A3DAAFE3B4186F6B6457E0 SWAP1 PUSH1 0x0 SWAP1 LOG3 POP POP JUMP JUMPDEST PUSH2 0xDDB DUP3 DUP3 PUSH1 0x40 MLOAD DUP1 PUSH1 0x20 ADD PUSH1 0x40 MSTORE DUP1 PUSH1 0x0 DUP2 MSTORE POP PUSH2 0x1BE2 JUMP JUMPDEST PUSH2 0x19F2 DUP5 DUP5 DUP5 PUSH2 0x17D0 JUMP JUMPDEST PUSH2 0x19FE DUP5 DUP5 DUP5 DUP5 PUSH2 0x1C15 JUMP JUMPDEST PUSH2 0x13BA JUMPI PUSH1 0x40 MLOAD PUSH3 0x461BCD PUSH1 0xE5 SHL DUP2 MSTORE PUSH1 0x4 ADD PUSH2 0x7B5 SWAP1 PUSH2 0x26FA JUMP JUMPDEST PUSH1 0x60 PUSH1 0xB DUP1 SLOAD PUSH2 0x7E0 SWAP1 PUSH2 0x2519 JUMP JUMPDEST PUSH1 0x60 DUP2 PUSH1 0x0 SUB PUSH2 0x1A50 JUMPI POP POP PUSH1 0x40 DUP1 MLOAD DUP1 DUP3 ADD SWAP1 SWAP2 MSTORE PUSH1 0x1 DUP2 MSTORE PUSH1 0x3 PUSH1 0xFC SHL PUSH1 0x20 DUP3 ADD MSTORE SWAP1 JUMP JUMPDEST DUP2 PUSH1 0x0 JUMPDEST DUP2 ISZERO PUSH2 0x1A7A JUMPI DUP1 PUSH2 0x1A64 DUP2 PUSH2 0x25D0 JUMP JUMPDEST SWAP2 POP PUSH2 0x1A73 SWAP1 POP PUSH1 0xA DUP4 PUSH2 0x2762 JUMP JUMPDEST SWAP2 POP PUSH2 0x1A54 JUMP JUMPDEST PUSH1 0x0 DUP2 PUSH8 0xFFFFFFFFFFFFFFFF DUP2 GT ISZERO PUSH2 0x1A95 JUMPI PUSH2 0x1A95 PUSH2 0x22C1 JUMP JUMPDEST PUSH1 0x40 MLOAD SWAP1 DUP1 DUP3 MSTORE DUP1 PUSH1 0x1F ADD PUSH1 0x1F NOT AND PUSH1 0x20 ADD DUP3 ADD PUSH1 0x40 MSTORE DUP1 ISZERO PUSH2 0x1ABF JUMPI PUSH1 0x20 DUP3 ADD DUP2 DUP1 CALLDATASIZE DUP4 CALLDATACOPY ADD SWAP1 POP JUMPDEST POP SWAP1 POP JUMPDEST DUP5 ISZERO PUSH2 0x17C8 JUMPI PUSH2 0x1AD4 PUSH1 0x1 DUP4 PUSH2 0x26E3 JUMP JUMPDEST SWAP2 POP PUSH2 0x1AE1 PUSH1 0xA DUP7 PUSH2 0x2776 JUMP JUMPDEST PUSH2 0x1AEC SWAP1 PUSH1 0x30 PUSH2 0x25E9 JUMP JUMPDEST PUSH1 0xF8 SHL DUP2 DUP4 DUP2 MLOAD DUP2 LT PUSH2 0x1B01 JUMPI PUSH2 0x1B01 PUSH2 0x25A4 JUMP JUMPDEST PUSH1 0x20 ADD ADD SWAP1 PUSH1 0x1 PUSH1 0x1 PUSH1 0xF8 SHL SUB NOT AND SWAP1 DUP2 PUSH1 0x0 BYTE SWAP1 MSTORE8 POP PUSH2 0x1B23 PUSH1 0xA DUP7 PUSH2 0x2762 JUMP JUMPDEST SWAP5 POP PUSH2 0x1AC3 JUMP JUMPDEST PUSH1 0x1 PUSH1 0x1 PUSH1 0xA0 SHL SUB DUP4 AND PUSH2 0x1B85 JUMPI PUSH2 0x1B80 DUP2 PUSH1 0x8 DUP1 SLOAD PUSH1 0x0 DUP4 DUP2 MSTORE PUSH1 0x9 PUSH1 0x20 MSTORE PUSH1 0x40 DUP2 KECCAK256 DUP3 SWAP1 SSTORE PUSH1 0x1 DUP3 ADD DUP4 SSTORE SWAP2 SWAP1 SWAP2 MSTORE PUSH32 0xF3F7A9FE364FAAB93B216DA50A3214154F22A0A2B415B23A84C8169E8B636EE3 ADD SSTORE JUMP JUMPDEST PUSH2 0x1BA8 JUMP JUMPDEST DUP2 PUSH1 0x1 PUSH1 0x1 PUSH1 0xA0 SHL SUB AND DUP4 PUSH1 0x1 PUSH1 0x1 PUSH1 0xA0 SHL SUB AND EQ PUSH2 0x1BA8 JUMPI PUSH2 0x1BA8 DUP4 DUP3 PUSH2 0x1D16 JUMP JUMPDEST PUSH1 0x1 PUSH1 0x1 PUSH1 0xA0 SHL SUB DUP3 AND PUSH2 0x1BBF JUMPI PUSH2 0xA08 DUP2 PUSH2 0x1DB3 JUMP JUMPDEST DUP3 PUSH1 0x1 PUSH1 0x1 PUSH1 0xA0 SHL SUB AND DUP3 PUSH1 0x1 PUSH1 0x1 PUSH1 0xA0 SHL SUB AND EQ PUSH2 0xA08 JUMPI PUSH2 0xA08 DUP3 DUP3 PUSH2 0x1E62 JUMP JUMPDEST PUSH2 0x1BEC DUP4 DUP4 PUSH2 0x1EA6 JUMP JUMPDEST PUSH2 0x1BF9 PUSH1 0x0 DUP5 DUP5 DUP5 PUSH2 0x1C15 JUMP JUMPDEST PUSH2 0xA08 JUMPI PUSH1 0x40 MLOAD PUSH3 0x461BCD PUSH1 0xE5 SHL DUP2 MSTORE PUSH1 0x4 ADD PUSH2 0x7B5 SWAP1 PUSH2 0x26FA JUMP JUMPDEST PUSH1 0x0 PUSH1 0x1 PUSH1 0x1 PUSH1 0xA0 SHL SUB DUP5 AND EXTCODESIZE ISZERO PUSH2 0x1D0B JUMPI PUSH1 0x40 MLOAD PUSH4 0xA85BD01 PUSH1 0xE1 SHL DUP2 MSTORE PUSH1 0x1 PUSH1 0x1 PUSH1 0xA0 SHL SUB DUP6 AND SWAP1 PUSH4 0x150B7A02 SWAP1 PUSH2 0x1C59 SWAP1 CALLER SWAP1 DUP10 SWAP1 DUP9 SWAP1 DUP9 SWAP1 PUSH1 0x4 ADD PUSH2 0x278A JUMP JUMPDEST PUSH1 0x20 PUSH1 0x40 MLOAD DUP1 DUP4 SUB DUP2 PUSH1 0x0 DUP8 GAS CALL SWAP3 POP POP POP DUP1 ISZERO PUSH2 0x1C94 JUMPI POP PUSH1 0x40 DUP1 MLOAD PUSH1 0x1F RETURNDATASIZE SWAP1 DUP2 ADD PUSH1 0x1F NOT AND DUP3 ADD SWAP1 SWAP3 MSTORE PUSH2 0x1C91 SWAP2 DUP2 ADD SWAP1 PUSH2 0x27C7 JUMP JUMPDEST PUSH1 0x1 JUMPDEST PUSH2 0x1CF1 JUMPI RETURNDATASIZE DUP1 DUP1 ISZERO PUSH2 0x1CC2 JUMPI PUSH1 0x40 MLOAD SWAP2 POP PUSH1 0x1F NOT PUSH1 0x3F RETURNDATASIZE ADD AND DUP3 ADD PUSH1 0x40 MSTORE RETURNDATASIZE DUP3 MSTORE RETURNDATASIZE PUSH1 0x0 PUSH1 0x20 DUP5 ADD RETURNDATACOPY PUSH2 0x1CC7 JUMP JUMPDEST PUSH1 0x60 SWAP2 POP JUMPDEST POP DUP1 MLOAD PUSH1 0x0 SUB PUSH2 0x1CE9 JUMPI PUSH1 0x40 MLOAD PUSH3 0x461BCD PUSH1 0xE5 SHL DUP2 MSTORE PUSH1 0x4 ADD PUSH2 0x7B5 SWAP1 PUSH2 0x26FA JUMP JUMPDEST DUP1 MLOAD DUP2 PUSH1 0x20 ADD REVERT JUMPDEST PUSH1 0x1 PUSH1 0x1 PUSH1 0xE0 SHL SUB NOT AND PUSH4 0xA85BD01 PUSH1 0xE1 SHL EQ SWAP1 POP PUSH2 0x17C8 JUMP JUMPDEST POP PUSH1 0x1 SWAP5 SWAP4 POP POP POP POP JUMP JUMPDEST PUSH1 0x0 PUSH1 0x1 PUSH2 0x1D23 DUP5 PUSH2 0xEE4 JUMP JUMPDEST PUSH2 0x1D2D SWAP2 SWAP1 PUSH2 0x26E3 JUMP JUMPDEST PUSH1 0x0 DUP4 DUP2 MSTORE PUSH1 0x7 PUSH1 0x20 MSTORE PUSH1 0x40 SWAP1 KECCAK256 SLOAD SWAP1 SWAP2 POP DUP1 DUP3 EQ PUSH2 0x1D80 JUMPI PUSH1 0x1 PUSH1 0x1 PUSH1 0xA0 SHL SUB DUP5 AND PUSH1 0x0 SWAP1 DUP2 MSTORE PUSH1 0x6 PUSH1 0x20 SWAP1 DUP2 MSTORE PUSH1 0x40 DUP1 DUP4 KECCAK256 DUP6 DUP5 MSTORE DUP3 MSTORE DUP1 DUP4 KECCAK256 SLOAD DUP5 DUP5 MSTORE DUP2 DUP5 KECCAK256 DUP2 SWAP1 SSTORE DUP4 MSTORE PUSH1 0x7 SWAP1 SWAP2 MSTORE SWAP1 KECCAK256 DUP2 SWAP1 SSTORE JUMPDEST POP PUSH1 0x0 SWAP2 DUP3 MSTORE PUSH1 0x7 PUSH1 0x20 SWAP1 DUP2 MSTORE PUSH1 0x40 DUP1 DUP5 KECCAK256 DUP5 SWAP1 SSTORE PUSH1 0x1 PUSH1 0x1 PUSH1 0xA0 SHL SUB SWAP1 SWAP5 AND DUP4 MSTORE PUSH1 0x6 DUP2 MSTORE DUP4 DUP4 KECCAK256 SWAP2 DUP4 MSTORE MSTORE SWAP1 DUP2 KECCAK256 SSTORE JUMP JUMPDEST PUSH1 0x8 SLOAD PUSH1 0x0 SWAP1 PUSH2 0x1DC5 SWAP1 PUSH1 0x1 SWAP1 PUSH2 0x26E3 JUMP JUMPDEST PUSH1 0x0 DUP4 DUP2 MSTORE PUSH1 0x9 PUSH1 0x20 MSTORE PUSH1 0x40 DUP2 KECCAK256 SLOAD PUSH1 0x8 DUP1 SLOAD SWAP4 SWAP5 POP SWAP1 SWAP3 DUP5 SWAP1 DUP2 LT PUSH2 0x1DED JUMPI PUSH2 0x1DED PUSH2 0x25A4 JUMP JUMPDEST SWAP1 PUSH1 0x0 MSTORE PUSH1 0x20 PUSH1 0x0 KECCAK256 ADD SLOAD SWAP1 POP DUP1 PUSH1 0x8 DUP4 DUP2 SLOAD DUP2 LT PUSH2 0x1E0E JUMPI PUSH2 0x1E0E PUSH2 0x25A4 JUMP JUMPDEST PUSH1 0x0 SWAP2 DUP3 MSTORE PUSH1 0x20 DUP1 DUP4 KECCAK256 SWAP1 SWAP2 ADD SWAP3 SWAP1 SWAP3 SSTORE DUP3 DUP2 MSTORE PUSH1 0x9 SWAP1 SWAP2 MSTORE PUSH1 0x40 DUP1 DUP3 KECCAK256 DUP5 SWAP1 SSTORE DUP6 DUP3 MSTORE DUP2 KECCAK256 SSTORE PUSH1 0x8 DUP1 SLOAD DUP1 PUSH2 0x1E46 JUMPI PUSH2 0x1E46 PUSH2 0x27E4 JUMP JUMPDEST PUSH1 0x1 SWAP1 SUB DUP2 DUP2 SWAP1 PUSH1 0x0 MSTORE PUSH1 0x20 PUSH1 0x0 KECCAK256 ADD PUSH1 0x0 SWAP1 SSTORE SWAP1 SSTORE POP POP POP POP JUMP JUMPDEST PUSH1 0x0 PUSH2 0x1E6D DUP4 PUSH2 0xEE4 JUMP JUMPDEST PUSH1 0x1 PUSH1 0x1 PUSH1 0xA0 SHL SUB SWAP1 SWAP4 AND PUSH1 0x0 SWAP1 DUP2 MSTORE PUSH1 0x6 PUSH1 0x20 SWAP1 DUP2 MSTORE PUSH1 0x40 DUP1 DUP4 KECCAK256 DUP7 DUP5 MSTORE DUP3 MSTORE DUP1 DUP4 KECCAK256 DUP6 SWAP1 SSTORE SWAP4 DUP3 MSTORE PUSH1 0x7 SWAP1 MSTORE SWAP2 SWAP1 SWAP2 KECCAK256 SWAP2 SWAP1 SWAP2 SSTORE POP JUMP JUMPDEST PUSH1 0x1 PUSH1 0x1 PUSH1 0xA0 SHL SUB DUP3 AND PUSH2 0x1EFC JUMPI PUSH1 0x40 MLOAD PUSH3 0x461BCD PUSH1 0xE5 SHL DUP2 MSTORE PUSH1 0x20 PUSH1 0x4 DUP3 ADD DUP2 SWAP1 MSTORE PUSH1 0x24 DUP3 ADD MSTORE PUSH32 0x4552433732313A206D696E7420746F20746865207A65726F2061646472657373 PUSH1 0x44 DUP3 ADD MSTORE PUSH1 0x64 ADD PUSH2 0x7B5 JUMP JUMPDEST PUSH1 0x0 DUP2 DUP2 MSTORE PUSH1 0x2 PUSH1 0x20 MSTORE PUSH1 0x40 SWAP1 KECCAK256 SLOAD PUSH1 0x1 PUSH1 0x1 PUSH1 0xA0 SHL SUB AND ISZERO PUSH2 0x1F61 JUMPI PUSH1 0x40 MLOAD PUSH3 0x461BCD PUSH1 0xE5 SHL DUP2 MSTORE PUSH1 0x20 PUSH1 0x4 DUP3 ADD MSTORE PUSH1 0x1C PUSH1 0x24 DUP3 ADD MSTORE PUSH32 0x4552433732313A20746F6B656E20616C7265616479206D696E74656400000000 PUSH1 0x44 DUP3 ADD MSTORE PUSH1 0x64 ADD PUSH2 0x7B5 JUMP JUMPDEST PUSH2 0x1F6D PUSH1 0x0 DUP4 DUP4 PUSH2 0x1B2A JUMP JUMPDEST PUSH1 0x1 PUSH1 0x1 PUSH1 0xA0 SHL SUB DUP3 AND PUSH1 0x0 SWAP1 DUP2 MSTORE PUSH1 0x3 PUSH1 0x20 MSTORE PUSH1 0x40 DUP2 KECCAK256 DUP1 SLOAD PUSH1 0x1 SWAP3 SWAP1 PUSH2 0x1F96 SWAP1 DUP5 SWAP1 PUSH2 0x25E9 JUMP JUMPDEST SWAP1 SWAP2 SSTORE POP POP PUSH1 0x0 DUP2 DUP2 MSTORE PUSH1 0x2 PUSH1 0x20 MSTORE PUSH1 0x40 DUP1 DUP3 KECCAK256 DUP1 SLOAD PUSH1 0x1 PUSH1 0x1 PUSH1 0xA0 SHL SUB NOT AND PUSH1 0x1 PUSH1 0x1 PUSH1 0xA0 SHL SUB DUP7 AND SWAP1 DUP2 OR SWAP1 SWAP2 SSTORE SWAP1 MLOAD DUP4 SWAP3 SWAP1 PUSH32 0xDDF252AD1BE2C89B69C2B068FC378DAA952BA7F163C4A11628F55A4DF523B3EF SWAP1 DUP3 SWAP1 LOG4 POP POP JUMP JUMPDEST DUP3 DUP1 SLOAD PUSH2 0x2000 SWAP1 PUSH2 0x2519 JUMP JUMPDEST SWAP1 PUSH1 0x0 MSTORE PUSH1 0x20 PUSH1 0x0 KECCAK256 SWAP1 PUSH1 0x1F ADD PUSH1 0x20 SWAP1 DIV DUP2 ADD SWAP3 DUP3 PUSH2 0x2022 JUMPI PUSH1 0x0 DUP6 SSTORE PUSH2 0x2068 JUMP JUMPDEST DUP3 PUSH1 0x1F LT PUSH2 0x203B JUMPI DUP1 MLOAD PUSH1 0xFF NOT AND DUP4 DUP1 ADD OR DUP6 SSTORE PUSH2 0x2068 JUMP JUMPDEST DUP3 DUP1 ADD PUSH1 0x1 ADD DUP6 SSTORE DUP3 ISZERO PUSH2 0x2068 JUMPI SWAP2 DUP3 ADD JUMPDEST DUP3 DUP2 GT ISZERO PUSH2 0x2068 JUMPI DUP3 MLOAD DUP3 SSTORE SWAP2 PUSH1 0x20 ADD SWAP2 SWAP1 PUSH1 0x1 ADD SWAP1 PUSH2 0x204D JUMP JUMPDEST POP PUSH2 0x2074 SWAP3 SWAP2 POP PUSH2 0x20E9 JUMP JUMPDEST POP SWAP1 JUMP JUMPDEST POP DUP1 SLOAD PUSH1 0x0 DUP3 SSTORE SWAP1 PUSH1 0x0 MSTORE PUSH1 0x20 PUSH1 0x0 KECCAK256 SWAP1 DUP2 ADD SWAP1 PUSH2 0xC1C SWAP2 SWAP1 PUSH2 0x20E9 JUMP JUMPDEST DUP3 DUP1 SLOAD DUP3 DUP3 SSTORE SWAP1 PUSH1 0x0 MSTORE PUSH1 0x20 PUSH1 0x0 KECCAK256 SWAP1 DUP2 ADD SWAP3 DUP3 ISZERO PUSH2 0x2068 JUMPI SWAP2 PUSH1 0x20 MUL DUP3 ADD JUMPDEST DUP3 DUP2 GT ISZERO PUSH2 0x2068 JUMPI DUP2 SLOAD PUSH1 0x1 PUSH1 0x1 PUSH1 0xA0 SHL SUB NOT AND PUSH1 0x1 PUSH1 0x1 PUSH1 0xA0 SHL SUB DUP5 CALLDATALOAD AND OR DUP3 SSTORE PUSH1 0x20 SWAP1 SWAP3 ADD SWAP2 PUSH1 0x1 SWAP1 SWAP2 ADD SWAP1 PUSH2 0x20B6 JUMP JUMPDEST JUMPDEST DUP1 DUP3 GT ISZERO PUSH2 0x2074 JUMPI PUSH1 0x0 DUP2 SSTORE PUSH1 0x1 ADD PUSH2 0x20EA JUMP JUMPDEST PUSH1 0x1 PUSH1 0x1 PUSH1 0xE0 SHL SUB NOT DUP2 AND DUP2 EQ PUSH2 0xC1C JUMPI PUSH1 0x0 DUP1 REVERT JUMPDEST PUSH1 0x0 PUSH1 0x20 DUP3 DUP5 SUB SLT ISZERO PUSH2 0x2126 JUMPI PUSH1 0x0 DUP1 REVERT JUMPDEST DUP2 CALLDATALOAD PUSH2 0x14CE DUP2 PUSH2 0x20FE JUMP JUMPDEST DUP1 CALLDATALOAD DUP1 ISZERO ISZERO DUP2 EQ PUSH2 0x2141 JUMPI PUSH1 0x0 DUP1 REVERT JUMPDEST SWAP2 SWAP1 POP JUMP JUMPDEST PUSH1 0x0 PUSH1 0x20 DUP3 DUP5 SUB SLT ISZERO PUSH2 0x2158 JUMPI PUSH1 0x0 DUP1 REVERT JUMPDEST PUSH2 0x14CE DUP3 PUSH2 0x2131 JUMP JUMPDEST PUSH1 0x0 JUMPDEST DUP4 DUP2 LT ISZERO PUSH2 0x217C JUMPI DUP2 DUP2 ADD MLOAD DUP4 DUP3 ADD MSTORE PUSH1 0x20 ADD PUSH2 0x2164 JUMP JUMPDEST DUP4 DUP2 GT ISZERO PUSH2 0x13BA JUMPI POP POP PUSH1 0x0 SWAP2 ADD MSTORE JUMP JUMPDEST PUSH1 0x0 DUP2 MLOAD DUP1 DUP5 MSTORE PUSH2 0x21A5 DUP2 PUSH1 0x20 DUP7 ADD PUSH1 0x20 DUP7 ADD PUSH2 0x2161 JUMP JUMPDEST PUSH1 0x1F ADD PUSH1 0x1F NOT AND SWAP3 SWAP1 SWAP3 ADD PUSH1 0x20 ADD SWAP3 SWAP2 POP POP JUMP JUMPDEST PUSH1 0x20 DUP2 MSTORE PUSH1 0x0 PUSH2 0x14CE PUSH1 0x20 DUP4 ADD DUP5 PUSH2 0x218D JUMP JUMPDEST PUSH1 0x0 PUSH1 0x20 DUP3 DUP5 SUB SLT ISZERO PUSH2 0x21DE JUMPI PUSH1 0x0 DUP1 REVERT JUMPDEST POP CALLDATALOAD SWAP2 SWAP1 POP JUMP JUMPDEST DUP1 CALLDATALOAD PUSH1 0x1 PUSH1 0x1 PUSH1 0xA0 SHL SUB DUP2 AND DUP2 EQ PUSH2 0x2141 JUMPI PUSH1 0x0 DUP1 REVERT JUMPDEST PUSH1 0x0 DUP1 PUSH1 0x40 DUP4 DUP6 SUB SLT ISZERO PUSH2 0x220F JUMPI PUSH1 0x0 DUP1 REVERT JUMPDEST PUSH2 0x2218 DUP4 PUSH2 0x21E5 JUMP JUMPDEST SWAP5 PUSH1 0x20 SWAP4 SWAP1 SWAP4 ADD CALLDATALOAD SWAP4 POP POP POP JUMP JUMPDEST PUSH1 0x0 PUSH1 0x20 DUP3 DUP5 SUB SLT ISZERO PUSH2 0x2238 JUMPI PUSH1 0x0 DUP1 REVERT JUMPDEST PUSH2 0x14CE DUP3 PUSH2 0x21E5 JUMP JUMPDEST PUSH1 0x0 DUP1 PUSH1 0x0 PUSH1 0x60 DUP5 DUP7 SUB SLT ISZERO PUSH2 0x2256 JUMPI PUSH1 0x0 DUP1 REVERT JUMPDEST PUSH2 0x225F DUP5 PUSH2 0x21E5 JUMP JUMPDEST SWAP3 POP PUSH2 0x226D PUSH1 0x20 DUP6 ADD PUSH2 0x21E5 JUMP JUMPDEST SWAP2 POP PUSH1 0x40 DUP5 ADD CALLDATALOAD SWAP1 POP SWAP3 POP SWAP3 POP SWAP3 JUMP JUMPDEST PUSH1 0x20 DUP1 DUP3 MSTORE DUP3 MLOAD DUP3 DUP3 ADD DUP2 SWAP1 MSTORE PUSH1 0x0 SWAP2 SWAP1 DUP5 DUP3 ADD SWAP1 PUSH1 0x40 DUP6 ADD SWAP1 DUP5 JUMPDEST DUP2 DUP2 LT ISZERO PUSH2 0x22B5 JUMPI DUP4 MLOAD DUP4 MSTORE SWAP3 DUP5 ADD SWAP3 SWAP2 DUP5 ADD SWAP2 PUSH1 0x1 ADD PUSH2 0x2299 JUMP JUMPDEST POP SWAP1 SWAP7 SWAP6 POP POP POP POP POP POP JUMP JUMPDEST PUSH4 0x4E487B71 PUSH1 0xE0 SHL PUSH1 0x0 MSTORE PUSH1 0x41 PUSH1 0x4 MSTORE PUSH1 0x24 PUSH1 0x0 REVERT JUMPDEST PUSH1 0x0 PUSH8 0xFFFFFFFFFFFFFFFF DUP1 DUP5 GT ISZERO PUSH2 0x22F2 JUMPI PUSH2 0x22F2 PUSH2 0x22C1 JUMP JUMPDEST PUSH1 0x40 MLOAD PUSH1 0x1F DUP6 ADD PUSH1 0x1F NOT SWAP1 DUP2 AND PUSH1 0x3F ADD AND DUP2 ADD SWAP1 DUP3 DUP3 GT DUP2 DUP4 LT OR ISZERO PUSH2 0x231A JUMPI PUSH2 0x231A PUSH2 0x22C1 JUMP JUMPDEST DUP2 PUSH1 0x40 MSTORE DUP1 SWAP4 POP DUP6 DUP2 MSTORE DUP7 DUP7 DUP7 ADD GT ISZERO PUSH2 0x2333 JUMPI PUSH1 0x0 DUP1 REVERT JUMPDEST DUP6 DUP6 PUSH1 0x20 DUP4 ADD CALLDATACOPY PUSH1 0x0 PUSH1 0x20 DUP8 DUP4 ADD ADD MSTORE POP POP POP SWAP4 SWAP3 POP POP POP JUMP JUMPDEST PUSH1 0x0 PUSH1 0x20 DUP3 DUP5 SUB SLT ISZERO PUSH2 0x235F JUMPI PUSH1 0x0 DUP1 REVERT JUMPDEST DUP2 CALLDATALOAD PUSH8 0xFFFFFFFFFFFFFFFF DUP2 GT ISZERO PUSH2 0x2376 JUMPI PUSH1 0x0 DUP1 REVERT JUMPDEST DUP3 ADD PUSH1 0x1F DUP2 ADD DUP5 SGT PUSH2 0x2387 JUMPI PUSH1 0x0 DUP1 REVERT JUMPDEST PUSH2 0x17C8 DUP5 DUP3 CALLDATALOAD PUSH1 0x20 DUP5 ADD PUSH2 0x22D7 JUMP JUMPDEST PUSH1 0x0 DUP1 PUSH1 0x40 DUP4 DUP6 SUB SLT ISZERO PUSH2 0x23A9 JUMPI PUSH1 0x0 DUP1 REVERT JUMPDEST PUSH2 0x23B2 DUP4 PUSH2 0x21E5 JUMP JUMPDEST SWAP2 POP PUSH2 0x23C0 PUSH1 0x20 DUP5 ADD PUSH2 0x2131 JUMP JUMPDEST SWAP1 POP SWAP3 POP SWAP3 SWAP1 POP JUMP JUMPDEST PUSH1 0x0 DUP1 PUSH1 0x0 DUP1 PUSH1 0x80 DUP6 DUP8 SUB SLT ISZERO PUSH2 0x23DF JUMPI PUSH1 0x0 DUP1 REVERT JUMPDEST PUSH2 0x23E8 DUP6 PUSH2 0x21E5 JUMP JUMPDEST SWAP4 POP PUSH2 0x23F6 PUSH1 0x20 DUP7 ADD PUSH2 0x21E5 JUMP JUMPDEST SWAP3 POP PUSH1 0x40 DUP6 ADD CALLDATALOAD SWAP2 POP PUSH1 0x60 DUP6 ADD CALLDATALOAD PUSH8 0xFFFFFFFFFFFFFFFF DUP2 GT ISZERO PUSH2 0x2419 JUMPI PUSH1 0x0 DUP1 REVERT JUMPDEST DUP6 ADD PUSH1 0x1F DUP2 ADD DUP8 SGT PUSH2 0x242A JUMPI PUSH1 0x0 DUP1 REVERT JUMPDEST PUSH2 0x2439 DUP8 DUP3 CALLDATALOAD PUSH1 0x20 DUP5 ADD PUSH2 0x22D7 JUMP JUMPDEST SWAP2 POP POP SWAP3 SWAP6 SWAP2 SWAP5 POP SWAP3 POP JUMP JUMPDEST PUSH1 0x0 DUP1 PUSH1 0x40 DUP4 DUP6 SUB SLT ISZERO PUSH2 0x2458 JUMPI PUSH1 0x0 DUP1 REVERT JUMPDEST PUSH2 0x2461 DUP4 PUSH2 0x21E5 JUMP JUMPDEST SWAP2 POP PUSH2 0x23C0 PUSH1 0x20 DUP5 ADD PUSH2 0x21E5 JUMP JUMPDEST PUSH1 0x0 DUP1 PUSH1 0x20 DUP4 DUP6 SUB SLT ISZERO PUSH2 0x2482 JUMPI PUSH1 0x0 DUP1 REVERT JUMPDEST DUP3 CALLDATALOAD PUSH8 0xFFFFFFFFFFFFFFFF DUP1 DUP3 GT ISZERO PUSH2 0x249A JUMPI PUSH1 0x0 DUP1 REVERT JUMPDEST DUP2 DUP6 ADD SWAP2 POP DUP6 PUSH1 0x1F DUP4 ADD SLT PUSH2 0x24AE JUMPI PUSH1 0x0 DUP1 REVERT JUMPDEST DUP2 CALLDATALOAD DUP2 DUP2 GT ISZERO PUSH2 0x24BD JUMPI PUSH1 0x0 DUP1 REVERT JUMPDEST DUP7 PUSH1 0x20 DUP3 PUSH1 0x5 SHL DUP6 ADD ADD GT ISZERO PUSH2 0x24D2 JUMPI PUSH1 0x0 DUP1 REVERT JUMPDEST PUSH1 0x20 SWAP3 SWAP1 SWAP3 ADD SWAP7 SWAP2 SWAP6 POP SWAP1 SWAP4 POP POP POP POP JUMP JUMPDEST PUSH1 0x20 DUP1 DUP3 MSTORE DUP2 DUP2 ADD MSTORE PUSH32 0x4F776E61626C653A2063616C6C6572206973206E6F7420746865206F776E6572 PUSH1 0x40 DUP3 ADD MSTORE PUSH1 0x60 ADD SWAP1 JUMP JUMPDEST PUSH1 0x1 DUP2 DUP2 SHR SWAP1 DUP3 AND DUP1 PUSH2 0x252D JUMPI PUSH1 0x7F DUP3 AND SWAP2 POP JUMPDEST PUSH1 0x20 DUP3 LT DUP2 SUB PUSH2 0x254D JUMPI PUSH4 0x4E487B71 PUSH1 0xE0 SHL PUSH1 0x0 MSTORE PUSH1 0x22 PUSH1 0x4 MSTORE PUSH1 0x24 PUSH1 0x0 REVERT JUMPDEST POP SWAP2 SWAP1 POP JUMP JUMPDEST PUSH1 0x20 DUP1 DUP3 MSTORE PUSH1 0x31 SWAP1 DUP3 ADD MSTORE PUSH32 0x4552433732313A207472616E736665722063616C6C6572206973206E6F74206F PUSH1 0x40 DUP3 ADD MSTORE PUSH17 0x1DDB995C881B9BDC88185C1C1C9BDD9959 PUSH1 0x7A SHL PUSH1 0x60 DUP3 ADD MSTORE PUSH1 0x80 ADD SWAP1 JUMP JUMPDEST PUSH4 0x4E487B71 PUSH1 0xE0 SHL PUSH1 0x0 MSTORE PUSH1 0x32 PUSH1 0x4 MSTORE PUSH1 0x24 PUSH1 0x0 REVERT JUMPDEST PUSH4 0x4E487B71 PUSH1 0xE0 SHL PUSH1 0x0 MSTORE PUSH1 0x11 PUSH1 0x4 MSTORE PUSH1 0x24 PUSH1 0x0 REVERT JUMPDEST PUSH1 0x0 PUSH1 0x1 DUP3 ADD PUSH2 0x25E2 JUMPI PUSH2 0x25E2 PUSH2 0x25BA JUMP JUMPDEST POP PUSH1 0x1 ADD SWAP1 JUMP JUMPDEST PUSH1 0x0 DUP3 NOT DUP3 GT ISZERO PUSH2 0x25FC JUMPI PUSH2 0x25FC PUSH2 0x25BA JUMP JUMPDEST POP ADD SWAP1 JUMP JUMPDEST PUSH1 0x0 DUP2 PUSH1 0x0 NOT DIV DUP4 GT DUP3 ISZERO ISZERO AND ISZERO PUSH2 0x261B JUMPI PUSH2 0x261B PUSH2 0x25BA JUMP JUMPDEST POP MUL SWAP1 JUMP JUMPDEST PUSH1 0x0 DUP5 MLOAD PUSH1 0x20 PUSH2 0x2633 DUP3 DUP6 DUP4 DUP11 ADD PUSH2 0x2161 JUMP JUMPDEST DUP6 MLOAD SWAP2 DUP5 ADD SWAP2 PUSH2 0x2646 DUP2 DUP5 DUP5 DUP11 ADD PUSH2 0x2161 JUMP JUMPDEST DUP6 SLOAD SWAP3 ADD SWAP2 PUSH1 0x0 SWAP1 PUSH1 0x1 DUP2 DUP2 SHR SWAP1 DUP1 DUP4 AND DUP1 PUSH2 0x2663 JUMPI PUSH1 0x7F DUP4 AND SWAP3 POP JUMPDEST DUP6 DUP4 LT DUP2 SUB PUSH2 0x2680 JUMPI PUSH4 0x4E487B71 PUSH1 0xE0 SHL DUP6 MSTORE PUSH1 0x22 PUSH1 0x4 MSTORE PUSH1 0x24 DUP6 REVERT JUMPDEST DUP1 DUP1 ISZERO PUSH2 0x2694 JUMPI PUSH1 0x1 DUP2 EQ PUSH2 0x26A5 JUMPI PUSH2 0x26D2 JUMP JUMPDEST PUSH1 0xFF NOT DUP6 AND DUP9 MSTORE DUP4 DUP9 ADD SWAP6 POP PUSH2 0x26D2 JUMP JUMPDEST PUSH1 0x0 DUP12 DUP2 MSTORE PUSH1 0x20 SWAP1 KECCAK256 PUSH1 0x0 JUMPDEST DUP6 DUP2 LT ISZERO PUSH2 0x26CA JUMPI DUP2 SLOAD DUP11 DUP3 ADD MSTORE SWAP1 DUP5 ADD SWAP1 DUP9 ADD PUSH2 0x26B1 JUMP JUMPDEST POP POP DUP4 DUP9 ADD SWAP6 POP JUMPDEST POP SWAP4 SWAP12 SWAP11 POP POP POP POP POP POP POP POP POP POP POP JUMP JUMPDEST PUSH1 0x0 DUP3 DUP3 LT ISZERO PUSH2 0x26F5 JUMPI PUSH2 0x26F5 PUSH2 0x25BA JUMP JUMPDEST POP SUB SWAP1 JUMP JUMPDEST PUSH1 0x20 DUP1 DUP3 MSTORE PUSH1 0x32 SWAP1 DUP3 ADD MSTORE PUSH32 0x4552433732313A207472616E7366657220746F206E6F6E204552433732315265 PUSH1 0x40 DUP3 ADD MSTORE PUSH18 0x31B2B4BB32B91034B6B83632B6B2B73A32B9 PUSH1 0x71 SHL PUSH1 0x60 DUP3 ADD MSTORE PUSH1 0x80 ADD SWAP1 JUMP JUMPDEST PUSH4 0x4E487B71 PUSH1 0xE0 SHL PUSH1 0x0 MSTORE PUSH1 0x12 PUSH1 0x4 MSTORE PUSH1 0x24 PUSH1 0x0 REVERT JUMPDEST PUSH1 0x0 DUP3 PUSH2 0x2771 JUMPI PUSH2 0x2771 PUSH2 0x274C JUMP JUMPDEST POP DIV SWAP1 JUMP JUMPDEST PUSH1 0x0 DUP3 PUSH2 0x2785 JUMPI PUSH2 0x2785 PUSH2 0x274C JUMP JUMPDEST POP MOD SWAP1 JUMP JUMPDEST PUSH1 0x1 PUSH1 0x1 PUSH1 0xA0 SHL SUB DUP6 DUP2 AND DUP3 MSTORE DUP5 AND PUSH1 0x20 DUP3 ADD MSTORE PUSH1 0x40 DUP2 ADD DUP4 SWAP1 MSTORE PUSH1 0x80 PUSH1 0x60 DUP3 ADD DUP2 SWAP1 MSTORE PUSH1 0x0 SWAP1 PUSH2 0x27BD SWAP1 DUP4 ADD DUP5 PUSH2 0x218D JUMP JUMPDEST SWAP7 SWAP6 POP POP POP POP POP POP JUMP JUMPDEST PUSH1 0x0 PUSH1 0x20 DUP3 DUP5 SUB SLT ISZERO PUSH2 0x27D9 JUMPI PUSH1 0x0 DUP1 REVERT JUMPDEST DUP2 MLOAD PUSH2 0x14CE DUP2 PUSH2 0x20FE JUMP JUMPDEST PUSH4 0x4E487B71 PUSH1 0xE0 SHL PUSH1 0x0 MSTORE PUSH1 0x31 PUSH1 0x4 MSTORE PUSH1 0x24 PUSH1 0x0 REVERT INVALID LOG2 PUSH5 0x6970667358 0x22 SLT KECCAK256 CALLVALUE 0x5D 0xCF ADDRESS INVALID CALLER PUSH17 0xAB3DCBF2EB26311C171E5F1C161F302E96 0xDC 0xCD 0xE3 PUSH24 0xB154489C64736F6C634300080E0033000000000000000000 "
				},
				"gasEstimates": {
					"creation": {
						"codeDepositCost": "2057600",
						"executionCost": "infinite",
						"totalCost": "infinite"
					},
					"external": {
						"addressMintedBalance(address)": "2609",
						"approve(address,uint256)": "infinite",
						"balanceOf(address)": "2679",
						"baseExtension()": "infinite",
						"baseURI()": "infinite",
						"cost()": "2341",
						"getApproved(uint256)": "4805",
						"isApprovedForAll(address,address)": "infinite",
						"isWhitelisted(address)": "infinite",
						"maxMintAmount()": "2407",
						"maxSupply()": "2361",
						"mint(uint256)": "infinite",
						"name()": "infinite",
						"nftPerAddressLimit()": "2384",
						"onlyWhitelisted()": "2399",
						"owner()": "2376",
						"ownerOf(uint256)": "2602",
						"pause(bool)": "26738",
						"paused()": "2432",
						"renounceOwnership()": "28229",
						"safeTransferFrom(address,address,uint256)": "infinite",
						"safeTransferFrom(address,address,uint256,bytes)": "infinite",
						"setApprovalForAll(address,bool)": "infinite",
						"setBaseExtension(string)": "infinite",
						"setBaseURI(string)": "infinite",
						"setCost(uint256)": "24531",
						"setNftPerAddressLimit(uint256)": "24508",
						"setOnlyWhitelisted(bool)": "26773",
						"setmaxMintAmount(uint256)": "24598",
						"supportsInterface(bytes4)": "infinite",
						"symbol()": "infinite",
						"tokenByIndex(uint256)": "6804",
						"tokenOfOwnerByIndex(address,uint256)": "4976",
						"tokenURI(uint256)": "infinite",
						"totalSupply()": "2360",
						"transferFrom(address,address,uint256)": "infinite",
						"transferOwnership(address)": "28466",
						"walletOfOwner(address)": "infinite",
						"whitelistUsers(address[])": "infinite",
						"whitelistedAddresses(uint256)": "4681",
						"withdraw()": "infinite"
					},
					"internal": {
						"_baseURI()": "infinite"
					}
				},
				"methodIdentifiers": {
					"addressMintedBalance(address)": "18cae269",
					"approve(address,uint256)": "095ea7b3",
					"balanceOf(address)": "70a08231",
					"baseExtension()": "c6682862",
					"baseURI()": "6c0360eb",
					"cost()": "13faede6",
					"getApproved(uint256)": "081812fc",
					"isApprovedForAll(address,address)": "e985e9c5",
					"isWhitelisted(address)": "3af32abf",
					"maxMintAmount()": "239c70ae",
					"maxSupply()": "d5abeb01",
					"mint(uint256)": "a0712d68",
					"name()": "06fdde03",
					"nftPerAddressLimit()": "ba7d2c76",
					"onlyWhitelisted()": "9c70b512",
					"owner()": "8da5cb5b",
					"ownerOf(uint256)": "6352211e",
					"pause(bool)": "02329a29",
					"paused()": "5c975abb",
					"renounceOwnership()": "715018a6",
					"safeTransferFrom(address,address,uint256)": "42842e0e",
					"safeTransferFrom(address,address,uint256,bytes)": "b88d4fde",
					"setApprovalForAll(address,bool)": "a22cb465",
					"setBaseExtension(string)": "da3ef23f",
					"setBaseURI(string)": "55f804b3",
					"setCost(uint256)": "44a0d68a",
					"setNftPerAddressLimit(uint256)": "d0eb26b0",
					"setOnlyWhitelisted(bool)": "3c952764",
					"setmaxMintAmount(uint256)": "7f00c7a6",
					"supportsInterface(bytes4)": "01ffc9a7",
					"symbol()": "95d89b41",
					"tokenByIndex(uint256)": "4f6ccce7",
					"tokenOfOwnerByIndex(address,uint256)": "2f745c59",
					"tokenURI(uint256)": "c87b56dd",
					"totalSupply()": "18160ddd",
					"transferFrom(address,address,uint256)": "23b872dd",
					"transferOwnership(address)": "f2fde38b",
					"walletOfOwner(address)": "438b6300",
					"whitelistUsers(address[])": "edec5f27",
					"whitelistedAddresses(uint256)": "ba4e5c49",
					"withdraw()": "3ccfd60b"
				}
			},
			"storageLayout": {
				"storage": [
					{
						"astId": 717,
						"contract": "Contracts/ERC721.sol:NFT",
						"label": "_name",
						"offset": 0,
						"slot": "0",
						"type": "t_string_storage"
					},
					{
						"astId": 719,
						"contract": "Contracts/ERC721.sol:NFT",
						"label": "_symbol",
						"offset": 0,
						"slot": "1",
						"type": "t_string_storage"
					},
					{
						"astId": 723,
						"contract": "Contracts/ERC721.sol:NFT",
						"label": "_owners",
						"offset": 0,
						"slot": "2",
						"type": "t_mapping(t_uint256,t_address)"
					},
					{
						"astId": 727,
						"contract": "Contracts/ERC721.sol:NFT",
						"label": "_balances",
						"offset": 0,
						"slot": "3",
						"type": "t_mapping(t_address,t_uint256)"
					},
					{
						"astId": 731,
						"contract": "Contracts/ERC721.sol:NFT",
						"label": "_tokenApprovals",
						"offset": 0,
						"slot": "4",
						"type": "t_mapping(t_uint256,t_address)"
					},
					{
						"astId": 737,
						"contract": "Contracts/ERC721.sol:NFT",
						"label": "_operatorApprovals",
						"offset": 0,
						"slot": "5",
						"type": "t_mapping(t_address,t_mapping(t_address,t_bool))"
					},
					{
						"astId": 1508,
						"contract": "Contracts/ERC721.sol:NFT",
						"label": "_ownedTokens",
						"offset": 0,
						"slot": "6",
						"type": "t_mapping(t_address,t_mapping(t_uint256,t_uint256))"
					},
					{
						"astId": 1512,
						"contract": "Contracts/ERC721.sol:NFT",
						"label": "_ownedTokensIndex",
						"offset": 0,
						"slot": "7",
						"type": "t_mapping(t_uint256,t_uint256)"
					},
					{
						"astId": 1515,
						"contract": "Contracts/ERC721.sol:NFT",
						"label": "_allTokens",
						"offset": 0,
						"slot": "8",
						"type": "t_array(t_uint256)dyn_storage"
					},
					{
						"astId": 1519,
						"contract": "Contracts/ERC721.sol:NFT",
						"label": "_allTokensIndex",
						"offset": 0,
						"slot": "9",
						"type": "t_mapping(t_uint256,t_uint256)"
					},
					{
						"astId": 1831,
						"contract": "Contracts/ERC721.sol:NFT",
						"label": "_owner",
						"offset": 0,
						"slot": "10",
						"type": "t_address"
					},
					{
						"astId": 1934,
						"contract": "Contracts/ERC721.sol:NFT",
						"label": "baseURI",
						"offset": 0,
						"slot": "11",
						"type": "t_string_storage"
					},
					{
						"astId": 1937,
						"contract": "Contracts/ERC721.sol:NFT",
						"label": "baseExtension",
						"offset": 0,
						"slot": "12",
						"type": "t_string_storage"
					},
					{
						"astId": 1940,
						"contract": "Contracts/ERC721.sol:NFT",
						"label": "cost",
						"offset": 0,
						"slot": "13",
						"type": "t_uint256"
					},
					{
						"astId": 1943,
						"contract": "Contracts/ERC721.sol:NFT",
						"label": "maxSupply",
						"offset": 0,
						"slot": "14",
						"type": "t_uint256"
					},
					{
						"astId": 1946,
						"contract": "Contracts/ERC721.sol:NFT",
						"label": "maxMintAmount",
						"offset": 0,
						"slot": "15",
						"type": "t_uint256"
					},
					{
						"astId": 1949,
						"contract": "Contracts/ERC721.sol:NFT",
						"label": "nftPerAddressLimit",
						"offset": 0,
						"slot": "16",
						"type": "t_uint256"
					},
					{
						"astId": 1952,
						"contract": "Contracts/ERC721.sol:NFT",
						"label": "paused",
						"offset": 0,
						"slot": "17",
						"type": "t_bool"
					},
					{
						"astId": 1955,
						"contract": "Contracts/ERC721.sol:NFT",
						"label": "onlyWhitelisted",
						"offset": 1,
						"slot": "17",
						"type": "t_bool"
					},
					{
						"astId": 1958,
						"contract": "Contracts/ERC721.sol:NFT",
						"label": "whitelistedAddresses",
						"offset": 0,
						"slot": "18",
						"type": "t_array(t_address)dyn_storage"
					},
					{
						"astId": 1962,
						"contract": "Contracts/ERC721.sol:NFT",
						"label": "addressMintedBalance",
						"offset": 0,
						"slot": "19",
						"type": "t_mapping(t_address,t_uint256)"
					}
				],
				"types": {
					"t_address": {
						"encoding": "inplace",
						"label": "address",
						"numberOfBytes": "20"
					},
					"t_array(t_address)dyn_storage": {
						"base": "t_address",
						"encoding": "dynamic_array",
						"label": "address[]",
						"numberOfBytes": "32"
					},
					"t_array(t_uint256)dyn_storage": {
						"base": "t_uint256",
						"encoding": "dynamic_array",
						"label": "uint256[]",
						"numberOfBytes": "32"
					},
					"t_bool": {
						"encoding": "inplace",
						"label": "bool",
						"numberOfBytes": "1"
					},
					"t_mapping(t_address,t_bool)": {
						"encoding": "mapping",
						"key": "t_address",
						"label": "mapping(address => bool)",
						"numberOfBytes": "32",
						"value": "t_bool"
					},
					"t_mapping(t_address,t_mapping(t_address,t_bool))": {
						"encoding": "mapping",
						"key": "t_address",
						"label": "mapping(address => mapping(address => bool))",
						"numberOfBytes": "32",
						"value": "t_mapping(t_address,t_bool)"
					},
					"t_mapping(t_address,t_mapping(t_uint256,t_uint256))": {
						"encoding": "mapping",
						"key": "t_address",
						"label": "mapping(address => mapping(uint256 => uint256))",
						"numberOfBytes": "32",
						"value": "t_mapping(t_uint256,t_uint256)"
					},
					"t_mapping(t_address,t_uint256)": {
						"encoding": "mapping",
						"key": "t_address",
						"label": "mapping(address => uint256)",
						"numberOfBytes": "32",
						"value": "t_uint256"
					},
					"t_mapping(t_uint256,t_address)": {
						"encoding": "mapping",
						"key": "t_uint256",
						"label": "mapping(uint256 => address)",
						"numberOfBytes": "32",
						"value": "t_address"
					},
					"t_mapping(t_uint256,t_uint256)": {
						"encoding": "mapping",
						"key": "t_uint256",
						"label": "mapping(uint256 => uint256)",
						"numberOfBytes": "32",
						"value": "t_uint256"
					},
					"t_string_storage": {
						"encoding": "bytes",
						"label": "string",
						"numberOfBytes": "32"
					},
					"t_uint256": {
						"encoding": "inplace",
						"label": "uint256",
						"numberOfBytes": "32"
					}
				}
			},
			"userdoc": {
				"kind": "user",
				"methods": {},
				"version": 1
			}
		}
	}
}